{
  "_format": "hh-sol-artifact-1",
  "contractName": "TaxToken",
  "sourceName": "contracts/mock/TaxToken.sol",
  "abi": [
    {
      "inputs": [
        {
          "internalType": "uint256",
          "name": "initialSupply",
          "type": "uint256"
        }
      ],
      "stateMutability": "nonpayable",
      "type": "constructor"
    },
    {
      "inputs": [
        {
          "internalType": "address",
          "name": "spender",
          "type": "address"
        },
        {
          "internalType": "uint256",
          "name": "allowance",
          "type": "uint256"
        },
        {
          "internalType": "uint256",
          "name": "needed",
          "type": "uint256"
        }
      ],
      "name": "ERC20InsufficientAllowance",
      "type": "error"
    },
    {
      "inputs": [
        {
          "internalType": "address",
          "name": "sender",
          "type": "address"
        },
        {
          "internalType": "uint256",
          "name": "balance",
          "type": "uint256"
        },
        {
          "internalType": "uint256",
          "name": "needed",
          "type": "uint256"
        }
      ],
      "name": "ERC20InsufficientBalance",
      "type": "error"
    },
    {
      "inputs": [
        {
          "internalType": "address",
          "name": "approver",
          "type": "address"
        }
      ],
      "name": "ERC20InvalidApprover",
      "type": "error"
    },
    {
      "inputs": [
        {
          "internalType": "address",
          "name": "receiver",
          "type": "address"
        }
      ],
      "name": "ERC20InvalidReceiver",
      "type": "error"
    },
    {
      "inputs": [
        {
          "internalType": "address",
          "name": "sender",
          "type": "address"
        }
      ],
      "name": "ERC20InvalidSender",
      "type": "error"
    },
    {
      "inputs": [
        {
          "internalType": "address",
          "name": "spender",
          "type": "address"
        }
      ],
      "name": "ERC20InvalidSpender",
      "type": "error"
    },
    {
      "anonymous": false,
      "inputs": [
        {
          "indexed": true,
          "internalType": "address",
          "name": "owner",
          "type": "address"
        },
        {
          "indexed": true,
          "internalType": "address",
          "name": "spender",
          "type": "address"
        },
        {
          "indexed": false,
          "internalType": "uint256",
          "name": "value",
          "type": "uint256"
        }
      ],
      "name": "Approval",
      "type": "event"
    },
    {
      "anonymous": false,
      "inputs": [
        {
          "indexed": true,
          "internalType": "address",
          "name": "from",
          "type": "address"
        },
        {
          "indexed": true,
          "internalType": "address",
          "name": "to",
          "type": "address"
        },
        {
          "indexed": false,
          "internalType": "uint256",
          "name": "value",
          "type": "uint256"
        }
      ],
      "name": "Transfer",
      "type": "event"
    },
    {
      "inputs": [
        {
          "internalType": "address",
          "name": "owner",
          "type": "address"
        },
        {
          "internalType": "address",
          "name": "spender",
          "type": "address"
        }
      ],
      "name": "allowance",
      "outputs": [
        {
          "internalType": "uint256",
          "name": "",
          "type": "uint256"
        }
      ],
      "stateMutability": "view",
      "type": "function"
    },
    {
      "inputs": [
        {
          "internalType": "address",
          "name": "spender",
          "type": "address"
        },
        {
          "internalType": "uint256",
          "name": "value",
          "type": "uint256"
        }
      ],
      "name": "approve",
      "outputs": [
        {
          "internalType": "bool",
          "name": "",
          "type": "bool"
        }
      ],
      "stateMutability": "nonpayable",
      "type": "function"
    },
    {
      "inputs": [
        {
          "internalType": "address",
          "name": "account",
          "type": "address"
        }
      ],
      "name": "balanceOf",
      "outputs": [
        {
          "internalType": "uint256",
          "name": "",
          "type": "uint256"
        }
      ],
      "stateMutability": "view",
      "type": "function"
    },
    {
      "inputs": [],
      "name": "decimals",
      "outputs": [
        {
          "internalType": "uint8",
          "name": "",
          "type": "uint8"
        }
      ],
      "stateMutability": "view",
      "type": "function"
    },
    {
      "inputs": [],
      "name": "fund",
      "outputs": [
        {
          "internalType": "address",
          "name": "",
          "type": "address"
        }
      ],
      "stateMutability": "view",
      "type": "function"
    },
    {
      "inputs": [],
      "name": "name",
      "outputs": [
        {
          "internalType": "string",
          "name": "",
          "type": "string"
        }
      ],
      "stateMutability": "view",
      "type": "function"
    },
    {
      "inputs": [],
      "name": "symbol",
      "outputs": [
        {
          "internalType": "string",
          "name": "",
          "type": "string"
        }
      ],
      "stateMutability": "view",
      "type": "function"
    },
    {
      "inputs": [],
      "name": "totalSupply",
      "outputs": [
        {
          "internalType": "uint256",
          "name": "",
          "type": "uint256"
        }
      ],
      "stateMutability": "view",
      "type": "function"
    },
    {
      "inputs": [
        {
          "internalType": "address",
          "name": "to",
          "type": "address"
        },
        {
          "internalType": "uint256",
          "name": "value",
          "type": "uint256"
        }
      ],
      "name": "transfer",
      "outputs": [
        {
          "internalType": "bool",
          "name": "",
          "type": "bool"
        }
      ],
      "stateMutability": "nonpayable",
      "type": "function"
    },
    {
      "inputs": [
        {
          "internalType": "address",
          "name": "from",
          "type": "address"
        },
        {
          "internalType": "address",
          "name": "to",
          "type": "address"
        },
        {
          "internalType": "uint256",
          "name": "value",
          "type": "uint256"
        }
      ],
      "name": "transferFrom",
      "outputs": [
        {
          "internalType": "bool",
          "name": "",
          "type": "bool"
        }
      ],
      "stateMutability": "nonpayable",
      "type": "function"
    }
  ],
  "bytecode": "0x60a034620003cf57601f601f196001600160401b0362001023388190038481018416860183811187821017620003d457869282916040528339602095869181010312620003cf57519362000052620003ea565b60088152672a30bc2a37b5b2b760c11b8282015262000070620003ea565b94600495868152631510561560e21b84820152825193858511620002d5576003948554946001958681811c91168015620003c4575b84821014620003af5790818684931162000359575b508390868311600114620002f657600092620002ea575b505060001982881b1c191690851b1785555b8151958611620002d55787548481811c91168015620002ca575b82821014620002b5578381116200026a575b5080928611600114620001fe575084955090849291600095620001f2575b50501b92600019911b1c19161781555b336080523315620001da576103e8808302908382041483151715620001c557612710900490818303928311620001b057506200017e6200019092336200040a565b6080516001600160a01b03166200040a565b604051610b8d9081620004968239608051818181610153015261096c0152f35b601190634e487b7160e01b6000525260246000fd5b601182634e487b7160e01b6000525260246000fd5b60249060006040519163ec442f0560e01b8352820152fd5b0151935038806200012d565b939295859081168860005285600020956000905b898383106200024f575050501062000234575b50505050811b0181556200013d565b01519060f884600019921b161c191690553880808062000225565b85870151895590970196948501948893509081019062000212565b88600052816000208480890160051c820192848a10620002ab575b0160051c019085905b8281106200029e5750506200010f565b600081550185906200028e565b9250819262000285565b602289634e487b7160e01b6000525260246000fd5b90607f1690620000fd565b604188634e487b7160e01b6000525260246000fd5b015190503880620000d1565b908a8894169189600052856000209260005b8782821062000342575050841162000329575b505050811b018555620000e3565b0151600019838a1b60f8161c191690553880806200031b565b8385015186558b9790950194938401930162000308565b90915087600052836000208680850160051c820192868610620003a5575b918991869594930160051c01915b82811062000395575050620000ba565b6000815585945089910162000385565b9250819262000377565b60228b634e487b7160e01b6000525260246000fd5b90607f1690620000a5565b600080fd5b634e487b7160e01b600052604160045260246000fd5b60408051919082016001600160401b03811183821017620003d457604052565b600254908282018092116200047f576002919091556001600160a01b0316906000907fddf252ad1be2c89b69c2b068fc378daa952ba7f163c4a11628f55a4df523b3ef9060209084620004695780600254036002555b604051908152a3565b8484528382526040842081815401905562000460565b634e487b7160e01b600052601160045260246000fdfe608060408181526004918236101561001657600080fd5b600092833560e01c91826306fdde031461072657508163095ea7b31461061d57816318160ddd146105e057816323b872dd14610456578163313ce5671461041c57816370a08231146103bb57816395d89b41146101c557508063a9059cbb14610177578063b60d4288146101095763dd62ed3e1461009357600080fd5b3461010557807ffffffffffffffffffffffffffffffffffffffffffffffffffffffffffffffffc36011261010557806020926100cd6108ca565b6100d56108f2565b73ffffffffffffffffffffffffffffffffffffffff91821683526001865283832091168252845220549051908152f35b5080fd5b503461010557817ffffffffffffffffffffffffffffffffffffffffffffffffffffffffffffffffc360112610105576020905173ffffffffffffffffffffffffffffffffffffffff7f0000000000000000000000000000000000000000000000000000000000000000168152f35b503461010557807ffffffffffffffffffffffffffffffffffffffffffffffffffffffffffffffffc360112610105576020906101be6101b46108ca565b6024359033610915565b5160018152f35b83833461010557817ffffffffffffffffffffffffffffffffffffffffffffffffffffffffffffffffc36011261010557805190828454600181811c908083169283156103b1575b602093848410811461038557838852879594939291811561032a57506001146102ae575b50505003601f017fffffffffffffffffffffffffffffffffffffffffffffffffffffffffffffffe01682019267ffffffffffffffff841183851017610282575082918261027e925282610864565b0390f35b806041867f4e487b71000000000000000000000000000000000000000000000000000000006024945252fd5b8888529193925086917f8a35acfbc15ff81a39ae7d344fd709f28e8600b4aa8c65c6b64bfe7fe36bd19b5b82841061031457505050907fffffffffffffffffffffffffffffffffffffffffffffffffffffffffffffffe092601f92820101918193610230565b80548885018701528794509285019281016102d9565b7fffffffffffffffffffffffffffffffffffffffffffffffffffffffffffffff0016848701525050151560051b830101905081601f7fffffffffffffffffffffffffffffffffffffffffffffffffffffffffffffffe0610230565b60248960228c7f4e487b7100000000000000000000000000000000000000000000000000000000835252fd5b91607f169161020c565b5050346101055760207ffffffffffffffffffffffffffffffffffffffffffffffffffffffffffffffffc360112610105578060209273ffffffffffffffffffffffffffffffffffffffff61040d6108ca565b16815280845220549051908152f35b50503461010557817ffffffffffffffffffffffffffffffffffffffffffffffffffffffffffffffffc360112610105576020905160128152f35b905082346105dd5760607ffffffffffffffffffffffffffffffffffffffffffffffffffffffffffffffffc3601126105dd576104906108ca565b6104986108f2565b916044359373ffffffffffffffffffffffffffffffffffffffff8316808352600160205286832033845260205286832054917fffffffffffffffffffffffffffffffffffffffffffffffffffffffffffffffff8303610500575b6020886101be898989610915565b86831061059857811561056957331561053a575082526001602090815286832033845281529186902090859003905582906101be876104f2565b602490848951917f94280d62000000000000000000000000000000000000000000000000000000008352820152fd5b602490848951917fe602df05000000000000000000000000000000000000000000000000000000008352820152fd5b87517ffb8f41b2000000000000000000000000000000000000000000000000000000008152339181019182526020820193909352604081018790528291506060010390fd5b80fd5b50503461010557817ffffffffffffffffffffffffffffffffffffffffffffffffffffffffffffffffc360112610105576020906002549051908152f35b90503461072257817ffffffffffffffffffffffffffffffffffffffffffffffffffffffffffffffffc360112610722576106556108ca565b6024359033156106f35773ffffffffffffffffffffffffffffffffffffffff169182156106c457508083602095338152600187528181208582528752205582519081527f8c5be1e5ebec7d5bd14f71427d1e84f3dd0314c0f7b2291e5b200ac8c7c3b925843392a35160018152f35b602490858551917f94280d62000000000000000000000000000000000000000000000000000000008352820152fd5b602483868651917fe602df05000000000000000000000000000000000000000000000000000000008352820152fd5b8280fd5b8490843461072257827ffffffffffffffffffffffffffffffffffffffffffffffffffffffffffffffffc3601126107225782600354600181811c9080831692831561085a575b602093848410811461038557838852879594939291811561032a57506001146107dd5750505003601f017fffffffffffffffffffffffffffffffffffffffffffffffffffffffffffffffe01682019267ffffffffffffffff841183851017610282575082918261027e925282610864565b600388529193925086917fc2575a0e9e593c00f959f8c92f12db2869c3395a3b0502d05e2516446f71f85b5b82841061084457505050907fffffffffffffffffffffffffffffffffffffffffffffffffffffffffffffffe092601f92820101918193610230565b8054888501870152879450928501928101610809565b91607f169161076c565b60208082528251818301819052939260005b8581106108b6575050507fffffffffffffffffffffffffffffffffffffffffffffffffffffffffffffffe0601f8460006040809697860101520116010190565b818101830151848201604001528201610876565b6004359073ffffffffffffffffffffffffffffffffffffffff821682036108ed57565b600080fd5b6024359073ffffffffffffffffffffffffffffffffffffffff821682036108ed57565b73ffffffffffffffffffffffffffffffffffffffff808216156109f3578216156109c2576103e880840290848204148415171561099357612710900491828403938411610993576109919361096a9183610a24565b7f000000000000000000000000000000000000000000000000000000000000000090610a24565b565b7f4e487b7100000000000000000000000000000000000000000000000000000000600052601160045260246000fd5b60246040517fec442f0500000000000000000000000000000000000000000000000000000000815260006004820152fd5b60246040517f96c6fd1e00000000000000000000000000000000000000000000000000000000815260006004820152fd5b73ffffffffffffffffffffffffffffffffffffffff80821692909183610aae57509060025490848201809211610993577fddf252ad1be2c89b69c2b068fc378daa952ba7f163c4a11628f55a4df523b3ef926020926002555b169384610a965780600254036002555b604051908152a3565b84600052600082526040600020818154019055610a8d565b60009084825281602052604082205490868210610aff57509181604087602095887fddf252ad1be2c89b69c2b068fc378daa952ba7f163c4a11628f55a4df523b3ef98965283875203912055610a7d565b6040517fe450d38c00000000000000000000000000000000000000000000000000000000815273ffffffffffffffffffffffffffffffffffffffff919091166004820152602481019190915260448101869052606490fdfea2646970667358221220b07d614d990bb7274e05693b747298436868af512a425eb26acb1492b79d08ba64736f6c63430008140033",
  "linkReferences": {},
  "deployedLinkReferences": {}
}