{
  "_format": "hh-sol-artifact-1",
  "contractName": "MCV2_Bond",
  "sourceName": "contracts/MCV2_Bond.sol",
  "abi": [
    {
      "inputs": [
        {
          "internalType": "address",
          "name": "tokenImplementation",
          "type": "address"
        },
        {
          "internalType": "address",
          "name": "multiTokenImplementation",
          "type": "address"
        },
        {
          "internalType": "address",
          "name": "protocolBeneficiary_",
          "type": "address"
        },
        {
          "internalType": "uint256",
          "name": "creationFee_",
          "type": "uint256"
        },
        {
          "internalType": "uint256",
          "name": "maxSteps",
          "type": "uint256"
        }
      ],
      "stateMutability": "nonpayable",
      "type": "constructor"
    },
    {
      "inputs": [
        {
          "internalType": "address",
          "name": "target",
          "type": "address"
        }
      ],
      "name": "AddressEmptyCode",
      "type": "error"
    },
    {
      "inputs": [
        {
          "internalType": "address",
          "name": "account",
          "type": "address"
        }
      ],
      "name": "AddressInsufficientBalance",
      "type": "error"
    },
    {
      "inputs": [],
      "name": "ERC1167FailedCreateClone",
      "type": "error"
    },
    {
      "inputs": [],
      "name": "FailedInnerCall",
      "type": "error"
    },
    {
      "inputs": [],
      "name": "MCV2_BOND__InvalidPaginationParameters",
      "type": "error"
    },
    {
      "inputs": [],
      "name": "MCV2_Bond__CreationFeeTransactionFailed",
      "type": "error"
    },
    {
      "inputs": [],
      "name": "MCV2_Bond__ExceedMaxSupply",
      "type": "error"
    },
    {
      "inputs": [],
      "name": "MCV2_Bond__ExceedTotalSupply",
      "type": "error"
    },
    {
      "inputs": [
        {
          "internalType": "string",
          "name": "reason",
          "type": "string"
        }
      ],
      "name": "MCV2_Bond__InvalidConstructorParams",
      "type": "error"
    },
    {
      "inputs": [],
      "name": "MCV2_Bond__InvalidCreationFee",
      "type": "error"
    },
    {
      "inputs": [],
      "name": "MCV2_Bond__InvalidCreatorAddress",
      "type": "error"
    },
    {
      "inputs": [],
      "name": "MCV2_Bond__InvalidCurrentSupply",
      "type": "error"
    },
    {
      "inputs": [],
      "name": "MCV2_Bond__InvalidReceiver",
      "type": "error"
    },
    {
      "inputs": [
        {
          "internalType": "string",
          "name": "reason",
          "type": "string"
        }
      ],
      "name": "MCV2_Bond__InvalidReserveToken",
      "type": "error"
    },
    {
      "inputs": [
        {
          "internalType": "string",
          "name": "reason",
          "type": "string"
        }
      ],
      "name": "MCV2_Bond__InvalidStepParams",
      "type": "error"
    },
    {
      "inputs": [],
      "name": "MCV2_Bond__InvalidTokenAmount",
      "type": "error"
    },
    {
      "inputs": [
        {
          "internalType": "string",
          "name": "reason",
          "type": "string"
        }
      ],
      "name": "MCV2_Bond__InvalidTokenCreationParams",
      "type": "error"
    },
    {
      "inputs": [],
      "name": "MCV2_Bond__PermissionDenied",
      "type": "error"
    },
    {
      "inputs": [],
      "name": "MCV2_Bond__SlippageLimitExceeded",
      "type": "error"
    },
    {
      "inputs": [],
      "name": "MCV2_Bond__TokenNotFound",
      "type": "error"
    },
    {
      "inputs": [],
      "name": "MCV2_Bond__TokenSymbolAlreadyExists",
      "type": "error"
    },
    {
      "inputs": [],
      "name": "MCV2_Royalty__InvalidParams",
      "type": "error"
    },
    {
      "inputs": [],
      "name": "MCV2_Royalty__NothingToClaim",
      "type": "error"
    },
    {
      "inputs": [
        {
          "internalType": "address",
          "name": "owner",
          "type": "address"
        }
      ],
      "name": "OwnableInvalidOwner",
      "type": "error"
    },
    {
      "inputs": [
        {
          "internalType": "address",
          "name": "account",
          "type": "address"
        }
      ],
      "name": "OwnableUnauthorizedAccount",
      "type": "error"
    },
    {
      "inputs": [
        {
          "internalType": "uint8",
          "name": "bits",
          "type": "uint8"
        },
        {
          "internalType": "uint256",
          "name": "value",
          "type": "uint256"
        }
      ],
      "name": "SafeCastOverflowedUintDowncast",
      "type": "error"
    },
    {
      "inputs": [
        {
          "internalType": "address",
          "name": "token",
          "type": "address"
        }
      ],
      "name": "SafeERC20FailedOperation",
      "type": "error"
    },
    {
      "anonymous": false,
      "inputs": [
        {
          "indexed": true,
          "internalType": "address",
          "name": "token",
          "type": "address"
        },
        {
          "indexed": true,
          "internalType": "address",
          "name": "creator",
          "type": "address"
        }
      ],
      "name": "BondCreatorUpdated",
      "type": "event"
    },
    {
      "anonymous": false,
      "inputs": [
        {
          "indexed": true,
          "internalType": "address",
          "name": "token",
          "type": "address"
        },
        {
          "indexed": true,
          "internalType": "address",
          "name": "user",
          "type": "address"
        },
        {
          "indexed": false,
          "internalType": "address",
          "name": "receiver",
          "type": "address"
        },
        {
          "indexed": false,
          "internalType": "uint256",
          "name": "amountBurned",
          "type": "uint256"
        },
        {
          "indexed": true,
          "internalType": "address",
          "name": "reserveToken",
          "type": "address"
        },
        {
          "indexed": false,
          "internalType": "uint256",
          "name": "refundAmount",
          "type": "uint256"
        }
      ],
      "name": "Burn",
      "type": "event"
    },
    {
      "anonymous": false,
      "inputs": [
        {
          "indexed": false,
          "internalType": "uint256",
          "name": "amount",
          "type": "uint256"
        }
      ],
      "name": "CreationFeeUpdated",
      "type": "event"
    },
    {
      "anonymous": false,
      "inputs": [
        {
          "indexed": true,
          "internalType": "address",
          "name": "token",
          "type": "address"
        },
        {
          "indexed": true,
          "internalType": "address",
          "name": "user",
          "type": "address"
        },
        {
          "indexed": false,
          "internalType": "address",
          "name": "receiver",
          "type": "address"
        },
        {
          "indexed": false,
          "internalType": "uint256",
          "name": "amountMinted",
          "type": "uint256"
        },
        {
          "indexed": true,
          "internalType": "address",
          "name": "reserveToken",
          "type": "address"
        },
        {
          "indexed": false,
          "internalType": "uint256",
          "name": "reserveAmount",
          "type": "uint256"
        }
      ],
      "name": "Mint",
      "type": "event"
    },
    {
      "anonymous": false,
      "inputs": [
        {
          "indexed": true,
          "internalType": "address",
          "name": "token",
          "type": "address"
        },
        {
          "indexed": false,
          "internalType": "string",
          "name": "name",
          "type": "string"
        },
        {
          "indexed": false,
          "internalType": "string",
          "name": "symbol",
          "type": "string"
        },
        {
          "indexed": false,
          "internalType": "string",
          "name": "uri",
          "type": "string"
        },
        {
          "indexed": true,
          "internalType": "address",
          "name": "reserveToken",
          "type": "address"
        }
      ],
      "name": "MultiTokenCreated",
      "type": "event"
    },
    {
      "anonymous": false,
      "inputs": [
        {
          "indexed": true,
          "internalType": "address",
          "name": "previousOwner",
          "type": "address"
        },
        {
          "indexed": true,
          "internalType": "address",
          "name": "newOwner",
          "type": "address"
        }
      ],
      "name": "OwnershipTransferred",
      "type": "event"
    },
    {
      "anonymous": false,
      "inputs": [
        {
          "indexed": false,
          "internalType": "address",
          "name": "protocolBeneficiary",
          "type": "address"
        }
      ],
      "name": "ProtocolBeneficiaryUpdated",
      "type": "event"
    },
    {
      "anonymous": false,
      "inputs": [
        {
          "indexed": true,
          "internalType": "address",
          "name": "user",
          "type": "address"
        },
        {
          "indexed": false,
          "internalType": "address",
          "name": "reserveToken",
          "type": "address"
        },
        {
          "indexed": false,
          "internalType": "uint256",
          "name": "amount",
          "type": "uint256"
        }
      ],
      "name": "RoyaltyClaimed",
      "type": "event"
    },
    {
      "anonymous": false,
      "inputs": [
        {
          "indexed": false,
          "internalType": "uint256",
          "name": "ratio",
          "type": "uint256"
        }
      ],
      "name": "RoyaltyRangeUpdated",
      "type": "event"
    },
    {
      "anonymous": false,
      "inputs": [
        {
          "indexed": true,
          "internalType": "address",
          "name": "token",
          "type": "address"
        },
        {
          "indexed": false,
          "internalType": "string",
          "name": "name",
          "type": "string"
        },
        {
          "indexed": false,
          "internalType": "string",
          "name": "symbol",
          "type": "string"
        },
        {
          "indexed": true,
          "internalType": "address",
          "name": "reserveToken",
          "type": "address"
        }
      ],
      "name": "TokenCreated",
      "type": "event"
    },
    {
      "inputs": [],
      "name": "BURN_ADDRESS",
      "outputs": [
        {
          "internalType": "address",
          "name": "",
          "type": "address"
        }
      ],
      "stateMutability": "view",
      "type": "function"
    },
    {
      "inputs": [
        {
          "internalType": "address",
          "name": "token",
          "type": "address"
        },
        {
          "internalType": "uint256",
          "name": "tokensToBurn",
          "type": "uint256"
        },
        {
          "internalType": "uint256",
          "name": "minRefund",
          "type": "uint256"
        },
        {
          "internalType": "address",
          "name": "receiver",
          "type": "address"
        }
      ],
      "name": "burn",
      "outputs": [
        {
          "internalType": "uint256",
          "name": "",
          "type": "uint256"
        }
      ],
      "stateMutability": "nonpayable",
      "type": "function"
    },
    {
      "inputs": [
        {
          "internalType": "address",
          "name": "reserveToken",
          "type": "address"
        }
      ],
      "name": "burnRoyalties",
      "outputs": [],
      "stateMutability": "nonpayable",
      "type": "function"
    },
    {
      "inputs": [
        {
          "internalType": "address",
          "name": "reserveToken",
          "type": "address"
        }
      ],
      "name": "claimRoyalties",
      "outputs": [],
      "stateMutability": "nonpayable",
      "type": "function"
    },
    {
      "inputs": [
        {
          "components": [
            {
              "internalType": "string",
              "name": "name",
              "type": "string"
            },
            {
              "internalType": "string",
              "name": "symbol",
              "type": "string"
            },
            {
              "internalType": "string",
              "name": "uri",
              "type": "string"
            }
          ],
          "internalType": "struct MCV2_Bond.MultiTokenParams",
          "name": "tp",
          "type": "tuple"
        },
        {
          "components": [
            {
              "internalType": "uint16",
              "name": "mintRoyalty",
              "type": "uint16"
            },
            {
              "internalType": "uint16",
              "name": "burnRoyalty",
              "type": "uint16"
            },
            {
              "internalType": "address",
              "name": "reserveToken",
              "type": "address"
            },
            {
              "internalType": "uint128",
              "name": "maxSupply",
              "type": "uint128"
            },
            {
              "internalType": "uint128[]",
              "name": "stepRanges",
              "type": "uint128[]"
            },
            {
              "internalType": "uint128[]",
              "name": "stepPrices",
              "type": "uint128[]"
            }
          ],
          "internalType": "struct MCV2_Bond.BondParams",
          "name": "bp",
          "type": "tuple"
        }
      ],
      "name": "createMultiToken",
      "outputs": [
        {
          "internalType": "address",
          "name": "",
          "type": "address"
        }
      ],
      "stateMutability": "payable",
      "type": "function"
    },
    {
      "inputs": [
        {
          "components": [
            {
              "internalType": "string",
              "name": "name",
              "type": "string"
            },
            {
              "internalType": "string",
              "name": "symbol",
              "type": "string"
            }
          ],
          "internalType": "struct MCV2_Bond.TokenParams",
          "name": "tp",
          "type": "tuple"
        },
        {
          "components": [
            {
              "internalType": "uint16",
              "name": "mintRoyalty",
              "type": "uint16"
            },
            {
              "internalType": "uint16",
              "name": "burnRoyalty",
              "type": "uint16"
            },
            {
              "internalType": "address",
              "name": "reserveToken",
              "type": "address"
            },
            {
              "internalType": "uint128",
              "name": "maxSupply",
              "type": "uint128"
            },
            {
              "internalType": "uint128[]",
              "name": "stepRanges",
              "type": "uint128[]"
            },
            {
              "internalType": "uint128[]",
              "name": "stepPrices",
              "type": "uint128[]"
            }
          ],
          "internalType": "struct MCV2_Bond.BondParams",
          "name": "bp",
          "type": "tuple"
        }
      ],
      "name": "createToken",
      "outputs": [
        {
          "internalType": "address",
          "name": "",
          "type": "address"
        }
      ],
      "stateMutability": "payable",
      "type": "function"
    },
    {
      "inputs": [],
      "name": "creationFee",
      "outputs": [
        {
          "internalType": "uint256",
          "name": "",
          "type": "uint256"
        }
      ],
      "stateMutability": "view",
      "type": "function"
    },
    {
      "inputs": [
        {
          "internalType": "address",
          "name": "token",
          "type": "address"
        }
      ],
      "name": "exists",
      "outputs": [
        {
          "internalType": "bool",
          "name": "",
          "type": "bool"
        }
      ],
      "stateMutability": "view",
      "type": "function"
    },
    {
      "inputs": [
        {
          "internalType": "address",
          "name": "token",
          "type": "address"
        }
      ],
      "name": "getDetail",
      "outputs": [
        {
          "components": [
            {
              "internalType": "uint16",
              "name": "mintRoyalty",
              "type": "uint16"
            },
            {
              "internalType": "uint16",
              "name": "burnRoyalty",
              "type": "uint16"
            },
            {
              "components": [
                {
                  "internalType": "address",
                  "name": "creator",
                  "type": "address"
                },
                {
                  "internalType": "address",
                  "name": "token",
                  "type": "address"
                },
                {
                  "internalType": "uint8",
                  "name": "decimals",
                  "type": "uint8"
                },
                {
                  "internalType": "string",
                  "name": "symbol",
                  "type": "string"
                },
                {
                  "internalType": "string",
                  "name": "name",
                  "type": "string"
                },
                {
                  "internalType": "uint40",
                  "name": "createdAt",
                  "type": "uint40"
                },
                {
                  "internalType": "uint128",
                  "name": "currentSupply",
                  "type": "uint128"
                },
                {
                  "internalType": "uint128",
                  "name": "maxSupply",
                  "type": "uint128"
                },
                {
                  "internalType": "uint128",
                  "name": "priceForNextMint",
                  "type": "uint128"
                },
                {
                  "internalType": "address",
                  "name": "reserveToken",
                  "type": "address"
                },
                {
                  "internalType": "uint8",
                  "name": "reserveDecimals",
                  "type": "uint8"
                },
                {
                  "internalType": "string",
                  "name": "reserveSymbol",
                  "type": "string"
                },
                {
                  "internalType": "string",
                  "name": "reserveName",
                  "type": "string"
                },
                {
                  "internalType": "uint256",
                  "name": "reserveBalance",
                  "type": "uint256"
                }
              ],
              "internalType": "struct MCV2_Bond.BondInfo",
              "name": "info",
              "type": "tuple"
            },
            {
              "components": [
                {
                  "internalType": "uint128",
                  "name": "rangeTo",
                  "type": "uint128"
                },
                {
                  "internalType": "uint128",
                  "name": "price",
                  "type": "uint128"
                }
              ],
              "internalType": "struct MCV2_Bond.BondStep[]",
              "name": "steps",
              "type": "tuple[]"
            }
          ],
          "internalType": "struct MCV2_Bond.BondDetail",
          "name": "detail",
          "type": "tuple"
        }
      ],
      "stateMutability": "view",
      "type": "function"
    },
    {
      "inputs": [
        {
          "internalType": "uint256",
          "name": "start",
          "type": "uint256"
        },
        {
          "internalType": "uint256",
          "name": "stop",
          "type": "uint256"
        }
      ],
      "name": "getList",
      "outputs": [
        {
          "components": [
            {
              "internalType": "address",
              "name": "creator",
              "type": "address"
            },
            {
              "internalType": "address",
              "name": "token",
              "type": "address"
            },
            {
              "internalType": "uint8",
              "name": "decimals",
              "type": "uint8"
            },
            {
              "internalType": "string",
              "name": "symbol",
              "type": "string"
            },
            {
              "internalType": "string",
              "name": "name",
              "type": "string"
            },
            {
              "internalType": "uint40",
              "name": "createdAt",
              "type": "uint40"
            },
            {
              "internalType": "uint128",
              "name": "currentSupply",
              "type": "uint128"
            },
            {
              "internalType": "uint128",
              "name": "maxSupply",
              "type": "uint128"
            },
            {
              "internalType": "uint128",
              "name": "priceForNextMint",
              "type": "uint128"
            },
            {
              "internalType": "address",
              "name": "reserveToken",
              "type": "address"
            },
            {
              "internalType": "uint8",
              "name": "reserveDecimals",
              "type": "uint8"
            },
            {
              "internalType": "string",
              "name": "reserveSymbol",
              "type": "string"
            },
            {
              "internalType": "string",
              "name": "reserveName",
              "type": "string"
            },
            {
              "internalType": "uint256",
              "name": "reserveBalance",
              "type": "uint256"
            }
          ],
          "internalType": "struct MCV2_Bond.BondInfo[]",
          "name": "info",
          "type": "tuple[]"
        }
      ],
      "stateMutability": "view",
      "type": "function"
    },
    {
      "inputs": [
        {
          "internalType": "address",
          "name": "token",
          "type": "address"
        },
        {
          "internalType": "uint256",
          "name": "tokensToBurn",
          "type": "uint256"
        }
      ],
      "name": "getRefundForTokens",
      "outputs": [
        {
          "internalType": "uint256",
          "name": "refundAmount",
          "type": "uint256"
        },
        {
          "internalType": "uint256",
          "name": "royalty",
          "type": "uint256"
        }
      ],
      "stateMutability": "view",
      "type": "function"
    },
    {
      "inputs": [
        {
          "internalType": "address",
          "name": "token",
          "type": "address"
        },
        {
          "internalType": "uint256",
          "name": "tokensToMint",
          "type": "uint256"
        }
      ],
      "name": "getReserveForToken",
      "outputs": [
        {
          "internalType": "uint256",
          "name": "reserveAmount",
          "type": "uint256"
        },
        {
          "internalType": "uint256",
          "name": "royalty",
          "type": "uint256"
        }
      ],
      "stateMutability": "view",
      "type": "function"
    },
    {
      "inputs": [
        {
          "internalType": "address",
          "name": "wallet",
          "type": "address"
        },
        {
          "internalType": "address",
          "name": "reserveToken",
          "type": "address"
        }
      ],
      "name": "getRoyaltyInfo",
      "outputs": [
        {
          "internalType": "uint256",
          "name": "",
          "type": "uint256"
        },
        {
          "internalType": "uint256",
          "name": "",
          "type": "uint256"
        }
      ],
      "stateMutability": "view",
      "type": "function"
    },
    {
      "inputs": [
        {
          "internalType": "address",
          "name": "token",
          "type": "address"
        }
      ],
      "name": "getSteps",
      "outputs": [
        {
          "components": [
            {
              "internalType": "uint128",
              "name": "rangeTo",
              "type": "uint128"
            },
            {
              "internalType": "uint128",
              "name": "price",
              "type": "uint128"
            }
          ],
          "internalType": "struct MCV2_Bond.BondStep[]",
          "name": "",
          "type": "tuple[]"
        }
      ],
      "stateMutability": "view",
      "type": "function"
    },
    {
      "inputs": [
        {
          "internalType": "address",
          "name": "creator",
          "type": "address"
        },
        {
          "internalType": "uint256",
          "name": "start",
          "type": "uint256"
        },
        {
          "internalType": "uint256",
          "name": "stop",
          "type": "uint256"
        }
      ],
      "name": "getTokensByCreator",
      "outputs": [
        {
          "internalType": "address[]",
          "name": "addresses",
          "type": "address[]"
        }
      ],
      "stateMutability": "view",
      "type": "function"
    },
    {
      "inputs": [
        {
          "internalType": "address",
          "name": "reserveToken",
          "type": "address"
        },
        {
          "internalType": "uint256",
          "name": "start",
          "type": "uint256"
        },
        {
          "internalType": "uint256",
          "name": "stop",
          "type": "uint256"
        }
      ],
      "name": "getTokensByReserveToken",
      "outputs": [
        {
          "internalType": "address[]",
          "name": "addresses",
          "type": "address[]"
        }
      ],
      "stateMutability": "view",
      "type": "function"
    },
    {
      "inputs": [],
      "name": "maxRoyaltyRange",
      "outputs": [
        {
          "internalType": "uint256",
          "name": "",
          "type": "uint256"
        }
      ],
      "stateMutability": "view",
      "type": "function"
    },
    {
      "inputs": [
        {
          "internalType": "address",
          "name": "token",
          "type": "address"
        }
      ],
      "name": "maxSupply",
      "outputs": [
        {
          "internalType": "uint128",
          "name": "",
          "type": "uint128"
        }
      ],
      "stateMutability": "view",
      "type": "function"
    },
    {
      "inputs": [
        {
          "internalType": "address",
          "name": "token",
          "type": "address"
        },
        {
          "internalType": "uint256",
          "name": "tokensToMint",
          "type": "uint256"
        },
        {
          "internalType": "uint256",
          "name": "maxReserveAmount",
          "type": "uint256"
        },
        {
          "internalType": "address",
          "name": "receiver",
          "type": "address"
        }
      ],
      "name": "mint",
      "outputs": [
        {
          "internalType": "uint256",
          "name": "",
          "type": "uint256"
        }
      ],
      "stateMutability": "nonpayable",
      "type": "function"
    },
    {
      "inputs": [],
      "name": "owner",
      "outputs": [
        {
          "internalType": "address",
          "name": "",
          "type": "address"
        }
      ],
      "stateMutability": "view",
      "type": "function"
    },
    {
      "inputs": [
        {
          "internalType": "address",
          "name": "token",
          "type": "address"
        }
      ],
      "name": "priceForNextMint",
      "outputs": [
        {
          "internalType": "uint128",
          "name": "",
          "type": "uint128"
        }
      ],
      "stateMutability": "view",
      "type": "function"
    },
    {
      "inputs": [],
      "name": "protocolBeneficiary",
      "outputs": [
        {
          "internalType": "address",
          "name": "",
          "type": "address"
        }
      ],
      "stateMutability": "view",
      "type": "function"
    },
    {
      "inputs": [],
      "name": "renounceOwnership",
      "outputs": [],
      "stateMutability": "nonpayable",
      "type": "function"
    },
    {
      "inputs": [
        {
          "internalType": "address",
          "name": "",
          "type": "address"
        }
      ],
      "name": "tokenBond",
      "outputs": [
        {
          "internalType": "address",
          "name": "creator",
          "type": "address"
        },
        {
          "internalType": "uint16",
          "name": "mintRoyalty",
          "type": "uint16"
        },
        {
          "internalType": "uint16",
          "name": "burnRoyalty",
          "type": "uint16"
        },
        {
          "internalType": "uint40",
          "name": "createdAt",
          "type": "uint40"
        },
        {
          "internalType": "address",
          "name": "reserveToken",
          "type": "address"
        },
        {
          "internalType": "uint256",
          "name": "reserveBalance",
          "type": "uint256"
        }
      ],
      "stateMutability": "view",
      "type": "function"
    },
    {
      "inputs": [],
      "name": "tokenCount",
      "outputs": [
        {
          "internalType": "uint256",
          "name": "",
          "type": "uint256"
        }
      ],
      "stateMutability": "view",
      "type": "function"
    },
    {
      "inputs": [
        {
          "internalType": "uint256",
          "name": "",
          "type": "uint256"
        }
      ],
      "name": "tokens",
      "outputs": [
        {
          "internalType": "address",
          "name": "",
          "type": "address"
        }
      ],
      "stateMutability": "view",
      "type": "function"
    },
    {
      "inputs": [
        {
          "internalType": "address",
          "name": "newOwner",
          "type": "address"
        }
      ],
      "name": "transferOwnership",
      "outputs": [],
      "stateMutability": "nonpayable",
      "type": "function"
    },
    {
      "inputs": [
        {
          "internalType": "address",
          "name": "token",
          "type": "address"
        },
        {
          "internalType": "address",
          "name": "creator",
          "type": "address"
        }
      ],
      "name": "updateBondCreator",
      "outputs": [],
      "stateMutability": "nonpayable",
      "type": "function"
    },
    {
      "inputs": [
        {
          "internalType": "uint256",
          "name": "amount",
          "type": "uint256"
        }
      ],
      "name": "updateCreationFee",
      "outputs": [],
      "stateMutability": "nonpayable",
      "type": "function"
    },
    {
      "inputs": [
        {
          "internalType": "uint256",
          "name": "ratio",
          "type": "uint256"
        }
      ],
      "name": "updateMaxRoyaltyRange",
      "outputs": [],
      "stateMutability": "nonpayable",
      "type": "function"
    },
    {
      "inputs": [
        {
          "internalType": "address",
          "name": "protocolBeneficiary_",
          "type": "address"
        }
      ],
      "name": "updateProtocolBeneficiary",
      "outputs": [],
      "stateMutability": "nonpayable",
      "type": "function"
    },
    {
      "inputs": [
        {
          "internalType": "address",
          "name": "",
          "type": "address"
        },
        {
          "internalType": "address",
          "name": "",
          "type": "address"
        }
      ],
      "name": "userTokenRoyaltyBalance",
      "outputs": [
        {
          "internalType": "uint256",
          "name": "",
          "type": "uint256"
        }
      ],
      "stateMutability": "view",
      "type": "function"
    },
    {
      "inputs": [
        {
          "internalType": "address",
          "name": "",
          "type": "address"
        },
        {
          "internalType": "address",
          "name": "",
          "type": "address"
        }
      ],
      "name": "userTokenRoyaltyClaimed",
      "outputs": [
        {
          "internalType": "uint256",
          "name": "",
          "type": "uint256"
        }
      ],
      "stateMutability": "view",
      "type": "function"
    },
    {
      "inputs": [],
      "name": "version",
      "outputs": [
        {
          "internalType": "string",
          "name": "",
          "type": "string"
        }
      ],
      "stateMutability": "pure",
      "type": "function"
    }
  ],
  "bytecode": "0x60e06040526113886003553480156200001757600080fd5b50604051620058be380380620058be8339810160408190526200003a916200025f565b82823380806200006557604051631e4fbdf760e01b8152600060048201526024015b60405180910390fd5b6200007081620001f2565b5050600180546001600160a01b0319166001600160a01b039384161790556002558516620000e25760405163643b81d760e01b815260206004820152601360248201527f746f6b656e496d706c656d656e746174696f6e0000000000000000000000000060448201526064016200005c565b6001600160a01b0384166200013b5760405163643b81d760e01b815260206004820152601860248201527f6d756c7469546f6b656e496d706c656d656e746174696f6e000000000000000060448201526064016200005c565b6001600160a01b038316620001945760405163643b81d760e01b815260206004820152601360248201527f70726f746f636f6c42656e65666963696172790000000000000000000000000060448201526064016200005c565b80600003620001d25760405163643b81d760e01b81526020600482015260086024820152676d6178537465707360c01b60448201526064016200005c565b6001600160a01b0394851660a0529290931660c0525060805250620002bc565b600080546001600160a01b038381166001600160a01b0319831681178455604051919092169283917f8be0079c531659141344cd1fd0a4f28419497f9722a3daafe3b4186f6b6457e09190a35050565b80516001600160a01b03811681146200025a57600080fd5b919050565b600080600080600060a086880312156200027857600080fd5b620002838662000242565b9450620002936020870162000242565b9350620002a36040870162000242565b6060870151608090970151959894975095949392505050565b60805160a05160c0516155d2620002ec60003960006119d301526000610bb50152600061324901526155d26000f3fe6080604052600436106102195760003560e01c8063995e5f921161011d578063c9cb204b116100b0578063f2fde38b1161007f578063f74bfe8e11610064578063f74bfe8e14610801578063fb8c13c814610821578063fccc28131461084157600080fd5b8063f2fde38b14610786578063f6a3d24e146107a657600080fd5b8063c9cb204b14610620578063cfc5562214610640578063d9fe0eae14610660578063dce0b4e41461077057600080fd5b8063a746ee2e116100ec578063a746ee2e14610586578063a9816b08146105b3578063ac4e9675146105e0578063c162c9161461060057600080fd5b8063995e5f92146104ec5780639c65003d146105195780639cc7becf146105515780639f181b5e1461057157600080fd5b8063715018a6116101b057806377e456cb1161017f57806385396d2b1161016457806385396d2b146104815780638da5cb5b14610494578063990e6005146104bf57600080fd5b806377e456cb1461042a578063840d885d1461044057600080fd5b8063715018a6146103a05780637348ed2f146103b5578063763e7da6146103d557806376a9864b146103f557600080fd5b806350801fb1116101ec57806350801fb1146102ce57806354fd4d50146103145780635a4d5311146103605780636fa237951461038057600080fd5b806307e329461461021e57806327e381a91461025457806330be6955146102765780634f64b2be146102ae575b600080fd5b34801561022a57600080fd5b5061023e6102393660046149dd565b610857565b60405161024b9190614a10565b60405180910390f35b34801561026057600080fd5b5061027461026f366004614a6a565b610a90565b005b610289610284366004614a9d565b610b5f565b60405173ffffffffffffffffffffffffffffffffffffffff909116815260200161024b565b3480156102ba57600080fd5b506102896102c9366004614b09565b610f45565b3480156102da57600080fd5b506103066102e9366004614b22565b600560209081526000928352604080842090915290825290205481565b60405190815260200161024b565b34801561032057600080fd5b50604080518082018252600781527f302e312e313230000000000000000000000000000000000000000000000000006020820152905161024b9190614bc3565b34801561036c57600080fd5b5061030661037b366004614bd6565b610f7c565b34801561038c57600080fd5b5061027461039b366004614b09565b61119b565b3480156103ac57600080fd5b506102746111d8565b3480156103c157600080fd5b506102746103d0366004614b09565b6111ec565b3480156103e157600080fd5b506102746103f0366004614b22565b611265565b34801561040157600080fd5b50610415610410366004614c1c565b611388565b6040805192835260208301919091520161024b565b34801561043657600080fd5b5061030660035481565b34801561044c57600080fd5b5061046061045b366004614a6a565b611857565b6040516fffffffffffffffffffffffffffffffff909116815260200161024b565b61028961048f366004614c46565b61197d565b3480156104a057600080fd5b5060005473ffffffffffffffffffffffffffffffffffffffff16610289565b3480156104cb57600080fd5b506001546102899073ffffffffffffffffffffffffffffffffffffffff1681565b3480156104f857600080fd5b5061050c610507366004614a6a565b611b92565b60405161024b9190614ce1565b34801561052557600080fd5b50610306610534366004614b22565b600460209081526000928352604080842090915290825290205481565b34801561055d57600080fd5b5061046061056c366004614a6a565b611c44565b34801561057d57600080fd5b50600754610306565b34801561059257600080fd5b506105a66105a1366004614a6a565b611cae565b60405161024b9190614e7d565b3480156105bf57600080fd5b506105d36105ce366004614ef9565b611ed1565b60405161024b9190614f1b565b3480156105ec57600080fd5b506104156105fb366004614b22565b61208a565b34801561060c57600080fd5b5061027461061b366004614a6a565b6120dd565b34801561062c57600080fd5b5061041561063b366004614c1c565b612222565b34801561064c57600080fd5b5061027461065b366004614a6a565b6126aa565b34801561066c57600080fd5b5061071861067b366004614a6a565b60066020526000908152604090208054600182015460029092015473ffffffffffffffffffffffffffffffffffffffff8083169374010000000000000000000000000000000000000000840461ffff90811694760100000000000000000000000000000000000000000000810490911693780100000000000000000000000000000000000000000000000090910464ffffffffff16929091169086565b6040805173ffffffffffffffffffffffffffffffffffffffff978816815261ffff9687166020820152949095169484019490945264ffffffffff919091166060830152909216608083015260a082015260c00161024b565b34801561077c57600080fd5b5061030660025481565b34801561079257600080fd5b506102746107a1366004614a6a565b612829565b3480156107b257600080fd5b506107f16107c1366004614a6a565b73ffffffffffffffffffffffffffffffffffffffff90811660009081526006602052604090206001015416151590565b604051901515815260200161024b565b34801561080d57600080fd5b5061030661081c366004614bd6565b612892565b34801561082d57600080fd5b5061023e61083c3660046149dd565b612ab9565b34801561084d57600080fd5b5061028961dead81565b6060818310158061087257506127106108708484614fca565b115b156108a9576040517f891724d600000000000000000000000000000000000000000000000000000000815260040160405180910390fd5b600754808311156108b8578092505b6000845b84811015610941578673ffffffffffffffffffffffffffffffffffffffff1660066000600784815481106108f2576108f2614fdd565b600091825260208083209091015473ffffffffffffffffffffffffffffffffffffffff90811684529083019390935260409091019020600101541603610939578160010191505b6001016108bc565b508067ffffffffffffffff81111561095b5761095b61500c565b604051908082528060200260200182016040528015610984578160200160208202803683370190505b5092506000855b85811015610a85578773ffffffffffffffffffffffffffffffffffffffff1660066000600784815481106109c1576109c1614fdd565b600091825260208083209091015473ffffffffffffffffffffffffffffffffffffffff90811684529083019390935260409091019020600101541603610a7d5760078181548110610a1457610a14614fdd565b6000918252602090912001548551600184019373ffffffffffffffffffffffffffffffffffffffff9092169187918110610a5057610a50614fdd565b73ffffffffffffffffffffffffffffffffffffffff90921660209283029190910190910152818314610a85575b60010161098b565b505050509392505050565b610a98612ce1565b73ffffffffffffffffffffffffffffffffffffffff8116610ae5576040517f5059b85f00000000000000000000000000000000000000000000000000000000815260040160405180910390fd5b600180547fffffffffffffffffffffffff00000000000000000000000000000000000000001673ffffffffffffffffffffffffffffffffffffffff83169081179091556040519081527fcf7686c0c53a1ab216c4cd81c1bc037136c791a61f30af4a78827c3915766044906020015b60405180910390a150565b60006002543414610b9c576040517f3403ce3700000000000000000000000000000000000000000000000000000000815260040160405180910390fd5b610ba583612d34565b610bae82612e23565b6000610be67f0000000000000000000000000000000000000000000000000000000000000000610be1602087018761503b565b61344f565b90508073ffffffffffffffffffffffffffffffffffffffff8116637029144c610c0f878061503b565b610c1c60208a018a61503b565b6040518563ffffffff1660e01b8152600401610c3b94939291906150e9565b600060405180830381600087803b158015610c5557600080fd5b505af1158015610c69573d6000803e3d6000fd5b5050600780546001810182556000919091527fa66cc928b5edb82af9bd49922954155ab7b0942694bea4ce44661d9a8736c6880180547fffffffffffffffffffffffff00000000000000000000000000000000000000001673ffffffffffffffffffffffffffffffffffffffff861617905550610ce890508285613506565b610cf86060850160408601614a6a565b73ffffffffffffffffffffffffffffffffffffffff9081169083167f6596c1670eb3390048d23721809c3da5d3f531375ac0e2cab0f77a808ed64331610d3e888061503b565b610d4b60208b018b61503b565b604051610d5b94939291906150e9565b60405180910390a3610d7060a085018561511b565b6000818110610d8157610d81614fdd565b9050602002016020810190610d969190615183565b6fffffffffffffffffffffffffffffffff16600003610e955773ffffffffffffffffffffffffffffffffffffffff8116631b5ad8b533610dd9608088018861511b565b6000818110610dea57610dea614fdd565b9050602002016020810190610dff9190615183565b6040517fffffffff0000000000000000000000000000000000000000000000000000000060e085901b16815273ffffffffffffffffffffffffffffffffffffffff90921660048301526fffffffffffffffffffffffffffffffff166024820152604401600060405180830381600087803b158015610e7c57600080fd5b505af1158015610e90573d6000803e3d6000fd5b505050505b60025415610f3b5760015460025460405160009273ffffffffffffffffffffffffffffffffffffffff1691908381818185875af1925050503d8060008114610ef9576040519150601f19603f3d011682016040523d82523d6000602084013e610efe565b606091505b5050905080610f39576040517f0d4d59b300000000000000000000000000000000000000000000000000000000815260040160405180910390fd5b505b5090505b92915050565b60078181548110610f5557600080fd5b60009182526020909120015473ffffffffffffffffffffffffffffffffffffffff16905081565b600073ffffffffffffffffffffffffffffffffffffffff8216610fcb576040517fd9b08f7600000000000000000000000000000000000000000000000000000000815260040160405180910390fd5b600080610fd88787612222565b9150915084821015611016576040517f07728bb000000000000000000000000000000000000000000000000000000000815260040160405180910390fd5b73ffffffffffffffffffffffffffffffffffffffff871660008181526006602052604080822081517ff4efe8f20000000000000000000000000000000000000000000000000000000081523360048201819052602482018c905292519194929363f4efe8f29260448084019382900301818387803b15801561109757600080fd5b505af11580156110ab573d6000803e3d6000fd5b5050505082846110bb91906151b5565b8260020160008282546110ce9190614fca565b9091555050815460018301546110fe9173ffffffffffffffffffffffffffffffffffffffff908116911685613a95565b600182015473ffffffffffffffffffffffffffffffffffffffff16611124818887613b57565b60018301546040805173ffffffffffffffffffffffffffffffffffffffff8a81168252602082018d905291810188905291811691848216918d16907f80a56de61873550ae491e454783a8dfc9d08a6f8bdace0887eabd4315c4b9da8906060015b60405180910390a4509298975050505050505050565b6111a3612ce1565b60028190556040518181527f88a973fd5506071e0cf878b30898776c47d5250a7ee1e6ee0b36df3b03c7c16a90602001610b54565b6111e0612ce1565b6111ea6000613bdd565b565b6111f4612ce1565b612710811115611230576040517f5059b85f00000000000000000000000000000000000000000000000000000000815260040160405180910390fd5b60038190556040518181527f21085b3501e0e4fa8e0c825e7ed36b44420471b9f3c5aef447cebe50b2db133d90602001610b54565b73ffffffffffffffffffffffffffffffffffffffff8281166000908152600660205260409020805490911633146112c8576040517f36a0203800000000000000000000000000000000000000000000000000000000815260040160405180910390fd5b73ffffffffffffffffffffffffffffffffffffffff8216611315576040517f67f61c8200000000000000000000000000000000000000000000000000000000815260040160405180910390fd5b80547fffffffffffffffffffffffff00000000000000000000000000000000000000001673ffffffffffffffffffffffffffffffffffffffff8381169182178355604051908516907f9dcef3aa57f22970dfc6ff519e5421e041cc4153300a7dabe19bffe85e25568890600090a3505050565b73ffffffffffffffffffffffffffffffffffffffff808316600090815260066020526040812060010154909182918591166113ef576040517f2d350e9f00000000000000000000000000000000000000000000000000000000815260040160405180910390fd5b83600003611429576040517fc01ae10500000000000000000000000000000000000000000000000000000000815260040160405180910390fd5b73ffffffffffffffffffffffffffffffffffffffff8086166000908152600660209081526040808320815160e0810183528154808716825261ffff7401000000000000000000000000000000000000000082048116838701527601000000000000000000000000000000000000000000008204168285015264ffffffffff780100000000000000000000000000000000000000000000000090910416606082015260018201549095166080860152600281015460a0860152600381018054835181860281018601909452808452949594919360c08601939290879084015b8282101561156657600084815260209081902060408051808201909152908401546fffffffffffffffffffffffffffffffff80821683527001000000000000000000000000000000009091041681830152825260019092019101611507565b5050505081525050905060008160c001519050600087905060008173ffffffffffffffffffffffffffffffffffffffff166318160ddd6040518163ffffffff1660e01b8152600401602060405180830381865afa1580156115cb573d6000803e3d6000fd5b505050506040513d601f19601f820116820180604052508101906115ef91906151c8565b905060006115fd89836151b5565b90506116088a611c44565b6fffffffffffffffffffffffffffffffff16811115611653576040517f6b5b0f7c00000000000000000000000000000000000000000000000000000000815260040160405180910390fd5b60008373ffffffffffffffffffffffffffffffffffffffff1663313ce5676040518163ffffffff1660e01b8152600401602060405180830381865afa1580156116a0573d6000803e3d6000fd5b505050506040513d601f19601f820116820180604052508101906116c491906151e1565b6116cf90600a615324565b905089600080806116e08f88613c52565b90505b88518110156117e557600089828151811061170057611700614fdd565b602002602001015190508781600001516fffffffffffffffffffffffffffffffff1661172c9190614fca565b925084831015611798578260000361174457506117d5565b61176f81602001516fffffffffffffffffffffffffffffffff16846117699190615333565b87613d0a565b61177990856151b5565b935061178583896151b5565b97506117918386614fca565b94506117d3565b6117bd81602001516fffffffffffffffffffffffffffffffff16866117699190615333565b6117c790856151b5565b935060009450506117e5565b505b6117de8161534a565b90506116e3565b508115806117f35750600083115b1561182a576040517fc01ae10500000000000000000000000000000000000000000000000000000000815260040160405180910390fd5b611838828a60200151613d5a565b9a506118448b836151b5565b9b50505050505050505050509250929050565b6000808273ffffffffffffffffffffffffffffffffffffffff166318160ddd6040518163ffffffff1660e01b8152600401602060405180830381865afa1580156118a5573d6000803e3d6000fd5b505050506040513d601f19601f820116820180604052508101906118c991906151c8565b90506118d483611c44565b6fffffffffffffffffffffffffffffffff168110156118f9576118f68161534a565b90505b60006119058483613c52565b73ffffffffffffffffffffffffffffffffffffffff851660009081526006602052604090206003018054919250908290811061194357611943614fdd565b60009182526020909120015470010000000000000000000000000000000090046fffffffffffffffffffffffffffffffff16949350505050565b600060025434146119ba576040517f3403ce3700000000000000000000000000000000000000000000000000000000815260040160405180910390fd5b6119c383613d77565b6119cc82612e23565b60006119ff7f0000000000000000000000000000000000000000000000000000000000000000610be1602087018761503b565b90508073ffffffffffffffffffffffffffffffffffffffff81166341e461a0611a28878061503b565b611a3560208a018a61503b565b611a4260408c018c61503b565b6040518763ffffffff1660e01b8152600401611a6396959493929190615382565b600060405180830381600087803b158015611a7d57600080fd5b505af1158015611a91573d6000803e3d6000fd5b5050600780546001810182556000919091527fa66cc928b5edb82af9bd49922954155ab7b0942694bea4ce44661d9a8736c6880180547fffffffffffffffffffffffff00000000000000000000000000000000000000001673ffffffffffffffffffffffffffffffffffffffff861617905550611b1090508285613506565b611b206060850160408601614a6a565b73ffffffffffffffffffffffffffffffffffffffff9081169083167f42d30c09380d6b8dbb77d95cae534a5c8fbf778789d87f58030bd74280437071611b66888061503b565b611b7360208b018b61503b565b611b8060408d018d61503b565b604051610d5b96959493929190615382565b73ffffffffffffffffffffffffffffffffffffffff81166000908152600660209081526040808320600301805482518185028101850190935280835260609492939192909184015b82821015611c3957600084815260209081902060408051808201909152908401546fffffffffffffffffffffffffffffffff80821683527001000000000000000000000000000000009091041681830152825260019092019101611bda565b505050509050919050565b73ffffffffffffffffffffffffffffffffffffffff811660009081526006602052604081206003018054611c7a90600190614fca565b81548110611c8a57611c8a614fdd565b6000918252602090912001546fffffffffffffffffffffffffffffffff1692915050565b611d4560408051608080820183526000808352602080840182905284516101c081018652828152908101829052808501829052606080820181905292810183905260a0810182905260c0810182905260e0810182905261010081018290526101208101829052610140810182905261016081018390526101808101929092526101a082015290918201908152602001606081525090565b73ffffffffffffffffffffffffffffffffffffffff8083166000908152600660209081526040808320815160e0810183528154808716825261ffff7401000000000000000000000000000000000000000082048116838701527601000000000000000000000000000000000000000000008204168285015264ffffffffff780100000000000000000000000000000000000000000000000090910416606082015260018201549095166080860152600281015460a0860152600381018054835181860281018601909452808452949594919360c08601939290879084015b82821015611e8257600084815260209081902060408051808201909152908401546fffffffffffffffffffffffffffffffff80821683527001000000000000000000000000000000009091041681830152825260019092019101611e23565b505050508152505090506040518060800160405280826020015161ffff168152602001826040015161ffff168152602001611ebc85613ede565b81526020018260c00151815250915050919050565b60608183101580611eec57506103e8611eea8484614fca565b115b15611f23576040517f891724d600000000000000000000000000000000000000000000000000000000815260040160405180910390fd5b60075480831115611f32578092505b8383038067ffffffffffffffff811115611f4e57611f4e61500c565b60405190808252806020026020018201604052801561200a57816020015b604080516101c0810182526000808252602080830182905292820181905260608083018190526080830181905260a0830182905260c0830182905260e0830182905261010083018290526101208301829052610140830182905261016083018190526101808301526101a082015282527fffffffffffffffffffffffffffffffffffffffffffffffffffffffffffffffff909201910181611f6c5790505b5092506000855b85811015612080576120566007828154811061202f5761202f614fdd565b60009182526020909120015473ffffffffffffffffffffffffffffffffffffffff16613ede565b855160018401938791811061206d5761206d614fdd565b6020908102919091010152600101612011565b5050505092915050565b73ffffffffffffffffffffffffffffffffffffffff8083166000818152600460209081526040808320948616808452948252808320549383526005825280832094835293905291909120545b9250929050565b33600081815260046020908152604080832073ffffffffffffffffffffffffffffffffffffffff8616845290915281205490819003612148576040517fbfa4e44600000000000000000000000000000000000000000000000000000000815260040160405180910390fd5b73ffffffffffffffffffffffffffffffffffffffff80831660008181526004602090815260408083209488168084529482528083208390559282526005815282822093825292909252812080548392906121a39084906151b5565b909155506121ca905073ffffffffffffffffffffffffffffffffffffffff84168383613b57565b6040805173ffffffffffffffffffffffffffffffffffffffff8581168252602082018490528416917fd1b893da855ca6a7c9cfbaff142da78c734a39d4811ad711fe7acfd6e5e433a4910160405180910390a2505050565b73ffffffffffffffffffffffffffffffffffffffff80831660009081526006602052604081206001015490918291859116612289576040517f2d350e9f00000000000000000000000000000000000000000000000000000000815260040160405180910390fd5b836000036122c3576040517fc01ae10500000000000000000000000000000000000000000000000000000000815260040160405180910390fd5b73ffffffffffffffffffffffffffffffffffffffff8086166000908152600660209081526040808320815160e0810183528154808716825261ffff7401000000000000000000000000000000000000000082048116838701527601000000000000000000000000000000000000000000008204168285015264ffffffffff780100000000000000000000000000000000000000000000000090910416606082015260018201549095166080860152600281015460a0860152600381018054835181860281018601909452808452949594919360c08601939290879084015b8282101561240057600084815260209081902060408051808201909152908401546fffffffffffffffffffffffffffffffff808216835270010000000000000000000000000000000090910416818301528252600190920191016123a1565b5050505081525050905060008160c001519050600087905060008173ffffffffffffffffffffffffffffffffffffffff166318160ddd6040518163ffffffff1660e01b8152600401602060405180830381865afa158015612465573d6000803e3d6000fd5b505050506040513d601f19601f8201168201806040525081019061248991906151c8565b9050808811156124c5576040517f4fffb8fa00000000000000000000000000000000000000000000000000000000815260040160405180910390fd5b60008273ffffffffffffffffffffffffffffffffffffffff1663313ce5676040518163ffffffff1660e01b8152600401602060405180830381865afa158015612512573d6000803e3d6000fd5b505050506040513d601f19601f8201168201806040525081019061253691906151e1565b61254190600a615324565b9050600089816125518d86613c52565b90505b811561264657600081156125ac578761256e600184614fca565b8151811061257e5761257e614fdd565b6020026020010151600001516fffffffffffffffffffffffffffffffff16866125a79190614fca565b6125ae565b855b905060008184106125bf57816125c1565b835b9050858984815181106125d6576125d6614fdd565b6020026020010151602001516fffffffffffffffffffffffffffffffff16826125ff9190615333565b61260991906153cb565b61261390866151b5565b945061261f8185614fca565b935061262b8188614fca565b9650821561263f5761263c83615406565b92505b5050612554565b811561267e576040517fc01ae10500000000000000000000000000000000000000000000000000000000815260040160405180910390fd5b61268c838960400151613d5a565b99506126988a84614fca565b9a505050505050505050509250929050565b73ffffffffffffffffffffffffffffffffffffffff811660009081527f42c63635470f1fb1d6d4b6441c413cb435b1ebb6fedd1896dd5e25d1399147dd602052604081205490819003612729576040517fbfa4e44600000000000000000000000000000000000000000000000000000000815260040160405180910390fd5b73ffffffffffffffffffffffffffffffffffffffff821660009081527f42c63635470f1fb1d6d4b6441c413cb435b1ebb6fedd1896dd5e25d1399147dd602090815260408083208390557f7d509c07f0d4edcc2dd1b53aae68677132eb562dcba78e36381b63ccaf66e6ba909152812080548392906127a99084906151b5565b909155506127d2905073ffffffffffffffffffffffffffffffffffffffff831661dead83613b57565b6040805173ffffffffffffffffffffffffffffffffffffffff841681526020810183905261dead917fd1b893da855ca6a7c9cfbaff142da78c734a39d4811ad711fe7acfd6e5e433a4910160405180910390a25050565b612831612ce1565b73ffffffffffffffffffffffffffffffffffffffff8116612886576040517f1e4fbdf7000000000000000000000000000000000000000000000000000000008152600060048201526024015b60405180910390fd5b61288f81613bdd565b50565b600073ffffffffffffffffffffffffffffffffffffffff82166128e1576040517fd9b08f7600000000000000000000000000000000000000000000000000000000815260040160405180910390fd5b6000806128ee8787611388565b915091508482111561292c576040517f07728bb000000000000000000000000000000000000000000000000000000000815260040160405180910390fd5b73ffffffffffffffffffffffffffffffffffffffff8781166000908152600660205260409020600181015490913391166129668486614fca565b83600201600082825461297991906151b5565b9091555050825460018401546129a99173ffffffffffffffffffffffffffffffffffffffff908116911686613a95565b6040517f1b5ad8b500000000000000000000000000000000000000000000000000000000815273ffffffffffffffffffffffffffffffffffffffff8881166004830152602482018b90528b1690631b5ad8b590604401600060405180830381600087803b158015612a1957600080fd5b505af1158015612a2d573d6000803e3d6000fd5b50612a549250505073ffffffffffffffffffffffffffffffffffffffff821683308861453f565b60018301546040805173ffffffffffffffffffffffffffffffffffffffff8a81168252602082018d905291810188905291811691848216918d16907f02ed9b10d8b33a6a9fda664247bfd8f6248f74cff85cc84e56b7530c2fce560a90606001611185565b60608183101580612ad45750612710612ad28484614fca565b115b15612b0b576040517f891724d600000000000000000000000000000000000000000000000000000000815260040160405180910390fd5b60075480831115612b1a578092505b6000845b84811015612ba0578673ffffffffffffffffffffffffffffffffffffffff166006600060078481548110612b5457612b54614fdd565b600091825260208083209091015473ffffffffffffffffffffffffffffffffffffffff90811684529083019390935260409091019020541603612b98578160010191505b600101612b1e565b508067ffffffffffffffff811115612bba57612bba61500c565b604051908082528060200260200182016040528015612be3578160200160208202803683370190505b5092506000855b85811015610a85578773ffffffffffffffffffffffffffffffffffffffff166006600060078481548110612c2057612c20614fdd565b600091825260208083209091015473ffffffffffffffffffffffffffffffffffffffff90811684529083019390935260409091019020541603612cd95760078181548110612c7057612c70614fdd565b6000918252602090912001548551600184019373ffffffffffffffffffffffffffffffffffffffff9092169187918110612cac57612cac614fdd565b73ffffffffffffffffffffffffffffffffffffffff90921660209283029190910190910152818314610a85575b600101612bea565b60005473ffffffffffffffffffffffffffffffffffffffff1633146111ea576040517f118cdaa700000000000000000000000000000000000000000000000000000000815233600482015260240161287d565b612d3e818061503b565b9050600003612dab576040517f49d3358800000000000000000000000000000000000000000000000000000000815260040161287d9060208082526004908201527f6e616d6500000000000000000000000000000000000000000000000000000000604082015260600190565b612db8602082018261503b565b905060000361288f576040517f49d3358800000000000000000000000000000000000000000000000000000000815260206004820152600660248201527f73796d626f6c0000000000000000000000000000000000000000000000000000604482015260640161287d565b600354612e33602083018361543b565b61ffff161115612e9f576040517f49d3358800000000000000000000000000000000000000000000000000000000815260206004820152600b60248201527f6d696e74526f79616c7479000000000000000000000000000000000000000000604482015260640161287d565b600354612eb2604083016020840161543b565b61ffff161115612f1e576040517f49d3358800000000000000000000000000000000000000000000000000000000815260206004820152600b60248201527f6275726e526f79616c7479000000000000000000000000000000000000000000604482015260640161287d565b6000612f306060830160408401614a6a565b905073ffffffffffffffffffffffffffffffffffffffff8116612faf576040517f49d3358800000000000000000000000000000000000000000000000000000000815260206004820152600c60248201527f72657365727665546f6b656e0000000000000000000000000000000000000000604482015260640161287d565b612ff0816040518060400160405280600a81526020017f646563696d616c73282900000000000000000000000000000000000000000000815250601f61458b565b613056576040517f59f5822400000000000000000000000000000000000000000000000000000000815260206004820152600860248201527f646563696d616c73000000000000000000000000000000000000000000000000604482015260640161287d565b613097816040518060400160405280600681526020017f6e616d6528290000000000000000000000000000000000000000000000000000815250605f61458b565b6130ff576040517f59f5822400000000000000000000000000000000000000000000000000000000815260040161287d9060208082526004908201527f6e616d6500000000000000000000000000000000000000000000000000000000604082015260600190565b613140816040518060400160405280600881526020017f73796d626f6c2829000000000000000000000000000000000000000000000000815250605f61458b565b6131a6576040517f59f5822400000000000000000000000000000000000000000000000000000000815260206004820152600660248201527f73796d626f6c0000000000000000000000000000000000000000000000000000604482015260640161287d565b6131b66080830160608401615183565b6fffffffffffffffffffffffffffffffff16600003613231576040517f49d3358800000000000000000000000000000000000000000000000000000000815260206004820152600960248201527f6d6178537570706c790000000000000000000000000000000000000000000000604482015260640161287d565b61323e608083018361511b565b1590508061327957507f0000000000000000000000000000000000000000000000000000000000000000613275608084018461511b565b9050115b156132e0576040517f1afd40d600000000000000000000000000000000000000000000000000000000815260206004820152601360248201527f494e56414c49445f535445505f4c454e47544800000000000000000000000000604482015260640161287d565b6132ed60a083018361511b565b90506132fc608084018461511b565b905014613365576040517f1afd40d600000000000000000000000000000000000000000000000000000000815260206004820152601860248201527f535445505f4c454e4754485f444f5f4e4f545f4d415443480000000000000000604482015260640161287d565b6133756080830160608401615183565b6fffffffffffffffffffffffffffffffff16613394608084018461511b565b60016133a3608087018761511b565b6133ae929150614fca565b8181106133bd576133bd614fdd565b90506020020160208101906133d29190615183565b6fffffffffffffffffffffffffffffffff161461344b576040517f1afd40d600000000000000000000000000000000000000000000000000000000815260206004820152601360248201527f4d41585f535550504c595f4d49534d4154434800000000000000000000000000604482015260640161287d565b5050565b6000803084846040516020016134679392919061545f565b604051602081830303815290604052805190602001209050600061348b8683614684565b73ffffffffffffffffffffffffffffffffffffffff80821660009081526006602052604090206001015491925016156134f0576040517f358b663800000000000000000000000000000000000000000000000000000000815260040160405180910390fd5b6134fa86836146e4565b925050505b9392505050565b73ffffffffffffffffffffffffffffffffffffffff8216600090815260066020908152604090912080547fffffffffffffffffffffffff00000000000000000000000000000000000000001633178155906135639083018361543b565b815461ffff9190911674010000000000000000000000000000000000000000027fffffffffffffffffffff0000ffffffffffffffffffffffffffffffffffffffff9091161781556135ba604083016020840161543b565b81547fffffff00000000000000ffffffffffffffffffffffffffffffffffffffffffff1676010000000000000000000000000000000000000000000061ffff92909216919091027fffffff0000000000ffffffffffffffffffffffffffffffffffffffffffffffff161778010000000000000000000000000000000000000000000000004264ffffffffff160217815561365a6060830160408401614a6a565b8160010160006101000a81548173ffffffffffffffffffffffffffffffffffffffff021916908373ffffffffffffffffffffffffffffffffffffffff16021790555060008373ffffffffffffffffffffffffffffffffffffffff1663313ce5676040518163ffffffff1660e01b8152600401602060405180830381865afa1580156136e9573d6000803e3d6000fd5b505050506040513d601f19601f8201168201806040525081019061370d91906151e1565b61371890600a615324565b905060005b61372a608085018561511b565b9050811015613a8e576000613742608086018661511b565b8381811061375257613752614fdd565b90506020020160208101906137679190615183565b6fffffffffffffffffffffffffffffffff169050600061378a60a087018761511b565b8481811061379a5761379a614fdd565b90506020020160208101906137af9190615183565b6fffffffffffffffffffffffffffffffff1690508160000361382d576040517f1afd40d600000000000000000000000000000000000000000000000000000000815260206004820152601360248201527f535445505f43414e4e4f545f42455f5a45524f00000000000000000000000000604482015260640161287d565b6000811180156138455750836138438284615333565b105b156138ac576040517f1afd40d600000000000000000000000000000000000000000000000000000000815260206004820152601c60248201527f535445505f52414e475f4f525f50524943455f544f4f5f534d414c4c00000000604482015260640161287d565b8215613a1e576138bf608087018761511b565b6138ca600186614fca565b8181106138d9576138d9614fdd565b90506020020160208101906138ee9190615183565b6fffffffffffffffffffffffffffffffff168211613968576040517f1afd40d600000000000000000000000000000000000000000000000000000000815260206004820152601060248201527f44454352454153494e475f52414e474500000000000000000000000000000000604482015260640161287d565b61397560a087018761511b565b613980600186614fca565b81811061398f5761398f614fdd565b90506020020160208101906139a49190615183565b6fffffffffffffffffffffffffffffffff168111613a1e576040517f1afd40d600000000000000000000000000000000000000000000000000000000815260206004820152601060248201527f44454352454153494e475f505249434500000000000000000000000000000000604482015260640161287d565b604080518082019091526fffffffffffffffffffffffffffffffff928316815290821660208083019182526003870180546001810182556000918252919020925191518416700100000000000000000000000000000000029190931617910155613a878161534a565b905061371d565b5050505050565b6000612710613aa66107d084615333565b613ab091906153cb565b9050613abc8183614fca565b73ffffffffffffffffffffffffffffffffffffffff808616600090815260046020908152604080832093881683529290529081208054909190613b009084906151b5565b909155505060015473ffffffffffffffffffffffffffffffffffffffff908116600090815260046020908152604080832093871683529290529081208054839290613b4c9084906151b5565b909155505050505050565b60405173ffffffffffffffffffffffffffffffffffffffff838116602483015260448201839052613bd891859182169063a9059cbb906064015b604051602081830303815290604052915060e01b6020820180517bffffffffffffffffffffffffffffffffffffffffffffffffffffffff8381831617835250505050614778565b505050565b6000805473ffffffffffffffffffffffffffffffffffffffff8381167fffffffffffffffffffffffff0000000000000000000000000000000000000000831681178455604051919092169283917f8be0079c531659141344cd1fd0a4f28419497f9722a3daafe3b4186f6b6457e09190a35050565b73ffffffffffffffffffffffffffffffffffffffff82166000908152600660205260408120815b6003820154811015613cd757816003018181548110613c9a57613c9a614fdd565b6000918252602090912001546fffffffffffffffffffffffffffffffff168411613cc7579150610f3f9050565b613cd08161534a565b9050613c79565b506040517fd1ce01ea00000000000000000000000000000000000000000000000000000000815260040160405180910390fd5b600081600003613d2557613d1e82846153cb565b9050610f3f565b8215613d515781613d37600185614fca565b613d4191906153cb565b613d4c9060016151b5565b6134ff565b60009392505050565b6000612710613d6d61ffff841685615333565b6134ff91906153cb565b613d81818061503b565b9050600003613dee576040517f49d3358800000000000000000000000000000000000000000000000000000000815260040161287d9060208082526004908201527f6e616d6500000000000000000000000000000000000000000000000000000000604082015260600190565b613dfb602082018261503b565b9050600003613e66576040517f49d3358800000000000000000000000000000000000000000000000000000000815260206004820152600660248201527f73796d626f6c0000000000000000000000000000000000000000000000000000604482015260640161287d565b613e73604082018261503b565b905060000361288f576040517f49d3358800000000000000000000000000000000000000000000000000000000815260206004820152600360248201527f7572690000000000000000000000000000000000000000000000000000000000604482015260640161287d565b604080516101c08101825260008082526020820181905291810182905260608082018190526080820181905260a0820183905260c0820183905260e0820183905261010082018390526101208201839052610140820183905261016082018190526101808201526101a081019190915273ffffffffffffffffffffffffffffffffffffffff8083166000908152600660209081526040808320815160e0810183528154808716825261ffff7401000000000000000000000000000000000000000082048116838701527601000000000000000000000000000000000000000000008204168285015264ffffffffff780100000000000000000000000000000000000000000000000090910416606082015260018201549095166080860152600281015460a0860152600381018054835181860281018601909452808452889694929360c086019390929190879084015b8282101561408d57600084815260209081902060408051808201909152908401546fffffffffffffffffffffffffffffffff8082168352700100000000000000000000000000000000909104168183015282526001909201910161402e565b50505050815250509050600081608001519050604051806101c00160405280836000015173ffffffffffffffffffffffffffffffffffffffff1681526020018673ffffffffffffffffffffffffffffffffffffffff1681526020018473ffffffffffffffffffffffffffffffffffffffff1663313ce5676040518163ffffffff1660e01b8152600401602060405180830381865afa158015614133573d6000803e3d6000fd5b505050506040513d601f19601f8201168201806040525081019061415791906151e1565b60ff1681526020018473ffffffffffffffffffffffffffffffffffffffff166395d89b416040518163ffffffff1660e01b8152600401600060405180830381865afa1580156141aa573d6000803e3d6000fd5b505050506040513d6000823e601f3d9081017fffffffffffffffffffffffffffffffffffffffffffffffffffffffffffffffe01682016040526141f0919081019061549e565b81526020018473ffffffffffffffffffffffffffffffffffffffff166306fdde036040518163ffffffff1660e01b8152600401600060405180830381865afa158015614240573d6000803e3d6000fd5b505050506040513d6000823e601f3d9081017fffffffffffffffffffffffffffffffffffffffffffffffffffffffffffffffe0168201604052614286919081019061549e565b8152602001836060015164ffffffffff1681526020016143138573ffffffffffffffffffffffffffffffffffffffff166318160ddd6040518163ffffffff1660e01b8152600401602060405180830381865afa1580156142ea573d6000803e3d6000fd5b505050506040513d601f19601f8201168201806040525081019061430e91906151c8565b61480e565b6fffffffffffffffffffffffffffffffff16815260200161433387611c44565b6fffffffffffffffffffffffffffffffff16815260200161435387611857565b6fffffffffffffffffffffffffffffffff168152602001836080015173ffffffffffffffffffffffffffffffffffffffff1681526020018273ffffffffffffffffffffffffffffffffffffffff1663313ce5676040518163ffffffff1660e01b8152600401602060405180830381865afa1580156143d5573d6000803e3d6000fd5b505050506040513d601f19601f820116820180604052508101906143f991906151e1565b60ff1681526020018273ffffffffffffffffffffffffffffffffffffffff166395d89b416040518163ffffffff1660e01b8152600401600060405180830381865afa15801561444c573d6000803e3d6000fd5b505050506040513d6000823e601f3d9081017fffffffffffffffffffffffffffffffffffffffffffffffffffffffffffffffe0168201604052614492919081019061549e565b81526020018273ffffffffffffffffffffffffffffffffffffffff166306fdde036040518163ffffffff1660e01b8152600401600060405180830381865afa1580156144e2573d6000803e3d6000fd5b505050506040513d6000823e601f3d9081017fffffffffffffffffffffffffffffffffffffffffffffffffffffffffffffffe0168201604052614528919081019061549e565b81526020018360a001518152509350505050919050565b60405173ffffffffffffffffffffffffffffffffffffffff84811660248301528381166044830152606482018390526145859186918216906323b872dd90608401613b91565b50505050565b604080516004815260248101918290526000918291829173ffffffffffffffffffffffffffffffffffffffff881691906145c690889061555e565b60408051918290039091206020830180517bffffffffffffffffffffffffffffffffffffffffffffffffffffffff167fffffffff000000000000000000000000000000000000000000000000000000009092169190911790525161462a919061555e565b600060405180830381855afa9150503d8060008114614665576040519150601f19603f3d011682016040523d82523d6000602084013e61466a565b606091505b50915091508180156134fa57505192909211949350505050565b6040513060388201526f5af43d82803e903d91602b57fd5bf3ff602482015260148101839052733d602d80600a3d3981f3363d3d373d3d3d363d738152605881018290526037600c820120607882015260556043909101206000906134ff565b6000763d602d80600a3d3981f3363d3d373d3d3d363d730000008360601b60e81c176000526e5af43d82803e903d91602b57fd5bf38360781b1760205281603760096000f5905073ffffffffffffffffffffffffffffffffffffffff8116610f3f576040517fc2f868f400000000000000000000000000000000000000000000000000000000815260040160405180910390fd5b600061479a73ffffffffffffffffffffffffffffffffffffffff841683614868565b905080516000141580156147bf5750808060200190518101906147bd919061557a565b155b15613bd8576040517f5274afe700000000000000000000000000000000000000000000000000000000815273ffffffffffffffffffffffffffffffffffffffff8416600482015260240161287d565b60006fffffffffffffffffffffffffffffffff821115614864576040517f6dfcc650000000000000000000000000000000000000000000000000000000008152608060048201526024810183905260440161287d565b5090565b60606134ff83836000846000808573ffffffffffffffffffffffffffffffffffffffff16848660405161489b919061555e565b60006040518083038185875af1925050503d80600081146148d8576040519150601f19603f3d011682016040523d82523d6000602084013e6148dd565b606091505b50915091506134fa8683836060826148f857613d4c82614972565b815115801561491c575073ffffffffffffffffffffffffffffffffffffffff84163b155b1561496b576040517f9996b31500000000000000000000000000000000000000000000000000000000815273ffffffffffffffffffffffffffffffffffffffff8516600482015260240161287d565b50806134ff565b8051156149825780518082602001fd5b6040517f1425ea4200000000000000000000000000000000000000000000000000000000815260040160405180910390fd5b803573ffffffffffffffffffffffffffffffffffffffff811681146149d857600080fd5b919050565b6000806000606084860312156149f257600080fd5b6149fb846149b4565b95602085013595506040909401359392505050565b6020808252825182820181905260009190848201906040850190845b81811015614a5e57835173ffffffffffffffffffffffffffffffffffffffff1683529284019291840191600101614a2c565b50909695505050505050565b600060208284031215614a7c57600080fd5b6134ff826149b4565b600060c08284031215614a9757600080fd5b50919050565b60008060408385031215614ab057600080fd5b823567ffffffffffffffff80821115614ac857600080fd5b9084019060408287031215614adc57600080fd5b90925060208401359080821115614af257600080fd5b50614aff85828601614a85565b9150509250929050565b600060208284031215614b1b57600080fd5b5035919050565b60008060408385031215614b3557600080fd5b614b3e836149b4565b9150614b4c602084016149b4565b90509250929050565b60005b83811015614b70578181015183820152602001614b58565b50506000910152565b60008151808452614b91816020860160208601614b55565b601f017fffffffffffffffffffffffffffffffffffffffffffffffffffffffffffffffe0169290920160200192915050565b6020815260006134ff6020830184614b79565b60008060008060808587031215614bec57600080fd5b614bf5856149b4565b93506020850135925060408501359150614c11606086016149b4565b905092959194509250565b60008060408385031215614c2f57600080fd5b614c38836149b4565b946020939093013593505050565b60008060408385031215614c5957600080fd5b823567ffffffffffffffff80821115614c7157600080fd5b9084019060608287031215614adc57600080fd5b600081518084526020808501945080840160005b83811015614cd657815180516fffffffffffffffffffffffffffffffff908116895290840151168388015260409096019590820190600101614c99565b509495945050505050565b6020815260006134ff6020830184614c85565b805173ffffffffffffffffffffffffffffffffffffffff16825260006101c06020830151614d3a602086018273ffffffffffffffffffffffffffffffffffffffff169052565b506040830151614d4f604086018260ff169052565b506060830151816060860152614d6782860182614b79565b91505060808301518482036080860152614d818282614b79565b91505060a0830151614d9c60a086018264ffffffffff169052565b5060c0830151614dc060c08601826fffffffffffffffffffffffffffffffff169052565b5060e0830151614de460e08601826fffffffffffffffffffffffffffffffff169052565b50610100838101516fffffffffffffffffffffffffffffffff16908501526101208084015173ffffffffffffffffffffffffffffffffffffffff16908501526101408084015160ff16908501526101608084015185830382870152614e498382614b79565b925050506101808084015185830382870152614e658382614b79565b6101a095860151969095019590955250919392505050565b60208152600061ffff80845116602084015280602085015116604084015250604083015160806060840152614eb560a0840182614cf4565b905060608401517fffffffffffffffffffffffffffffffffffffffffffffffffffffffffffffffe0848303016080850152614ef08282614c85565b95945050505050565b60008060408385031215614f0c57600080fd5b50508035926020909101359150565b6000602080830181845280855180835260408601915060408160051b870101925083870160005b82811015614f8e577fffffffffffffffffffffffffffffffffffffffffffffffffffffffffffffffc0888603018452614f7c858351614cf4565b94509285019290850190600101614f42565b5092979650505050505050565b7f4e487b7100000000000000000000000000000000000000000000000000000000600052601160045260246000fd5b81810381811115610f3f57610f3f614f9b565b7f4e487b7100000000000000000000000000000000000000000000000000000000600052603260045260246000fd5b7f4e487b7100000000000000000000000000000000000000000000000000000000600052604160045260246000fd5b60008083357fffffffffffffffffffffffffffffffffffffffffffffffffffffffffffffffe184360301811261507057600080fd5b83018035915067ffffffffffffffff82111561508b57600080fd5b6020019150368190038213156120d657600080fd5b8183528181602085013750600060208284010152600060207fffffffffffffffffffffffffffffffffffffffffffffffffffffffffffffffe0601f840116840101905092915050565b6040815260006150fd6040830186886150a0565b82810360208401526151108185876150a0565b979650505050505050565b60008083357fffffffffffffffffffffffffffffffffffffffffffffffffffffffffffffffe184360301811261515057600080fd5b83018035915067ffffffffffffffff82111561516b57600080fd5b6020019150600581901b36038213156120d657600080fd5b60006020828403121561519557600080fd5b81356fffffffffffffffffffffffffffffffff811681146134ff57600080fd5b80820180821115610f3f57610f3f614f9b565b6000602082840312156151da57600080fd5b5051919050565b6000602082840312156151f357600080fd5b815160ff811681146134ff57600080fd5b600181815b8085111561525d57817fffffffffffffffffffffffffffffffffffffffffffffffffffffffffffffffff0482111561524357615243614f9b565b8085161561525057918102915b93841c9390800290615209565b509250929050565b60008261527457506001610f3f565b8161528157506000610f3f565b816001811461529757600281146152a1576152bd565b6001915050610f3f565b60ff8411156152b2576152b2614f9b565b50506001821b610f3f565b5060208310610133831016604e8410600b84101617156152e0575081810a610f3f565b6152ea8383615204565b807fffffffffffffffffffffffffffffffffffffffffffffffffffffffffffffffff0482111561531c5761531c614f9b565b029392505050565b60006134ff60ff841683615265565b8082028115828204841417610f3f57610f3f614f9b565b60007fffffffffffffffffffffffffffffffffffffffffffffffffffffffffffffffff820361537b5761537b614f9b565b5060010190565b60608152600061539660608301888a6150a0565b82810360208401526153a98187896150a0565b905082810360408401526153be8185876150a0565b9998505050505050505050565b600082615401577f4e487b7100000000000000000000000000000000000000000000000000000000600052601260045260246000fd5b500490565b60008161541557615415614f9b565b507fffffffffffffffffffffffffffffffffffffffffffffffffffffffffffffffff0190565b60006020828403121561544d57600080fd5b813561ffff811681146134ff57600080fd5b7fffffffffffffffffffffffffffffffffffffffff0000000000000000000000008460601b168152818360148301376000910160140190815292915050565b6000602082840312156154b057600080fd5b815167ffffffffffffffff808211156154c857600080fd5b818401915084601f8301126154dc57600080fd5b8151818111156154ee576154ee61500c565b604051601f82017fffffffffffffffffffffffffffffffffffffffffffffffffffffffffffffffe0908116603f011681019083821181831017156155345761553461500c565b8160405282815287602084870101111561554d57600080fd5b615110836020830160208801614b55565b60008251615570818460208701614b55565b9190910192915050565b60006020828403121561558c57600080fd5b815180151581146134ff57600080fdfea2646970667358221220c646ba442cc31600a00994df0d5fbd01797b6e975d5c41bc27b79242d6fcbefd64736f6c63430008140033",
  "linkReferences": {},
  "deployedLinkReferences": {}
}