{
  "_format": "hh-sol-artifact-1",
  "contractName": "MCV2_Bond",
  "sourceName": "contracts/MCV2_Bond.sol",
  "abi": [
    {
      "inputs": [
        {
          "internalType": "address",
          "name": "tokenImplementation",
          "type": "address"
        },
        {
          "internalType": "address",
          "name": "multiTokenImplementation",
          "type": "address"
        },
        {
          "internalType": "address",
          "name": "protocolBeneficiary_",
          "type": "address"
        },
        {
          "internalType": "uint256",
          "name": "maxSteps",
          "type": "uint256"
        },
        {
          "internalType": "address",
          "name": "_dragonswapRouter",
          "type": "address"
        },
        {
          "internalType": "address",
          "name": "_dragonswapFactory",
          "type": "address"
        }
      ],
      "stateMutability": "nonpayable",
      "type": "constructor"
    },
    {
      "inputs": [
        {
          "internalType": "address",
          "name": "target",
          "type": "address"
        }
      ],
      "name": "AddressEmptyCode",
      "type": "error"
    },
    {
      "inputs": [
        {
          "internalType": "address",
          "name": "account",
          "type": "address"
        }
      ],
      "name": "AddressInsufficientBalance",
      "type": "error"
    },
    {
      "inputs": [],
      "name": "ERC1167FailedCreateClone",
      "type": "error"
    },
    {
      "inputs": [],
      "name": "FailedInnerCall",
      "type": "error"
    },
    {
      "inputs": [],
      "name": "MCV2_BOND__InvalidPaginationParameters",
      "type": "error"
    },
    {
      "inputs": [],
      "name": "MCV2_Bond__CreationFeeTransactionFailed",
      "type": "error"
    },
    {
      "inputs": [],
      "name": "MCV2_Bond__ExceedMaxSupply",
      "type": "error"
    },
    {
      "inputs": [],
      "name": "MCV2_Bond__ExceedTotalSupply",
      "type": "error"
    },
    {
      "inputs": [
        {
          "internalType": "string",
          "name": "reason",
          "type": "string"
        }
      ],
      "name": "MCV2_Bond__InvalidConstructorParams",
      "type": "error"
    },
    {
      "inputs": [],
      "name": "MCV2_Bond__InvalidCreationFee",
      "type": "error"
    },
    {
      "inputs": [],
      "name": "MCV2_Bond__InvalidCreatorAddress",
      "type": "error"
    },
    {
      "inputs": [],
      "name": "MCV2_Bond__InvalidCurrentSupply",
      "type": "error"
    },
    {
      "inputs": [],
      "name": "MCV2_Bond__InvalidReceiver",
      "type": "error"
    },
    {
      "inputs": [
        {
          "internalType": "string",
          "name": "reason",
          "type": "string"
        }
      ],
      "name": "MCV2_Bond__InvalidReserveToken",
      "type": "error"
    },
    {
      "inputs": [
        {
          "internalType": "string",
          "name": "reason",
          "type": "string"
        }
      ],
      "name": "MCV2_Bond__InvalidStepParams",
      "type": "error"
    },
    {
      "inputs": [],
      "name": "MCV2_Bond__InvalidTokenAmount",
      "type": "error"
    },
    {
      "inputs": [
        {
          "internalType": "string",
          "name": "reason",
          "type": "string"
        }
      ],
      "name": "MCV2_Bond__InvalidTokenCreationParams",
      "type": "error"
    },
    {
      "inputs": [],
      "name": "MCV2_Bond__PermissionDenied",
      "type": "error"
    },
    {
      "inputs": [],
      "name": "MCV2_Bond__SlippageLimitExceeded",
      "type": "error"
    },
    {
      "inputs": [],
      "name": "MCV2_Bond__TokenNotFound",
      "type": "error"
    },
    {
      "inputs": [],
      "name": "MCV2_Bond__TokenSymbolAlreadyExists",
      "type": "error"
    },
    {
      "inputs": [],
      "name": "MCV2_Royalty__InvalidParams",
      "type": "error"
    },
    {
      "inputs": [],
      "name": "MCV2_Royalty__NothingToClaim",
      "type": "error"
    },
    {
      "inputs": [
        {
          "internalType": "address",
          "name": "owner",
          "type": "address"
        }
      ],
      "name": "OwnableInvalidOwner",
      "type": "error"
    },
    {
      "inputs": [
        {
          "internalType": "address",
          "name": "account",
          "type": "address"
        }
      ],
      "name": "OwnableUnauthorizedAccount",
      "type": "error"
    },
    {
      "inputs": [
        {
          "internalType": "uint8",
          "name": "bits",
          "type": "uint8"
        },
        {
          "internalType": "uint256",
          "name": "value",
          "type": "uint256"
        }
      ],
      "name": "SafeCastOverflowedUintDowncast",
      "type": "error"
    },
    {
      "inputs": [
        {
          "internalType": "address",
          "name": "token",
          "type": "address"
        }
      ],
      "name": "SafeERC20FailedOperation",
      "type": "error"
    },
    {
      "anonymous": false,
      "inputs": [
        {
          "indexed": true,
          "internalType": "address",
          "name": "token",
          "type": "address"
        },
        {
          "indexed": true,
          "internalType": "address",
          "name": "creator",
          "type": "address"
        }
      ],
      "name": "BondCreatorUpdated",
      "type": "event"
    },
    {
      "anonymous": false,
      "inputs": [
        {
          "indexed": true,
          "internalType": "address",
          "name": "token",
          "type": "address"
        },
        {
          "indexed": true,
          "internalType": "address",
          "name": "user",
          "type": "address"
        },
        {
          "indexed": false,
          "internalType": "address",
          "name": "receiver",
          "type": "address"
        },
        {
          "indexed": false,
          "internalType": "uint256",
          "name": "amountBurned",
          "type": "uint256"
        },
        {
          "indexed": true,
          "internalType": "address",
          "name": "reserveToken",
          "type": "address"
        },
        {
          "indexed": false,
          "internalType": "uint256",
          "name": "refundAmount",
          "type": "uint256"
        }
      ],
      "name": "Burn",
      "type": "event"
    },
    {
      "anonymous": false,
      "inputs": [
        {
          "indexed": false,
          "internalType": "uint256",
          "name": "amount",
          "type": "uint256"
        }
      ],
      "name": "CreationFeeUpdated",
      "type": "event"
    },
    {
      "anonymous": false,
      "inputs": [
        {
          "indexed": true,
          "internalType": "address",
          "name": "token",
          "type": "address"
        },
        {
          "indexed": true,
          "internalType": "address",
          "name": "user",
          "type": "address"
        },
        {
          "indexed": false,
          "internalType": "address",
          "name": "receiver",
          "type": "address"
        },
        {
          "indexed": false,
          "internalType": "uint256",
          "name": "amountMinted",
          "type": "uint256"
        },
        {
          "indexed": true,
          "internalType": "address",
          "name": "reserveToken",
          "type": "address"
        },
        {
          "indexed": false,
          "internalType": "uint256",
          "name": "reserveAmount",
          "type": "uint256"
        }
      ],
      "name": "Mint",
      "type": "event"
    },
    {
      "anonymous": false,
      "inputs": [
        {
          "indexed": true,
          "internalType": "address",
          "name": "token",
          "type": "address"
        },
        {
          "indexed": false,
          "internalType": "string",
          "name": "name",
          "type": "string"
        },
        {
          "indexed": false,
          "internalType": "string",
          "name": "symbol",
          "type": "string"
        },
        {
          "indexed": false,
          "internalType": "string",
          "name": "uri",
          "type": "string"
        },
        {
          "indexed": true,
          "internalType": "address",
          "name": "reserveToken",
          "type": "address"
        }
      ],
      "name": "MultiTokenCreated",
      "type": "event"
    },
    {
      "anonymous": false,
      "inputs": [
        {
          "indexed": true,
          "internalType": "address",
          "name": "previousOwner",
          "type": "address"
        },
        {
          "indexed": true,
          "internalType": "address",
          "name": "newOwner",
          "type": "address"
        }
      ],
      "name": "OwnershipTransferred",
      "type": "event"
    },
    {
      "anonymous": false,
      "inputs": [
        {
          "indexed": false,
          "internalType": "address",
          "name": "protocolBeneficiary",
          "type": "address"
        }
      ],
      "name": "ProtocolBeneficiaryUpdated",
      "type": "event"
    },
    {
      "anonymous": false,
      "inputs": [
        {
          "indexed": true,
          "internalType": "address",
          "name": "user",
          "type": "address"
        },
        {
          "indexed": false,
          "internalType": "address",
          "name": "reserveToken",
          "type": "address"
        },
        {
          "indexed": false,
          "internalType": "uint256",
          "name": "amount",
          "type": "uint256"
        }
      ],
      "name": "RoyaltyClaimed",
      "type": "event"
    },
    {
      "anonymous": false,
      "inputs": [
        {
          "indexed": false,
          "internalType": "uint256",
          "name": "ratio",
          "type": "uint256"
        }
      ],
      "name": "RoyaltyRangeUpdated",
      "type": "event"
    },
    {
      "anonymous": false,
      "inputs": [
        {
          "indexed": true,
          "internalType": "address",
          "name": "token",
          "type": "address"
        },
        {
          "indexed": false,
          "internalType": "string",
          "name": "name",
          "type": "string"
        },
        {
          "indexed": false,
          "internalType": "string",
          "name": "symbol",
          "type": "string"
        },
        {
          "indexed": true,
          "internalType": "address",
          "name": "reserveToken",
          "type": "address"
        }
      ],
      "name": "TokenCreated",
      "type": "event"
    },
    {
      "stateMutability": "payable",
      "type": "fallback"
    },
    {
      "inputs": [],
      "name": "BURN_ADDRESS",
      "outputs": [
        {
          "internalType": "address",
          "name": "",
          "type": "address"
        }
      ],
      "stateMutability": "view",
      "type": "function"
    },
    {
      "inputs": [
        {
          "internalType": "address",
          "name": "token",
          "type": "address"
        },
        {
          "internalType": "uint256",
          "name": "tokensToBurn",
          "type": "uint256"
        },
        {
          "internalType": "uint256",
          "name": "minRefund",
          "type": "uint256"
        },
        {
          "internalType": "address",
          "name": "receiver",
          "type": "address"
        }
      ],
      "name": "burn",
      "outputs": [
        {
          "internalType": "uint256",
          "name": "",
          "type": "uint256"
        }
      ],
      "stateMutability": "nonpayable",
      "type": "function"
    },
    {
      "inputs": [
        {
          "internalType": "address",
          "name": "reserveToken",
          "type": "address"
        }
      ],
      "name": "burnRoyalties",
      "outputs": [],
      "stateMutability": "nonpayable",
      "type": "function"
    },
    {
      "inputs": [
        {
          "internalType": "address",
          "name": "reserveToken",
          "type": "address"
        }
      ],
      "name": "claimRoyalties",
      "outputs": [],
      "stateMutability": "nonpayable",
      "type": "function"
    },
    {
      "inputs": [
        {
          "components": [
            {
              "internalType": "string",
              "name": "name",
              "type": "string"
            },
            {
              "internalType": "string",
              "name": "symbol",
              "type": "string"
            },
            {
              "internalType": "string",
              "name": "uri",
              "type": "string"
            }
          ],
          "internalType": "struct MCV2_Bond.MultiTokenParams",
          "name": "tp",
          "type": "tuple"
        },
        {
          "components": [
            {
              "internalType": "uint16",
              "name": "mintRoyalty",
              "type": "uint16"
            },
            {
              "internalType": "uint16",
              "name": "burnRoyalty",
              "type": "uint16"
            },
            {
              "internalType": "address",
              "name": "reserveToken",
              "type": "address"
            },
            {
              "internalType": "uint128",
              "name": "maxSupply",
              "type": "uint128"
            },
            {
              "internalType": "uint128[]",
              "name": "stepRanges",
              "type": "uint128[]"
            },
            {
              "internalType": "uint128[]",
              "name": "stepPrices",
              "type": "uint128[]"
            }
          ],
          "internalType": "struct MCV2_Bond.BondParams",
          "name": "bp",
          "type": "tuple"
        }
      ],
      "name": "createMultiToken",
      "outputs": [
        {
          "internalType": "address",
          "name": "",
          "type": "address"
        }
      ],
      "stateMutability": "payable",
      "type": "function"
    },
    {
      "inputs": [
        {
          "components": [
            {
              "internalType": "string",
              "name": "name",
              "type": "string"
            },
            {
              "internalType": "string",
              "name": "symbol",
              "type": "string"
            }
          ],
          "internalType": "struct MCV2_Bond.TokenParams",
          "name": "tp",
          "type": "tuple"
        },
        {
          "components": [
            {
              "internalType": "uint16",
              "name": "mintRoyalty",
              "type": "uint16"
            },
            {
              "internalType": "uint16",
              "name": "burnRoyalty",
              "type": "uint16"
            },
            {
              "internalType": "address",
              "name": "reserveToken",
              "type": "address"
            },
            {
              "internalType": "uint128",
              "name": "maxSupply",
              "type": "uint128"
            },
            {
              "internalType": "uint128[]",
              "name": "stepRanges",
              "type": "uint128[]"
            },
            {
              "internalType": "uint128[]",
              "name": "stepPrices",
              "type": "uint128[]"
            }
          ],
          "internalType": "struct MCV2_Bond.BondParams",
          "name": "bp",
          "type": "tuple"
        }
      ],
      "name": "createToken",
      "outputs": [
        {
          "internalType": "address",
          "name": "",
          "type": "address"
        }
      ],
      "stateMutability": "payable",
      "type": "function"
    },
    {
      "inputs": [],
      "name": "creationFee",
      "outputs": [
        {
          "internalType": "uint256",
          "name": "",
          "type": "uint256"
        }
      ],
      "stateMutability": "view",
      "type": "function"
    },
    {
      "inputs": [],
      "name": "dragonswapFactory",
      "outputs": [
        {
          "internalType": "address",
          "name": "",
          "type": "address"
        }
      ],
      "stateMutability": "view",
      "type": "function"
    },
    {
      "inputs": [],
      "name": "dragonswapRouter",
      "outputs": [
        {
          "internalType": "contract IDragonswapRouter",
          "name": "",
          "type": "address"
        }
      ],
      "stateMutability": "view",
      "type": "function"
    },
    {
      "inputs": [
        {
          "internalType": "address",
          "name": "token",
          "type": "address"
        }
      ],
      "name": "exists",
      "outputs": [
        {
          "internalType": "bool",
          "name": "",
          "type": "bool"
        }
      ],
      "stateMutability": "view",
      "type": "function"
    },
    {
      "inputs": [
        {
          "internalType": "address",
          "name": "token",
          "type": "address"
        }
      ],
      "name": "getDetail",
      "outputs": [
        {
          "components": [
            {
              "internalType": "uint16",
              "name": "mintRoyalty",
              "type": "uint16"
            },
            {
              "internalType": "uint16",
              "name": "burnRoyalty",
              "type": "uint16"
            },
            {
              "components": [
                {
                  "internalType": "address",
                  "name": "creator",
                  "type": "address"
                },
                {
                  "internalType": "address",
                  "name": "token",
                  "type": "address"
                },
                {
                  "internalType": "uint8",
                  "name": "decimals",
                  "type": "uint8"
                },
                {
                  "internalType": "string",
                  "name": "symbol",
                  "type": "string"
                },
                {
                  "internalType": "string",
                  "name": "name",
                  "type": "string"
                },
                {
                  "internalType": "uint40",
                  "name": "createdAt",
                  "type": "uint40"
                },
                {
                  "internalType": "uint128",
                  "name": "currentSupply",
                  "type": "uint128"
                },
                {
                  "internalType": "uint128",
                  "name": "maxSupply",
                  "type": "uint128"
                },
                {
                  "internalType": "uint128",
                  "name": "priceForNextMint",
                  "type": "uint128"
                },
                {
                  "internalType": "address",
                  "name": "reserveToken",
                  "type": "address"
                },
                {
                  "internalType": "uint8",
                  "name": "reserveDecimals",
                  "type": "uint8"
                },
                {
                  "internalType": "string",
                  "name": "reserveSymbol",
                  "type": "string"
                },
                {
                  "internalType": "string",
                  "name": "reserveName",
                  "type": "string"
                },
                {
                  "internalType": "uint256",
                  "name": "reserveBalance",
                  "type": "uint256"
                }
              ],
              "internalType": "struct MCV2_Bond.BondInfo",
              "name": "info",
              "type": "tuple"
            },
            {
              "components": [
                {
                  "internalType": "uint128",
                  "name": "rangeTo",
                  "type": "uint128"
                },
                {
                  "internalType": "uint128",
                  "name": "price",
                  "type": "uint128"
                }
              ],
              "internalType": "struct MCV2_Bond.BondStep[]",
              "name": "steps",
              "type": "tuple[]"
            }
          ],
          "internalType": "struct MCV2_Bond.BondDetail",
          "name": "detail",
          "type": "tuple"
        }
      ],
      "stateMutability": "view",
      "type": "function"
    },
    {
      "inputs": [
        {
          "internalType": "uint256",
          "name": "start",
          "type": "uint256"
        },
        {
          "internalType": "uint256",
          "name": "stop",
          "type": "uint256"
        }
      ],
      "name": "getList",
      "outputs": [
        {
          "components": [
            {
              "internalType": "address",
              "name": "creator",
              "type": "address"
            },
            {
              "internalType": "address",
              "name": "token",
              "type": "address"
            },
            {
              "internalType": "uint8",
              "name": "decimals",
              "type": "uint8"
            },
            {
              "internalType": "string",
              "name": "symbol",
              "type": "string"
            },
            {
              "internalType": "string",
              "name": "name",
              "type": "string"
            },
            {
              "internalType": "uint40",
              "name": "createdAt",
              "type": "uint40"
            },
            {
              "internalType": "uint128",
              "name": "currentSupply",
              "type": "uint128"
            },
            {
              "internalType": "uint128",
              "name": "maxSupply",
              "type": "uint128"
            },
            {
              "internalType": "uint128",
              "name": "priceForNextMint",
              "type": "uint128"
            },
            {
              "internalType": "address",
              "name": "reserveToken",
              "type": "address"
            },
            {
              "internalType": "uint8",
              "name": "reserveDecimals",
              "type": "uint8"
            },
            {
              "internalType": "string",
              "name": "reserveSymbol",
              "type": "string"
            },
            {
              "internalType": "string",
              "name": "reserveName",
              "type": "string"
            },
            {
              "internalType": "uint256",
              "name": "reserveBalance",
              "type": "uint256"
            }
          ],
          "internalType": "struct MCV2_Bond.BondInfo[]",
          "name": "info",
          "type": "tuple[]"
        }
      ],
      "stateMutability": "view",
      "type": "function"
    },
    {
      "inputs": [
        {
          "internalType": "address",
          "name": "token",
          "type": "address"
        },
        {
          "internalType": "uint256",
          "name": "tokensToBurn",
          "type": "uint256"
        }
      ],
      "name": "getRefundForTokens",
      "outputs": [
        {
          "internalType": "uint256",
          "name": "refundAmount",
          "type": "uint256"
        },
        {
          "internalType": "uint256",
          "name": "royalty",
          "type": "uint256"
        }
      ],
      "stateMutability": "view",
      "type": "function"
    },
    {
      "inputs": [
        {
          "internalType": "address",
          "name": "token",
          "type": "address"
        },
        {
          "internalType": "uint256",
          "name": "tokensToMint",
          "type": "uint256"
        }
      ],
      "name": "getReserveForToken",
      "outputs": [
        {
          "internalType": "uint256",
          "name": "reserveAmount",
          "type": "uint256"
        },
        {
          "internalType": "uint256",
          "name": "royalty",
          "type": "uint256"
        }
      ],
      "stateMutability": "view",
      "type": "function"
    },
    {
      "inputs": [
        {
          "internalType": "address",
          "name": "wallet",
          "type": "address"
        },
        {
          "internalType": "address",
          "name": "reserveToken",
          "type": "address"
        }
      ],
      "name": "getRoyaltyInfo",
      "outputs": [
        {
          "internalType": "uint256",
          "name": "",
          "type": "uint256"
        },
        {
          "internalType": "uint256",
          "name": "",
          "type": "uint256"
        }
      ],
      "stateMutability": "view",
      "type": "function"
    },
    {
      "inputs": [
        {
          "internalType": "address",
          "name": "token",
          "type": "address"
        }
      ],
      "name": "getSteps",
      "outputs": [
        {
          "components": [
            {
              "internalType": "uint128",
              "name": "rangeTo",
              "type": "uint128"
            },
            {
              "internalType": "uint128",
              "name": "price",
              "type": "uint128"
            }
          ],
          "internalType": "struct MCV2_Bond.BondStep[]",
          "name": "",
          "type": "tuple[]"
        }
      ],
      "stateMutability": "view",
      "type": "function"
    },
    {
      "inputs": [
        {
          "internalType": "address",
          "name": "creator",
          "type": "address"
        },
        {
          "internalType": "uint256",
          "name": "start",
          "type": "uint256"
        },
        {
          "internalType": "uint256",
          "name": "stop",
          "type": "uint256"
        }
      ],
      "name": "getTokensByCreator",
      "outputs": [
        {
          "internalType": "address[]",
          "name": "addresses",
          "type": "address[]"
        }
      ],
      "stateMutability": "view",
      "type": "function"
    },
    {
      "inputs": [
        {
          "internalType": "address",
          "name": "reserveToken",
          "type": "address"
        },
        {
          "internalType": "uint256",
          "name": "start",
          "type": "uint256"
        },
        {
          "internalType": "uint256",
          "name": "stop",
          "type": "uint256"
        }
      ],
      "name": "getTokensByReserveToken",
      "outputs": [
        {
          "internalType": "address[]",
          "name": "addresses",
          "type": "address[]"
        }
      ],
      "stateMutability": "view",
      "type": "function"
    },
    {
      "inputs": [],
      "name": "maxRoyaltyRange",
      "outputs": [
        {
          "internalType": "uint256",
          "name": "",
          "type": "uint256"
        }
      ],
      "stateMutability": "view",
      "type": "function"
    },
    {
      "inputs": [
        {
          "internalType": "address",
          "name": "token",
          "type": "address"
        }
      ],
      "name": "maxSupply",
      "outputs": [
        {
          "internalType": "uint128",
          "name": "",
          "type": "uint128"
        }
      ],
      "stateMutability": "view",
      "type": "function"
    },
    {
      "inputs": [
        {
          "internalType": "address",
          "name": "token",
          "type": "address"
        },
        {
          "internalType": "uint256",
          "name": "tokensToMint",
          "type": "uint256"
        },
        {
          "internalType": "uint256",
          "name": "maxReserveAmount",
          "type": "uint256"
        },
        {
          "internalType": "address",
          "name": "receiver",
          "type": "address"
        }
      ],
      "name": "mint",
      "outputs": [
        {
          "internalType": "uint256",
          "name": "",
          "type": "uint256"
        }
      ],
      "stateMutability": "payable",
      "type": "function"
    },
    {
      "inputs": [],
      "name": "owner",
      "outputs": [
        {
          "internalType": "address",
          "name": "",
          "type": "address"
        }
      ],
      "stateMutability": "view",
      "type": "function"
    },
    {
      "inputs": [
        {
          "internalType": "address",
          "name": "token",
          "type": "address"
        }
      ],
      "name": "priceForNextMint",
      "outputs": [
        {
          "internalType": "uint128",
          "name": "",
          "type": "uint128"
        }
      ],
      "stateMutability": "view",
      "type": "function"
    },
    {
      "inputs": [],
      "name": "protocolBeneficiary",
      "outputs": [
        {
          "internalType": "address",
          "name": "",
          "type": "address"
        }
      ],
      "stateMutability": "view",
      "type": "function"
    },
    {
      "inputs": [],
      "name": "renounceOwnership",
      "outputs": [],
      "stateMutability": "nonpayable",
      "type": "function"
    },
    {
      "inputs": [
        {
          "internalType": "address",
          "name": "",
          "type": "address"
        }
      ],
      "name": "tokenBond",
      "outputs": [
        {
          "internalType": "address",
          "name": "creator",
          "type": "address"
        },
        {
          "internalType": "uint16",
          "name": "mintRoyalty",
          "type": "uint16"
        },
        {
          "internalType": "uint16",
          "name": "burnRoyalty",
          "type": "uint16"
        },
        {
          "internalType": "uint40",
          "name": "createdAt",
          "type": "uint40"
        },
        {
          "internalType": "address",
          "name": "reserveToken",
          "type": "address"
        },
        {
          "internalType": "uint256",
          "name": "reserveBalance",
          "type": "uint256"
        }
      ],
      "stateMutability": "view",
      "type": "function"
    },
    {
      "inputs": [],
      "name": "tokenCount",
      "outputs": [
        {
          "internalType": "uint256",
          "name": "",
          "type": "uint256"
        }
      ],
      "stateMutability": "view",
      "type": "function"
    },
    {
      "inputs": [
        {
          "internalType": "uint256",
          "name": "",
          "type": "uint256"
        }
      ],
      "name": "tokens",
      "outputs": [
        {
          "internalType": "address",
          "name": "",
          "type": "address"
        }
      ],
      "stateMutability": "view",
      "type": "function"
    },
    {
      "inputs": [
        {
          "internalType": "address",
          "name": "newOwner",
          "type": "address"
        }
      ],
      "name": "transferOwnership",
      "outputs": [],
      "stateMutability": "nonpayable",
      "type": "function"
    },
    {
      "inputs": [
        {
          "internalType": "address",
          "name": "token",
          "type": "address"
        },
        {
          "internalType": "address",
          "name": "creator",
          "type": "address"
        }
      ],
      "name": "updateBondCreator",
      "outputs": [],
      "stateMutability": "nonpayable",
      "type": "function"
    },
    {
      "inputs": [
        {
          "internalType": "uint256",
          "name": "amount",
          "type": "uint256"
        }
      ],
      "name": "updateCreationFee",
      "outputs": [],
      "stateMutability": "nonpayable",
      "type": "function"
    },
    {
      "inputs": [
        {
          "internalType": "uint256",
          "name": "ratio",
          "type": "uint256"
        }
      ],
      "name": "updateMaxRoyaltyRange",
      "outputs": [],
      "stateMutability": "nonpayable",
      "type": "function"
    },
    {
      "inputs": [
        {
          "internalType": "address",
          "name": "protocolBeneficiary_",
          "type": "address"
        }
      ],
      "name": "updateProtocolBeneficiary",
      "outputs": [],
      "stateMutability": "nonpayable",
      "type": "function"
    },
    {
      "inputs": [
        {
          "internalType": "address",
          "name": "",
          "type": "address"
        },
        {
          "internalType": "address",
          "name": "",
          "type": "address"
        }
      ],
      "name": "userTokenRoyaltyBalance",
      "outputs": [
        {
          "internalType": "uint256",
          "name": "",
          "type": "uint256"
        }
      ],
      "stateMutability": "view",
      "type": "function"
    },
    {
      "inputs": [
        {
          "internalType": "address",
          "name": "",
          "type": "address"
        },
        {
          "internalType": "address",
          "name": "",
          "type": "address"
        }
      ],
      "name": "userTokenRoyaltyClaimed",
      "outputs": [
        {
          "internalType": "uint256",
          "name": "",
          "type": "uint256"
        }
      ],
      "stateMutability": "view",
      "type": "function"
    },
    {
      "inputs": [],
      "name": "version",
      "outputs": [
        {
          "internalType": "string",
          "name": "",
          "type": "string"
        }
      ],
      "stateMutability": "pure",
      "type": "function"
    },
    {
      "inputs": [],
      "name": "wsei",
      "outputs": [
        {
          "internalType": "address",
          "name": "",
          "type": "address"
        }
      ],
      "stateMutability": "view",
      "type": "function"
    },
    {
      "stateMutability": "payable",
      "type": "receive"
    }
  ],
  "bytecode": "0x60e060409080825234620002f65760c08162005a888038038091620000258285620002fb565b833981010312620002f6576200003b8162000335565b906020916200004c83830162000335565b916200005a85820162000335565b6060820151946200007c60a0620000746080860162000335565b940162000335565b3315620002de57600080546001600160a01b03198082163390811784558b5191976001600160a01b0397949594909388929083167f8be0079c531659141344cd1fd0a4f28419497f9722a3daafe3b4186f6b6457e08880a36113886003551690818860015416176001556730927f74c9de0000600255868916156200029b57508589161562000256571562000211578815620001e1576004929185808693169182896008541617600855168760095416176009558a51938480926309bf4f4160e31b82525afa928315620001d557819362000191575b5050501690600a541617600a5560a05260c0526080525161573d90816200034b8239608051816140bf015260a0518161312e015260c05181611fad0152f35b9091809350813d8311620001cd575b620001ac8183620002fb565b81010312620001ca5750620001c19062000335565b38808062000152565b80fd5b503d620001a0565b508851903d90823e3d90fd5b895163643b81d760e01b81526004810185905260086024820152676d6178537465707360c01b6044820152606490fd5b895163643b81d760e01b815260048101859052601360248201527f70726f746f636f6c42656e6566696369617279000000000000000000000000006044820152606490fd5b8a5163643b81d760e01b815260048101869052601860248201527f6d756c7469546f6b656e496d706c656d656e746174696f6e00000000000000006044820152606490fd5b63643b81d760e01b815260048101869052601360248201527f746f6b656e496d706c656d656e746174696f6e000000000000000000000000006044820152606490fd5b8751631e4fbdf760e01b815260006004820152602490fd5b600080fd5b601f909101601f19168101906001600160401b038211908210176200031f57604052565b634e487b7160e01b600052604160045260246000fd5b51906001600160a01b0382168203620002f65756fe60806040526004361015610018575b361561001657005b005b6000803560e01c806307e329461461348d57806327e381a9146133f757806330be6955146130995780634f64b2be1461304957806350801fb114612fec57806354fd4d5014612f8e5780635a4d53111461296d5780636fa237951461291f578063715018a6146128a05780637348ed2f1461281e578063763e7da61461276357806376a9864b1461248457806377e456cb14612466578063840d885d1461244257806385396d2b14611efa5780638da5cb5b14611ec7578063990e600514611e93578063995e5f9214611e365780639c65003d14611dd95780639cc7becf14611d9b5780639f181b5e14611d7d578063a746ee2e14611c11578063a9816b0814611a80578063ac4e967514611a04578063c162c91614611888578063c895471614611854578063c9cb204b146114a9578063cfc55622146112db578063d9fe0eae14611252578063dce0b4e414611234578063f2fde38b1461116e578063f30952dd1461113a578063f6a3d24e146110e2578063f74bfe8e14610380578063f9d0fe421461034c578063fb8c13c8146101da5763fccc2813146101bb575061000e565b346101d757806003193601126101d757602060405161dead8152f35b80fd5b50346101d7576101e936613620565b929083808210801590610338575b61030e57600754809111610306575b5081815b8581106102b3575061021b8361558f565b9381925b868110610239575b604051806102358882613657565b0390f35b610242816136a8565b73ffffffffffffffffffffffffffffffffffffffff809254600392831b1c16855260066020528160408620541682851614610282575b505060010161021f565b61028b836136a8565b9054911b1c1661029f600186019588614c3d565b528484146102ae573880610278565b610227565b6102bc816136a8565b9073ffffffffffffffffffffffffffffffffffffffff918291549060031b1c168352600660205280604084205416908616146102fb575b60010161020a565b6001909301926102f3565b935038610206565b60046040517f891724d6000000000000000000000000000000000000000000000000000000008152fd5b506127106103468383613cf9565b116101f7565b50346101d757806003193601126101d757602073ffffffffffffffffffffffffffffffffffffffff600a5416604051908152f35b5061038a3661378c565b9073ffffffffffffffffffffffffffffffffffffffff8216156110b85773ffffffffffffffffffffffffffffffffffffffff84168552600660205273ffffffffffffffffffffffffffffffffffffffff6001604087200154161561108e578215610fa75773ffffffffffffffffffffffffffffffffffffffff841685526006602052604085209261049760036040519561042387613a0e565b64ffffffffff815473ffffffffffffffffffffffffffffffffffffffff8116895261ffff8160a01c1660208a015261ffff8160b01c1660408a015260c01c16606088015273ffffffffffffffffffffffffffffffffffffffff6001820154166080880152600281015460a088015201614bb2565b948560c0860152604051947f18160ddd00000000000000000000000000000000000000000000000000000000865260208660048173ffffffffffffffffffffffffffffffffffffffff86165afa95861561108357889661104f575b5085906104ff8488614c30565b6fffffffffffffffffffffffffffffffff61051985614f1f565b1610611025576040517f313ce56700000000000000000000000000000000000000000000000000000000815260208160048173ffffffffffffffffffffffffffffffffffffffff88165afa801561101a5761057f918b91610feb575b5097959297614418565b90849261058d8b9786614d48565b965b8a51881015610fdb576105a2888c614c3d565b51906105c18b6fffffffffffffffffffffffffffffffff845116613cf9565b90819287831060001461063c57821561062c5761061e92610612610624959361060c8a6106076fffffffffffffffffffffffffffffffff60206106189801511686614456565b614c8a565b90614c30565b9d614c30565b96613cf9565b97614429565b96939861058f565b509a959890506106249150614429565b610607949d5061060c96959e999c50610674989b9a506020919793506fffffffffffffffffffffffffffffffff925001511690614456565b95815b8715908115610fd1575b50610fa75761271061069e61ffff60206106a69401511689614456565b048097614c30565b948511610f7d57843410610f1f5773ffffffffffffffffffffffffffffffffffffffff83168152600660205261072e60408220966106e48188613cf9565b6106f360028a01918254614c30565b905573ffffffffffffffffffffffffffffffffffffffff88541673ffffffffffffffffffffffffffffffffffffffff60018a015416906155de565b6040517f18160ddd00000000000000000000000000000000000000000000000000000000815260208160048173ffffffffffffffffffffffffffffffffffffffff88165afa8015610d025785908390610ee4575b61078c9250614c30565b6b0295be96e64066972000000080821015610e865773ffffffffffffffffffffffffffffffffffffffff85163b15610e82576040517f1b5ad8b500000000000000000000000000000000000000000000000000000000815273ffffffffffffffffffffffffffffffffffffffff85166004820152602481018790528381806044810103818373ffffffffffffffffffffffffffffffffffffffff8b165af18015610e1e57908491610e6e575b505081146108dd575b50507f02ed9b10d8b33a6a9fda664247bfd8f6248f74cff85cc84e56b7530c2fce560a8473ffffffffffffffffffffffffffffffffffffffff6001602098015416946108d260405192839273ffffffffffffffffffffffffffffffffffffffff339816968460409194939273ffffffffffffffffffffffffffffffffffffffff606083019616825260208201520152565b0390a4604051908152f35b73ffffffffffffffffffffffffffffffffffffffff6009541673ffffffffffffffffffffffffffffffffffffffff600854166040517f4dfa7a08000000000000000000000000000000000000000000000000000000008152602081600481855afa908115610e46576109ab916020918791610e51575b506040517fe6a4390500000000000000000000000000000000000000000000000000000000815273ffffffffffffffffffffffffffffffffffffffff808b166004830152909116602482015291829081906044820190565b0381865afa908115610e4657916109e573ffffffffffffffffffffffffffffffffffffffff6020936004958991610e29575b501615614b5b565b604051928380927f4dfa7a080000000000000000000000000000000000000000000000000000000082525afa908115610e1e578492602092610a83928591610e01575b506040517fc9c6539600000000000000000000000000000000000000000000000000000000815273ffffffffffffffffffffffffffffffffffffffff808b166004830152909116602482015293849283919082906044820190565b03925af1908115610d69579073ffffffffffffffffffffffffffffffffffffffff918491610dd2575b501615610d74576008546040517f095ea7b300000000000000000000000000000000000000000000000000000000815273ffffffffffffffffffffffffffffffffffffffff909116600482015260248101829052602081806044810103818673ffffffffffffffffffffffffffffffffffffffff8a165af18015610d6957610d3a575b50610b6d73ffffffffffffffffffffffffffffffffffffffff60085416916fffffffffffffffffffffffffffffffff610b6787614f1f565b16613cf9565b73ffffffffffffffffffffffffffffffffffffffff83541690610384420192834211610d0d5760609291690291ad5259e8bf10000060c49260405196879586947f0c7177af00000000000000000000000000000000000000000000000000000000865273ffffffffffffffffffffffffffffffffffffffff8d1660048701526024860152896044860152896064860152608485015260a48401525af18015610d0257610cd7575b5080600e73ffffffffffffffffffffffffffffffffffffffff600154166822a3e80a6ed29c0000604051917f3633392065746865722073656e7400000000000000000000000000000000000083525af1610c6c613c55565b5015610c79573880610841565b60646040517f08c379a000000000000000000000000000000000000000000000000000000000815260206004820152600f60248201527f5472616e73666572206661696c656400000000000000000000000000000000006044820152fd5b606090813d8111610cfb575b610ced8183613a7f565b810103126101d75738610c14565b503d610ce3565b6040513d84823e3d90fd5b6024857f4e487b710000000000000000000000000000000000000000000000000000000081526011600452fd5b610d5b9060203d602011610d62575b610d538183613a7f565b810190614e0d565b5038610b2f565b503d610d49565b6040513d85823e3d90fd5b60646040517f08c379a000000000000000000000000000000000000000000000000000000000815260206004820152600f60248201527f416c7265616479206372656174656400000000000000000000000000000000006044820152fd5b610df4915060203d602011610dfa575b610dec8183613a7f565b810190614de1565b38610aac565b503d610de2565b610e189150843d8611610dfa57610dec8183613a7f565b38610a28565b6040513d86823e3d90fd5b610e409150853d8711610dfa57610dec8183613a7f565b386109dd565b6040513d87823e3d90fd5b610e689150823d8411610dfa57610dec8183613a7f565b38610953565b610e77906139cb565b610e82578238610838565b8280fd5b60646040517f08c379a000000000000000000000000000000000000000000000000000000000815260206004820152600d60248201527f6578636565646564203830304d000000000000000000000000000000000000006044820152fd5b50506020813d602011610f17575b81610eff60209383613a7f565b81010312610f12578461078c9151610782565b600080fd5b3d9150610ef2565b60646040517f08c379a000000000000000000000000000000000000000000000000000000000815260206004820152601060248201527f496e636f727265637420457468657220000000000000000000000000000000006044820152fd5b60046040517f07728bb0000000000000000000000000000000000000000000000000000000008152fd5b60046040517fc01ae105000000000000000000000000000000000000000000000000000000008152fd5b9050151538610681565b9a95985098509295945050610677565b61100d915060203d602011611013575b6110058183613a7f565b8101906143ff565b38610575565b503d610ffb565b6040513d8c823e3d90fd5b60046040517f6b5b0f7c000000000000000000000000000000000000000000000000000000008152fd5b9095506020813d60201161107b575b8161106b60209383613a7f565b81010312610f12575194386104f2565b3d915061105e565b6040513d8a823e3d90fd5b60046040517f2d350e9f000000000000000000000000000000000000000000000000000000008152fd5b60046040517fd9b08f76000000000000000000000000000000000000000000000000000000008152fd5b50346101d75760206003193601126101d75760206111306111016135da565b73ffffffffffffffffffffffffffffffffffffffff809116600052600660205260016040600020015416151590565b6040519015158152f35b50346101d757806003193601126101d757602073ffffffffffffffffffffffffffffffffffffffff60085416604051908152f35b50346101d75760206003193601126101d7576111886135da565b611190613929565b73ffffffffffffffffffffffffffffffffffffffff80911690811561120357600054827fffffffffffffffffffffffff0000000000000000000000000000000000000000821617600055167f8be0079c531659141344cd1fd0a4f28419497f9722a3daafe3b4186f6b6457e0600080a380f35b602483604051907f1e4fbdf70000000000000000000000000000000000000000000000000000000082526004820152fd5b50346101d757806003193601126101d7576020600254604051908152f35b50346101d75760206003193601126101d75760c090604073ffffffffffffffffffffffffffffffffffffffff91826112886135da565b16815260066020522080549064ffffffffff60028460018401541692015492604051948116855261ffff808260a01c1660208701528160b01c166040860152851c166060840152608083015260a0820152f35b50346101d7576020806003193601126114a5576112f66135da565b9061dead91828452600482526040842073ffffffffffffffffffffffffffffffffffffffff82169081600052835260406000205492831561147b578486526004815260408620826000528152856040600020558486526005815260408620826000528152604060002061136a858254614c30565b90556113c98680604051848101907fa9059cbb000000000000000000000000000000000000000000000000000000008252896024820152886044820152604481526113b481613a2a565b519082875af16113c2613c55565b9084615667565b8051918215159283611462575b50505061143157506040805173ffffffffffffffffffffffffffffffffffffffff909216825260208201929092527fd1b893da855ca6a7c9cfbaff142da78c734a39d4811ad711fe7acfd6e5e433a491819081015b0390a280f35b602490604051907f5274afe70000000000000000000000000000000000000000000000000000000082526004820152fd5b6114729350820181019101614e0d565b153880806113d6565b60046040517fbfa4e446000000000000000000000000000000000000000000000000000000008152fd5b5080fd5b50346101d75760406003193601126101d7576114c36135da565b60249182359073ffffffffffffffffffffffffffffffffffffffff938484169081835260209460068652866001604086200154161561108e578415610fa757838360c094889652600686526040822061157160036040519261152484613a0e565b8c81549d8e16855264ffffffffff61ffff9e8f9c8d8260a01c1690880152604087019c8160b01c168d528b1c1660608601526001820154166080850152600281015460a085015201614bb2565b9586910152604051947f18160ddd0000000000000000000000000000000000000000000000000000000086528886600481855afa958615610d69578396611825575b5085918689116117fb5789600491604051928380927f313ce5670000000000000000000000000000000000000000000000000000000082525afa908115610e1e57906116069185916117de575b50614418565b6116138499978896614d48565b945b61164b57505050505050610fa75761271061163860409561164093511684614456565b048092613cf9565b918351928352820152f35b959795841592831561175557818b848884808f5b101561172657508d9b61060c6116b3956116a08f956116ab976116966116a5976fffffffffffffffffffffffffffffffff93614c3d565b5101511686614456565b614c51565b9c613cf9565b988992613cf9565b9380156116c1575b50611615565b90509490919293946116fa577fffffffffffffffffffffffffffffffffffffffffffffffffffffffffffffffff019392919086386116bb565b85857f4e487b710000000000000000000000000000000000000000000000000000000081526011600452fd5b9b61060c6116b3956116a08f956116ab976116966116a5976fffffffffffffffffffffffffffffffff93614c3d565b7fffffffffffffffffffffffffffffffffffffffffffffffffffffffffffffffff86018681116117b2578b84888d6117ab6fffffffffffffffffffffffffffffffff6117a2899786614c3d565b51511687613cf9565b809161165f565b87867f4e487b710000000000000000000000000000000000000000000000000000000081526011600452fd5b6117f591508b3d8d11611013576110058183613a7f565b38611600565b60046040517f4fffb8fa000000000000000000000000000000000000000000000000000000008152fd5b9095508881813d831161184d575b61183d8183613a7f565b81010312610f12575194386115b3565b503d611833565b50346101d757806003193601126101d757602073ffffffffffffffffffffffffffffffffffffffff60095416604051908152f35b50346101d7576020806003193601126114a5576118a36135da565b9033835260048152604083209073ffffffffffffffffffffffffffffffffffffffff83169182600052815260406000205491821561147b5733855260048252604085208160005282528460406000205533855260058252604085209060005281526040600020611914838254614c30565b90558380600f6040517f526f79616c747920436c61696d65640000000000000000000000000000000000815285335af161194c613c55565b50156119a657506040805173ffffffffffffffffffffffffffffffffffffffff9093168352602083019190915233917fd1b893da855ca6a7c9cfbaff142da78c734a39d4811ad711fe7acfd6e5e433a4918190810161142b565b606490604051907f08c379a00000000000000000000000000000000000000000000000000000000082526004820152601460248201527f526f79616c747920436c61696d206661696c65640000000000000000000000006044820152fd5b50346101d75760406003193601126101d757604090611a216135da565b9082611a2b6135fd565b9173ffffffffffffffffffffffffffffffffffffffff80941693848252600460205282822093169283600052602052816000205493815260056020522090600052602052816000205482519182526020820152f35b50346101d75760406003193601126101d757600435602435808210801590611bfd575b61030e57600754808211611bf5575b50818103917fffffffffffffffffffffffffffffffffffffffffffffffffffffffffffffffe0611afa611ae485614b9a565b94611af26040519687613a7f565b808652614b9a565b01845b818110611bde57505083905b828110611b8d57505060408051602080825284518183018190529194600583901b86018401945081019285015b828710611b435785850386f35b909192938280611b7d837fffffffffffffffffffffffffffffffffffffffffffffffffffffffffffffffc08a600196030186528851613827565b9601920196019592919092611b36565b80611bd7611bc173ffffffffffffffffffffffffffffffffffffffff611bb46001956136a8565b90549060031b1c1661505d565b9383810194611bd08289614c3d565b5286614c3d565b5001611b09565b602090611be9614f93565b82828801015201611afd565b905038611ab2565b506103e8611c0b8383613cf9565b11611aa3565b50346101d7576020806003193601126114a557611c2c6135da565b90604051611c3981613a2a565b8381528382820152611c49614f93565b60408201526060016060905273ffffffffffffffffffffffffffffffffffffffff928383168152600682526040902060405190611c8582613a0e565b80549385851683528383019561ffff809781948293838a60a01c1683526040880199848160b01c168b5260c01c64ffffffffff1660608901526001820154166080880152600281015460a0880152600301611cdf90614bb2565b9560c001958652511695511690611cf59061505d565b92519360405195611d0587613a2a565b865280860191825260408601938452606086019485526040519687968288525116908601525116604084015251606083016080905260a08301611d4791613827565b9051908281037fffffffffffffffffffffffffffffffffffffffffffffffffffffffffffffffe0016080840152610235916137d2565b50346101d757806003193601126101d7576020600754604051908152f35b50346101d75760206003193601126101d7576020611dbf611dba6135da565b614f1f565b6fffffffffffffffffffffffffffffffff60405191168152f35b50346101d75760406003193601126101d757611df36135da565b6040611dfd6135fd565b9273ffffffffffffffffffffffffffffffffffffffff809316815260046020522091166000526020526020604060002054604051908152f35b50346101d75760206003193601126101d757611e7f600360406102359373ffffffffffffffffffffffffffffffffffffffff611e706135da565b16815260066020522001614bb2565b6040519182916020835260208301906137d2565b50346101d757806003193601126101d757602073ffffffffffffffffffffffffffffffffffffffff60015416604051908152f35b50346101d757806003193601126101d75773ffffffffffffffffffffffffffffffffffffffff6020915416604051908152f35b506003196040813601126114a5576004359067ffffffffffffffff80831161243e57606082843603011261243e5760243511610e825760c090602435360301126114a557600254340361241457611f54600482018061397a565b9050156123ae57611f6b602482018260040161397a565b90501561234b57611f82604482018260040161397a565b9050156122ed57611f97602435600401613d35565b611fd1611faa602483018360040161397a565b907f00000000000000000000000000000000000000000000000000000000000000006149ab565b9082611fe0600483018061397a565b611ff0602485018560040161397a565b919092612003604487018760040161397a565b73ffffffffffffffffffffffffffffffffffffffff89959295163b156122e957869461205d9260405197889687967f41e461a000000000000000000000000000000000000000000000000000000000885260048801614b21565b03818373ffffffffffffffffffffffffffffffffffffffff89165af18015610d02576122d5575b50506120f59061209383613b29565b6120a260243560040184614469565b7f42d30c09380d6b8dbb77d95cae534a5c8fbf778789d87f58030bd742804370716120d0600483018061397a565b61213f6120e56024869496018460040161397a565b969093604481019060040161397a565b9073ffffffffffffffffffffffffffffffffffffffff612119604460243501613b79565b169760405195869573ffffffffffffffffffffffffffffffffffffffff8c169987614b21565b0390a361215660a460243501602435600401613b9a565b156122a8576121756fffffffffffffffffffffffffffffffff91613bfe565b16156121df575b600254602092816121a8575b505073ffffffffffffffffffffffffffffffffffffffff60405191168152f35b8080806121d89473ffffffffffffffffffffffffffffffffffffffff600154165af16121d2613c55565b50613c85565b3880612188565b6121f3608460243501602435600401613b9a565b156122a85761220190613bfe565b8273ffffffffffffffffffffffffffffffffffffffff83163b156101d7576040517f1b5ad8b50000000000000000000000000000000000000000000000000000000081523360048201526fffffffffffffffffffffffffffffffff929092166024830152816044818373ffffffffffffffffffffffffffffffffffffffff87165af18015610d6957612294575b5061217c565b61229e83916139cb565b6114a5573861228e565b6024837f4e487b710000000000000000000000000000000000000000000000000000000081526032600452fd5b6122de906139cb565b610e82578238612084565b8680fd5b60646040517f49d3358800000000000000000000000000000000000000000000000000000000815260206004820152600360248201527f75726900000000000000000000000000000000000000000000000000000000006044820152fd5b6040517f49d3358800000000000000000000000000000000000000000000000000000000815260206004820152600660248201527f73796d626f6c00000000000000000000000000000000000000000000000000006044820152606490fd5b0390fd5b6040517f49d33588000000000000000000000000000000000000000000000000000000008152806123aa6004820160609060208152600460208201527f6e616d650000000000000000000000000000000000000000000000000000000060408201520190565b60046040517f3403ce37000000000000000000000000000000000000000000000000000000008152fd5b8380fd5b50346101d75760206003193601126101d7576020611dbf6124616135da565b614e25565b50346101d757806003193601126101d7576020600354604051908152f35b50346101d75760406003193601126101d75761249e6135da565b6024359073ffffffffffffffffffffffffffffffffffffffff808216808552602093600685526001908382604089200154161561108e578015610fa75782875260068652604087209660c06040516124f581613a0e565b61254660038b549b898d1684528b84019964ffffffffff61ffff9e8f8d818360a01c1690528160b01c166040880152871c16606086015288820154166080850152600281015460a085015201614bb2565b9182910152604051947f18160ddd0000000000000000000000000000000000000000000000000000000086528886600481845afa958615610d69578396612734575b5085916125958588614c30565b916fffffffffffffffffffffffffffffffff92836125b28c614f1f565b1610611025578a600491604051928380927f313ce5670000000000000000000000000000000000000000000000000000000082525afa908115610e46576126179161260e918791612717575b5090889795989694939291614418565b9498849b614d48565b955b61265b575b505050505050508215908115612651575b50610fa75761271061264960409561164093511684614456565b048092614c30565b905015153861262f565b909193959881979395975188101561270e576126778883614c3d565b51906126868b85845116613cf9565b908c82938784106000146126df5783156126ce57926106126126c2959361060c8c6106078b6126bc9761061e9a01511686614456565b95613cf9565b94929593919084612619565b50509a949890506126c29150614429565b92509250975061060c96959a5061270198506106079493925001511690614456565b913880808080808061261e565b9883975061261e565b61272e91508d803d10611013576110058183613a7f565b386125fe565b9095508881813d831161275c575b61274c8183613a7f565b81010312610f1257519438612588565b503d612742565b50346101d75760406003193601126101d75761277d6135da565b6127856135fd565b73ffffffffffffffffffffffffffffffffffffffff8092169081845260066020526127c28360408620921693841590811591612811575b50614b5b565b827fffffffffffffffffffffffff00000000000000000000000000000000000000008254161790557f9dcef3aa57f22970dfc6ff519e5421e041cc4153300a7dabe19bffe85e2556888380a380f35b90508254163314386127bc565b50346101d75760206003193601126101d75760043561283b613929565b6127108111612876576020817f21085b3501e0e4fa8e0c825e7ed36b44420471b9f3c5aef447cebe50b2db133d92600355604051908152a180f35b60046040517f5059b85f000000000000000000000000000000000000000000000000000000008152fd5b50346101d757806003193601126101d7576128b9613929565b600073ffffffffffffffffffffffffffffffffffffffff81547fffffffffffffffffffffffff000000000000000000000000000000000000000081168355167f8be0079c531659141344cd1fd0a4f28419497f9722a3daafe3b4186f6b6457e08280a380f35b50346101d75760206003193601126101d7577f88a973fd5506071e0cf878b30898776c47d5250a7ee1e6ee0b36df3b03c7c16a602060043561295f613929565b80600255604051908152a180f35b50346101d75761297c3661378c565b73ffffffffffffffffffffffffffffffffffffffff8194929416156110b85773ffffffffffffffffffffffffffffffffffffffff82168552600660205273ffffffffffffffffffffffffffffffffffffffff6001604087200154161561108e578215610fa75773ffffffffffffffffffffffffffffffffffffffff8216855260066020526040852094612a8b600360405197612a1789613a0e565b64ffffffffff815473ffffffffffffffffffffffffffffffffffffffff81168b5261ffff8160a01c1660208c015261ffff8160b01c1660408c015260c01c1660608a015273ffffffffffffffffffffffffffffffffffffffff60018201541660808a0152600281015460a08a015201614bb2565b958660c08201526040517f18160ddd00000000000000000000000000000000000000000000000000000000815260208160048173ffffffffffffffffffffffffffffffffffffffff89165afa908115610d69578391612f5c575b50808187116117fb576040517f313ce56700000000000000000000000000000000000000000000000000000000815260208160048173ffffffffffffffffffffffffffffffffffffffff8b165afa908115610e4657612b60939291612b54918791612f3d575b50929192614418565b859a899485938a614d48565b925b612dcb5750505050610fa757612710612b8661ffff6040612b8e9401511689614456565b048097613cf9565b948510610f7d5773ffffffffffffffffffffffffffffffffffffffff831680825260066020526040822096903b156114a5576040517ff4efe8f20000000000000000000000000000000000000000000000000000000081523360048201526024810186905282816044818373ffffffffffffffffffffffffffffffffffffffff8a165af18015610d6957908391612db7575b505080612c30612c7c9288614c30565b612c3f60028a01918254613cf9565b9055600173ffffffffffffffffffffffffffffffffffffffff89541698019773ffffffffffffffffffffffffffffffffffffffff895416906155de565b8060136040517f726566756e64416d6f756e74206164646564200000000000000000000000000081528773ffffffffffffffffffffffffffffffffffffffff86165af1612cc7613c55565b5015612d59577f80a56de61873550ae491e454783a8dfc9d08a6f8bdace0887eabd4315c4b9da88473ffffffffffffffffffffffffffffffffffffffff6020975416946108d260405192839273ffffffffffffffffffffffffffffffffffffffff339816968460409194939273ffffffffffffffffffffffffffffffffffffffff606083019616825260208201520152565b60646040517f08c379a000000000000000000000000000000000000000000000000000000000815260206004820152601960248201527f526566756e6420746f207265636965766572206661696c6564000000000000006044820152fd5b612dc0906139cb565b6114a5578138612c20565b909192939a83838d89888415600014612ea2579461060c6126bc946116a06fffffffffffffffffffffffffffffffff60206116969997612e1f97612e259c905b5080821015612e985750998a985b8d614c3d565b9e613cf9565b908484612e36575b93929193612b62565b509091928015612e6b577fffffffffffffffffffffffffffffffffffffffffffffffffffffffffffffffff0192919084612e2d565b6024877f4e487b710000000000000000000000000000000000000000000000000000000081526011600452fd5b9050998a98612e19565b505050507fffffffffffffffffffffffffffffffffffffffffffffffffffffffffffffffff810111612e6b576116966126bc85612e1f8f9461060c886116a06fffffffffffffffffffffffffffffffff8f612e259a8f91612f376020938f612f2e87917fffffffffffffffffffffffffffffffffffffffffffffffffffffffffffffffff8f0190614c3d565b51511690613cf9565b90612e0b565b612f56915060203d602011611013576110058183613a7f565b38612b4b565b90506020813d602011612f86575b81612f7760209383613a7f565b81010312610f12575138612ae5565b3d9150612f6a565b50346101d757806003193601126101d757610235604051612fae81613a46565b600781527f302e312e313230000000000000000000000000000000000000000000000000006020820152604051918291602083526020830190613749565b50346101d75760406003193601126101d7576130066135da565b60406130106135fd565b9273ffffffffffffffffffffffffffffffffffffffff809316815260056020522091166000526020526020604060002054604051908152f35b50346101d75760206003193601126101d757600435906007548210156101d757602073ffffffffffffffffffffffffffffffffffffffff613089846136a8565b9190546040519260031b1c168152f35b506003196040813601126114a55760043567ffffffffffffffff9182821161243e57816004019160408282360301126133f3576024359384116133f35760c0846004019285360301126133f3576002543403612414576130f9838061397a565b9050156123ae576024019261310e848461397a565b90501561234b5761311e82613d35565b61315261312b858561397a565b907f00000000000000000000000000000000000000000000000000000000000000006149ab565b9373ffffffffffffffffffffffffffffffffffffffff938486169587613178838061397a565b613185868694939461397a565b8b9491943b1561243e576131c79060405195869485947f7029144c00000000000000000000000000000000000000000000000000000000865260048601613aff565b0381838c5af180156133e8576133a5575b50613246928792613213878461320e7f6596c1670eb3390048d23721809c3da5d3f531375ac0e2cab0f77a808ed6433196613b29565b614469565b613228613220828061397a565b93909261397a565b8961323860448a99949901613b79565b169660405194859485613aff565b0390a361325660a4820183613b9a565b15613378576132756fffffffffffffffffffffffffffffffff91613bfe565b16156132b4575b50506020926002549182613296575b505050604051908152f35b81806132ac948193600154165af16121d2613c55565b38808061328b565b9060846132c2920190613b9a565b1561334b576132d090613bfe565b83833b156101d7576040517f1b5ad8b50000000000000000000000000000000000000000000000000000000081523360048201526fffffffffffffffffffffffffffffffff9290921660248301528160448183875af18015610e1e57613337575b8061327c565b61334184916139cb565b610e825738613331565b6024847f4e487b710000000000000000000000000000000000000000000000000000000081526032600452fd5b6024867f4e487b710000000000000000000000000000000000000000000000000000000081526032600452fd5b928792613213877f6596c1670eb3390048d23721809c3da5d3f531375ac0e2cab0f77a808ed64331949b6133db613246986139cb565b9b945050509250926131d8565b6040513d8b823e3d90fd5b8480fd5b50346101d75760206003193601126101d75773ffffffffffffffffffffffffffffffffffffffff6134266135da565b61342e613929565b168015612876576020817fcf7686c0c53a1ab216c4cd81c1bc037136c791a61f30af4a78827c3915766044927fffffffffffffffffffffffff00000000000000000000000000000000000000006001541617600155604051908152a180f35b50346101d75761349c36613620565b9290838082108015906135c6575b61030e576007548091116135be575b5081815b85811061356557506134ce8361558f565b9381925b8681106134e757604051806102358882613657565b6134f0816136a8565b9073ffffffffffffffffffffffffffffffffffffffff809154600393841b1c168552600660205260019181836040882001541682861614613537575b5050506001016134d2565b9061355591613545856136a8565b9054911b1c169186019588614c3d565b528484146102ae5738808061352c565b61356e816136a8565b9073ffffffffffffffffffffffffffffffffffffffff918291549060031b1c1683526006602052600190808260408620015416908716146135b3575b506001016134bd565b9093019260016135aa565b9350386134b9565b506127106135d48383613cf9565b116134aa565b6004359073ffffffffffffffffffffffffffffffffffffffff82168203610f1257565b6024359073ffffffffffffffffffffffffffffffffffffffff82168203610f1257565b6003196060910112610f125760043573ffffffffffffffffffffffffffffffffffffffff81168103610f1257906024359060443590565b6020908160408183019282815285518094520193019160005b82811061367e575050505090565b835173ffffffffffffffffffffffffffffffffffffffff1685529381019392810192600101613670565b6007548110156136df5760076000527fa66cc928b5edb82af9bd49922954155ab7b0942694bea4ce44661d9a8736c6880190600090565b7f4e487b7100000000000000000000000000000000000000000000000000000000600052603260045260246000fd5b80548210156136df5760005260206000200190600090565b60005b8381106137395750506000910152565b8181015183820152602001613729565b907fffffffffffffffffffffffffffffffffffffffffffffffffffffffffffffffe0601f60209361378581518092818752878088019101613726565b0116010190565b6003196080910112610f125773ffffffffffffffffffffffffffffffffffffffff906004358281168103610f12579160243591604435916064359081168103610f125790565b90815180825260208080930193019160005b8281106137f2575050505090565b835180516fffffffffffffffffffffffffffffffff9081168752908301511685830152604090940193928101926001016137e4565b9061391b61390773ffffffffffffffffffffffffffffffffffffffff80855116845280602086015116602085015260ff604086015116604085015261389061387e60608701516101c0806060890152870190613749565b60808701518682036080880152613749565b9064ffffffffff60a08701511660a08601526fffffffffffffffffffffffffffffffff8060c08801511660c08701528060e08801511660e0870152610100908188015116908601526101209081870151169085015261014060ff818701511690850152610160808601519085830390860152613749565b610180808501519084830390850152613749565b916101a08091015191015290565b73ffffffffffffffffffffffffffffffffffffffff60005416330361394a57565b60246040517f118cdaa7000000000000000000000000000000000000000000000000000000008152336004820152fd5b9035907fffffffffffffffffffffffffffffffffffffffffffffffffffffffffffffffe181360301821215610f12570180359067ffffffffffffffff8211610f1257602001918136038313610f1257565b67ffffffffffffffff81116139df57604052565b7f4e487b7100000000000000000000000000000000000000000000000000000000600052604160045260246000fd5b60e0810190811067ffffffffffffffff8211176139df57604052565b6080810190811067ffffffffffffffff8211176139df57604052565b6040810190811067ffffffffffffffff8211176139df57604052565b6101c0810190811067ffffffffffffffff8211176139df57604052565b90601f7fffffffffffffffffffffffffffffffffffffffffffffffffffffffffffffffe0910116810190811067ffffffffffffffff8211176139df57604052565b601f82602094937fffffffffffffffffffffffffffffffffffffffffffffffffffffffffffffffe0938186528686013760008582860101520116010190565b9290613b1890613b269593604086526040860191613ac0565b926020818503910152613ac0565b90565b600754680100000000000000008110156139df57806001613b4d92016007556136a8565b819291549060031b9173ffffffffffffffffffffffffffffffffffffffff809116831b921b1916179055565b3573ffffffffffffffffffffffffffffffffffffffff81168103610f125790565b9035907fffffffffffffffffffffffffffffffffffffffffffffffffffffffffffffffe181360301821215610f12570180359067ffffffffffffffff8211610f1257602001918160051b36038313610f1257565b91908110156136df5760051b0190565b356fffffffffffffffffffffffffffffffff81168103610f125790565b67ffffffffffffffff81116139df57601f017fffffffffffffffffffffffffffffffffffffffffffffffffffffffffffffffe01660200190565b3d15613c80573d90613c6682613c1b565b91613c746040519384613a7f565b82523d6000602084013e565b606090565b15613c8c57565b60646040517f08c379a000000000000000000000000000000000000000000000000000000000815260206004820152601c60248201527f4372656174696f6e4665655472616e73616374696f6e4661696c6564000000006044820152fd5b3561ffff81168103610f125790565b91908203918211613d0657565b7f4e487b7100000000000000000000000000000000000000000000000000000000600052601160045260246000fd5b613d3e81613cea565b6003548061ffff8093161161433057602091613d5b838501613cea565b16116142d2576040613d6e818401613b79565b9273ffffffffffffffffffffffffffffffffffffffff841615614275577f646563696d616c73282900000000000000000000000000000000000000000000838351613db881613a46565b600a81520152613dc882516139cb565b8151936000808587017f313ce567000000000000000000000000000000000000000000000000000000008152600497888152613e0381613a46565b5190845afa613e10613c55565b81614269575b501561420c57613e598351613e2a81613a46565b600681527f6e616d6528290000000000000000000000000000000000000000000000000000868201528261438e565b156141a6578251613e9b91613e6d82613a46565b600882527f73796d626f6c28290000000000000000000000000000000000000000000000008683015261438e565b156141405760608101906fffffffffffffffffffffffffffffffff9081613ec184613bfe565b16156140e45760808101613ed58183613b9a565b90501580156140b0575b61405457613eed8183613b9a565b9050613efc60a0840184613b9a565b91905003613ff857613f19613f118284613b9a565b929093613b9a565b7fffffffffffffffffffffffffffffffffffffffffffffffffffffffffffffffff81019391508311613fca57613f578493613f6293613f5c93613bee565b613bfe565b93613bfe565b16911603613f6f57505050565b6064935051917f1afd40d6000000000000000000000000000000000000000000000000000000008352820152601360248201527f4d41585f535550504c595f4d49534d41544348000000000000000000000000006044820152fd5b6011887f4e487b71000000000000000000000000000000000000000000000000000000006000525260246000fd5b606487878751917f1afd40d6000000000000000000000000000000000000000000000000000000008352820152601860248201527f535445505f4c454e4754485f444f5f4e4f545f4d4154434800000000000000006044820152fd5b606487878751917f1afd40d6000000000000000000000000000000000000000000000000000000008352820152601360248201527f494e56414c49445f535445505f4c454e475448000000000000000000000000006044820152fd5b506140bb8183613b9a565b90507f000000000000000000000000000000000000000000000000000000000000000010613edf565b606486868651917f49d33588000000000000000000000000000000000000000000000000000000008352820152600960248201527f6d6178537570706c7900000000000000000000000000000000000000000000006044820152fd5b6123aa8483519182917f59f58224000000000000000000000000000000000000000000000000000000008352820160609060208152600660208201527f73796d626f6c000000000000000000000000000000000000000000000000000060408201520190565b6123aa8584519182917f59f58224000000000000000000000000000000000000000000000000000000008352820160609060208152600460208201527f6e616d650000000000000000000000000000000000000000000000000000000060408201520190565b50506064935051917f59f58224000000000000000000000000000000000000000000000000000000008352820152600860248201527f646563696d616c730000000000000000000000000000000000000000000000006044820152fd5b601f9150511138613e16565b6064838351907f49d335880000000000000000000000000000000000000000000000000000000082526004820152600c60248201527f72657365727665546f6b656e00000000000000000000000000000000000000006044820152fd5b606490604051907f49d335880000000000000000000000000000000000000000000000000000000082526004820152600b60248201527f6275726e526f79616c74790000000000000000000000000000000000000000006044820152fd5b60646040517f49d3358800000000000000000000000000000000000000000000000000000000815260206004820152600b60248201527f6d696e74526f79616c74790000000000000000000000000000000000000000006044820152fd5b6000919082916143ca7fffffffff00000000000000000000000000000000000000000000000000000000604051926020815191012016916139cb565b60405160208101918252600481526143e181613a46565b51915afa6143ed613c55565b816143f6575090565b605f9150511190565b90816020910312610f12575160ff81168103610f125790565b60ff16604d8111613d0657600a0a90565b7fffffffffffffffffffffffffffffffffffffffffffffffffffffffffffffffff8114613d065760010190565b81810292918115918404141715613d0657565b73ffffffffffffffffffffffffffffffffffffffff80911690600091808352602092839260068452604095868320938454906144a483613cea565b77ffff000000000000000000000000000000000000000000006144c8898601613cea565b60b01b1660a09375ffff00000000000000000000000000000000000000007cffffffffff0000000000000000000000000000000000000000000000004260c01b1693861b16907fffffff00000000000000000000000000000000000000000000000000000000007fffffff000000000000000000ffffffffffffffffffffffffffffffffffffffff33169116171717178655614565898401613b79565b60019485880191167fffffffffffffffffffffffff00000000000000000000000000000000000000008254161790558851978880927f313ce56700000000000000000000000000000000000000000000000000000000825260049a8b915afa9081156149a157906145e6918691614984575b50908496949199979899614418565b936003869101915b6145ff575b50505050505050505050565b60808085019061460f8287613b9a565b905083101561497d576146228287613b9a565b9290614644613f57866fffffffffffffffffffffffffffffffff968794613bee565b169286880181614661613f578861465b858e613b9a565b90613bee565b1692856146c5575060648f8f8f51917f1afd40d6000000000000000000000000000000000000000000000000000000008352820152601360248201527f535445505f43414e4e4f545f42455f5a45524f000000000000000000000000006044820152fd5b9c9e9d9c8315158061496b575b61490e57866147b8575b50508d51936146ea85613a46565b84528b840191825285546801000000000000000081101561478b57808c614714920188558761370e565b94909461475f5751915190921b7fffffffffffffffffffffffffffffffff0000000000000000000000000000000016911617905586919061475490614429565b9091999798996145ee565b5060248a808f7f4e487b7100000000000000000000000000000000000000000000000000000000825252fd5b5060248a60418f7f4e487b7100000000000000000000000000000000000000000000000000000000835252fd5b6147c2908a613b9a565b7fffffffffffffffffffffffffffffffffffffffffffffffffffffffffffffffff880192918884116148e057613f578486936147fd93613bee565b1686111561488357613f57839261465b614817938d613b9a565b168211156148265738806146dc565b5060648c8c8f51917f1afd40d6000000000000000000000000000000000000000000000000000000008352820152601060248201527f44454352454153494e475f5052494345000000000000000000000000000000006044820152fd5b8f8f8f60649251917f1afd40d6000000000000000000000000000000000000000000000000000000008352820152601060248201527f44454352454153494e475f52414e4745000000000000000000000000000000006044820152fd5b508f8d60116024927f4e487b7100000000000000000000000000000000000000000000000000000000835252fd5b8f8f8f60649251917f1afd40d6000000000000000000000000000000000000000000000000000000008352820152601c60248201527f535445505f52414e475f4f525f50524943455f544f4f5f534d414c4c000000006044820152fd5b508a6149778588614456565b106146d2565b50506145f3565b61499b9150883d8a11611013576110058183613a7f565b386145d7565b89513d87823e3d90fd5b916149dc603460405183819460208301963060601b8852848401378101600083820152036014810184520182613a7f565b51902090614a66605560436040513060388201526f5af43d82803e903d91602b57fd5bf3ff6024820152846014820152733d602d80600a3d3981f3363d3d373d3d3d363d7381528560588201526037600c8201206078820152012073ffffffffffffffffffffffffffffffffffffffff809116600052600660205260016040600020015416151590565b614af75780763d602d80600a3d3981f3363d3d373d3d3d363d7300000062ffffff6e5af43d82803e903d91602b57fd5bf39360881c161760005260781b17602052603760096000f573ffffffffffffffffffffffffffffffffffffffff811615614acd5790565b60046040517fc2f868f4000000000000000000000000000000000000000000000000000000008152fd5b60046040517f358b6638000000000000000000000000000000000000000000000000000000008152fd5b94929093614b3f613b269795614b4d94606089526060890191613ac0565b918683036020880152613ac0565b926040818503910152613ac0565b15614b6257565b60446040517f08c379a00000000000000000000000000000000000000000000000000000000081526020600482015260006024820152fd5b67ffffffffffffffff81116139df5760051b60200190565b908154614bbe81614b9a565b92604093614bce85519182613a7f565b828152809460208092019260005281600020906000935b858510614bf457505050505050565b60018481928451614c0481613a46565b86546fffffffffffffffffffffffffffffffff8116825260801c83820152815201930194019391614be5565b91908201809211613d0657565b80518210156136df5760209160051b010190565b8115614c5b570490565b7f4e487b7100000000000000000000000000000000000000000000000000000000600052601260045260246000fd5b908015614d3f5760009180614ca157505050600090565b7fffffffffffffffffffffffffffffffffffffffffffffffffffffffffffffffff8101908111614d125790614cd591614c51565b9060018201809211614ce5575090565b807f4e487b7100000000000000000000000000000000000000000000000000000000602492526011600452fd5b6024837f4e487b710000000000000000000000000000000000000000000000000000000081526011600452fd5b613b2691614c51565b73ffffffffffffffffffffffffffffffffffffffff1660005260066020526040600020906003600092018054925b838110614da75760046040517fd1ce01ea000000000000000000000000000000000000000000000000000000008152fd5b6fffffffffffffffffffffffffffffffff614dc2828461370e565b505416831115614dda57614dd590614429565b614d76565b9250505090565b90816020910312610f12575173ffffffffffffffffffffffffffffffffffffffff81168103610f125790565b90816020910312610f1257518015158103610f125790565b6040517f18160ddd00000000000000000000000000000000000000000000000000000000815273ffffffffffffffffffffffffffffffffffffffff821691602082600481865afa918215614f1357600092614ede575b50614ec49291614eae91816fffffffffffffffffffffffffffffffff614ea083614f1f565b168110614ecc575b50614d48565b906000526006602052600360406000200161370e565b505460801c90565b614ed7919250614429565b9038614ea8565b90916020823d8211614f0b575b81614ef860209383613a7f565b810103126101d757505190614eae614e7b565b3d9150614eeb565b6040513d6000823e3d90fd5b73ffffffffffffffffffffffffffffffffffffffff16600052600660205260036040600020018054907fffffffffffffffffffffffffffffffffffffffffffffffffffffffffffffffff8201918211613d06576fffffffffffffffffffffffffffffffff91614f8d9161370e565b50541690565b60405190614fa082613a62565b816101a0600091828152826020820152826040820152606080820152606060808201528260a08201528260c08201528260e0820152826101008201528261012082015282610140820152606061016082015260606101808201520152565b602081830312610f125780519067ffffffffffffffff8211610f12570181601f82011215610f1257805161503181613c1b565b9261503f6040519485613a7f565b81845260208284010111610f1257613b269160208085019101613726565b615065614f93565b5073ffffffffffffffffffffffffffffffffffffffff81166000526006602052604060002061510e60036040519261509c84613a0e565b64ffffffffff815473ffffffffffffffffffffffffffffffffffffffff8116865261ffff808260a01c1660208801528160b01c16604087015260c01c16606085015273ffffffffffffffffffffffffffffffffffffffff6001820154166080850152600281015460a085015201614bb2565b60c082015273ffffffffffffffffffffffffffffffffffffffff6080820151169073ffffffffffffffffffffffffffffffffffffffff81511691604051917f313ce56700000000000000000000000000000000000000000000000000000000835260208360048173ffffffffffffffffffffffffffffffffffffffff89165afa928315614f135760009361556e575b506040517f95d89b4100000000000000000000000000000000000000000000000000000000815260008160048173ffffffffffffffffffffffffffffffffffffffff8a165afa908115614f1357600091615553575b506040517f06fdde0300000000000000000000000000000000000000000000000000000000815260008160048173ffffffffffffffffffffffffffffffffffffffff8b165afa908115614f1357600091615538575b5064ffffffffff6060840151166040517f18160ddd00000000000000000000000000000000000000000000000000000000815260208160048173ffffffffffffffffffffffffffffffffffffffff8d165afa908115614f1357600091615506575b506fffffffffffffffffffffffffffffffff81116154ce576152c989614f1f565b916152d38a614e25565b9373ffffffffffffffffffffffffffffffffffffffff60808801511695604051997f313ce567000000000000000000000000000000000000000000000000000000008b5260208b6004818d5afa988915614f135760049b60009a6154ad575b5060008b6040519d8e80927f95d89b410000000000000000000000000000000000000000000000000000000082525afa9a8b15614f135760049c60009c61548e575b506000906040519d8e80927f06fdde030000000000000000000000000000000000000000000000000000000082525afa9b8c15614f135760009c615466575b5060a001519b6040519d8e916153c883613a62565b825273ffffffffffffffffffffffffffffffffffffffff16906020015260ff1660408d015260608c015260808b015260a08a01526fffffffffffffffffffffffffffffffff1660c08901526fffffffffffffffffffffffffffffffff1660e08801526fffffffffffffffffffffffffffffffff1661010087015261012086015260ff166101408501526101608401526101808301526101a082015290565b60a0919c50615487903d806000833e61547f8183613a7f565b810190614ffe565b9b906153b3565b6000919c506154a6903d8084833e61547f8183613a7f565b9b90615374565b6154c7919a5060203d602011611013576110058183613a7f565b9838615332565b604490604051907f6dfcc650000000000000000000000000000000000000000000000000000000008252608060048301526024820152fd5b90506020813d602011615530575b8161552160209383613a7f565b81010312610f125751386152a8565b3d9150615514565b61554d91503d806000833e61547f8183613a7f565b38615247565b61556891503d806000833e61547f8183613a7f565b386151f2565b61558891935060203d602011611013576110058183613a7f565b913861519d565b9061559982614b9a565b6155a66040519182613a7f565b8281527fffffffffffffffffffffffffffffffffffffffffffffffffffffffffffffffe06155d48294614b9a565b0190602036910137565b6107d090818402918483041484151715613d065761566392615607612710604094048096613cf9565b73ffffffffffffffffffffffffffffffffffffffff9081600094168452600460205281858520931692838552602052615644858520918254614c30565b9055600154168252600460205282822090825260205220918254614c30565b9055565b906156a6575080511561567c57805190602001fd5b60046040517f1425ea42000000000000000000000000000000000000000000000000000000008152fd5b815115806156fe575b6156b7575090565b60249073ffffffffffffffffffffffffffffffffffffffff604051917f9996b315000000000000000000000000000000000000000000000000000000008352166004820152fd5b50803b156156af56fea2646970667358221220637d028c5a7be140477144b69eb5cd25a7d1dc853593dae3efe7895f635daf1064736f6c63430008140033",
  "linkReferences": {},
  "deployedLinkReferences": {}
}