{
  "_format": "hh-sol-artifact-1",
  "contractName": "TestMultiToken",
  "sourceName": "contracts/mock/TestMultiToken.sol",
  "abi": [
    {
      "inputs": [
        {
          "internalType": "uint256",
          "name": "initialSupply",
          "type": "uint256"
        }
      ],
      "stateMutability": "nonpayable",
      "type": "constructor"
    },
    {
      "inputs": [
        {
          "internalType": "address",
          "name": "sender",
          "type": "address"
        },
        {
          "internalType": "uint256",
          "name": "balance",
          "type": "uint256"
        },
        {
          "internalType": "uint256",
          "name": "needed",
          "type": "uint256"
        },
        {
          "internalType": "uint256",
          "name": "tokenId",
          "type": "uint256"
        }
      ],
      "name": "ERC1155InsufficientBalance",
      "type": "error"
    },
    {
      "inputs": [
        {
          "internalType": "address",
          "name": "approver",
          "type": "address"
        }
      ],
      "name": "ERC1155InvalidApprover",
      "type": "error"
    },
    {
      "inputs": [
        {
          "internalType": "uint256",
          "name": "idsLength",
          "type": "uint256"
        },
        {
          "internalType": "uint256",
          "name": "valuesLength",
          "type": "uint256"
        }
      ],
      "name": "ERC1155InvalidArrayLength",
      "type": "error"
    },
    {
      "inputs": [
        {
          "internalType": "address",
          "name": "operator",
          "type": "address"
        }
      ],
      "name": "ERC1155InvalidOperator",
      "type": "error"
    },
    {
      "inputs": [
        {
          "internalType": "address",
          "name": "receiver",
          "type": "address"
        }
      ],
      "name": "ERC1155InvalidReceiver",
      "type": "error"
    },
    {
      "inputs": [
        {
          "internalType": "address",
          "name": "sender",
          "type": "address"
        }
      ],
      "name": "ERC1155InvalidSender",
      "type": "error"
    },
    {
      "inputs": [
        {
          "internalType": "address",
          "name": "operator",
          "type": "address"
        },
        {
          "internalType": "address",
          "name": "owner",
          "type": "address"
        }
      ],
      "name": "ERC1155MissingApprovalForAll",
      "type": "error"
    },
    {
      "anonymous": false,
      "inputs": [
        {
          "indexed": true,
          "internalType": "address",
          "name": "account",
          "type": "address"
        },
        {
          "indexed": true,
          "internalType": "address",
          "name": "operator",
          "type": "address"
        },
        {
          "indexed": false,
          "internalType": "bool",
          "name": "approved",
          "type": "bool"
        }
      ],
      "name": "ApprovalForAll",
      "type": "event"
    },
    {
      "anonymous": false,
      "inputs": [
        {
          "indexed": true,
          "internalType": "address",
          "name": "operator",
          "type": "address"
        },
        {
          "indexed": true,
          "internalType": "address",
          "name": "from",
          "type": "address"
        },
        {
          "indexed": true,
          "internalType": "address",
          "name": "to",
          "type": "address"
        },
        {
          "indexed": false,
          "internalType": "uint256[]",
          "name": "ids",
          "type": "uint256[]"
        },
        {
          "indexed": false,
          "internalType": "uint256[]",
          "name": "values",
          "type": "uint256[]"
        }
      ],
      "name": "TransferBatch",
      "type": "event"
    },
    {
      "anonymous": false,
      "inputs": [
        {
          "indexed": true,
          "internalType": "address",
          "name": "operator",
          "type": "address"
        },
        {
          "indexed": true,
          "internalType": "address",
          "name": "from",
          "type": "address"
        },
        {
          "indexed": true,
          "internalType": "address",
          "name": "to",
          "type": "address"
        },
        {
          "indexed": false,
          "internalType": "uint256",
          "name": "id",
          "type": "uint256"
        },
        {
          "indexed": false,
          "internalType": "uint256",
          "name": "value",
          "type": "uint256"
        }
      ],
      "name": "TransferSingle",
      "type": "event"
    },
    {
      "anonymous": false,
      "inputs": [
        {
          "indexed": false,
          "internalType": "string",
          "name": "value",
          "type": "string"
        },
        {
          "indexed": true,
          "internalType": "uint256",
          "name": "id",
          "type": "uint256"
        }
      ],
      "name": "URI",
      "type": "event"
    },
    {
      "inputs": [
        {
          "internalType": "address",
          "name": "account",
          "type": "address"
        },
        {
          "internalType": "uint256",
          "name": "id",
          "type": "uint256"
        }
      ],
      "name": "balanceOf",
      "outputs": [
        {
          "internalType": "uint256",
          "name": "",
          "type": "uint256"
        }
      ],
      "stateMutability": "view",
      "type": "function"
    },
    {
      "inputs": [
        {
          "internalType": "address[]",
          "name": "accounts",
          "type": "address[]"
        },
        {
          "internalType": "uint256[]",
          "name": "ids",
          "type": "uint256[]"
        }
      ],
      "name": "balanceOfBatch",
      "outputs": [
        {
          "internalType": "uint256[]",
          "name": "",
          "type": "uint256[]"
        }
      ],
      "stateMutability": "view",
      "type": "function"
    },
    {
      "inputs": [],
      "name": "decimals",
      "outputs": [
        {
          "internalType": "uint8",
          "name": "",
          "type": "uint8"
        }
      ],
      "stateMutability": "pure",
      "type": "function"
    },
    {
      "inputs": [
        {
          "internalType": "address",
          "name": "account",
          "type": "address"
        },
        {
          "internalType": "address",
          "name": "operator",
          "type": "address"
        }
      ],
      "name": "isApprovedForAll",
      "outputs": [
        {
          "internalType": "bool",
          "name": "",
          "type": "bool"
        }
      ],
      "stateMutability": "view",
      "type": "function"
    },
    {
      "inputs": [],
      "name": "name",
      "outputs": [
        {
          "internalType": "string",
          "name": "",
          "type": "string"
        }
      ],
      "stateMutability": "view",
      "type": "function"
    },
    {
      "inputs": [
        {
          "internalType": "address",
          "name": "from",
          "type": "address"
        },
        {
          "internalType": "address",
          "name": "to",
          "type": "address"
        },
        {
          "internalType": "uint256[]",
          "name": "ids",
          "type": "uint256[]"
        },
        {
          "internalType": "uint256[]",
          "name": "values",
          "type": "uint256[]"
        },
        {
          "internalType": "bytes",
          "name": "data",
          "type": "bytes"
        }
      ],
      "name": "safeBatchTransferFrom",
      "outputs": [],
      "stateMutability": "nonpayable",
      "type": "function"
    },
    {
      "inputs": [
        {
          "internalType": "address",
          "name": "from",
          "type": "address"
        },
        {
          "internalType": "address",
          "name": "to",
          "type": "address"
        },
        {
          "internalType": "uint256",
          "name": "id",
          "type": "uint256"
        },
        {
          "internalType": "uint256",
          "name": "value",
          "type": "uint256"
        },
        {
          "internalType": "bytes",
          "name": "data",
          "type": "bytes"
        }
      ],
      "name": "safeTransferFrom",
      "outputs": [],
      "stateMutability": "nonpayable",
      "type": "function"
    },
    {
      "inputs": [
        {
          "internalType": "address",
          "name": "operator",
          "type": "address"
        },
        {
          "internalType": "bool",
          "name": "approved",
          "type": "bool"
        }
      ],
      "name": "setApprovalForAll",
      "outputs": [],
      "stateMutability": "nonpayable",
      "type": "function"
    },
    {
      "inputs": [
        {
          "internalType": "bytes4",
          "name": "interfaceId",
          "type": "bytes4"
        }
      ],
      "name": "supportsInterface",
      "outputs": [
        {
          "internalType": "bool",
          "name": "",
          "type": "bool"
        }
      ],
      "stateMutability": "view",
      "type": "function"
    },
    {
      "inputs": [],
      "name": "symbol",
      "outputs": [
        {
          "internalType": "string",
          "name": "",
          "type": "string"
        }
      ],
      "stateMutability": "view",
      "type": "function"
    },
    {
      "inputs": [
        {
          "internalType": "uint256",
          "name": "",
          "type": "uint256"
        }
      ],
      "name": "uri",
      "outputs": [
        {
          "internalType": "string",
          "name": "",
          "type": "string"
        }
      ],
      "stateMutability": "view",
      "type": "function"
    }
  ],
  "bytecode": "0x60806040523480156200001157600080fd5b506040516200216138038062002161833981016040819052620000349162000645565b60408051808201909152601c81527f68747470733a2f2f68756e742e746f776e2f746f6b656e2e6a736f6e000000006020820152620000738162000107565b506200009833600083604051806020016040528060008152506200011960201b60201c565b60408051808201909152601081526f2a32b9ba1026bab63a34902a37b5b2b760811b6020820152600390620000ce908262000700565b5060408051808201909152600a815269544553545f4d554c544960b01b6020820152600490620000ff908262000700565b5050620009af565b600262000115828262000700565b5050565b6001600160a01b0384166200014957604051632bfa23e760e11b8152600060048201526024015b60405180910390fd5b604080516001808252602082018690528183019081526060820185905260808201909252906200017e60008784848762000186565b505050505050565b6200019485858585620001e9565b6001600160a01b03841615620001e25782513390600103620001d25760208481015190840151620001ca83898985858962000417565b50506200017e565b6200017e81878787878762000551565b5050505050565b80518251146200021a5781518151604051635b05999160e01b81526004810192909252602482015260440162000140565b3360005b835181101562000333576020818102858101820151908501909101516001600160a01b03881615620002d5576000828152602081815260408083206001600160a01b038c16845290915290205481811015620002ae576040516303dee4c560e01b81526001600160a01b038a16600482015260248101829052604481018390526064810184905260840162000140565b6000838152602081815260408083206001600160a01b038d16845290915290209082900390555b6001600160a01b038716156200031d576000828152602081815260408083206001600160a01b038b1684529091528120805483929062000317908490620007e2565b90915550505b5050806200032b90620007fe565b90506200021e565b508251600103620003b75760208301516000906020840151909150856001600160a01b0316876001600160a01b0316846001600160a01b03167fc3d58168c5ae7397731d063d5bbf3d657854427343f4c083240f7aacaa2d0f628585604051620003a7929190918252602082015260400190565b60405180910390a45050620001e2565b836001600160a01b0316856001600160a01b0316826001600160a01b03167f4a39dc06d4c0dbc64b70af90fd698a233a518aa5d07e595d983b8c0526c8f7fb86866040516200040892919062000857565b60405180910390a45050505050565b6001600160a01b0384163b156200017e5760405163f23a6e6160e01b81526001600160a01b0385169063f23a6e61906200045e9089908990889088908890600401620008d1565b6020604051808303816000875af19250505080156200049c575060408051601f3d908101601f19168201909252620004999181019062000918565b60015b6200050a573d808015620004cd576040519150601f19603f3d011682016040523d82523d6000602084013e620004d2565b606091505b5080516000036200050257604051632bfa23e760e11b81526001600160a01b038616600482015260240162000140565b805181602001fd5b6001600160e01b0319811663f23a6e6160e01b146200054857604051632bfa23e760e11b81526001600160a01b038616600482015260240162000140565b50505050505050565b6001600160a01b0384163b156200017e5760405163bc197c8160e01b81526001600160a01b0385169063bc197c81906200059890899089908890889088906004016200094b565b6020604051808303816000875af1925050508015620005d6575060408051601f3d908101601f19168201909252620005d39181019062000918565b60015b62000607573d808015620004cd576040519150601f19603f3d011682016040523d82523d6000602084013e620004d2565b6001600160e01b0319811663bc197c8160e01b146200054857604051632bfa23e760e11b81526001600160a01b038616600482015260240162000140565b6000602082840312156200065857600080fd5b5051919050565b634e487b7160e01b600052604160045260246000fd5b600181811c908216806200068a57607f821691505b602082108103620006ab57634e487b7160e01b600052602260045260246000fd5b50919050565b601f821115620006fb57600081815260208120601f850160051c81016020861015620006da5750805b601f850160051c820191505b818110156200017e57828155600101620006e6565b505050565b81516001600160401b038111156200071c576200071c6200065f565b62000734816200072d845462000675565b84620006b1565b602080601f8311600181146200076c5760008415620007535750858301515b600019600386901b1c1916600185901b1785556200017e565b600085815260208120601f198616915b828110156200079d578886015182559484019460019091019084016200077c565b5085821015620007bc5787850151600019600388901b60f8161c191681555b5050505050600190811b01905550565b634e487b7160e01b600052601160045260246000fd5b80820180821115620007f857620007f8620007cc565b92915050565b600060018201620008135762000813620007cc565b5060010190565b600081518084526020808501945080840160005b838110156200084c578151875295820195908201906001016200082e565b509495945050505050565b6040815260006200086c60408301856200081a565b82810360208401526200088081856200081a565b95945050505050565b6000815180845260005b81811015620008b15760208185018101518683018201520162000893565b506000602082860101526020601f19601f83011685010191505092915050565b6001600160a01b03868116825285166020820152604081018490526060810183905260a0608082018190526000906200090d9083018462000889565b979650505050505050565b6000602082840312156200092b57600080fd5b81516001600160e01b0319811681146200094457600080fd5b9392505050565b6001600160a01b0386811682528516602082015260a06040820181905260009062000979908301866200081a565b82810360608401526200098d81866200081a565b90508281036080840152620009a3818562000889565b98975050505050505050565b6117a280620009bf6000396000f3fe608060405234801561001057600080fd5b50600436106100c85760003560e01c8063313ce56711610081578063a22cb4651161005b578063a22cb4651461018a578063e985e9c51461019d578063f242432a146101e657600080fd5b8063313ce567146101535780634e1273f41461016257806395d89b411461018257600080fd5b806306fdde03116100b257806306fdde03146101165780630e89341c1461012b5780632eb2c2d61461013e57600080fd5b8062fdd58e146100cd57806301ffc9a7146100f3575b600080fd5b6100e06100db366004611034565b6101f9565b6040519081526020015b60405180910390f35b61010661010136600461108f565b61022e565b60405190151581526020016100ea565b61011e610311565b6040516100ea9190611117565b61011e61013936600461112a565b61039f565b61015161014c3660046112de565b610433565b005b604051600081526020016100ea565b610175610170366004611388565b6104fe565b6040516100ea9190611483565b61011e6105ec565b610151610198366004611496565b6105f9565b6101066101ab3660046114d2565b73ffffffffffffffffffffffffffffffffffffffff918216600090815260016020908152604080832093909416825291909152205460ff1690565b6101516101f4366004611505565b610608565b60008181526020818152604080832073ffffffffffffffffffffffffffffffffffffffff861684529091529020545b92915050565b60007fffffffff0000000000000000000000000000000000000000000000000000000082167fd9b67a260000000000000000000000000000000000000000000000000000000014806102c157507fffffffff0000000000000000000000000000000000000000000000000000000082167f0e89341c00000000000000000000000000000000000000000000000000000000145b8061022857507f01ffc9a7000000000000000000000000000000000000000000000000000000007fffffffff00000000000000000000000000000000000000000000000000000000831614610228565b6003805461031e9061156a565b80601f016020809104026020016040519081016040528092919081815260200182805461034a9061156a565b80156103975780601f1061036c57610100808354040283529160200191610397565b820191906000526020600020905b81548152906001019060200180831161037a57829003601f168201915b505050505081565b6060600280546103ae9061156a565b80601f01602080910402602001604051908101604052809291908181526020018280546103da9061156a565b80156104275780601f106103fc57610100808354040283529160200191610427565b820191906000526020600020905b81548152906001019060200180831161040a57829003601f168201915b50505050509050919050565b3373ffffffffffffffffffffffffffffffffffffffff8616811480159061048d575073ffffffffffffffffffffffffffffffffffffffff80871660009081526001602090815260408083209385168352929052205460ff16155b156104e9576040517fe237d92200000000000000000000000000000000000000000000000000000000815273ffffffffffffffffffffffffffffffffffffffff8083166004830152871660248201526044015b60405180910390fd5b6104f686868686866106c6565b505050505050565b6060815183511461054857815183516040517f5b059991000000000000000000000000000000000000000000000000000000008152600481019290925260248201526044016104e0565b6000835167ffffffffffffffff81111561056457610564611143565b60405190808252806020026020018201604052801561058d578160200160208202803683370190505b50905060005b84518110156105e4576020808202860101516105b7906020808402870101516101f9565b8282815181106105c9576105c96115bd565b60209081029190910101526105dd8161161b565b9050610593565b509392505050565b6004805461031e9061156a565b61060433838361077a565b5050565b3373ffffffffffffffffffffffffffffffffffffffff86168114801590610662575073ffffffffffffffffffffffffffffffffffffffff80871660009081526001602090815260408083209385168352929052205460ff16155b156106b9576040517fe237d92200000000000000000000000000000000000000000000000000000000815273ffffffffffffffffffffffffffffffffffffffff8083166004830152871660248201526044016104e0565b6104f68686868686610862565b73ffffffffffffffffffffffffffffffffffffffff8416610716576040517f57f447ce000000000000000000000000000000000000000000000000000000008152600060048201526024016104e0565b73ffffffffffffffffffffffffffffffffffffffff8516610766576040517f01a83514000000000000000000000000000000000000000000000000000000008152600060048201526024016104e0565b610773858585858561093d565b5050505050565b73ffffffffffffffffffffffffffffffffffffffff82166107ca576040517fced3e100000000000000000000000000000000000000000000000000000000008152600060048201526024016104e0565b73ffffffffffffffffffffffffffffffffffffffff83811660008181526001602090815260408083209487168084529482529182902080547fffffffffffffffffffffffffffffffffffffffffffffffffffffffffffffff001686151590811790915591519182527f17307eab39ab6107e8899845ad3d59bd9653f200f220920489ca2b5937696c31910160405180910390a3505050565b73ffffffffffffffffffffffffffffffffffffffff84166108b2576040517f57f447ce000000000000000000000000000000000000000000000000000000008152600060048201526024016104e0565b73ffffffffffffffffffffffffffffffffffffffff8516610902576040517f01a83514000000000000000000000000000000000000000000000000000000008152600060048201526024016104e0565b60408051600180825260208201869052818301908152606082018590526080820190925290610934878784848761093d565b50505050505050565b6109498585858561099d565b73ffffffffffffffffffffffffffffffffffffffff841615610773578251339060010361098f5760208481015190840151610988838989858589610c88565b50506104f6565b6104f6818787878787610e7a565b80518251146109e557815181516040517f5b059991000000000000000000000000000000000000000000000000000000008152600481019290925260248201526044016104e0565b3360005b8351811015610b5b5760208181028581018201519085019091015173ffffffffffffffffffffffffffffffffffffffff881615610ae95760008281526020818152604080832073ffffffffffffffffffffffffffffffffffffffff8c16845290915290205481811015610ab5576040517f03dee4c500000000000000000000000000000000000000000000000000000000815273ffffffffffffffffffffffffffffffffffffffff8a1660048201526024810182905260448101839052606481018490526084016104e0565b60008381526020818152604080832073ffffffffffffffffffffffffffffffffffffffff8d16845290915290209082900390555b73ffffffffffffffffffffffffffffffffffffffff871615610b485760008281526020818152604080832073ffffffffffffffffffffffffffffffffffffffff8b16845290915281208054839290610b42908490611653565b90915550505b505080610b549061161b565b90506109e9565b508251600103610c0357602083015160009060208401519091508573ffffffffffffffffffffffffffffffffffffffff168773ffffffffffffffffffffffffffffffffffffffff168473ffffffffffffffffffffffffffffffffffffffff167fc3d58168c5ae7397731d063d5bbf3d657854427343f4c083240f7aacaa2d0f628585604051610bf4929190918252602082015260400190565b60405180910390a45050610773565b8373ffffffffffffffffffffffffffffffffffffffff168573ffffffffffffffffffffffffffffffffffffffff168273ffffffffffffffffffffffffffffffffffffffff167f4a39dc06d4c0dbc64b70af90fd698a233a518aa5d07e595d983b8c0526c8f7fb8686604051610c79929190611666565b60405180910390a45050505050565b73ffffffffffffffffffffffffffffffffffffffff84163b156104f6576040517ff23a6e6100000000000000000000000000000000000000000000000000000000815273ffffffffffffffffffffffffffffffffffffffff85169063f23a6e6190610cff9089908990889088908890600401611694565b6020604051808303816000875af1925050508015610d58575060408051601f3d9081017fffffffffffffffffffffffffffffffffffffffffffffffffffffffffffffffe0168201909252610d55918101906116e4565b60015b610de7573d808015610d86576040519150601f19603f3d011682016040523d82523d6000602084013e610d8b565b606091505b508051600003610ddf576040517f57f447ce00000000000000000000000000000000000000000000000000000000815273ffffffffffffffffffffffffffffffffffffffff861660048201526024016104e0565b805181602001fd5b7fffffffff0000000000000000000000000000000000000000000000000000000081167ff23a6e610000000000000000000000000000000000000000000000000000000014610934576040517f57f447ce00000000000000000000000000000000000000000000000000000000815273ffffffffffffffffffffffffffffffffffffffff861660048201526024016104e0565b73ffffffffffffffffffffffffffffffffffffffff84163b156104f6576040517fbc197c8100000000000000000000000000000000000000000000000000000000815273ffffffffffffffffffffffffffffffffffffffff85169063bc197c8190610ef19089908990889088908890600401611701565b6020604051808303816000875af1925050508015610f4a575060408051601f3d9081017fffffffffffffffffffffffffffffffffffffffffffffffffffffffffffffffe0168201909252610f47918101906116e4565b60015b610f78573d808015610d86576040519150601f19603f3d011682016040523d82523d6000602084013e610d8b565b7fffffffff0000000000000000000000000000000000000000000000000000000081167fbc197c810000000000000000000000000000000000000000000000000000000014610934576040517f57f447ce00000000000000000000000000000000000000000000000000000000815273ffffffffffffffffffffffffffffffffffffffff861660048201526024016104e0565b803573ffffffffffffffffffffffffffffffffffffffff8116811461102f57600080fd5b919050565b6000806040838503121561104757600080fd5b6110508361100b565b946020939093013593505050565b7fffffffff000000000000000000000000000000000000000000000000000000008116811461108c57600080fd5b50565b6000602082840312156110a157600080fd5b81356110ac8161105e565b9392505050565b6000815180845260005b818110156110d9576020818501810151868301820152016110bd565b5060006020828601015260207fffffffffffffffffffffffffffffffffffffffffffffffffffffffffffffffe0601f83011685010191505092915050565b6020815260006110ac60208301846110b3565b60006020828403121561113c57600080fd5b5035919050565b7f4e487b7100000000000000000000000000000000000000000000000000000000600052604160045260246000fd5b604051601f82017fffffffffffffffffffffffffffffffffffffffffffffffffffffffffffffffe016810167ffffffffffffffff811182821017156111b9576111b9611143565b604052919050565b600067ffffffffffffffff8211156111db576111db611143565b5060051b60200190565b600082601f8301126111f657600080fd5b8135602061120b611206836111c1565b611172565b82815260059290921b8401810191818101908684111561122a57600080fd5b8286015b84811015611245578035835291830191830161122e565b509695505050505050565b600082601f83011261126157600080fd5b813567ffffffffffffffff81111561127b5761127b611143565b6112ac60207fffffffffffffffffffffffffffffffffffffffffffffffffffffffffffffffe0601f84011601611172565b8181528460208386010111156112c157600080fd5b816020850160208301376000918101602001919091529392505050565b600080600080600060a086880312156112f657600080fd5b6112ff8661100b565b945061130d6020870161100b565b9350604086013567ffffffffffffffff8082111561132a57600080fd5b61133689838a016111e5565b9450606088013591508082111561134c57600080fd5b61135889838a016111e5565b9350608088013591508082111561136e57600080fd5b5061137b88828901611250565b9150509295509295909350565b6000806040838503121561139b57600080fd5b823567ffffffffffffffff808211156113b357600080fd5b818501915085601f8301126113c757600080fd5b813560206113d7611206836111c1565b82815260059290921b840181019181810190898411156113f657600080fd5b948201945b8386101561141b5761140c8661100b565b825294820194908201906113fb565b9650508601359250508082111561143157600080fd5b5061143e858286016111e5565b9150509250929050565b600081518084526020808501945080840160005b838110156114785781518752958201959082019060010161145c565b509495945050505050565b6020815260006110ac6020830184611448565b600080604083850312156114a957600080fd5b6114b28361100b565b9150602083013580151581146114c757600080fd5b809150509250929050565b600080604083850312156114e557600080fd5b6114ee8361100b565b91506114fc6020840161100b565b90509250929050565b600080600080600060a0868803121561151d57600080fd5b6115268661100b565b94506115346020870161100b565b93506040860135925060608601359150608086013567ffffffffffffffff81111561155e57600080fd5b61137b88828901611250565b600181811c9082168061157e57607f821691505b6020821081036115b7577f4e487b7100000000000000000000000000000000000000000000000000000000600052602260045260246000fd5b50919050565b7f4e487b7100000000000000000000000000000000000000000000000000000000600052603260045260246000fd5b7f4e487b7100000000000000000000000000000000000000000000000000000000600052601160045260246000fd5b60007fffffffffffffffffffffffffffffffffffffffffffffffffffffffffffffffff820361164c5761164c6115ec565b5060010190565b80820180821115610228576102286115ec565b6040815260006116796040830185611448565b828103602084015261168b8185611448565b95945050505050565b600073ffffffffffffffffffffffffffffffffffffffff808816835280871660208401525084604083015283606083015260a060808301526116d960a08301846110b3565b979650505050505050565b6000602082840312156116f657600080fd5b81516110ac8161105e565b600073ffffffffffffffffffffffffffffffffffffffff808816835280871660208401525060a0604083015261173a60a0830186611448565b828103606084015261174c8186611448565b9050828103608084015261176081856110b3565b9897505050505050505056fea26469706673582212200983d3690c3466ded08869b682b0b8881f0ffebf2bc973a923e7f50d799207e664736f6c63430008140033",
  "linkReferences": {},
  "deployedLinkReferences": {}
}