{
  "_format": "hh-sol-artifact-1",
  "contractName": "TestMultiToken",
  "sourceName": "contracts/mock/TestMultiToken.sol",
  "abi": [
    {
      "inputs": [
        {
          "internalType": "uint256",
          "name": "initialSupply",
          "type": "uint256"
        }
      ],
      "stateMutability": "nonpayable",
      "type": "constructor"
    },
    {
      "inputs": [
        {
          "internalType": "address",
          "name": "sender",
          "type": "address"
        },
        {
          "internalType": "uint256",
          "name": "balance",
          "type": "uint256"
        },
        {
          "internalType": "uint256",
          "name": "needed",
          "type": "uint256"
        },
        {
          "internalType": "uint256",
          "name": "tokenId",
          "type": "uint256"
        }
      ],
      "name": "ERC1155InsufficientBalance",
      "type": "error"
    },
    {
      "inputs": [
        {
          "internalType": "address",
          "name": "approver",
          "type": "address"
        }
      ],
      "name": "ERC1155InvalidApprover",
      "type": "error"
    },
    {
      "inputs": [
        {
          "internalType": "uint256",
          "name": "idsLength",
          "type": "uint256"
        },
        {
          "internalType": "uint256",
          "name": "valuesLength",
          "type": "uint256"
        }
      ],
      "name": "ERC1155InvalidArrayLength",
      "type": "error"
    },
    {
      "inputs": [
        {
          "internalType": "address",
          "name": "operator",
          "type": "address"
        }
      ],
      "name": "ERC1155InvalidOperator",
      "type": "error"
    },
    {
      "inputs": [
        {
          "internalType": "address",
          "name": "receiver",
          "type": "address"
        }
      ],
      "name": "ERC1155InvalidReceiver",
      "type": "error"
    },
    {
      "inputs": [
        {
          "internalType": "address",
          "name": "sender",
          "type": "address"
        }
      ],
      "name": "ERC1155InvalidSender",
      "type": "error"
    },
    {
      "inputs": [
        {
          "internalType": "address",
          "name": "operator",
          "type": "address"
        },
        {
          "internalType": "address",
          "name": "owner",
          "type": "address"
        }
      ],
      "name": "ERC1155MissingApprovalForAll",
      "type": "error"
    },
    {
      "anonymous": false,
      "inputs": [
        {
          "indexed": true,
          "internalType": "address",
          "name": "account",
          "type": "address"
        },
        {
          "indexed": true,
          "internalType": "address",
          "name": "operator",
          "type": "address"
        },
        {
          "indexed": false,
          "internalType": "bool",
          "name": "approved",
          "type": "bool"
        }
      ],
      "name": "ApprovalForAll",
      "type": "event"
    },
    {
      "anonymous": false,
      "inputs": [
        {
          "indexed": true,
          "internalType": "address",
          "name": "operator",
          "type": "address"
        },
        {
          "indexed": true,
          "internalType": "address",
          "name": "from",
          "type": "address"
        },
        {
          "indexed": true,
          "internalType": "address",
          "name": "to",
          "type": "address"
        },
        {
          "indexed": false,
          "internalType": "uint256[]",
          "name": "ids",
          "type": "uint256[]"
        },
        {
          "indexed": false,
          "internalType": "uint256[]",
          "name": "values",
          "type": "uint256[]"
        }
      ],
      "name": "TransferBatch",
      "type": "event"
    },
    {
      "anonymous": false,
      "inputs": [
        {
          "indexed": true,
          "internalType": "address",
          "name": "operator",
          "type": "address"
        },
        {
          "indexed": true,
          "internalType": "address",
          "name": "from",
          "type": "address"
        },
        {
          "indexed": true,
          "internalType": "address",
          "name": "to",
          "type": "address"
        },
        {
          "indexed": false,
          "internalType": "uint256",
          "name": "id",
          "type": "uint256"
        },
        {
          "indexed": false,
          "internalType": "uint256",
          "name": "value",
          "type": "uint256"
        }
      ],
      "name": "TransferSingle",
      "type": "event"
    },
    {
      "anonymous": false,
      "inputs": [
        {
          "indexed": false,
          "internalType": "string",
          "name": "value",
          "type": "string"
        },
        {
          "indexed": true,
          "internalType": "uint256",
          "name": "id",
          "type": "uint256"
        }
      ],
      "name": "URI",
      "type": "event"
    },
    {
      "inputs": [
        {
          "internalType": "address",
          "name": "account",
          "type": "address"
        },
        {
          "internalType": "uint256",
          "name": "id",
          "type": "uint256"
        }
      ],
      "name": "balanceOf",
      "outputs": [
        {
          "internalType": "uint256",
          "name": "",
          "type": "uint256"
        }
      ],
      "stateMutability": "view",
      "type": "function"
    },
    {
      "inputs": [
        {
          "internalType": "address[]",
          "name": "accounts",
          "type": "address[]"
        },
        {
          "internalType": "uint256[]",
          "name": "ids",
          "type": "uint256[]"
        }
      ],
      "name": "balanceOfBatch",
      "outputs": [
        {
          "internalType": "uint256[]",
          "name": "",
          "type": "uint256[]"
        }
      ],
      "stateMutability": "view",
      "type": "function"
    },
    {
      "inputs": [],
      "name": "decimals",
      "outputs": [
        {
          "internalType": "uint8",
          "name": "",
          "type": "uint8"
        }
      ],
      "stateMutability": "pure",
      "type": "function"
    },
    {
      "inputs": [
        {
          "internalType": "address",
          "name": "account",
          "type": "address"
        },
        {
          "internalType": "address",
          "name": "operator",
          "type": "address"
        }
      ],
      "name": "isApprovedForAll",
      "outputs": [
        {
          "internalType": "bool",
          "name": "",
          "type": "bool"
        }
      ],
      "stateMutability": "view",
      "type": "function"
    },
    {
      "inputs": [],
      "name": "name",
      "outputs": [
        {
          "internalType": "string",
          "name": "",
          "type": "string"
        }
      ],
      "stateMutability": "view",
      "type": "function"
    },
    {
      "inputs": [
        {
          "internalType": "address",
          "name": "from",
          "type": "address"
        },
        {
          "internalType": "address",
          "name": "to",
          "type": "address"
        },
        {
          "internalType": "uint256[]",
          "name": "ids",
          "type": "uint256[]"
        },
        {
          "internalType": "uint256[]",
          "name": "values",
          "type": "uint256[]"
        },
        {
          "internalType": "bytes",
          "name": "data",
          "type": "bytes"
        }
      ],
      "name": "safeBatchTransferFrom",
      "outputs": [],
      "stateMutability": "nonpayable",
      "type": "function"
    },
    {
      "inputs": [
        {
          "internalType": "address",
          "name": "from",
          "type": "address"
        },
        {
          "internalType": "address",
          "name": "to",
          "type": "address"
        },
        {
          "internalType": "uint256",
          "name": "id",
          "type": "uint256"
        },
        {
          "internalType": "uint256",
          "name": "value",
          "type": "uint256"
        },
        {
          "internalType": "bytes",
          "name": "data",
          "type": "bytes"
        }
      ],
      "name": "safeTransferFrom",
      "outputs": [],
      "stateMutability": "nonpayable",
      "type": "function"
    },
    {
      "inputs": [
        {
          "internalType": "address",
          "name": "operator",
          "type": "address"
        },
        {
          "internalType": "bool",
          "name": "approved",
          "type": "bool"
        }
      ],
      "name": "setApprovalForAll",
      "outputs": [],
      "stateMutability": "nonpayable",
      "type": "function"
    },
    {
      "inputs": [
        {
          "internalType": "bytes4",
          "name": "interfaceId",
          "type": "bytes4"
        }
      ],
      "name": "supportsInterface",
      "outputs": [
        {
          "internalType": "bool",
          "name": "",
          "type": "bool"
        }
      ],
      "stateMutability": "view",
      "type": "function"
    },
    {
      "inputs": [],
      "name": "symbol",
      "outputs": [
        {
          "internalType": "string",
          "name": "",
          "type": "string"
        }
      ],
      "stateMutability": "view",
      "type": "function"
    },
    {
      "inputs": [
        {
          "internalType": "uint256",
          "name": "",
          "type": "uint256"
        }
      ],
      "name": "uri",
      "outputs": [
        {
          "internalType": "string",
          "name": "",
          "type": "string"
        }
      ],
      "stateMutability": "view",
      "type": "function"
    }
  ],
  "bytecode": "0x608060405234620000e45762001e0e388190036080601f8201601f19168101906001600160401b03821190821017620000e957602092829160405260803912620000e457620000c0608051620000ab60206040516200005e81620000ff565b601c8152017f68747470733a2f2f68756e742e746f776e2f746f6b656e2e6a736f6e0000000081526200009d6200009760025462000163565b620001b9565b5163ffffffff191660381790565b600255620000b86200013f565b903362000302565b620000ca62000202565b620000d462000282565b60405161163f9081620007cf8239f35b600080fd5b634e487b7160e01b600052604160045260246000fd5b604081019081106001600160401b03821117620000e957604052565b601f909101601f19168101906001600160401b03821190821017620000e957604052565b60405190602082016001600160401b03811183821017620000e95760405260008252565b90600182811c9216801562000195575b60208310146200017f57565b634e487b7160e01b600052602260045260246000fd5b91607f169162000173565b818110620001ac575050565b60008155600101620001a0565b601f8111620001c55750565b60026000526200020090601f0160051c7f405787fa12a823e0f2b7631cc41b3ba8828b3321ca811111fa75cd3aa3bb5ace90810190620001a0565b565b6200020f60035462000163565b601f811162000240575b507f54657374204d756c746920546f6b656e00000000000000000000000000000020600355565b60036000526200027b90601f0160051c7fc2575a0e9e593c00f959f8c92f12db2869c3395a3b0502d05e2516446f71f85b90810190620001a0565b3862000219565b6200028f60045462000163565b601f8111620002c0575b507f544553545f4d554c544900000000000000000000000000000000000000000014600455565b6004600052620002fb90601f0160051c7f8a35acfbc15ff81a39ae7d344fd709f28e8600b4aa8c65c6b64bfe7fe36bd19b90810190620001a0565b3862000299565b6001600160a01b03811692918315620004aa57604051600190818152602091828201966000885260408301938285526060908185019687526080850180604052855187518082036200048e575050508390816000905b6200041e575b5050845114159050620003df57600088517fc3d58168c5ae7397731d063d5bbf3d657854427343f4c083240f7aacaa2d0f62620003b1885160405191829133958360209093929193604081019481520152565b0390a45b815103620003cf5750506200020093519051913362000639565b9150916200020094503362000796565b60006040517f4a39dc06d4c0dbc64b70af90fd698a233a518aa5d07e595d983b8c0526c8f7fb3391806200041589898362000533565b0390a4620003b5565b8651811015620004885780620004819160051b880162000479620004708d620004598988860151950151946000526000602052604060002090565b9060018060a01b0316600052602052604060002090565b918254620004ef565b9055620004d9565b8262000358565b6200035e565b635b05999160e01b8352608488019190915260a4870152604490fd5b604051632bfa23e760e11b815260006004820152602490fd5b634e487b7160e01b600052601160045260246000fd5b6000198114620004e95760010190565b620004c3565b91908201809211620004e957565b90815180825260208080930193019160005b8281106200051e575050505090565b8351855293810193928101926001016200050f565b90916200054d6200055c93604084526040840190620004fd565b916020818403910152620004fd565b90565b90816020910312620000e457516001600160e01b031981168103620000e45790565b919082519283825260005b848110620005ae575050826000602080949584010152601f8019910116010190565b6020818301810151848301820152016200058c565b909260a0926200055c9594600180861b031683526000602084015260408301526060820152816080820152019062000581565b3d1562000634573d906001600160401b038211620000e9576040519162000628601f8201601f1916602001846200011b565b82523d6000602084013e565b606090565b9293919093843b6200064d575b5050505050565b60209162000672604051948593849363f23a6e6160e01b9889865260048601620005c3565b038160006001600160a01b0388165af1600091816200070e575b50620006cf57826200069d620005f6565b8051919082620006c857604051632bfa23e760e11b81526001600160a01b0383166004820152602490fd5b9050602001fd5b6001600160e01b03191603620006eb5750388080808062000646565b604051632bfa23e760e11b81526001600160a01b03919091166004820152602490fd5b6200073591925060203d81116200073d575b6200072c81836200011b565b8101906200055f565b90386200068c565b503d62000720565b92620007786200055c9593620007879360018060a01b031686526000602087015260a0604087015260a0860190620004fd565b908482036060860152620004fd565b91608081840391015262000581565b9293919093843b620007a9575050505050565b60209162000672604051948593849363bc197c8160e01b98898652600486016200074556fe6080604052600436101561001257600080fd5b60003560e01c8062fdd58e146100c657806301ffc9a7146100c157806306fdde03146100bc5780630e89341c146100b75780632eb2c2d6146100b2578063313ce567146100ad5780634e1273f4146100a857806395d89b41146100a3578063a22cb4651461009e578063e985e9c5146100995763f242432a1461009457600080fd5b610d25565b610c8b565b610b57565b610a76565b61099e565b61091f565b610754565b610512565b6103b1565b6101da565b610137565b6004359073ffffffffffffffffffffffffffffffffffffffff821682036100ee57565b600080fd5b6024359073ffffffffffffffffffffffffffffffffffffffff821682036100ee57565b359073ffffffffffffffffffffffffffffffffffffffff821682036100ee57565b346100ee5760407ffffffffffffffffffffffffffffffffffffffffffffffffffffffffffffffffc3601126100ee5760206101a76101736100cb565b6024356000526000835260406000209073ffffffffffffffffffffffffffffffffffffffff16600052602052604060002090565b54604051908152f35b7fffffffff000000000000000000000000000000000000000000000000000000008116036100ee57565b346100ee5760207ffffffffffffffffffffffffffffffffffffffffffffffffffffffffffffffffc3601126100ee5760207fffffffff00000000000000000000000000000000000000000000000000000000600435610238816101b0565b167fd9b67a260000000000000000000000000000000000000000000000000000000081149081156102a0575b8115610276575b506040519015158152f35b7f01ffc9a7000000000000000000000000000000000000000000000000000000009150143861026b565b7f0e89341c0000000000000000000000000000000000000000000000000000000081149150610264565b7f4e487b7100000000000000000000000000000000000000000000000000000000600052604160045260246000fd5b90601f7fffffffffffffffffffffffffffffffffffffffffffffffffffffffffffffffe0910116810190811067ffffffffffffffff82111761033a57604052565b6102ca565b919082519283825260005b8481106103895750507fffffffffffffffffffffffffffffffffffffffffffffffffffffffffffffffe0601f8460006020809697860101520116010190565b60208183018101518483018201520161034a565b9060206103ae92818152019061033f565b90565b346100ee576000807ffffffffffffffffffffffffffffffffffffffffffffffffffffffffffffffffc36011261050f5760405190806003549060019180831c92808216928315610505575b60209283861085146104d85785885260208801949081156104995750600114610440575b61043c87610430818903826102f9565b6040519182918261039d565b0390f35b600360005294509192917fc2575a0e9e593c00f959f8c92f12db2869c3395a3b0502d05e2516446f71f85b5b83861061048857505050910190506104308261043c3880610420565b80548587015294820194810161046c565b7fffffffffffffffffffffffffffffffffffffffffffffffffffffffffffffff001685525050505090151560051b0190506104308261043c3880610420565b6024827f4e487b710000000000000000000000000000000000000000000000000000000081526022600452fd5b93607f16936103fc565b80fd5b346100ee576020807ffffffffffffffffffffffffffffffffffffffffffffffffffffffffffffffffc3601126100ee576040519060009060025460019181831c92808316928315610653575b82851084146106265784875260208701939081156105e9575060011461058f575b61043c86610430818803826102f9565b6002600090815294509192917f405787fa12a823e0f2b7631cc41b3ba8828b3321ca811111fa75cd3aa3bb5ace5b8386106105d857505050910190506104308261043c3861057f565b8054858701529482019481016105bd565b7fffffffffffffffffffffffffffffffffffffffffffffffffffffffffffffff0016845250505090151560051b0190506104308261043c3861057f565b6024867f4e487b710000000000000000000000000000000000000000000000000000000081526022600452fd5b93607f169361055e565b67ffffffffffffffff811161033a5760051b60200190565b81601f820112156100ee5780359161068c8361065d565b9261069a60405194856102f9565b808452602092838086019260051b8201019283116100ee578301905b8282106106c4575050505090565b813581529083019083016106b6565b67ffffffffffffffff811161033a57601f017fffffffffffffffffffffffffffffffffffffffffffffffffffffffffffffffe01660200190565b81601f820112156100ee57803590610724826106d3565b9261073260405194856102f9565b828452602083830101116100ee57816000926020809301838601378301015290565b346100ee5760a07ffffffffffffffffffffffffffffffffffffffffffffffffffffffffffffffffc3601126100ee5761078b6100cb565b6107936100f3565b906044359167ffffffffffffffff908184116100ee576107b860049436908601610675565b906064358381116100ee576107d09036908701610675565b926084359081116100ee576107e8903690870161070d565b9373ffffffffffffffffffffffffffffffffffffffff8082169033821415806108dd575b61088a57831615610859571561082857610826955061109a565b005b6024866000604051917f01a83514000000000000000000000000000000000000000000000000000000008352820152fd5b6024876000604051917f57f447ce000000000000000000000000000000000000000000000000000000008352820152fd5b604080517fe237d92200000000000000000000000000000000000000000000000000000000815233818b0190815273ffffffffffffffffffffffffffffffffffffffff8616602082015290918291010390fd5b5081600052600160205260ff6109173360406000209073ffffffffffffffffffffffffffffffffffffffff16600052602052604060002090565b54161561080c565b346100ee5760007ffffffffffffffffffffffffffffffffffffffffffffffffffffffffffffffffc3601126100ee57602060405160008152f35b90815180825260208080930193019160005b828110610979575050505090565b83518552938101939281019260010161096b565b9060206103ae928181520190610959565b346100ee5760407ffffffffffffffffffffffffffffffffffffffffffffffffffffffffffffffffc3601126100ee5760043567ffffffffffffffff8082116100ee57366023830112156100ee5781600401356109f98161065d565b92610a0760405194856102f9565b81845260209160248386019160051b830101913683116100ee57602401905b828210610a5f57856024358681116100ee5761043c91610a4d610a53923690600401610675565b90610fb9565b6040519182918261098d565b838091610a6b84610116565b815201910190610a26565b346100ee576000807ffffffffffffffffffffffffffffffffffffffffffffffffffffffffffffffffc36011261050f5760405190806004549060019180831c92808216928315610b4d575b60209283861085146104d85785885260208801949081156104995750600114610af45761043c87610430818903826102f9565b600460005294509192917f8a35acfbc15ff81a39ae7d344fd709f28e8600b4aa8c65c6b64bfe7fe36bd19b5b838610610b3c57505050910190506104308261043c3880610420565b805485870152948201948101610b20565b93607f1693610ac1565b346100ee5760407ffffffffffffffffffffffffffffffffffffffffffffffffffffffffffffffffc3601126100ee57610b8e6100cb565b6024358015158082036100ee5773ffffffffffffffffffffffffffffffffffffffff8316928315610c5a57610bf09033600052600160205260406000209073ffffffffffffffffffffffffffffffffffffffff16600052602052604060002090565b9060ff7fffffffffffffffffffffffffffffffffffffffffffffffffffffffffffffff0083541691161790557f17307eab39ab6107e8899845ad3d59bd9653f200f220920489ca2b5937696c3160405180610c55339482919091602081019215159052565b0390a3005b60246040517fced3e10000000000000000000000000000000000000000000000000000000000815260006004820152fd5b346100ee5760407ffffffffffffffffffffffffffffffffffffffffffffffffffffffffffffffffc3601126100ee57602060ff610d19610cc96100cb565b73ffffffffffffffffffffffffffffffffffffffff610ce66100f3565b91166000526001845260406000209073ffffffffffffffffffffffffffffffffffffffff16600052602052604060002090565b54166040519015158152f35b346100ee5760a07ffffffffffffffffffffffffffffffffffffffffffffffffffffffffffffffffc3601126100ee57610d5c6100cb565b610d646100f3565b9060843567ffffffffffffffff81116100ee57610d8590369060040161070d565b9073ffffffffffffffffffffffffffffffffffffffff808216903382141580610e99575b610e4c57841615610e1b5715610dea57610826926040519060018252604435602083015260408201926001845260643560608401526080830160405261109a565b60246040517f01a8351400000000000000000000000000000000000000000000000000000000815260006004820152fd5b60246040517f57f447ce00000000000000000000000000000000000000000000000000000000815260006004820152fd5b6040517fe237d92200000000000000000000000000000000000000000000000000000000815233600482015273ffffffffffffffffffffffffffffffffffffffff84166024820152604490fd5b5081600052600160205260ff610ed33360406000209073ffffffffffffffffffffffffffffffffffffffff16600052602052604060002090565b541615610da9565b610f1191600052600060205260406000209073ffffffffffffffffffffffffffffffffffffffff16600052602052604060002090565b5490565b7f4e487b7100000000000000000000000000000000000000000000000000000000600052601160045260246000fd5b7fffffffffffffffffffffffffffffffffffffffffffffffffffffffffffffffff8114610f715760010190565b610f15565b8051821015610f8a5760209160051b010190565b7f4e487b7100000000000000000000000000000000000000000000000000000000600052603260045260246000fd5b9190918051835180820361105f5750508051907fffffffffffffffffffffffffffffffffffffffffffffffffffffffffffffffe061100f610ff98461065d565b9361100760405195866102f9565b80855261065d565b0190602091368385013760005b815181101561105757806110426110529260051b85808287010151918a01015190610edb565b61104c8287610f76565b52610f44565b61101c565b509193505050565b6040517f5b05999100000000000000000000000000000000000000000000000000000000815260048101919091526024810191909152604490fd5b94919091815184519081810361105f57505060005b8251811015611200578060051b90602080838601015192870101518573ffffffffffffffffffffffffffffffffffffffff93848b16611153575b6110fc948216611101575b505050610f44565b6110af565b6111499161111c611141926000526000602052604060002090565b9073ffffffffffffffffffffffffffffffffffffffff16600052602052604060002090565b91825461131c565b90553885816110f4565b91929390506111708a61111c846000526000602052604060002090565b548381106111a357918791846110fc9695940361119b8d61111c856000526000602052604060002090565b5594506110e9565b6040517f03dee4c500000000000000000000000000000000000000000000000000000000815273ffffffffffffffffffffffffffffffffffffffff8c16600482015260248101919091526044810184905260648101839052608490fd5b5094919392909360018551146000146112c55760208581015183820151604080519283529282015273ffffffffffffffffffffffffffffffffffffffff838116929086169133917fc3d58168c5ae7397731d063d5bbf3d657854427343f4c083240f7aacaa2d0f6291a45b73ffffffffffffffffffffffffffffffffffffffff811661128e575b5050505050565b84516001036112b4576020806112aa96015192015192336113d5565b3880808080611287565b6112c0949192336115b9565b6112aa565b60405173ffffffffffffffffffffffffffffffffffffffff90818316918516907f4a39dc06d4c0dbc64b70af90fd698a233a518aa5d07e595d983b8c0526c8f7fb339180611314888c83611329565b0390a461126b565b91908201809211610f7157565b90916113406103ae93604084526040840190610959565b916020818403910152610959565b908160209103126100ee57516103ae816101b0565b91926103ae95949160a09473ffffffffffffffffffffffffffffffffffffffff809216855216602084015260408301526060820152816080820152019061033f565b3d156113d0573d906113b6826106d3565b916113c460405193846102f9565b82523d6000602084013e565b606090565b939290949194853b6113ea575b505050505050565b61142660209360405195869485947ff23a6e6100000000000000000000000000000000000000000000000000000000998a875260048701611363565b0381600073ffffffffffffffffffffffffffffffffffffffff88165af16000918161152d575b506114b1578261145a6113a5565b80519190826114aa576040517f57f447ce00000000000000000000000000000000000000000000000000000000815273ffffffffffffffffffffffffffffffffffffffff83166004820152602490fd5b9050602001fd5b7fffffffff0000000000000000000000000000000000000000000000000000000016036114e457503880808080806113e2565b6040517f57f447ce00000000000000000000000000000000000000000000000000000000815273ffffffffffffffffffffffffffffffffffffffff919091166004820152602490fd5b61154f91925060203d8111611556575b61154781836102f9565b81019061134e565b903861144c565b503d61153d565b93906103ae959361159d916115ab9473ffffffffffffffffffffffffffffffffffffffff809216885216602087015260a0604087015260a0860190610959565b908482036060860152610959565b91608081840391015261033f565b939290949194853b6115cd57505050505050565b61142660209360405195869485947fbc197c8100000000000000000000000000000000000000000000000000000000998a87526004870161155d56fea2646970667358221220da67b0844db14525100df2a9276c54010aa3a6527617ae5e04687a3630754c6964736f6c63430008140033",
  "linkReferences": {},
  "deployedLinkReferences": {}
}