{
  "_format": "hh-sol-artifact-1",
  "contractName": "MCV2_Bond_Part1",
  "sourceName": "contracts/MCV2_Bond_Part1.sol",
  "abi": [
    {
      "inputs": [
        {
          "internalType": "address",
          "name": "tokenImplementation",
          "type": "address"
        },
        {
          "internalType": "address",
          "name": "protocolBeneficiary_",
          "type": "address"
        },
        {
          "internalType": "uint256",
          "name": "creationFee_",
          "type": "uint256"
        },
        {
          "internalType": "uint256",
          "name": "maxSteps",
          "type": "uint256"
        },
        {
          "internalType": "address",
          "name": "dragonswapRouter",
          "type": "address"
        },
        {
          "internalType": "address",
          "name": "dragonswapFactory",
          "type": "address"
        }
      ],
      "stateMutability": "nonpayable",
      "type": "constructor"
    },
    {
      "inputs": [
        {
          "internalType": "address",
          "name": "target",
          "type": "address"
        }
      ],
      "name": "AddressEmptyCode",
      "type": "error"
    },
    {
      "inputs": [
        {
          "internalType": "address",
          "name": "account",
          "type": "address"
        }
      ],
      "name": "AddressInsufficientBalance",
      "type": "error"
    },
    {
      "inputs": [],
      "name": "ERC1167FailedCreateClone",
      "type": "error"
    },
    {
      "inputs": [],
      "name": "FailedInnerCall",
      "type": "error"
    },
    {
      "inputs": [],
      "name": "MCV2_BOND__InvalidPaginationParameters",
      "type": "error"
    },
    {
      "inputs": [],
      "name": "MCV2_Bond__CreationFeeTransactionFailed",
      "type": "error"
    },
    {
      "inputs": [],
      "name": "MCV2_Bond__ExceedMaxSupply",
      "type": "error"
    },
    {
      "inputs": [],
      "name": "MCV2_Bond__ExceedTotalSupply",
      "type": "error"
    },
    {
      "inputs": [
        {
          "internalType": "string",
          "name": "reason",
          "type": "string"
        }
      ],
      "name": "MCV2_Bond__InvalidConstructorParams",
      "type": "error"
    },
    {
      "inputs": [],
      "name": "MCV2_Bond__InvalidCreationFee",
      "type": "error"
    },
    {
      "inputs": [],
      "name": "MCV2_Bond__InvalidCreatorAddress",
      "type": "error"
    },
    {
      "inputs": [],
      "name": "MCV2_Bond__InvalidCurrentSupply",
      "type": "error"
    },
    {
      "inputs": [],
      "name": "MCV2_Bond__InvalidReceiver",
      "type": "error"
    },
    {
      "inputs": [
        {
          "internalType": "string",
          "name": "reason",
          "type": "string"
        }
      ],
      "name": "MCV2_Bond__InvalidReserveToken",
      "type": "error"
    },
    {
      "inputs": [
        {
          "internalType": "string",
          "name": "reason",
          "type": "string"
        }
      ],
      "name": "MCV2_Bond__InvalidStepParams",
      "type": "error"
    },
    {
      "inputs": [],
      "name": "MCV2_Bond__InvalidTokenAmount",
      "type": "error"
    },
    {
      "inputs": [
        {
          "internalType": "string",
          "name": "reason",
          "type": "string"
        }
      ],
      "name": "MCV2_Bond__InvalidTokenCreationParams",
      "type": "error"
    },
    {
      "inputs": [],
      "name": "MCV2_Bond__PermissionDenied",
      "type": "error"
    },
    {
      "inputs": [],
      "name": "MCV2_Bond__SlippageLimitExceeded",
      "type": "error"
    },
    {
      "inputs": [],
      "name": "MCV2_Bond__TokenNotFound",
      "type": "error"
    },
    {
      "inputs": [],
      "name": "MCV2_Bond__TokenSymbolAlreadyExists",
      "type": "error"
    },
    {
      "inputs": [],
      "name": "MCV2_Royalty__InvalidParams",
      "type": "error"
    },
    {
      "inputs": [],
      "name": "MCV2_Royalty__NothingToClaim",
      "type": "error"
    },
    {
      "inputs": [
        {
          "internalType": "address",
          "name": "owner",
          "type": "address"
        }
      ],
      "name": "OwnableInvalidOwner",
      "type": "error"
    },
    {
      "inputs": [
        {
          "internalType": "address",
          "name": "account",
          "type": "address"
        }
      ],
      "name": "OwnableUnauthorizedAccount",
      "type": "error"
    },
    {
      "inputs": [
        {
          "internalType": "address",
          "name": "token",
          "type": "address"
        }
      ],
      "name": "SafeERC20FailedOperation",
      "type": "error"
    },
    {
      "anonymous": false,
      "inputs": [
        {
          "indexed": true,
          "internalType": "address",
          "name": "token",
          "type": "address"
        },
        {
          "indexed": true,
          "internalType": "address",
          "name": "creator",
          "type": "address"
        }
      ],
      "name": "BondCreatorUpdated",
      "type": "event"
    },
    {
      "anonymous": false,
      "inputs": [
        {
          "indexed": true,
          "internalType": "address",
          "name": "token",
          "type": "address"
        },
        {
          "indexed": true,
          "internalType": "address",
          "name": "user",
          "type": "address"
        },
        {
          "indexed": false,
          "internalType": "address",
          "name": "receiver",
          "type": "address"
        },
        {
          "indexed": false,
          "internalType": "uint256",
          "name": "amountBurned",
          "type": "uint256"
        },
        {
          "indexed": true,
          "internalType": "address",
          "name": "reserveToken",
          "type": "address"
        },
        {
          "indexed": false,
          "internalType": "uint256",
          "name": "refundAmount",
          "type": "uint256"
        }
      ],
      "name": "Burn",
      "type": "event"
    },
    {
      "anonymous": false,
      "inputs": [
        {
          "indexed": false,
          "internalType": "uint256",
          "name": "amount",
          "type": "uint256"
        }
      ],
      "name": "CreationFeeUpdated",
      "type": "event"
    },
    {
      "anonymous": false,
      "inputs": [
        {
          "indexed": true,
          "internalType": "address",
          "name": "token",
          "type": "address"
        },
        {
          "indexed": true,
          "internalType": "address",
          "name": "user",
          "type": "address"
        },
        {
          "indexed": false,
          "internalType": "address",
          "name": "receiver",
          "type": "address"
        },
        {
          "indexed": false,
          "internalType": "uint256",
          "name": "amountMinted",
          "type": "uint256"
        },
        {
          "indexed": true,
          "internalType": "address",
          "name": "reserveToken",
          "type": "address"
        },
        {
          "indexed": false,
          "internalType": "uint256",
          "name": "reserveAmount",
          "type": "uint256"
        }
      ],
      "name": "Mint",
      "type": "event"
    },
    {
      "anonymous": false,
      "inputs": [
        {
          "indexed": true,
          "internalType": "address",
          "name": "previousOwner",
          "type": "address"
        },
        {
          "indexed": true,
          "internalType": "address",
          "name": "newOwner",
          "type": "address"
        }
      ],
      "name": "OwnershipTransferred",
      "type": "event"
    },
    {
      "anonymous": false,
      "inputs": [
        {
          "indexed": false,
          "internalType": "address",
          "name": "protocolBeneficiary",
          "type": "address"
        }
      ],
      "name": "ProtocolBeneficiaryUpdated",
      "type": "event"
    },
    {
      "anonymous": false,
      "inputs": [
        {
          "indexed": true,
          "internalType": "address",
          "name": "user",
          "type": "address"
        },
        {
          "indexed": false,
          "internalType": "address",
          "name": "reserveToken",
          "type": "address"
        },
        {
          "indexed": false,
          "internalType": "uint256",
          "name": "amount",
          "type": "uint256"
        }
      ],
      "name": "RoyaltyClaimed",
      "type": "event"
    },
    {
      "anonymous": false,
      "inputs": [
        {
          "indexed": false,
          "internalType": "uint256",
          "name": "ratio",
          "type": "uint256"
        }
      ],
      "name": "RoyaltyRangeUpdated",
      "type": "event"
    },
    {
      "anonymous": false,
      "inputs": [
        {
          "indexed": true,
          "internalType": "address",
          "name": "token",
          "type": "address"
        },
        {
          "indexed": false,
          "internalType": "string",
          "name": "name",
          "type": "string"
        },
        {
          "indexed": false,
          "internalType": "string",
          "name": "symbol",
          "type": "string"
        },
        {
          "indexed": true,
          "internalType": "address",
          "name": "reserveToken",
          "type": "address"
        }
      ],
      "name": "TokenCreated",
      "type": "event"
    },
    {
      "inputs": [],
      "name": "BURN_ADDRESS",
      "outputs": [
        {
          "internalType": "address",
          "name": "",
          "type": "address"
        }
      ],
      "stateMutability": "view",
      "type": "function"
    },
    {
      "inputs": [
        {
          "internalType": "address",
          "name": "token",
          "type": "address"
        },
        {
          "internalType": "uint256",
          "name": "tokensToBurn",
          "type": "uint256"
        },
        {
          "internalType": "uint256",
          "name": "minRefund",
          "type": "uint256"
        },
        {
          "internalType": "address",
          "name": "receiver",
          "type": "address"
        }
      ],
      "name": "burn",
      "outputs": [
        {
          "internalType": "uint256",
          "name": "",
          "type": "uint256"
        }
      ],
      "stateMutability": "nonpayable",
      "type": "function"
    },
    {
      "inputs": [
        {
          "internalType": "address",
          "name": "reserveToken",
          "type": "address"
        }
      ],
      "name": "burnRoyalties",
      "outputs": [],
      "stateMutability": "nonpayable",
      "type": "function"
    },
    {
      "inputs": [
        {
          "internalType": "address",
          "name": "reserveToken",
          "type": "address"
        }
      ],
      "name": "claimRoyalties",
      "outputs": [],
      "stateMutability": "nonpayable",
      "type": "function"
    },
    {
      "inputs": [
        {
          "components": [
            {
              "internalType": "string",
              "name": "name",
              "type": "string"
            },
            {
              "internalType": "string",
              "name": "symbol",
              "type": "string"
            }
          ],
          "internalType": "struct MCV2_Bond_Part1.TokenParams",
          "name": "tp",
          "type": "tuple"
        },
        {
          "components": [
            {
              "internalType": "uint16",
              "name": "mintRoyalty",
              "type": "uint16"
            },
            {
              "internalType": "uint16",
              "name": "burnRoyalty",
              "type": "uint16"
            },
            {
              "internalType": "address",
              "name": "reserveToken",
              "type": "address"
            },
            {
              "internalType": "uint128",
              "name": "maxSupply",
              "type": "uint128"
            },
            {
              "internalType": "uint128[]",
              "name": "stepRanges",
              "type": "uint128[]"
            },
            {
              "internalType": "uint128[]",
              "name": "stepPrices",
              "type": "uint128[]"
            }
          ],
          "internalType": "struct MCV2_Bond_Part1.BondParams",
          "name": "bp",
          "type": "tuple"
        }
      ],
      "name": "createToken",
      "outputs": [
        {
          "internalType": "address",
          "name": "",
          "type": "address"
        }
      ],
      "stateMutability": "payable",
      "type": "function"
    },
    {
      "inputs": [],
      "name": "creationFee",
      "outputs": [
        {
          "internalType": "uint256",
          "name": "",
          "type": "uint256"
        }
      ],
      "stateMutability": "view",
      "type": "function"
    },
    {
      "inputs": [
        {
          "internalType": "address",
          "name": "token",
          "type": "address"
        }
      ],
      "name": "exists",
      "outputs": [
        {
          "internalType": "bool",
          "name": "",
          "type": "bool"
        }
      ],
      "stateMutability": "view",
      "type": "function"
    },
    {
      "inputs": [
        {
          "internalType": "address",
          "name": "token",
          "type": "address"
        },
        {
          "internalType": "uint256",
          "name": "tokensToBurn",
          "type": "uint256"
        }
      ],
      "name": "getRefundForTokens",
      "outputs": [
        {
          "internalType": "uint256",
          "name": "refundAmount",
          "type": "uint256"
        },
        {
          "internalType": "uint256",
          "name": "royalty",
          "type": "uint256"
        }
      ],
      "stateMutability": "view",
      "type": "function"
    },
    {
      "inputs": [
        {
          "internalType": "address",
          "name": "token",
          "type": "address"
        },
        {
          "internalType": "uint256",
          "name": "tokensToMint",
          "type": "uint256"
        }
      ],
      "name": "getReserveForToken",
      "outputs": [
        {
          "internalType": "uint256",
          "name": "reserveAmount",
          "type": "uint256"
        },
        {
          "internalType": "uint256",
          "name": "royalty",
          "type": "uint256"
        }
      ],
      "stateMutability": "view",
      "type": "function"
    },
    {
      "inputs": [
        {
          "internalType": "address",
          "name": "wallet",
          "type": "address"
        },
        {
          "internalType": "address",
          "name": "reserveToken",
          "type": "address"
        }
      ],
      "name": "getRoyaltyInfo",
      "outputs": [
        {
          "internalType": "uint256",
          "name": "",
          "type": "uint256"
        },
        {
          "internalType": "uint256",
          "name": "",
          "type": "uint256"
        }
      ],
      "stateMutability": "view",
      "type": "function"
    },
    {
      "inputs": [
        {
          "internalType": "address",
          "name": "token",
          "type": "address"
        }
      ],
      "name": "getSteps",
      "outputs": [
        {
          "components": [
            {
              "internalType": "uint128",
              "name": "rangeTo",
              "type": "uint128"
            },
            {
              "internalType": "uint128",
              "name": "price",
              "type": "uint128"
            }
          ],
          "internalType": "struct MCV2_Bond_Part1.BondStep[]",
          "name": "",
          "type": "tuple[]"
        }
      ],
      "stateMutability": "view",
      "type": "function"
    },
    {
      "inputs": [],
      "name": "maxRoyaltyRange",
      "outputs": [
        {
          "internalType": "uint256",
          "name": "",
          "type": "uint256"
        }
      ],
      "stateMutability": "view",
      "type": "function"
    },
    {
      "inputs": [
        {
          "internalType": "address",
          "name": "token",
          "type": "address"
        }
      ],
      "name": "maxSupply",
      "outputs": [
        {
          "internalType": "uint128",
          "name": "",
          "type": "uint128"
        }
      ],
      "stateMutability": "view",
      "type": "function"
    },
    {
      "inputs": [
        {
          "internalType": "address",
          "name": "token",
          "type": "address"
        },
        {
          "internalType": "uint256",
          "name": "tokensToMint",
          "type": "uint256"
        },
        {
          "internalType": "uint256",
          "name": "maxReserveAmount",
          "type": "uint256"
        },
        {
          "internalType": "address",
          "name": "receiver",
          "type": "address"
        }
      ],
      "name": "mint",
      "outputs": [
        {
          "internalType": "uint256",
          "name": "",
          "type": "uint256"
        }
      ],
      "stateMutability": "nonpayable",
      "type": "function"
    },
    {
      "inputs": [],
      "name": "owner",
      "outputs": [
        {
          "internalType": "address",
          "name": "",
          "type": "address"
        }
      ],
      "stateMutability": "view",
      "type": "function"
    },
    {
      "inputs": [
        {
          "internalType": "address",
          "name": "token",
          "type": "address"
        }
      ],
      "name": "priceForNextMint",
      "outputs": [
        {
          "internalType": "uint128",
          "name": "",
          "type": "uint128"
        }
      ],
      "stateMutability": "view",
      "type": "function"
    },
    {
      "inputs": [],
      "name": "protocolBeneficiary",
      "outputs": [
        {
          "internalType": "address",
          "name": "",
          "type": "address"
        }
      ],
      "stateMutability": "view",
      "type": "function"
    },
    {
      "inputs": [],
      "name": "renounceOwnership",
      "outputs": [],
      "stateMutability": "nonpayable",
      "type": "function"
    },
    {
      "inputs": [
        {
          "internalType": "address",
          "name": "",
          "type": "address"
        }
      ],
      "name": "tokenBond",
      "outputs": [
        {
          "internalType": "address",
          "name": "creator",
          "type": "address"
        },
        {
          "internalType": "uint16",
          "name": "mintRoyalty",
          "type": "uint16"
        },
        {
          "internalType": "uint16",
          "name": "burnRoyalty",
          "type": "uint16"
        },
        {
          "internalType": "uint40",
          "name": "createdAt",
          "type": "uint40"
        },
        {
          "internalType": "address",
          "name": "reserveToken",
          "type": "address"
        },
        {
          "internalType": "uint256",
          "name": "reserveBalance",
          "type": "uint256"
        }
      ],
      "stateMutability": "view",
      "type": "function"
    },
    {
      "inputs": [],
      "name": "tokenCount",
      "outputs": [
        {
          "internalType": "uint256",
          "name": "",
          "type": "uint256"
        }
      ],
      "stateMutability": "view",
      "type": "function"
    },
    {
      "inputs": [
        {
          "internalType": "uint256",
          "name": "",
          "type": "uint256"
        }
      ],
      "name": "tokens",
      "outputs": [
        {
          "internalType": "address",
          "name": "",
          "type": "address"
        }
      ],
      "stateMutability": "view",
      "type": "function"
    },
    {
      "inputs": [
        {
          "internalType": "address",
          "name": "newOwner",
          "type": "address"
        }
      ],
      "name": "transferOwnership",
      "outputs": [],
      "stateMutability": "nonpayable",
      "type": "function"
    },
    {
      "inputs": [
        {
          "internalType": "address",
          "name": "token",
          "type": "address"
        },
        {
          "internalType": "address",
          "name": "creator",
          "type": "address"
        }
      ],
      "name": "updateBondCreator",
      "outputs": [],
      "stateMutability": "nonpayable",
      "type": "function"
    },
    {
      "inputs": [
        {
          "internalType": "uint256",
          "name": "amount",
          "type": "uint256"
        }
      ],
      "name": "updateCreationFee",
      "outputs": [],
      "stateMutability": "nonpayable",
      "type": "function"
    },
    {
      "inputs": [
        {
          "internalType": "uint256",
          "name": "ratio",
          "type": "uint256"
        }
      ],
      "name": "updateMaxRoyaltyRange",
      "outputs": [],
      "stateMutability": "nonpayable",
      "type": "function"
    },
    {
      "inputs": [
        {
          "internalType": "address",
          "name": "protocolBeneficiary_",
          "type": "address"
        }
      ],
      "name": "updateProtocolBeneficiary",
      "outputs": [],
      "stateMutability": "nonpayable",
      "type": "function"
    },
    {
      "inputs": [
        {
          "internalType": "address",
          "name": "",
          "type": "address"
        },
        {
          "internalType": "address",
          "name": "",
          "type": "address"
        }
      ],
      "name": "userTokenRoyaltyBalance",
      "outputs": [
        {
          "internalType": "uint256",
          "name": "",
          "type": "uint256"
        }
      ],
      "stateMutability": "view",
      "type": "function"
    },
    {
      "inputs": [
        {
          "internalType": "address",
          "name": "",
          "type": "address"
        },
        {
          "internalType": "address",
          "name": "",
          "type": "address"
        }
      ],
      "name": "userTokenRoyaltyClaimed",
      "outputs": [
        {
          "internalType": "uint256",
          "name": "",
          "type": "uint256"
        }
      ],
      "stateMutability": "view",
      "type": "function"
    }
  ],
  "bytecode": "0x6101006040526113886003553480156200001857600080fd5b5060405162005f6438038062005f6483398181016040528101906200003e91906200053b565b84843380600073ffffffffffffffffffffffffffffffffffffffff168173ffffffffffffffffffffffffffffffffffffffff1603620000b75760006040517f1e4fbdf7000000000000000000000000000000000000000000000000000000008152600401620000ae9190620005e8565b60405180910390fd5b620000c881620003d260201b60201c565b5082600160006101000a81548173ffffffffffffffffffffffffffffffffffffffff021916908373ffffffffffffffffffffffffffffffffffffffff16021790555081600281905550505050600073ffffffffffffffffffffffffffffffffffffffff168673ffffffffffffffffffffffffffffffffffffffff160362000186576040517f643b81d70000000000000000000000000000000000000000000000000000000081526004016200017d9062000666565b60405180910390fd5b600073ffffffffffffffffffffffffffffffffffffffff168573ffffffffffffffffffffffffffffffffffffffff1603620001f8576040517f643b81d7000000000000000000000000000000000000000000000000000000008152600401620001ef90620006d8565b60405180910390fd5b600083036200023e576040517f643b81d700000000000000000000000000000000000000000000000000000000815260040162000235906200074a565b60405180910390fd5b600073ffffffffffffffffffffffffffffffffffffffff168273ffffffffffffffffffffffffffffffffffffffff1603620002b0576040517f643b81d7000000000000000000000000000000000000000000000000000000008152600401620002a790620007bc565b60405180910390fd5b600073ffffffffffffffffffffffffffffffffffffffff168173ffffffffffffffffffffffffffffffffffffffff160362000322576040517f643b81d700000000000000000000000000000000000000000000000000000000815260040162000319906200082e565b60405180910390fd5b8573ffffffffffffffffffffffffffffffffffffffff1660a08173ffffffffffffffffffffffffffffffffffffffff168152505082608081815250508173ffffffffffffffffffffffffffffffffffffffff1660c08173ffffffffffffffffffffffffffffffffffffffff16815250508073ffffffffffffffffffffffffffffffffffffffff1660e08173ffffffffffffffffffffffffffffffffffffffff168152505050505050505062000850565b60008060009054906101000a900473ffffffffffffffffffffffffffffffffffffffff169050816000806101000a81548173ffffffffffffffffffffffffffffffffffffffff021916908373ffffffffffffffffffffffffffffffffffffffff1602179055508173ffffffffffffffffffffffffffffffffffffffff168173ffffffffffffffffffffffffffffffffffffffff167f8be0079c531659141344cd1fd0a4f28419497f9722a3daafe3b4186f6b6457e060405160405180910390a35050565b600080fd5b600073ffffffffffffffffffffffffffffffffffffffff82169050919050565b6000620004c8826200049b565b9050919050565b620004da81620004bb565b8114620004e657600080fd5b50565b600081519050620004fa81620004cf565b92915050565b6000819050919050565b620005158162000500565b81146200052157600080fd5b50565b60008151905062000535816200050a565b92915050565b60008060008060008060c087890312156200055b576200055a62000496565b5b60006200056b89828a01620004e9565b96505060206200057e89828a01620004e9565b95505060406200059189828a0162000524565b9450506060620005a489828a0162000524565b9350506080620005b789828a01620004e9565b92505060a0620005ca89828a01620004e9565b9150509295509295509295565b620005e281620004bb565b82525050565b6000602082019050620005ff6000830184620005d7565b92915050565b600082825260208201905092915050565b7f746f6b656e496d706c656d656e746174696f6e00000000000000000000000000600082015250565b60006200064e60138362000605565b91506200065b8262000616565b602082019050919050565b6000602082019050818103600083015262000681816200063f565b9050919050565b7f70726f746f636f6c42656e656669636961727900000000000000000000000000600082015250565b6000620006c060138362000605565b9150620006cd8262000688565b602082019050919050565b60006020820190508181036000830152620006f381620006b1565b9050919050565b7f6d61785374657073000000000000000000000000000000000000000000000000600082015250565b60006200073260088362000605565b91506200073f82620006fa565b602082019050919050565b60006020820190508181036000830152620007658162000723565b9050919050565b7f647261676f6e73776170526f7574657200000000000000000000000000000000600082015250565b6000620007a460108362000605565b9150620007b1826200076c565b602082019050919050565b60006020820190508181036000830152620007d78162000795565b9050919050565b7f647261676f6e73776170466163746f7279000000000000000000000000000000600082015250565b60006200081660118362000605565b91506200082382620007de565b602082019050919050565b60006020820190508181036000830152620008498162000807565b9050919050565b60805160a05160c05160e0516156e062000884600039600050506000505060006108840152600061317901526156e06000f3fe6080604052600436106101b75760003560e01c8063995e5f92116100ec578063cfc556221161008a578063f2fde38b11610064578063f2fde38b14610677578063f6a3d24e146106a0578063f74bfe8e146106dd578063fccc28131461071a576101b7565b8063cfc55622146105e1578063d9fe0eae1461060a578063dce0b4e41461064c576101b7565b80639f181b5e116100c65780639f181b5e14610511578063ac4e96751461053c578063c162c9161461057a578063c9cb204b146105a3576101b7565b8063995e5f921461045a5780639c65003d146104975780639cc7becf146104d4576101b7565b80637348ed2f1161015957806377e456cb1161013357806377e456cb1461039c578063840d885d146103c75780638da5cb5b14610404578063990e60051461042f576101b7565b80637348ed2f1461030c578063763e7da61461033557806376a9864b1461035e576101b7565b806350801fb11161019557806350801fb1146102525780635a4d53111461028f5780636fa23795146102cc578063715018a6146102f5576101b7565b806327e381a9146101bc57806330be6955146101e55780634f64b2be14610215575b600080fd5b3480156101c857600080fd5b506101e360048036038101906101de91906142bf565b610745565b005b6101ff60048036038101906101fa919061432f565b61082e565b60405161020c91906143b6565b60405180910390f35b34801561022157600080fd5b5061023c60048036038101906102379190614407565b610c2c565b60405161024991906143b6565b60405180910390f35b34801561025e57600080fd5b5061027960048036038101906102749190614434565b610c6b565b6040516102869190614483565b60405180910390f35b34801561029b57600080fd5b506102b660048036038101906102b1919061449e565b610c90565b6040516102c39190614483565b60405180910390f35b3480156102d857600080fd5b506102f360048036038101906102ee9190614407565b610f7f565b005b34801561030157600080fd5b5061030a610fc8565b005b34801561031857600080fd5b50610333600480360381019061032e9190614407565b610fdc565b005b34801561034157600080fd5b5061035c60048036038101906103579190614434565b611061565b005b34801561036a57600080fd5b5061038560048036038101906103809190614505565b61123c565b604051610393929190614545565b60405180910390f35b3480156103a857600080fd5b506103b161189e565b6040516103be9190614483565b60405180910390f35b3480156103d357600080fd5b506103ee60048036038101906103e991906142bf565b6118a4565b6040516103fb9190614599565b60405180910390f35b34801561041057600080fd5b506104196119dc565b60405161042691906143b6565b60405180910390f35b34801561043b57600080fd5b50610444611a05565b60405161045191906143b6565b60405180910390f35b34801561046657600080fd5b50610481600480360381019061047c91906142bf565b611a2b565b60405161048e91906146a1565b60405180910390f35b3480156104a357600080fd5b506104be60048036038101906104b99190614434565b611b5c565b6040516104cb9190614483565b60405180910390f35b3480156104e057600080fd5b506104fb60048036038101906104f691906142bf565b611b81565b6040516105089190614599565b60405180910390f35b34801561051d57600080fd5b50610526611c59565b6040516105339190614483565b60405180910390f35b34801561054857600080fd5b50610563600480360381019061055e9190614434565b611c66565b604051610571929190614545565b60405180910390f35b34801561058657600080fd5b506105a1600480360381019061059c91906142bf565b611d6e565b005b3480156105af57600080fd5b506105ca60048036038101906105c59190614505565b611fca565b6040516105d8929190614545565b60405180910390f35b3480156105ed57600080fd5b50610608600480360381019061060391906142bf565b6125e7565b005b34801561061657600080fd5b50610631600480360381019061062c91906142bf565b612840565b60405161064396959493929190614700565b60405180910390f35b34801561065857600080fd5b506106616128e9565b60405161066e9190614483565b60405180910390f35b34801561068357600080fd5b5061069e600480360381019061069991906142bf565b6128ef565b005b3480156106ac57600080fd5b506106c760048036038101906106c291906142bf565b612975565b6040516106d4919061477c565b60405180910390f35b3480156106e957600080fd5b5061070460048036038101906106ff919061449e565b612a10565b6040516107119190614483565b60405180910390f35b34801561072657600080fd5b5061072f612d01565b60405161073c91906143b6565b60405180910390f35b61074d612d07565b600073ffffffffffffffffffffffffffffffffffffffff168173ffffffffffffffffffffffffffffffffffffffff16036107b3576040517f5059b85f00000000000000000000000000000000000000000000000000000000815260040160405180910390fd5b80600160006101000a81548173ffffffffffffffffffffffffffffffffffffffff021916908373ffffffffffffffffffffffffffffffffffffffff1602179055507fcf7686c0c53a1ab216c4cd81c1bc037136c791a61f30af4a78827c39157660448160405161082391906143b6565b60405180910390a150565b6000600254341461086b576040517f3403ce3700000000000000000000000000000000000000000000000000000000815260040160405180910390fd5b61087483612d8e565b61087d82612e39565b60006108b87f00000000000000000000000000000000000000000000000000000000000000008580602001906108b391906147a6565b61331e565b905060008190508073ffffffffffffffffffffffffffffffffffffffff16637029144c8680600001906108eb91906147a6565b8880602001906108fb91906147a6565b6040518563ffffffff1660e01b815260040161091a9493929190614867565b600060405180830381600087803b15801561093457600080fd5b505af1158015610948573d6000803e3d6000fd5b505050506007829080600181540180825580915050600190039060005260206000200160009091909190916101000a81548173ffffffffffffffffffffffffffffffffffffffff021916908373ffffffffffffffffffffffffffffffffffffffff1602179055506109b982856133b1565b8360400160208101906109cc91906142bf565b73ffffffffffffffffffffffffffffffffffffffff168273ffffffffffffffffffffffffffffffffffffffff167f6596c1670eb3390048d23721809c3da5d3f531375ac0e2cab0f77a808ed64331878060000190610a2a91906147a6565b898060200190610a3a91906147a6565b604051610a4a9493929190614867565b60405180910390a36000848060a00190610a6491906148a2565b6000818110610a7657610a75614905565b5b9050602002016020810190610a8b9190614960565b6fffffffffffffffffffffffffffffffff1603610b4d578073ffffffffffffffffffffffffffffffffffffffff16631b5ad8b5610ac661391a565b868060800190610ad691906148a2565b6000818110610ae857610ae7614905565b5b9050602002016020810190610afd9190614960565b6040518363ffffffff1660e01b8152600401610b1a9291906149c8565b600060405180830381600087803b158015610b3457600080fd5b505af1158015610b48573d6000803e3d6000fd5b505050505b60006002541115610c21576000600160009054906101000a900473ffffffffffffffffffffffffffffffffffffffff1673ffffffffffffffffffffffffffffffffffffffff16600254604051610ba290614a22565b60006040518083038185875af1925050503d8060008114610bdf576040519150601f19603f3d011682016040523d82523d6000602084013e610be4565b606091505b5050905080610c1f576040517f0d4d59b300000000000000000000000000000000000000000000000000000000815260040160405180910390fd5b505b819250505092915050565b60078181548110610c3c57600080fd5b906000526020600020016000915054906101000a900473ffffffffffffffffffffffffffffffffffffffff1681565b6005602052816000526040600020602052806000526040600020600091509150505481565b60008073ffffffffffffffffffffffffffffffffffffffff168273ffffffffffffffffffffffffffffffffffffffff1603610cf7576040517fd9b08f7600000000000000000000000000000000000000000000000000000000815260040160405180910390fd5b600080610d048787611fca565b9150915084821015610d42576040517f07728bb000000000000000000000000000000000000000000000000000000000815260040160405180910390fd5b6000600660008973ffffffffffffffffffffffffffffffffffffffff1673ffffffffffffffffffffffffffffffffffffffff16815260200190815260200160002090506000610d8f61391a565b90508873ffffffffffffffffffffffffffffffffffffffff1663f4efe8f2828a6040518363ffffffff1660e01b8152600401610dcc929190614a37565b600060405180830381600087803b158015610de657600080fd5b505af1158015610dfa573d6000803e3d6000fd5b505050508284610e0a9190614a8f565b826002016000828254610e1d9190614ac3565b92505081905550610e778260000160009054906101000a900473ffffffffffffffffffffffffffffffffffffffff168360010160009054906101000a900473ffffffffffffffffffffffffffffffffffffffff1685613922565b60008260010160009054906101000a900473ffffffffffffffffffffffffffffffffffffffff169050610ecb87868373ffffffffffffffffffffffffffffffffffffffff16613a9a9092919063ffffffff16565b8260010160009054906101000a900473ffffffffffffffffffffffffffffffffffffffff1673ffffffffffffffffffffffffffffffffffffffff168273ffffffffffffffffffffffffffffffffffffffff168b73ffffffffffffffffffffffffffffffffffffffff167f80a56de61873550ae491e454783a8dfc9d08a6f8bdace0887eabd4315c4b9da88a8d8a604051610f6793929190614af7565b60405180910390a48495505050505050949350505050565b610f87612d07565b806002819055507f88a973fd5506071e0cf878b30898776c47d5250a7ee1e6ee0b36df3b03c7c16a81604051610fbd9190614483565b60405180910390a150565b610fd0612d07565b610fda6000613b19565b565b610fe4612d07565b612710811115611020576040517f5059b85f00000000000000000000000000000000000000000000000000000000815260040160405180910390fd5b806003819055507f21085b3501e0e4fa8e0c825e7ed36b44420471b9f3c5aef447cebe50b2db133d816040516110569190614483565b60405180910390a150565b6000600660008473ffffffffffffffffffffffffffffffffffffffff1673ffffffffffffffffffffffffffffffffffffffff16815260200190815260200160002090506110ac61391a565b73ffffffffffffffffffffffffffffffffffffffff168160000160009054906101000a900473ffffffffffffffffffffffffffffffffffffffff1673ffffffffffffffffffffffffffffffffffffffff1614611134576040517f36a0203800000000000000000000000000000000000000000000000000000000815260040160405180910390fd5b600073ffffffffffffffffffffffffffffffffffffffff168273ffffffffffffffffffffffffffffffffffffffff160361119a576040517f67f61c8200000000000000000000000000000000000000000000000000000000815260040160405180910390fd5b818160000160006101000a81548173ffffffffffffffffffffffffffffffffffffffff021916908373ffffffffffffffffffffffffffffffffffffffff1602179055508173ffffffffffffffffffffffffffffffffffffffff168373ffffffffffffffffffffffffffffffffffffffff167f9dcef3aa57f22970dfc6ff519e5421e041cc4153300a7dabe19bffe85e25568860405160405180910390a3505050565b60008083600073ffffffffffffffffffffffffffffffffffffffff16600660008373ffffffffffffffffffffffffffffffffffffffff1673ffffffffffffffffffffffffffffffffffffffff16815260200190815260200160002060010160009054906101000a900473ffffffffffffffffffffffffffffffffffffffff1673ffffffffffffffffffffffffffffffffffffffff1603611308576040517f2d350e9f00000000000000000000000000000000000000000000000000000000815260040160405180910390fd5b60008403611342576040517fc01ae10500000000000000000000000000000000000000000000000000000000815260040160405180910390fd5b6000600660008773ffffffffffffffffffffffffffffffffffffffff1673ffffffffffffffffffffffffffffffffffffffff1681526020019081526020016000206040518060e00160405290816000820160009054906101000a900473ffffffffffffffffffffffffffffffffffffffff1673ffffffffffffffffffffffffffffffffffffffff1673ffffffffffffffffffffffffffffffffffffffff1681526020016000820160149054906101000a900461ffff1661ffff1661ffff1681526020016000820160169054906101000a900461ffff1661ffff1661ffff1681526020016000820160189054906101000a900464ffffffffff1664ffffffffff1664ffffffffff1681526020016001820160009054906101000a900473ffffffffffffffffffffffffffffffffffffffff1673ffffffffffffffffffffffffffffffffffffffff1673ffffffffffffffffffffffffffffffffffffffff1681526020016002820154815260200160038201805480602002602001604051908101604052809291908181526020016000905b82821015611594578382906000526020600020016040518060400160405290816000820160009054906101000a90046fffffffffffffffffffffffffffffffff166fffffffffffffffffffffffffffffffff166fffffffffffffffffffffffffffffffff1681526020016000820160109054906101000a90046fffffffffffffffffffffffffffffffff166fffffffffffffffffffffffffffffffff166fffffffffffffffffffffffffffffffff1681525050815260200190600101906114d2565b5050505081525050905060008160c001519050600087905060008173ffffffffffffffffffffffffffffffffffffffff166318160ddd6040518163ffffffff1660e01b8152600401602060405180830381865afa1580156115f9573d6000803e3d6000fd5b505050506040513d601f19601f8201168201806040525081019061161d9190614b43565b90506000888261162d9190614a8f565b90506116388a611b81565b6fffffffffffffffffffffffffffffffff16811115611683576040517f6b5b0f7c00000000000000000000000000000000000000000000000000000000815260040160405180910390fd5b60008373ffffffffffffffffffffffffffffffffffffffff1663313ce5676040518163ffffffff1660e01b8152600401602060405180830381865afa1580156116d0573d6000803e3d6000fd5b505050506040513d601f19601f820116820180604052508101906116f49190614ba9565b600a6117009190614d09565b905060008a9050600080806117158f88613bdd565b90505b885181101561182857600089828151811061173657611735614905565b5b602002602001015190508781600001516fffffffffffffffffffffffffffffffff166117629190614ac3565b9250848310156117d3576000830361177a5750611817565b6117a581602001516fffffffffffffffffffffffffffffffff168461179f9190614d54565b87613cdf565b846117b09190614a8f565b935082886117be9190614a8f565b975082856117cc9190614ac3565b9450611815565b6117fe81602001516fffffffffffffffffffffffffffffffff16866117f89190614d54565b87613cdf565b846118099190614a8f565b93506000945050611828565b505b8061182190614d96565b9050611718565b5060008214806118385750600083115b1561186f576040517fc01ae10500000000000000000000000000000000000000000000000000000000815260040160405180910390fd5b61187d828a60200151613d38565b9a508a8261188b9190614a8f565b9b50505050505050505050509250929050565b60035481565b6000808273ffffffffffffffffffffffffffffffffffffffff166318160ddd6040518163ffffffff1660e01b8152600401602060405180830381865afa1580156118f2573d6000803e3d6000fd5b505050506040513d601f19601f820116820180604052508101906119169190614b43565b905061192183611b81565b6fffffffffffffffffffffffffffffffff16811015611947578061194490614d96565b90505b60006119538483613bdd565b9050600660008573ffffffffffffffffffffffffffffffffffffffff1673ffffffffffffffffffffffffffffffffffffffff16815260200190815260200160002060030181815481106119a9576119a8614905565b5b9060005260206000200160000160109054906101000a90046fffffffffffffffffffffffffffffffff1692505050919050565b60008060009054906101000a900473ffffffffffffffffffffffffffffffffffffffff16905090565b600160009054906101000a900473ffffffffffffffffffffffffffffffffffffffff1681565b6060600660008373ffffffffffffffffffffffffffffffffffffffff1673ffffffffffffffffffffffffffffffffffffffff168152602001908152602001600020600301805480602002602001604051908101604052809291908181526020016000905b82821015611b51578382906000526020600020016040518060400160405290816000820160009054906101000a90046fffffffffffffffffffffffffffffffff166fffffffffffffffffffffffffffffffff166fffffffffffffffffffffffffffffffff1681526020016000820160109054906101000a90046fffffffffffffffffffffffffffffffff166fffffffffffffffffffffffffffffffff166fffffffffffffffffffffffffffffffff168152505081526020019060010190611a8f565b505050509050919050565b6004602052816000526040600020602052806000526040600020600091509150505481565b6000600660008373ffffffffffffffffffffffffffffffffffffffff1673ffffffffffffffffffffffffffffffffffffffff1681526020019081526020016000206003016001600660008573ffffffffffffffffffffffffffffffffffffffff1673ffffffffffffffffffffffffffffffffffffffff16815260200190815260200160002060030180549050611c179190614ac3565b81548110611c2857611c27614905565b5b9060005260206000200160000160009054906101000a90046fffffffffffffffffffffffffffffffff169050919050565b6000600780549050905090565b600080600460008573ffffffffffffffffffffffffffffffffffffffff1673ffffffffffffffffffffffffffffffffffffffff16815260200190815260200160002060008473ffffffffffffffffffffffffffffffffffffffff1673ffffffffffffffffffffffffffffffffffffffff16815260200190815260200160002054600560008673ffffffffffffffffffffffffffffffffffffffff1673ffffffffffffffffffffffffffffffffffffffff16815260200190815260200160002060008573ffffffffffffffffffffffffffffffffffffffff1673ffffffffffffffffffffffffffffffffffffffff16815260200190815260200160002054915091509250929050565b6000611d7861391a565b90506000600460008373ffffffffffffffffffffffffffffffffffffffff1673ffffffffffffffffffffffffffffffffffffffff16815260200190815260200160002060008473ffffffffffffffffffffffffffffffffffffffff1673ffffffffffffffffffffffffffffffffffffffff16815260200190815260200160002054905060008103611e35576040517fbfa4e44600000000000000000000000000000000000000000000000000000000815260040160405180910390fd5b6000600460008473ffffffffffffffffffffffffffffffffffffffff1673ffffffffffffffffffffffffffffffffffffffff16815260200190815260200160002060008573ffffffffffffffffffffffffffffffffffffffff1673ffffffffffffffffffffffffffffffffffffffff1681526020019081526020016000208190555080600560008473ffffffffffffffffffffffffffffffffffffffff1673ffffffffffffffffffffffffffffffffffffffff16815260200190815260200160002060008573ffffffffffffffffffffffffffffffffffffffff1673ffffffffffffffffffffffffffffffffffffffff1681526020019081526020016000206000828254611f439190614a8f565b92505081905550611f7582828573ffffffffffffffffffffffffffffffffffffffff16613a9a9092919063ffffffff16565b8173ffffffffffffffffffffffffffffffffffffffff167fd1b893da855ca6a7c9cfbaff142da78c734a39d4811ad711fe7acfd6e5e433a48483604051611fbd929190614a37565b60405180910390a2505050565b60008083600073ffffffffffffffffffffffffffffffffffffffff16600660008373ffffffffffffffffffffffffffffffffffffffff1673ffffffffffffffffffffffffffffffffffffffff16815260200190815260200160002060010160009054906101000a900473ffffffffffffffffffffffffffffffffffffffff1673ffffffffffffffffffffffffffffffffffffffff1603612096576040517f2d350e9f00000000000000000000000000000000000000000000000000000000815260040160405180910390fd5b600084036120d0576040517fc01ae10500000000000000000000000000000000000000000000000000000000815260040160405180910390fd5b6000600660008773ffffffffffffffffffffffffffffffffffffffff1673ffffffffffffffffffffffffffffffffffffffff1681526020019081526020016000206040518060e00160405290816000820160009054906101000a900473ffffffffffffffffffffffffffffffffffffffff1673ffffffffffffffffffffffffffffffffffffffff1673ffffffffffffffffffffffffffffffffffffffff1681526020016000820160149054906101000a900461ffff1661ffff1661ffff1681526020016000820160169054906101000a900461ffff1661ffff1661ffff1681526020016000820160189054906101000a900464ffffffffff1664ffffffffff1664ffffffffff1681526020016001820160009054906101000a900473ffffffffffffffffffffffffffffffffffffffff1673ffffffffffffffffffffffffffffffffffffffff1673ffffffffffffffffffffffffffffffffffffffff1681526020016002820154815260200160038201805480602002602001604051908101604052809291908181526020016000905b82821015612322578382906000526020600020016040518060400160405290816000820160009054906101000a90046fffffffffffffffffffffffffffffffff166fffffffffffffffffffffffffffffffff166fffffffffffffffffffffffffffffffff1681526020016000820160109054906101000a90046fffffffffffffffffffffffffffffffff166fffffffffffffffffffffffffffffffff166fffffffffffffffffffffffffffffffff168152505081526020019060010190612260565b5050505081525050905060008160c001519050600087905060008173ffffffffffffffffffffffffffffffffffffffff166318160ddd6040518163ffffffff1660e01b8152600401602060405180830381865afa158015612387573d6000803e3d6000fd5b505050506040513d601f19601f820116820180604052508101906123ab9190614b43565b9050808811156123e7576040517f4fffb8fa00000000000000000000000000000000000000000000000000000000815260040160405180910390fd5b60008273ffffffffffffffffffffffffffffffffffffffff1663313ce5676040518163ffffffff1660e01b8152600401602060405180830381865afa158015612434573d6000803e3d6000fd5b505050506040513d601f19601f820116820180604052508101906124589190614ba9565b600a6124649190614d09565b90506000808a905060006124788d86613bdd565b90505b600082111561257e5760008082146124da578760018361249b9190614ac3565b815181106124ac576124ab614905565b5b6020026020010151600001516fffffffffffffffffffffffffffffffff16866124d59190614ac3565b6124dc565b855b905060008184106124ed57816124ef565b835b90508589848151811061250557612504614905565b5b6020026020010151602001516fffffffffffffffffffffffffffffffff168261252e9190614d54565b6125389190614e0d565b856125439190614a8f565b945080846125519190614ac3565b9350808761255f9190614ac3565b96506000831115612577578261257490614e3e565b92505b505061247b565b60008211156125b9576040517fc01ae10500000000000000000000000000000000000000000000000000000000815260040160405180910390fd5b6125c7838960400151613d38565b995089836125d59190614ac3565b9a505050505050505050509250929050565b60006004600061dead73ffffffffffffffffffffffffffffffffffffffff1673ffffffffffffffffffffffffffffffffffffffff16815260200190815260200160002060008373ffffffffffffffffffffffffffffffffffffffff1673ffffffffffffffffffffffffffffffffffffffff168152602001908152602001600020549050600081036126a4576040517fbfa4e44600000000000000000000000000000000000000000000000000000000815260040160405180910390fd5b60006004600061dead73ffffffffffffffffffffffffffffffffffffffff1673ffffffffffffffffffffffffffffffffffffffff16815260200190815260200160002060008473ffffffffffffffffffffffffffffffffffffffff1673ffffffffffffffffffffffffffffffffffffffff16815260200190815260200160002081905550806005600061dead73ffffffffffffffffffffffffffffffffffffffff1673ffffffffffffffffffffffffffffffffffffffff16815260200190815260200160002060008473ffffffffffffffffffffffffffffffffffffffff1673ffffffffffffffffffffffffffffffffffffffff16815260200190815260200160002060008282546127b69190614a8f565b925050819055506127ea61dead828473ffffffffffffffffffffffffffffffffffffffff16613a9a9092919063ffffffff16565b61dead73ffffffffffffffffffffffffffffffffffffffff167fd1b893da855ca6a7c9cfbaff142da78c734a39d4811ad711fe7acfd6e5e433a48383604051612834929190614a37565b60405180910390a25050565b60066020528060005260406000206000915090508060000160009054906101000a900473ffffffffffffffffffffffffffffffffffffffff16908060000160149054906101000a900461ffff16908060000160169054906101000a900461ffff16908060000160189054906101000a900464ffffffffff16908060010160009054906101000a900473ffffffffffffffffffffffffffffffffffffffff16908060020154905086565b60025481565b6128f7612d07565b600073ffffffffffffffffffffffffffffffffffffffff168173ffffffffffffffffffffffffffffffffffffffff16036129695760006040517f1e4fbdf700000000000000000000000000000000000000000000000000000000815260040161296091906143b6565b60405180910390fd5b61297281613b19565b50565b60008073ffffffffffffffffffffffffffffffffffffffff16600660008473ffffffffffffffffffffffffffffffffffffffff1673ffffffffffffffffffffffffffffffffffffffff16815260200190815260200160002060010160009054906101000a900473ffffffffffffffffffffffffffffffffffffffff1673ffffffffffffffffffffffffffffffffffffffff1614159050919050565b60008073ffffffffffffffffffffffffffffffffffffffff168273ffffffffffffffffffffffffffffffffffffffff1603612a77576040517fd9b08f7600000000000000000000000000000000000000000000000000000000815260040160405180910390fd5b600080612a84878761123c565b9150915084821115612ac2576040517f07728bb000000000000000000000000000000000000000000000000000000000815260040160405180910390fd5b6000600660008973ffffffffffffffffffffffffffffffffffffffff1673ffffffffffffffffffffffffffffffffffffffff16815260200190815260200160002090506000612b0f61391a565b905060008260010160009054906101000a900473ffffffffffffffffffffffffffffffffffffffff1690508385612b469190614ac3565b836002016000828254612b599190614a8f565b92505081905550612bb38360000160009054906101000a900473ffffffffffffffffffffffffffffffffffffffff168460010160009054906101000a900473ffffffffffffffffffffffffffffffffffffffff1686613922565b8973ffffffffffffffffffffffffffffffffffffffff16631b5ad8b5888b6040518363ffffffff1660e01b8152600401612bee929190614a37565b600060405180830381600087803b158015612c0857600080fd5b505af1158015612c1c573d6000803e3d6000fd5b50505050612c4d8230878473ffffffffffffffffffffffffffffffffffffffff16613d5f909392919063ffffffff16565b8260010160009054906101000a900473ffffffffffffffffffffffffffffffffffffffff1673ffffffffffffffffffffffffffffffffffffffff168273ffffffffffffffffffffffffffffffffffffffff168b73ffffffffffffffffffffffffffffffffffffffff167f02ed9b10d8b33a6a9fda664247bfd8f6248f74cff85cc84e56b7530c2fce560a8a8d8a604051612ce993929190614af7565b60405180910390a48495505050505050949350505050565b61dead81565b612d0f61391a565b73ffffffffffffffffffffffffffffffffffffffff16612d2d6119dc565b73ffffffffffffffffffffffffffffffffffffffff1614612d8c57612d5061391a565b6040517f118cdaa7000000000000000000000000000000000000000000000000000000008152600401612d8391906143b6565b60405180910390fd5b565b6000818060000190612da091906147a6565b905003612de2576040517f49d33588000000000000000000000000000000000000000000000000000000008152600401612dd990614eb3565b60405180910390fd5b6000818060200190612df491906147a6565b905003612e36576040517f49d33588000000000000000000000000000000000000000000000000000000008152600401612e2d90614f1f565b60405180910390fd5b50565b600354816000016020810190612e4f9190614f6b565b61ffff161115612e94576040517f49d33588000000000000000000000000000000000000000000000000000000008152600401612e8b90614fe4565b60405180910390fd5b600354816020016020810190612eaa9190614f6b565b61ffff161115612eef576040517f49d33588000000000000000000000000000000000000000000000000000000008152600401612ee690615050565b60405180910390fd5b6000816040016020810190612f0491906142bf565b9050600073ffffffffffffffffffffffffffffffffffffffff168173ffffffffffffffffffffffffffffffffffffffff1603612f75576040517f49d33588000000000000000000000000000000000000000000000000000000008152600401612f6c906150bc565b60405180910390fd5b612fb6816040518060400160405280600a81526020017f646563696d616c73282900000000000000000000000000000000000000000000815250601f613de1565b612ff5576040517f59f58224000000000000000000000000000000000000000000000000000000008152600401612fec90615128565b60405180910390fd5b613036816040518060400160405280600681526020017f6e616d6528290000000000000000000000000000000000000000000000000000815250605f613de1565b613075576040517f59f5822400000000000000000000000000000000000000000000000000000000815260040161306c90614eb3565b60405180910390fd5b6130b6816040518060400160405280600881526020017f73796d626f6c2829000000000000000000000000000000000000000000000000815250605f613de1565b6130f5576040517f59f582240000000000000000000000000000000000000000000000000000000081526004016130ec90614f1f565b60405180910390fd5b600082606001602081019061310a9190614960565b6fffffffffffffffffffffffffffffffff160361315c576040517f49d3358800000000000000000000000000000000000000000000000000000000815260040161315390615194565b60405180910390fd5b600082806080019061316e91906148a2565b905014806131ac57507f00000000000000000000000000000000000000000000000000000000000000008280608001906131a891906148a2565b9050115b156131ec576040517f1afd40d60000000000000000000000000000000000000000000000000000000081526004016131e390615200565b60405180910390fd5b818060a001906131fc91906148a2565b905082806080019061320e91906148a2565b905014613250576040517f1afd40d60000000000000000000000000000000000000000000000000000000081526004016132479061526c565b60405180910390fd5b8160600160208101906132639190614960565b6fffffffffffffffffffffffffffffffff1682806080019061328591906148a2565b600185806080019061329791906148a2565b90506132a39190614ac3565b8181106132b3576132b2614905565b5b90506020020160208101906132c89190614960565b6fffffffffffffffffffffffffffffffff161461331a576040517f1afd40d6000000000000000000000000000000000000000000000000000000008152600401613311906152d8565b60405180910390fd5b5050565b60008030848460405160200161333693929190615370565b604051602081830303815290604052805190602001209050600061335a8683613ee0565b905061336581612975565b1561339c576040517f358b663800000000000000000000000000000000000000000000000000000000815260040160405180910390fd5b6133a68683613ef5565b925050509392505050565b6000600660008473ffffffffffffffffffffffffffffffffffffffff1673ffffffffffffffffffffffffffffffffffffffff16815260200190815260200160002090506133fc61391a565b8160000160006101000a81548173ffffffffffffffffffffffffffffffffffffffff021916908373ffffffffffffffffffffffffffffffffffffffff1602179055508160000160208101906134519190614f6b565b8160000160146101000a81548161ffff021916908361ffff1602179055508160200160208101906134829190614f6b565b8160000160166101000a81548161ffff021916908361ffff160217905550428160000160186101000a81548164ffffffffff021916908364ffffffffff1602179055508160400160208101906134d891906142bf565b8160010160006101000a81548173ffffffffffffffffffffffffffffffffffffffff021916908373ffffffffffffffffffffffffffffffffffffffff16021790555060008373ffffffffffffffffffffffffffffffffffffffff1663313ce5676040518163ffffffff1660e01b8152600401602060405180830381865afa158015613567573d6000803e3d6000fd5b505050506040513d601f19601f8201168201806040525081019061358b9190614ba9565b600a6135979190614d09565b905060005b8380608001906135ac91906148a2565b90508110156139135760008480608001906135c791906148a2565b838181106135d8576135d7614905565b5b90506020020160208101906135ed9190614960565b6fffffffffffffffffffffffffffffffff1690506000858060a0019061361391906148a2565b8481811061362457613623614905565b5b90506020020160208101906136399190614960565b6fffffffffffffffffffffffffffffffff16905060008203613690576040517f1afd40d6000000000000000000000000000000000000000000000000000000008152600401613687906153e6565b60405180910390fd5b6000811180156136aa57508381836136a89190614d54565b105b156136ea576040517f1afd40d60000000000000000000000000000000000000000000000000000000081526004016136e190615452565b60405180910390fd5b600083111561381e5785806080019061370391906148a2565b6001856137109190614ac3565b8181106137205761371f614905565b5b90506020020160208101906137359190614960565b6fffffffffffffffffffffffffffffffff168211613788576040517f1afd40d600000000000000000000000000000000000000000000000000000000815260040161377f906154be565b60405180910390fd5b858060a0019061379891906148a2565b6001856137a59190614ac3565b8181106137b5576137b4614905565b5b90506020020160208101906137ca9190614960565b6fffffffffffffffffffffffffffffffff16811161381d576040517f1afd40d60000000000000000000000000000000000000000000000000000000081526004016138149061552a565b60405180910390fd5b5b846003016040518060400160405280846fffffffffffffffffffffffffffffffff168152602001836fffffffffffffffffffffffffffffffff168152509080600181540180825580915050600190039060005260206000200160009091909190915060008201518160000160006101000a8154816fffffffffffffffffffffffffffffffff02191690836fffffffffffffffffffffffffffffffff16021790555060208201518160000160106101000a8154816fffffffffffffffffffffffffffffffff02191690836fffffffffffffffffffffffffffffffff160217905550505050508061390c90614d96565b905061359c565b5050505050565b600033905090565b60006127106107d0836139359190614d54565b61393f9190614e0d565b9050808261394d9190614ac3565b600460008673ffffffffffffffffffffffffffffffffffffffff1673ffffffffffffffffffffffffffffffffffffffff16815260200190815260200160002060008573ffffffffffffffffffffffffffffffffffffffff1673ffffffffffffffffffffffffffffffffffffffff16815260200190815260200160002060008282546139d89190614a8f565b925050819055508060046000600160009054906101000a900473ffffffffffffffffffffffffffffffffffffffff1673ffffffffffffffffffffffffffffffffffffffff1673ffffffffffffffffffffffffffffffffffffffff16815260200190815260200160002060008573ffffffffffffffffffffffffffffffffffffffff1673ffffffffffffffffffffffffffffffffffffffff1681526020019081526020016000206000828254613a8d9190614a8f565b9250508190555050505050565b613b14838473ffffffffffffffffffffffffffffffffffffffff1663a9059cbb8585604051602401613acd929190614a37565b604051602081830303815290604052915060e01b6020820180517bffffffffffffffffffffffffffffffffffffffffffffffffffffffff8381831617835250505050613fa8565b505050565b60008060009054906101000a900473ffffffffffffffffffffffffffffffffffffffff169050816000806101000a81548173ffffffffffffffffffffffffffffffffffffffff021916908373ffffffffffffffffffffffffffffffffffffffff1602179055508173ffffffffffffffffffffffffffffffffffffffff168173ffffffffffffffffffffffffffffffffffffffff167f8be0079c531659141344cd1fd0a4f28419497f9722a3daafe3b4186f6b6457e060405160405180910390a35050565b600080600660008573ffffffffffffffffffffffffffffffffffffffff1673ffffffffffffffffffffffffffffffffffffffff168152602001908152602001600020905060005b8160030180549050811015613ca657816003018181548110613c4957613c48614905565b5b9060005260206000200160000160009054906101000a90046fffffffffffffffffffffffffffffffff166fffffffffffffffffffffffffffffffff168411613c95578092505050613cd9565b80613c9f90614d96565b9050613c24565b506040517fd1ce01ea00000000000000000000000000000000000000000000000000000000815260040160405180910390fd5b92915050565b6000808203613cfb578183613cf49190614e0d565b9050613d32565b60008314613d2c57600182600185613d139190614ac3565b613d1d9190614e0d565b613d279190614a8f565b613d2f565b60005b90505b92915050565b60006127108261ffff1684613d4d9190614d54565b613d579190614e0d565b905092915050565b613ddb848573ffffffffffffffffffffffffffffffffffffffff166323b872dd868686604051602401613d949392919061554a565b604051602081830303815290604052915060e01b6020820180517bffffffffffffffffffffffffffffffffffffffffffffffffffffffff8381831617835250505050613fa8565b50505050565b60008060008573ffffffffffffffffffffffffffffffffffffffff168560405160240160405160208183030381529060405290604051613e2191906155e7565b60405180910390207bffffffffffffffffffffffffffffffffffffffffffffffffffffffff19166020820180517bffffffffffffffffffffffffffffffffffffffffffffffffffffffff8381831617835250505050604051613e83919061563a565b600060405180830381855afa9150503d8060008114613ebe576040519150601f19603f3d011682016040523d82523d6000602084013e613ec3565b606091505b5091509150818015613ed55750838151115b925050509392505050565b6000613eed83833061403f565b905092915050565b6000763d602d80600a3d3981f3363d3d373d3d3d363d730000008360601b60e81c176000526e5af43d82803e903d91602b57fd5bf38360781b1760205281603760096000f59050600073ffffffffffffffffffffffffffffffffffffffff168173ffffffffffffffffffffffffffffffffffffffff1603613fa2576040517fc2f868f400000000000000000000000000000000000000000000000000000000815260040160405180910390fd5b92915050565b6000613fd3828473ffffffffffffffffffffffffffffffffffffffff166140a090919063ffffffff16565b90506000815114158015613ff8575080806020019051810190613ff6919061567d565b155b1561403a57826040517f5274afe700000000000000000000000000000000000000000000000000000000815260040161403191906143b6565b60405180910390fd5b505050565b60006040518260388201526f5af43d82803e903d91602b57fd5bf3ff6024820152846014820152733d602d80600a3d3981f3363d3d373d3d3d363d7381528360588201526037600c8201206078820152605560438201209150509392505050565b60606140ae838360006140b6565b905092915050565b6060814710156140fd57306040517fcd7860590000000000000000000000000000000000000000000000000000000081526004016140f491906143b6565b60405180910390fd5b6000808573ffffffffffffffffffffffffffffffffffffffff168486604051614126919061563a565b60006040518083038185875af1925050503d8060008114614163576040519150601f19603f3d011682016040523d82523d6000602084013e614168565b606091505b5091509150614178868383614183565b925050509392505050565b6060826141985761419382614212565b61420a565b600082511480156141c0575060008473ffffffffffffffffffffffffffffffffffffffff163b145b1561420257836040517f9996b3150000000000000000000000000000000000000000000000000000000081526004016141f991906143b6565b60405180910390fd5b81905061420b565b5b9392505050565b6000815111156142255780518082602001fd5b6040517f1425ea4200000000000000000000000000000000000000000000000000000000815260040160405180910390fd5b600080fd5b600080fd5b600073ffffffffffffffffffffffffffffffffffffffff82169050919050565b600061428c82614261565b9050919050565b61429c81614281565b81146142a757600080fd5b50565b6000813590506142b981614293565b92915050565b6000602082840312156142d5576142d4614257565b5b60006142e3848285016142aa565b91505092915050565b600080fd5b600060408284031215614307576143066142ec565b5b81905092915050565b600060c08284031215614326576143256142ec565b5b81905092915050565b6000806040838503121561434657614345614257565b5b600083013567ffffffffffffffff8111156143645761436361425c565b5b614370858286016142f1565b925050602083013567ffffffffffffffff8111156143915761439061425c565b5b61439d85828601614310565b9150509250929050565b6143b081614281565b82525050565b60006020820190506143cb60008301846143a7565b92915050565b6000819050919050565b6143e4816143d1565b81146143ef57600080fd5b50565b600081359050614401816143db565b92915050565b60006020828403121561441d5761441c614257565b5b600061442b848285016143f2565b91505092915050565b6000806040838503121561444b5761444a614257565b5b6000614459858286016142aa565b925050602061446a858286016142aa565b9150509250929050565b61447d816143d1565b82525050565b60006020820190506144986000830184614474565b92915050565b600080600080608085870312156144b8576144b7614257565b5b60006144c6878288016142aa565b94505060206144d7878288016143f2565b93505060406144e8878288016143f2565b92505060606144f9878288016142aa565b91505092959194509250565b6000806040838503121561451c5761451b614257565b5b600061452a858286016142aa565b925050602061453b858286016143f2565b9150509250929050565b600060408201905061455a6000830185614474565b6145676020830184614474565b9392505050565b60006fffffffffffffffffffffffffffffffff82169050919050565b6145938161456e565b82525050565b60006020820190506145ae600083018461458a565b92915050565b600081519050919050565b600082825260208201905092915050565b6000819050602082019050919050565b6145e98161456e565b82525050565b60408201600082015161460560008501826145e0565b50602082015161461860208501826145e0565b50505050565b600061462a83836145ef565b60408301905092915050565b6000602082019050919050565b600061464e826145b4565b61465881856145bf565b9350614663836145d0565b8060005b8381101561469457815161467b888261461e565b975061468683614636565b925050600181019050614667565b5085935050505092915050565b600060208201905081810360008301526146bb8184614643565b905092915050565b600061ffff82169050919050565b6146da816146c3565b82525050565b600064ffffffffff82169050919050565b6146fa816146e0565b82525050565b600060c08201905061471560008301896143a7565b61472260208301886146d1565b61472f60408301876146d1565b61473c60608301866146f1565b61474960808301856143a7565b61475660a0830184614474565b979650505050505050565b60008115159050919050565b61477681614761565b82525050565b6000602082019050614791600083018461476d565b92915050565b600080fd5b600080fd5b600080fd5b600080833560016020038436030381126147c3576147c2614797565b5b80840192508235915067ffffffffffffffff8211156147e5576147e461479c565b5b602083019250600182023603831315614801576148006147a1565b5b509250929050565b600082825260208201905092915050565b82818337600083830152505050565b6000601f19601f8301169050919050565b60006148468385614809565b935061485383858461481a565b61485c83614829565b840190509392505050565b6000604082019050818103600083015261488281868861483a565b9050818103602083015261489781848661483a565b905095945050505050565b600080833560016020038436030381126148bf576148be614797565b5b80840192508235915067ffffffffffffffff8211156148e1576148e061479c565b5b6020830192506020820236038313156148fd576148fc6147a1565b5b509250929050565b7f4e487b7100000000000000000000000000000000000000000000000000000000600052603260045260246000fd5b61493d8161456e565b811461494857600080fd5b50565b60008135905061495a81614934565b92915050565b60006020828403121561497657614975614257565b5b60006149848482850161494b565b91505092915050565b6000819050919050565b60006149b26149ad6149a88461456e565b61498d565b6143d1565b9050919050565b6149c281614997565b82525050565b60006040820190506149dd60008301856143a7565b6149ea60208301846149b9565b9392505050565b600081905092915050565b50565b6000614a0c6000836149f1565b9150614a17826149fc565b600082019050919050565b6000614a2d826149ff565b9150819050919050565b6000604082019050614a4c60008301856143a7565b614a596020830184614474565b9392505050565b7f4e487b7100000000000000000000000000000000000000000000000000000000600052601160045260246000fd5b6000614a9a826143d1565b9150614aa5836143d1565b9250828201905080821115614abd57614abc614a60565b5b92915050565b6000614ace826143d1565b9150614ad9836143d1565b9250828203905081811115614af157614af0614a60565b5b92915050565b6000606082019050614b0c60008301866143a7565b614b196020830185614474565b614b266040830184614474565b949350505050565b600081519050614b3d816143db565b92915050565b600060208284031215614b5957614b58614257565b5b6000614b6784828501614b2e565b91505092915050565b600060ff82169050919050565b614b8681614b70565b8114614b9157600080fd5b50565b600081519050614ba381614b7d565b92915050565b600060208284031215614bbf57614bbe614257565b5b6000614bcd84828501614b94565b91505092915050565b60008160011c9050919050565b6000808291508390505b6001851115614c2d57808604811115614c0957614c08614a60565b5b6001851615614c185780820291505b8081029050614c2685614bd6565b9450614bed565b94509492505050565b600082614c465760019050614d02565b81614c545760009050614d02565b8160018114614c6a5760028114614c7457614ca3565b6001915050614d02565b60ff841115614c8657614c85614a60565b5b8360020a915084821115614c9d57614c9c614a60565b5b50614d02565b5060208310610133831016604e8410600b8410161715614cd85782820a905083811115614cd357614cd2614a60565b5b614d02565b614ce58484846001614be3565b92509050818404811115614cfc57614cfb614a60565b5b81810290505b9392505050565b6000614d14826143d1565b9150614d1f83614b70565b9250614d4c7fffffffffffffffffffffffffffffffffffffffffffffffffffffffffffffffff8484614c36565b905092915050565b6000614d5f826143d1565b9150614d6a836143d1565b9250828202614d78816143d1565b91508282048414831517614d8f57614d8e614a60565b5b5092915050565b6000614da1826143d1565b91507fffffffffffffffffffffffffffffffffffffffffffffffffffffffffffffffff8203614dd357614dd2614a60565b5b600182019050919050565b7f4e487b7100000000000000000000000000000000000000000000000000000000600052601260045260246000fd5b6000614e18826143d1565b9150614e23836143d1565b925082614e3357614e32614dde565b5b828204905092915050565b6000614e49826143d1565b915060008203614e5c57614e5b614a60565b5b600182039050919050565b7f6e616d6500000000000000000000000000000000000000000000000000000000600082015250565b6000614e9d600483614809565b9150614ea882614e67565b602082019050919050565b60006020820190508181036000830152614ecc81614e90565b9050919050565b7f73796d626f6c0000000000000000000000000000000000000000000000000000600082015250565b6000614f09600683614809565b9150614f1482614ed3565b602082019050919050565b60006020820190508181036000830152614f3881614efc565b9050919050565b614f48816146c3565b8114614f5357600080fd5b50565b600081359050614f6581614f3f565b92915050565b600060208284031215614f8157614f80614257565b5b6000614f8f84828501614f56565b91505092915050565b7f6d696e74526f79616c7479000000000000000000000000000000000000000000600082015250565b6000614fce600b83614809565b9150614fd982614f98565b602082019050919050565b60006020820190508181036000830152614ffd81614fc1565b9050919050565b7f6275726e526f79616c7479000000000000000000000000000000000000000000600082015250565b600061503a600b83614809565b915061504582615004565b602082019050919050565b600060208201905081810360008301526150698161502d565b9050919050565b7f72657365727665546f6b656e0000000000000000000000000000000000000000600082015250565b60006150a6600c83614809565b91506150b182615070565b602082019050919050565b600060208201905081810360008301526150d581615099565b9050919050565b7f646563696d616c73000000000000000000000000000000000000000000000000600082015250565b6000615112600883614809565b915061511d826150dc565b602082019050919050565b6000602082019050818103600083015261514181615105565b9050919050565b7f6d6178537570706c790000000000000000000000000000000000000000000000600082015250565b600061517e600983614809565b915061518982615148565b602082019050919050565b600060208201905081810360008301526151ad81615171565b9050919050565b7f494e56414c49445f535445505f4c454e47544800000000000000000000000000600082015250565b60006151ea601383614809565b91506151f5826151b4565b602082019050919050565b60006020820190508181036000830152615219816151dd565b9050919050565b7f535445505f4c454e4754485f444f5f4e4f545f4d415443480000000000000000600082015250565b6000615256601883614809565b915061526182615220565b602082019050919050565b6000602082019050818103600083015261528581615249565b9050919050565b7f4d41585f535550504c595f4d49534d4154434800000000000000000000000000600082015250565b60006152c2601383614809565b91506152cd8261528c565b602082019050919050565b600060208201905081810360008301526152f1816152b5565b9050919050565b60008160601b9050919050565b6000615310826152f8565b9050919050565b600061532282615305565b9050919050565b61533a61533582614281565b615317565b82525050565b600081905092915050565b60006153578385615340565b935061536483858461481a565b82840190509392505050565b600061537c8286615329565b60148201915061538d82848661534b565b9150819050949350505050565b7f535445505f43414e4e4f545f42455f5a45524f00000000000000000000000000600082015250565b60006153d0601383614809565b91506153db8261539a565b602082019050919050565b600060208201905081810360008301526153ff816153c3565b9050919050565b7f535445505f52414e475f4f525f50524943455f544f4f5f534d414c4c00000000600082015250565b600061543c601c83614809565b915061544782615406565b602082019050919050565b6000602082019050818103600083015261546b8161542f565b9050919050565b7f44454352454153494e475f52414e474500000000000000000000000000000000600082015250565b60006154a8601083614809565b91506154b382615472565b602082019050919050565b600060208201905081810360008301526154d78161549b565b9050919050565b7f44454352454153494e475f505249434500000000000000000000000000000000600082015250565b6000615514601083614809565b915061551f826154de565b602082019050919050565b6000602082019050818103600083015261554381615507565b9050919050565b600060608201905061555f60008301866143a7565b61556c60208301856143a7565b6155796040830184614474565b949350505050565b600081519050919050565b60005b838110156155aa57808201518184015260208101905061558f565b60008484015250505050565b60006155c182615581565b6155cb8185615340565b93506155db81856020860161558c565b80840191505092915050565b60006155f382846155b6565b915081905092915050565b600081519050919050565b6000615614826155fe565b61561e81856149f1565b935061562e81856020860161558c565b80840191505092915050565b60006156468284615609565b915081905092915050565b61565a81614761565b811461566557600080fd5b50565b60008151905061567781615651565b92915050565b60006020828403121561569357615692614257565b5b60006156a184828501615668565b9150509291505056fea2646970667358221220ae6534f0edb36686dc5fac6f60654be8724d68be24207fbe811d8cfada0e87ef64736f6c63430008140033",
  "linkReferences": {},
  "deployedLinkReferences": {}
}