{
  "_format": "hh-sol-artifact-1",
  "contractName": "MerkleDistributorV2",
  "sourceName": "contracts/MerkleDistributorV2.sol",
  "abi": [
    {
      "inputs": [
        {
          "internalType": "address",
          "name": "protocolBeneficiary_",
          "type": "address"
        },
        {
          "internalType": "uint256",
          "name": "claimFee_",
          "type": "uint256"
        }
      ],
      "stateMutability": "nonpayable",
      "type": "constructor"
    },
    {
      "inputs": [
        {
          "internalType": "address",
          "name": "target",
          "type": "address"
        }
      ],
      "name": "AddressEmptyCode",
      "type": "error"
    },
    {
      "inputs": [
        {
          "internalType": "address",
          "name": "account",
          "type": "address"
        }
      ],
      "name": "AddressInsufficientBalance",
      "type": "error"
    },
    {
      "inputs": [],
      "name": "FailedInnerCall",
      "type": "error"
    },
    {
      "inputs": [],
      "name": "MerkleDistributorV2__AlreadyClaimed",
      "type": "error"
    },
    {
      "inputs": [],
      "name": "MerkleDistributorV2__AlreadyRefunded",
      "type": "error"
    },
    {
      "inputs": [],
      "name": "MerkleDistributorV2__ClaimFeeTransactionFailed",
      "type": "error"
    },
    {
      "inputs": [],
      "name": "MerkleDistributorV2__Finished",
      "type": "error"
    },
    {
      "inputs": [],
      "name": "MerkleDistributorV2__InvalidClaimFee",
      "type": "error"
    },
    {
      "inputs": [],
      "name": "MerkleDistributorV2__InvalidPaginationParams",
      "type": "error"
    },
    {
      "inputs": [
        {
          "internalType": "string",
          "name": "param",
          "type": "string"
        }
      ],
      "name": "MerkleDistributorV2__InvalidParams",
      "type": "error"
    },
    {
      "inputs": [],
      "name": "MerkleDistributorV2__InvalidProof",
      "type": "error"
    },
    {
      "inputs": [],
      "name": "MerkleDistributorV2__NoClaimableTokensLeft",
      "type": "error"
    },
    {
      "inputs": [],
      "name": "MerkleDistributorV2__NotStarted",
      "type": "error"
    },
    {
      "inputs": [],
      "name": "MerkleDistributorV2__NothingToRefund",
      "type": "error"
    },
    {
      "inputs": [],
      "name": "MerkleDistributorV2__PermissionDenied",
      "type": "error"
    },
    {
      "inputs": [],
      "name": "MerkleDistributorV2__Refunded",
      "type": "error"
    },
    {
      "inputs": [
        {
          "internalType": "address",
          "name": "owner",
          "type": "address"
        }
      ],
      "name": "OwnableInvalidOwner",
      "type": "error"
    },
    {
      "inputs": [
        {
          "internalType": "address",
          "name": "account",
          "type": "address"
        }
      ],
      "name": "OwnableUnauthorizedAccount",
      "type": "error"
    },
    {
      "inputs": [
        {
          "internalType": "address",
          "name": "token",
          "type": "address"
        }
      ],
      "name": "SafeERC20FailedOperation",
      "type": "error"
    },
    {
      "anonymous": false,
      "inputs": [
        {
          "indexed": false,
          "internalType": "uint256",
          "name": "amount",
          "type": "uint256"
        }
      ],
      "name": "ClaimFeeUpdated",
      "type": "event"
    },
    {
      "anonymous": false,
      "inputs": [
        {
          "indexed": true,
          "internalType": "uint256",
          "name": "distributionId",
          "type": "uint256"
        },
        {
          "indexed": false,
          "internalType": "address",
          "name": "account",
          "type": "address"
        }
      ],
      "name": "Claimed",
      "type": "event"
    },
    {
      "anonymous": false,
      "inputs": [
        {
          "indexed": true,
          "internalType": "uint256",
          "name": "distributionId",
          "type": "uint256"
        },
        {
          "indexed": true,
          "internalType": "address",
          "name": "token",
          "type": "address"
        },
        {
          "indexed": false,
          "internalType": "bool",
          "name": "isERC20",
          "type": "bool"
        },
        {
          "indexed": false,
          "internalType": "uint40",
          "name": "startTime",
          "type": "uint40"
        }
      ],
      "name": "Created",
      "type": "event"
    },
    {
      "anonymous": false,
      "inputs": [
        {
          "indexed": true,
          "internalType": "address",
          "name": "previousOwner",
          "type": "address"
        },
        {
          "indexed": true,
          "internalType": "address",
          "name": "newOwner",
          "type": "address"
        }
      ],
      "name": "OwnershipTransferred",
      "type": "event"
    },
    {
      "anonymous": false,
      "inputs": [
        {
          "indexed": false,
          "internalType": "address",
          "name": "protocolBeneficiary",
          "type": "address"
        }
      ],
      "name": "ProtocolBeneficiaryUpdated",
      "type": "event"
    },
    {
      "anonymous": false,
      "inputs": [
        {
          "indexed": true,
          "internalType": "uint256",
          "name": "distributionId",
          "type": "uint256"
        },
        {
          "indexed": false,
          "internalType": "uint256",
          "name": "amount",
          "type": "uint256"
        }
      ],
      "name": "Refunded",
      "type": "event"
    },
    {
      "inputs": [
        {
          "internalType": "uint256",
          "name": "distributionId",
          "type": "uint256"
        },
        {
          "internalType": "bytes32[]",
          "name": "merkleProof",
          "type": "bytes32[]"
        }
      ],
      "name": "claim",
      "outputs": [],
      "stateMutability": "payable",
      "type": "function"
    },
    {
      "inputs": [],
      "name": "claimFee",
      "outputs": [
        {
          "internalType": "uint256",
          "name": "",
          "type": "uint256"
        }
      ],
      "stateMutability": "view",
      "type": "function"
    },
    {
      "inputs": [
        {
          "internalType": "address",
          "name": "token",
          "type": "address"
        },
        {
          "internalType": "bool",
          "name": "isERC20",
          "type": "bool"
        },
        {
          "internalType": "uint176",
          "name": "amountPerClaim",
          "type": "uint176"
        },
        {
          "internalType": "uint40",
          "name": "walletCount",
          "type": "uint40"
        },
        {
          "internalType": "uint40",
          "name": "startTime",
          "type": "uint40"
        },
        {
          "internalType": "uint40",
          "name": "endTime",
          "type": "uint40"
        },
        {
          "internalType": "bytes32",
          "name": "merkleRoot",
          "type": "bytes32"
        },
        {
          "components": [
            {
              "internalType": "string",
              "name": "title",
              "type": "string"
            },
            {
              "internalType": "string",
              "name": "ipfsCID",
              "type": "string"
            }
          ],
          "internalType": "struct MerkleDistributorV2.MetadataParams",
          "name": "metaData",
          "type": "tuple"
        }
      ],
      "name": "createDistribution",
      "outputs": [],
      "stateMutability": "nonpayable",
      "type": "function"
    },
    {
      "inputs": [
        {
          "internalType": "uint256",
          "name": "",
          "type": "uint256"
        }
      ],
      "name": "distributions",
      "outputs": [
        {
          "internalType": "address",
          "name": "token",
          "type": "address"
        },
        {
          "internalType": "bool",
          "name": "isERC20",
          "type": "bool"
        },
        {
          "internalType": "uint40",
          "name": "walletCount",
          "type": "uint40"
        },
        {
          "internalType": "uint40",
          "name": "claimedCount",
          "type": "uint40"
        },
        {
          "internalType": "uint176",
          "name": "amountPerClaim",
          "type": "uint176"
        },
        {
          "internalType": "uint40",
          "name": "startTime",
          "type": "uint40"
        },
        {
          "internalType": "uint40",
          "name": "endTime",
          "type": "uint40"
        },
        {
          "internalType": "address",
          "name": "creator",
          "type": "address"
        },
        {
          "internalType": "uint40",
          "name": "refundedAt",
          "type": "uint40"
        },
        {
          "internalType": "bytes32",
          "name": "merkleRoot",
          "type": "bytes32"
        },
        {
          "internalType": "string",
          "name": "title",
          "type": "string"
        },
        {
          "internalType": "string",
          "name": "ipfsCID",
          "type": "string"
        }
      ],
      "stateMutability": "view",
      "type": "function"
    },
    {
      "inputs": [
        {
          "internalType": "address",
          "name": "creator",
          "type": "address"
        }
      ],
      "name": "getAllDistributionIdsByCreator",
      "outputs": [
        {
          "internalType": "uint256[]",
          "name": "",
          "type": "uint256[]"
        }
      ],
      "stateMutability": "view",
      "type": "function"
    },
    {
      "inputs": [
        {
          "internalType": "address",
          "name": "token",
          "type": "address"
        }
      ],
      "name": "getAllDistributionIdsByToken",
      "outputs": [
        {
          "internalType": "uint256[]",
          "name": "",
          "type": "uint256[]"
        }
      ],
      "stateMutability": "view",
      "type": "function"
    },
    {
      "inputs": [
        {
          "internalType": "uint256",
          "name": "distributionId",
          "type": "uint256"
        }
      ],
      "name": "getAmountClaimed",
      "outputs": [
        {
          "internalType": "uint256",
          "name": "",
          "type": "uint256"
        }
      ],
      "stateMutability": "view",
      "type": "function"
    },
    {
      "inputs": [
        {
          "internalType": "uint256",
          "name": "distributionId",
          "type": "uint256"
        }
      ],
      "name": "getAmountLeft",
      "outputs": [
        {
          "internalType": "uint256",
          "name": "",
          "type": "uint256"
        }
      ],
      "stateMutability": "view",
      "type": "function"
    },
    {
      "inputs": [
        {
          "internalType": "address",
          "name": "creator",
          "type": "address"
        },
        {
          "internalType": "uint256",
          "name": "startIndex",
          "type": "uint256"
        },
        {
          "internalType": "uint256",
          "name": "limit",
          "type": "uint256"
        }
      ],
      "name": "getDistributionsByCreator",
      "outputs": [
        {
          "internalType": "uint256[]",
          "name": "ids",
          "type": "uint256[]"
        },
        {
          "components": [
            {
              "internalType": "address",
              "name": "token",
              "type": "address"
            },
            {
              "internalType": "bool",
              "name": "isERC20",
              "type": "bool"
            },
            {
              "internalType": "uint40",
              "name": "walletCount",
              "type": "uint40"
            },
            {
              "internalType": "uint40",
              "name": "claimedCount",
              "type": "uint40"
            },
            {
              "internalType": "uint176",
              "name": "amountPerClaim",
              "type": "uint176"
            },
            {
              "internalType": "uint40",
              "name": "startTime",
              "type": "uint40"
            },
            {
              "internalType": "uint40",
              "name": "endTime",
              "type": "uint40"
            },
            {
              "internalType": "address",
              "name": "creator",
              "type": "address"
            },
            {
              "internalType": "uint40",
              "name": "refundedAt",
              "type": "uint40"
            },
            {
              "internalType": "bytes32",
              "name": "merkleRoot",
              "type": "bytes32"
            },
            {
              "internalType": "string",
              "name": "title",
              "type": "string"
            },
            {
              "internalType": "string",
              "name": "ipfsCID",
              "type": "string"
            },
            {
              "internalType": "uint256",
              "name": "id",
              "type": "uint256"
            },
            {
              "internalType": "string",
              "name": "tokenSymbol",
              "type": "string"
            },
            {
              "internalType": "uint8",
              "name": "tokenDecimals",
              "type": "uint8"
            },
            {
              "internalType": "string",
              "name": "tokenURI",
              "type": "string"
            }
          ],
          "internalType": "struct MerkleDistributorV2.DistributionOutput[]",
          "name": "data",
          "type": "tuple[]"
        }
      ],
      "stateMutability": "view",
      "type": "function"
    },
    {
      "inputs": [
        {
          "internalType": "address",
          "name": "token",
          "type": "address"
        },
        {
          "internalType": "uint256",
          "name": "startIndex",
          "type": "uint256"
        },
        {
          "internalType": "uint256",
          "name": "limit",
          "type": "uint256"
        }
      ],
      "name": "getDistributionsByToken",
      "outputs": [
        {
          "internalType": "uint256[]",
          "name": "ids",
          "type": "uint256[]"
        },
        {
          "components": [
            {
              "internalType": "address",
              "name": "token",
              "type": "address"
            },
            {
              "internalType": "bool",
              "name": "isERC20",
              "type": "bool"
            },
            {
              "internalType": "uint40",
              "name": "walletCount",
              "type": "uint40"
            },
            {
              "internalType": "uint40",
              "name": "claimedCount",
              "type": "uint40"
            },
            {
              "internalType": "uint176",
              "name": "amountPerClaim",
              "type": "uint176"
            },
            {
              "internalType": "uint40",
              "name": "startTime",
              "type": "uint40"
            },
            {
              "internalType": "uint40",
              "name": "endTime",
              "type": "uint40"
            },
            {
              "internalType": "address",
              "name": "creator",
              "type": "address"
            },
            {
              "internalType": "uint40",
              "name": "refundedAt",
              "type": "uint40"
            },
            {
              "internalType": "bytes32",
              "name": "merkleRoot",
              "type": "bytes32"
            },
            {
              "internalType": "string",
              "name": "title",
              "type": "string"
            },
            {
              "internalType": "string",
              "name": "ipfsCID",
              "type": "string"
            },
            {
              "internalType": "uint256",
              "name": "id",
              "type": "uint256"
            },
            {
              "internalType": "string",
              "name": "tokenSymbol",
              "type": "string"
            },
            {
              "internalType": "uint8",
              "name": "tokenDecimals",
              "type": "uint8"
            },
            {
              "internalType": "string",
              "name": "tokenURI",
              "type": "string"
            }
          ],
          "internalType": "struct MerkleDistributorV2.DistributionOutput[]",
          "name": "data",
          "type": "tuple[]"
        }
      ],
      "stateMutability": "view",
      "type": "function"
    },
    {
      "inputs": [],
      "name": "getDistributionsCount",
      "outputs": [
        {
          "internalType": "uint256",
          "name": "",
          "type": "uint256"
        }
      ],
      "stateMutability": "view",
      "type": "function"
    },
    {
      "inputs": [
        {
          "internalType": "address",
          "name": "creator",
          "type": "address"
        }
      ],
      "name": "getDistributionsCountByCreator",
      "outputs": [
        {
          "internalType": "uint256",
          "name": "",
          "type": "uint256"
        }
      ],
      "stateMutability": "view",
      "type": "function"
    },
    {
      "inputs": [
        {
          "internalType": "address",
          "name": "token",
          "type": "address"
        }
      ],
      "name": "getDistributionsCountByToken",
      "outputs": [
        {
          "internalType": "uint256",
          "name": "",
          "type": "uint256"
        }
      ],
      "stateMutability": "view",
      "type": "function"
    },
    {
      "inputs": [
        {
          "internalType": "uint256",
          "name": "distributionId",
          "type": "uint256"
        },
        {
          "internalType": "address",
          "name": "wallet",
          "type": "address"
        }
      ],
      "name": "isClaimed",
      "outputs": [
        {
          "internalType": "bool",
          "name": "",
          "type": "bool"
        }
      ],
      "stateMutability": "view",
      "type": "function"
    },
    {
      "inputs": [
        {
          "internalType": "uint256",
          "name": "distributionId",
          "type": "uint256"
        }
      ],
      "name": "isWhitelistOnly",
      "outputs": [
        {
          "internalType": "bool",
          "name": "",
          "type": "bool"
        }
      ],
      "stateMutability": "view",
      "type": "function"
    },
    {
      "inputs": [
        {
          "internalType": "uint256",
          "name": "distributionId",
          "type": "uint256"
        },
        {
          "internalType": "address",
          "name": "wallet",
          "type": "address"
        },
        {
          "internalType": "bytes32[]",
          "name": "merkleProof",
          "type": "bytes32[]"
        }
      ],
      "name": "isWhitelisted",
      "outputs": [
        {
          "internalType": "bool",
          "name": "",
          "type": "bool"
        }
      ],
      "stateMutability": "view",
      "type": "function"
    },
    {
      "inputs": [
        {
          "internalType": "address",
          "name": "",
          "type": "address"
        },
        {
          "internalType": "address",
          "name": "",
          "type": "address"
        },
        {
          "internalType": "uint256",
          "name": "",
          "type": "uint256"
        },
        {
          "internalType": "uint256",
          "name": "",
          "type": "uint256"
        },
        {
          "internalType": "bytes",
          "name": "",
          "type": "bytes"
        }
      ],
      "name": "onERC1155Received",
      "outputs": [
        {
          "internalType": "bytes4",
          "name": "",
          "type": "bytes4"
        }
      ],
      "stateMutability": "pure",
      "type": "function"
    },
    {
      "inputs": [],
      "name": "owner",
      "outputs": [
        {
          "internalType": "address",
          "name": "",
          "type": "address"
        }
      ],
      "stateMutability": "view",
      "type": "function"
    },
    {
      "inputs": [],
      "name": "protocolBeneficiary",
      "outputs": [
        {
          "internalType": "address",
          "name": "",
          "type": "address"
        }
      ],
      "stateMutability": "view",
      "type": "function"
    },
    {
      "inputs": [
        {
          "internalType": "uint256",
          "name": "distributionId",
          "type": "uint256"
        }
      ],
      "name": "refund",
      "outputs": [],
      "stateMutability": "nonpayable",
      "type": "function"
    },
    {
      "inputs": [],
      "name": "renounceOwnership",
      "outputs": [],
      "stateMutability": "nonpayable",
      "type": "function"
    },
    {
      "inputs": [
        {
          "internalType": "address",
          "name": "newOwner",
          "type": "address"
        }
      ],
      "name": "transferOwnership",
      "outputs": [],
      "stateMutability": "nonpayable",
      "type": "function"
    },
    {
      "inputs": [
        {
          "internalType": "uint256",
          "name": "amount",
          "type": "uint256"
        }
      ],
      "name": "updateClaimFee",
      "outputs": [],
      "stateMutability": "nonpayable",
      "type": "function"
    },
    {
      "inputs": [
        {
          "internalType": "address",
          "name": "protocolBeneficiary_",
          "type": "address"
        }
      ],
      "name": "updateProtocolBeneficiary",
      "outputs": [],
      "stateMutability": "nonpayable",
      "type": "function"
    }
  ],
  "bytecode": "0x60806040523480156200001157600080fd5b50604051620038ad380380620038ad8339810160408190526200003491620000e1565b33806200005b57604051631e4fbdf760e01b81526000600482015260240160405180910390fd5b620000668162000091565b50600480546001600160a01b0319166001600160a01b0393909316929092179091556005556200011d565b600080546001600160a01b038381166001600160a01b0319831681178455604051919092169283917f8be0079c531659141344cd1fd0a4f28419497f9722a3daafe3b4186f6b6457e09190a35050565b60008060408385031215620000f557600080fd5b82516001600160a01b03811681146200010d57600080fd5b6020939093015192949293505050565b613780806200012d6000396000f3fe60806040526004361061018b5760003560e01c80637a469b21116100d6578063cb4570151161007f578063d2ef079511610059578063d2ef0795146104da578063f23a6e61146104fa578063f2fde38b1461057057600080fd5b8063cb4570151461047a578063ce1ad9be1461049a578063cf45236e146104ba57600080fd5b806399d32fc4116100b057806399d32fc414610424578063b20b84031461043a578063b66dd5621461045a57600080fd5b80637a469b21146103965780638da5cb5b146103ab578063990e6005146103f757600080fd5b806335c32c07116101385780637108a615116101125780637108a61514610310578063715018a614610353578063723bdb681461036857600080fd5b806335c32c071461028b5780634487d3df146102b857806358c064f2146102f057600080fd5b8063278ecde111610169578063278ecde11461023657806327e381a9146102585780632f52ebb71461027857600080fd5b80630f4a210d14610190578063169a5027146101e65780631e42200014610216575b600080fd5b34801561019c57600080fd5b506101d36101ab366004612bdd565b73ffffffffffffffffffffffffffffffffffffffff1660009081526003602052604090205490565b6040519081526020015b60405180910390f35b3480156101f257600080fd5b50610206610201366004612bf8565b610590565b60405190151581526020016101dd565b34801561022257600080fd5b50610206610231366004612c5d565b6105c4565b34801561024257600080fd5b50610256610251366004612bf8565b610684565b005b34801561026457600080fd5b50610256610273366004612bdd565b610939565b610256610286366004612cb7565b610a3d565b34801561029757600080fd5b506102ab6102a6366004612bdd565b611008565b6040516101dd9190612d3e565b3480156102c457600080fd5b506102d86102d3366004612bf8565b611081565b6040516101dd9c9b9a99989796959493929190612dbf565b3480156102fc57600080fd5b506101d361030b366004612bf8565b6112b4565b34801561031c57600080fd5b506101d361032b366004612bdd565b73ffffffffffffffffffffffffffffffffffffffff1660009081526002602052604090205490565b34801561035f57600080fd5b5061025661134b565b34801561037457600080fd5b50610388610383366004612e9e565b61135f565b6040516101dd929190612ed1565b3480156103a257600080fd5b506001546101d3565b3480156103b757600080fd5b5060005473ffffffffffffffffffffffffffffffffffffffff165b60405173ffffffffffffffffffffffffffffffffffffffff90911681526020016101dd565b34801561040357600080fd5b506004546103d29073ffffffffffffffffffffffffffffffffffffffff1681565b34801561043057600080fd5b506101d360055481565b34801561044657600080fd5b50610256610455366004612bf8565b6115c1565b34801561046657600080fd5b50610388610475366004612e9e565b6115fe565b34801561048657600080fd5b506102566104953660046130bc565b611852565b3480156104a657600080fd5b506102ab6104b5366004612bdd565b611fc5565b3480156104c657600080fd5b506101d36104d5366004612bf8565b61203c565b3480156104e657600080fd5b506102066104f536600461318d565b6120df565b34801561050657600080fd5b5061053f61051536600461327d565b7ff23a6e610000000000000000000000000000000000000000000000000000000095945050505050565b6040517fffffffff0000000000000000000000000000000000000000000000000000000090911681526020016101dd565b34801561057c57600080fd5b5061025661058b366004612bdd565b612136565b60008060001b600183815481106105a9576105a9613332565b90600052602060002090600702016003015414159050919050565b600061067b8383808060200260200160405190810160405280939291908181526020018383602002808284376000920191909152505060018054909250899150811061061257610612613332565b90600052602060002090600702016003015486604051602001610660919060609190911b7fffffffffffffffffffffffffffffffffffffffff00000000000000000000000016815260140190565b6040516020818303038152906040528051906020012061219a565b95945050505050565b806001818154811061069857610698613332565b600091825260209091206007909102016002015473ffffffffffffffffffffffffffffffffffffffff1633146106fa576040517f53af061300000000000000000000000000000000000000000000000000000000815260040160405180910390fd5b60006001838154811061070f5761070f613332565b60009182526020909120600790910201600281015490915074010000000000000000000000000000000000000000900464ffffffffff161561077d576040517f1b94400200000000000000000000000000000000000000000000000000000000815260040160405180910390fd5b60006107888461203c565b9050806000036107c4576040517f5463471e00000000000000000000000000000000000000000000000000000000815260040160405180910390fd5b6002820180547fffffffffffffff0000000000ffffffffffffffffffffffffffffffffffffffff16740100000000000000000000000000000000000000004264ffffffffff1681029190911790915582540460ff161561084e57600282015482546108499173ffffffffffffffffffffffffffffffffffffffff9182169116836121b2565b6108f9565b815460028301546040517ff242432a00000000000000000000000000000000000000000000000000000000815230600482015273ffffffffffffffffffffffffffffffffffffffff91821660248201526000604482018190526064820185905260a0608483015260a482015291169063f242432a9060c401600060405180830381600087803b1580156108e057600080fd5b505af11580156108f4573d6000803e3d6000fd5b505050505b837fb7c1f9298a18c36af08bd57eabbfbeb04695f24d0438f67614741ec15fb5c4a98260405161092b91815260200190565b60405180910390a250505050565b610941612238565b73ffffffffffffffffffffffffffffffffffffffff81166109c3576040517fbbd80c8b00000000000000000000000000000000000000000000000000000000815260206004820152600c60248201527f4e554c4c5f41444452455353000000000000000000000000000000000000000060448201526064015b60405180910390fd5b600480547fffffffffffffffffffffffff00000000000000000000000000000000000000001673ffffffffffffffffffffffffffffffffffffffff83169081179091556040519081527fcf7686c0c53a1ab216c4cd81c1bc037136c791a61f30af4a78827c3915766044906020015b60405180910390a150565b600060018481548110610a5257610a52613332565b90600052602060002090600702019050428160010160169054906101000a900464ffffffffff1664ffffffffff161115610ab8576040517f69f05f5000000000000000000000000000000000000000000000000000000000815260040160405180910390fd5b6001810154427b0100000000000000000000000000000000000000000000000000000090910464ffffffffff161015610b1d576040517f37efb8c000000000000000000000000000000000000000000000000000000000815260040160405180910390fd5b600281015474010000000000000000000000000000000000000000900464ffffffffff1615610b78576040517f7f37c38800000000000000000000000000000000000000000000000000000000815260040160405180910390fd5b33600090815260068201602052604090205460ff1615610bc4576040517f9813312b00000000000000000000000000000000000000000000000000000000815260040160405180910390fd5b805464ffffffffff7501000000000000000000000000000000000000000000820481167a0100000000000000000000000000000000000000000000000000009092041610610c3e576040517f15b9c0b400000000000000000000000000000000000000000000000000000000815260040160405180910390fd5b6003810154610c87576005543414610c82576040517f850ffac600000000000000000000000000000000000000000000000000000000815260040160405180910390fd5b610d66565b3415610cbf576040517f850ffac600000000000000000000000000000000000000000000000000000000815260040160405180910390fd5b610d3083838080602002602001604051908101604052809392919081815260200183836020028082843760009201919091525050505060038301546040517fffffffffffffffffffffffffffffffffffffffff0000000000000000000000003360601b166020820152603401610660565b610d66576040517f29f6b86200000000000000000000000000000000000000000000000000000000815260040160405180910390fd5b336000908152600682016020526040902080547fffffffffffffffffffffffffffffffffffffffffffffffffffffffffffffff0016600190811790915581548290601a90610ddb90849064ffffffffff7a01000000000000000000000000000000000000000000000000000090910416613390565b92506101000a81548164ffffffffff021916908364ffffffffff1602179055508060000160149054906101000a900460ff1615610e5a5760018101548154610e559173ffffffffffffffffffffffffffffffffffffffff90911690339075ffffffffffffffffffffffffffffffffffffffffffff166121b2565b610f1f565b805460018201546040517ff242432a00000000000000000000000000000000000000000000000000000000815230600482015233602482015260006044820181905275ffffffffffffffffffffffffffffffffffffffffffff909216606482015260a0608482015260a481019190915273ffffffffffffffffffffffffffffffffffffffff9091169063f242432a9060c401600060405180830381600087803b158015610f0657600080fd5b505af1158015610f1a573d6000803e3d6000fd5b505050505b6003810154158015610f3357506000600554115b15610fd65760045460055460405160009273ffffffffffffffffffffffffffffffffffffffff1691908381818185875af1925050503d8060008114610f94576040519150601f19603f3d011682016040523d82523d6000602084013e610f99565b606091505b5050905080610fd4576040517f07b691a700000000000000000000000000000000000000000000000000000000815260040160405180910390fd5b505b60405133815284907f6aa3eac93d079e5e100b1029be716caa33586c96aa4baac390669fb5c2a212129060200161092b565b73ffffffffffffffffffffffffffffffffffffffff811660009081526003602090815260409182902080548351818402810184019094528084526060939283018282801561107557602002820191906000526020600020905b815481526020019060010190808311611061575b50505050509050919050565b6001818154811061109157600080fd5b60009182526020909120600790910201805460018201546002830154600384015460048501805473ffffffffffffffffffffffffffffffffffffffff80871698507401000000000000000000000000000000000000000080880460ff16987501000000000000000000000000000000000000000000890464ffffffffff908116997a010000000000000000000000000000000000000000000000000000900481169875ffffffffffffffffffffffffffffffffffffffffffff81169876010000000000000000000000000000000000000000000082048316987b01000000000000000000000000000000000000000000000000000000909204831697958116969490049091169390926111a3906133b5565b80601f01602080910402602001604051908101604052809291908181526020018280546111cf906133b5565b801561121c5780601f106111f15761010080835404028352916020019161121c565b820191906000526020600020905b8154815290600101906020018083116111ff57829003601f168201915b505050505090806005018054611231906133b5565b80601f016020809104026020016040519081016040528092919081815260200182805461125d906133b5565b80156112aa5780601f1061127f576101008083540402835291602001916112aa565b820191906000526020600020905b81548152906001019060200180831161128d57829003601f168201915b505050505090508c565b600080600183815481106112ca576112ca613332565b600091825260209091206007909102018054600182015491925061132c917a01000000000000000000000000000000000000000000000000000090910464ffffffffff169075ffffffffffffffffffffffffffffffffffffffffffff16613408565b75ffffffffffffffffffffffffffffffffffffffffffff169392505050565b611353612238565b61135d600061228b565b565b606080606483111561139d576040517fa176d4b600000000000000000000000000000000000000000000000000000000815260040160405180910390fd5b73ffffffffffffffffffffffffffffffffffffffff85166000908152600360205260409020548085106113d057506115b9565b848401818111156113de5750805b8581038067ffffffffffffffff8111156113fa576113fa6131b9565b604051908082528060200260200182016040528015611423578160200160208202803683370190505b5094508067ffffffffffffffff81111561143f5761143f6131b9565b60405190808252806020026020018201604052801561150e57816020015b60408051610200810182526000808252602080830182905292820181905260608083018290526080830182905260a0830182905260c0830182905260e08301829052610100830182905261012083018290526101408301819052610160830181905261018083018290526101a083018190526101c08301919091526101e082015282527fffffffffffffffffffffffffffffffffffffffffffffffffffffffffffffffff90920191018161145d5790505b5093506000875b838110156115b35773ffffffffffffffffffffffffffffffffffffffff8a16600090815260036020526040812080548390811061155457611554613332565b906000526020600020015490508088848151811061157457611574613332565b60200260200101818152505061158981612300565b87848151811061159b5761159b613332565b60209081029190910101525060019182019101611515565b50505050505b935093915050565b6115c9612238565b60058190556040518181527f64374f1a975abb9bc8e8857d704b9ead41989ff599d90c1e8f7d34bc2ebea92a90602001610a32565b606080606483111561163c576040517fa176d4b600000000000000000000000000000000000000000000000000000000815260040160405180910390fd5b73ffffffffffffffffffffffffffffffffffffffff851660009081526002602052604090205480851061166f57506115b9565b8484018181111561167d5750805b8581038067ffffffffffffffff811115611699576116996131b9565b6040519080825280602002602001820160405280156116c2578160200160208202803683370190505b5094508067ffffffffffffffff8111156116de576116de6131b9565b6040519080825280602002602001820160405280156117ad57816020015b60408051610200810182526000808252602080830182905292820181905260608083018290526080830182905260a0830182905260c0830182905260e08301829052610100830182905261012083018290526101408301819052610160830181905261018083018290526101a083018190526101c08301919091526101e082015282527fffffffffffffffffffffffffffffffffffffffffffffffffffffffffffffffff9092019101816116fc5790505b5093506000875b838110156115b35773ffffffffffffffffffffffffffffffffffffffff8a1660009081526002602052604081208054839081106117f3576117f3613332565b906000526020600020015490508088848151811061181357611813613332565b60200260200101818152505061182881612300565b87848151811061183a5761183a613332565b602090810291909101015250600191820191016117b4565b73ffffffffffffffffffffffffffffffffffffffff88166118cf576040517fbbd80c8b00000000000000000000000000000000000000000000000000000000815260206004820152600560248201527f746f6b656e00000000000000000000000000000000000000000000000000000060448201526064016109ba565b8575ffffffffffffffffffffffffffffffffffffffffffff16600003611951576040517fbbd80c8b00000000000000000000000000000000000000000000000000000000815260206004820152600e60248201527f616d6f756e74506572436c61696d00000000000000000000000000000000000060448201526064016109ba565b8464ffffffffff166000036119c2576040517fbbd80c8b00000000000000000000000000000000000000000000000000000000815260206004820152600b60248201527f77616c6c6574436f756e7400000000000000000000000000000000000000000060448201526064016109ba565b428364ffffffffff1611611a32576040517fbbd80c8b00000000000000000000000000000000000000000000000000000000815260206004820152600760248201527f656e6454696d650000000000000000000000000000000000000000000000000060448201526064016109ba565b8264ffffffffff168464ffffffffff1610611aa9576040517fbbd80c8b00000000000000000000000000000000000000000000000000000000815260206004820152600960248201527f737461727454696d65000000000000000000000000000000000000000000000060448201526064016109ba565b611aea886040518060400160405280600a81526020017f646563696d616c73282900000000000000000000000000000000000000000000815250601f61280d565b611b50576040517fbbd80c8b00000000000000000000000000000000000000000000000000000000815260206004820152600860248201527f646563696d616c7300000000000000000000000000000000000000000000000060448201526064016109ba565b611b91886040518060400160405280600881526020017f73796d626f6c2829000000000000000000000000000000000000000000000000815250605f61280d565b611bf7576040517fbbd80c8b00000000000000000000000000000000000000000000000000000000815260206004820152600660248201527f73796d626f6c000000000000000000000000000000000000000000000000000060448201526064016109ba565b600180548101808255600082815291611c0f91613449565b9050600060018281548110611c2657611c26613332565b90600052602060002090600702019050898160000160006101000a81548173ffffffffffffffffffffffffffffffffffffffff021916908373ffffffffffffffffffffffffffffffffffffffff160217905550888160000160146101000a81548160ff021916908315150217905550868160000160156101000a81548164ffffffffff021916908364ffffffffff160217905550878160010160006101000a81548175ffffffffffffffffffffffffffffffffffffffffffff021916908375ffffffffffffffffffffffffffffffffffffffffffff160217905550858160010160166101000a81548164ffffffffff021916908364ffffffffff1602179055508481600101601b6101000a81548164ffffffffff021916908364ffffffffff160217905550338160020160006101000a81548173ffffffffffffffffffffffffffffffffffffffff021916908373ffffffffffffffffffffffffffffffffffffffff160217905550838160030181905550828060000190611da7919061345c565b6004830191611db791908361350f565b50611dc5602084018461345c565b6005830191611dd591908361350f565b508815611e2e57611e293330611df264ffffffffff8b168c613408565b73ffffffffffffffffffffffffffffffffffffffff8e1692919075ffffffffffffffffffffffffffffffffffffffffffff16612908565b611f17565b73ffffffffffffffffffffffffffffffffffffffff8a1663f242432a33306000611e5f64ffffffffff8d168e613408565b6040517fffffffff0000000000000000000000000000000000000000000000000000000060e087901b16815273ffffffffffffffffffffffffffffffffffffffff9485166004820152939092166024840152604483015275ffffffffffffffffffffffffffffffffffffffffffff16606482015260a06084820152600060a482015260c401600060405180830381600087803b158015611efe57600080fd5b505af1158015611f12573d6000803e3d6000fd5b505050505b73ffffffffffffffffffffffffffffffffffffffff8a166000818152600260209081526040808320805460018181018355918552838520018790553384526003835281842080549182018155845291909220018490555183907f395503978abf0bf7dd838e941dea654d5feebe88da8c0ce0a4262ed458e812ff90611fb1908d908b90911515825264ffffffffff16602082015260400190565b60405180910390a350505050505050505050565b73ffffffffffffffffffffffffffffffffffffffff811660009081526002602090815260409182902080548351818402810184019094528084526060939283018282801561107557602002820191906000526020600020908154815260200190600101908083116110615750505050509050919050565b6000806001838154811061205257612052613332565b6000918252602090912060079091020180549091506120b19064ffffffffff7a0100000000000000000000000000000000000000000000000000008204811691750100000000000000000000000000000000000000000090041661362a565b600182015461132c9164ffffffffff169075ffffffffffffffffffffffffffffffffffffffffffff16613408565b6000600183815481106120f4576120f4613332565b6000918252602080832073ffffffffffffffffffffffffffffffffffffffff861684526006600790930201919091019052604090205460ff1690505b92915050565b61213e612238565b73ffffffffffffffffffffffffffffffffffffffff811661218e576040517f1e4fbdf7000000000000000000000000000000000000000000000000000000008152600060048201526024016109ba565b6121978161228b565b50565b6000826121a78584612954565b1490505b9392505050565b60405173ffffffffffffffffffffffffffffffffffffffff83811660248301526044820183905261223391859182169063a9059cbb906064015b604051602081830303815290604052915060e01b6020820180517bffffffffffffffffffffffffffffffffffffffffffffffffffffffff83818316178352505050506129a1565b505050565b60005473ffffffffffffffffffffffffffffffffffffffff16331461135d576040517f118cdaa70000000000000000000000000000000000000000000000000000000081523360048201526024016109ba565b6000805473ffffffffffffffffffffffffffffffffffffffff8381167fffffffffffffffffffffffff0000000000000000000000000000000000000000831681178455604051919092169283917f8be0079c531659141344cd1fd0a4f28419497f9722a3daafe3b4186f6b6457e09190a35050565b604080516102008101825260008082526020820181905291810182905260608082018390526080820183905260a0820183905260c0820183905260e08201839052610100820183905261012082018390526101408201819052610160820181905261018082018390526101a082018190526101c082018390526101e0820152600180549192918490811061239657612396613332565b6000918252602091829020600791909102018054604080516102008101825273ffffffffffffffffffffffffffffffffffffffff8084168083527401000000000000000000000000000000000000000080860460ff161515978401979097527501000000000000000000000000000000000000000000850464ffffffffff908116948401949094527a01000000000000000000000000000000000000000000000000000090940483166060830152600185015475ffffffffffffffffffffffffffffffffffffffffffff811660808401527601000000000000000000000000000000000000000000008104841660a08401527b010000000000000000000000000000000000000000000000000000009004831660c0830152600285015490811660e083015294909404166101008401526003820154610120840152600482018054929450909291610140830191906124ed906133b5565b80601f0160208091040260200160405190810160405280929190818152602001828054612519906133b5565b80156125665780601f1061253b57610100808354040283529160200191612566565b820191906000526020600020905b81548152906001019060200180831161254957829003601f168201915b5050505050815260200183600501805461257f906133b5565b80601f01602080910402602001604051908101604052809291908181526020018280546125ab906133b5565b80156125f85780601f106125cd576101008083540402835291602001916125f8565b820191906000526020600020905b8154815290600101906020018083116125db57829003601f168201915b505050505081526020018581526020018273ffffffffffffffffffffffffffffffffffffffff166395d89b416040518163ffffffff1660e01b8152600401600060405180830381865afa158015612653573d6000803e3d6000fd5b505050506040513d6000823e601f3d9081017fffffffffffffffffffffffffffffffffffffffffffffffffffffffffffffffe01682016040526126999190810190613648565b81526020018273ffffffffffffffffffffffffffffffffffffffff1663313ce5676040518163ffffffff1660e01b8152600401602060405180830381865afa1580156126e9573d6000803e3d6000fd5b505050506040513d601f19601f8201168201806040525081019061270d91906136b6565b60ff90811682528454602090920191740100000000000000000000000000000000000000009004166127f25783546040517f0e89341c0000000000000000000000000000000000000000000000000000000081526000600482015273ffffffffffffffffffffffffffffffffffffffff90911690630e89341c90602401600060405180830381865afa1580156127a7573d6000803e3d6000fd5b505050506040513d6000823e601f3d9081017fffffffffffffffffffffffffffffffffffffffffffffffffffffffffffffffe01682016040526127ed9190810190613648565b612803565b604051806020016040528060008152505b9052949350505050565b604080516004815260248101918290526000918291829173ffffffffffffffffffffffffffffffffffffffff881691906128489088906136d9565b60408051918290039091206020830180517bffffffffffffffffffffffffffffffffffffffffffffffffffffffff167fffffffff00000000000000000000000000000000000000000000000000000000909216919091179052516128ac91906136d9565b600060405180830381855afa9150503d80600081146128e7576040519150601f19603f3d011682016040523d82523d6000602084013e6128ec565b606091505b50915091508180156128fe5750838151115b9695505050505050565b60405173ffffffffffffffffffffffffffffffffffffffff848116602483015283811660448301526064820183905261294e9186918216906323b872dd906084016121ec565b50505050565b600081815b8451811015612999576129858286838151811061297857612978613332565b6020026020010151612a37565b915080612991816136f5565b915050612959565b509392505050565b60006129c373ffffffffffffffffffffffffffffffffffffffff841683612a63565b905080516000141580156129e85750808060200190518101906129e6919061372d565b155b15612233576040517f5274afe700000000000000000000000000000000000000000000000000000000815273ffffffffffffffffffffffffffffffffffffffff841660048201526024016109ba565b6000818310612a535760008281526020849052604090206121ab565b5060009182526020526040902090565b60606121ab83836000846000808573ffffffffffffffffffffffffffffffffffffffff168486604051612a9691906136d9565b60006040518083038185875af1925050503d8060008114612ad3576040519150601f19603f3d011682016040523d82523d6000602084013e612ad8565b606091505b50915091506128fe868383606082612af857612af382612b72565b6121ab565b8151158015612b1c575073ffffffffffffffffffffffffffffffffffffffff84163b155b15612b6b576040517f9996b31500000000000000000000000000000000000000000000000000000000815273ffffffffffffffffffffffffffffffffffffffff851660048201526024016109ba565b50806121ab565b805115612b825780518082602001fd5b6040517f1425ea4200000000000000000000000000000000000000000000000000000000815260040160405180910390fd5b803573ffffffffffffffffffffffffffffffffffffffff81168114612bd857600080fd5b919050565b600060208284031215612bef57600080fd5b6121ab82612bb4565b600060208284031215612c0a57600080fd5b5035919050565b60008083601f840112612c2357600080fd5b50813567ffffffffffffffff811115612c3b57600080fd5b6020830191508360208260051b8501011115612c5657600080fd5b9250929050565b60008060008060608587031215612c7357600080fd5b84359350612c8360208601612bb4565b9250604085013567ffffffffffffffff811115612c9f57600080fd5b612cab87828801612c11565b95989497509550505050565b600080600060408486031215612ccc57600080fd5b83359250602084013567ffffffffffffffff811115612cea57600080fd5b612cf686828701612c11565b9497909650939450505050565b600081518084526020808501945080840160005b83811015612d3357815187529582019590820190600101612d17565b509495945050505050565b6020815260006121ab6020830184612d03565b60005b83811015612d6c578181015183820152602001612d54565b50506000910152565b60008151808452612d8d816020860160208601612d51565b601f017fffffffffffffffffffffffffffffffffffffffffffffffffffffffffffffffe0169290920160200192915050565b73ffffffffffffffffffffffffffffffffffffffff8d1681528b1515602082015264ffffffffff8b811660408301528a16606082015275ffffffffffffffffffffffffffffffffffffffffffff89166080820152600061018064ffffffffff8a1660a084015264ffffffffff891660c084015273ffffffffffffffffffffffffffffffffffffffff881660e084015264ffffffffff87166101008401528561012084015280610140840152612e7681840186612d75565b9050828103610160840152612e8b8185612d75565b9f9e505050505050505050505050505050565b600080600060608486031215612eb357600080fd5b612ebc84612bb4565b95602085013595506040909401359392505050565b60006040808352612ee481840186612d03565b6020848203818601528186518084528284019150828160051b85010183890160005b83811015613089577fffffffffffffffffffffffffffffffffffffffffffffffffffffffffffffffe08784030185528151805173ffffffffffffffffffffffffffffffffffffffff9081168552878201511515888601528982015164ffffffffff9081168b87015260608084015182169087015260808084015175ffffffffffffffffffffffffffffffffffffffffffff169087015260a08084015182169087015260c08084015182169087015260e0808401519092169186019190915261010080830151909116908501526101208082015190850152610140808201516102008287018190529190612ffb83880182612d75565b9250505061016080830151868303828801526130178382612d75565b925050506101808083015181870152506101a0808301518683038288015261303f8382612d75565b925050506101c0808301516130588288018260ff169052565b50506101e080830151925085820381870152506130758183612d75565b968801969450505090850190600101612f06565b50909a9950505050505050505050565b801515811461219757600080fd5b803564ffffffffff81168114612bd857600080fd5b600080600080600080600080610100898b0312156130d957600080fd5b6130e289612bb4565b975060208901356130f281613099565b9650604089013575ffffffffffffffffffffffffffffffffffffffffffff8116811461311d57600080fd5b955061312b60608a016130a7565b945061313960808a016130a7565b935061314760a08a016130a7565b925060c0890135915060e089013567ffffffffffffffff81111561316a57600080fd5b89016040818c03121561317c57600080fd5b809150509295985092959890939650565b600080604083850312156131a057600080fd5b823591506131b060208401612bb4565b90509250929050565b7f4e487b7100000000000000000000000000000000000000000000000000000000600052604160045260246000fd5b604051601f82017fffffffffffffffffffffffffffffffffffffffffffffffffffffffffffffffe016810167ffffffffffffffff8111828210171561322f5761322f6131b9565b604052919050565b600067ffffffffffffffff821115613251576132516131b9565b50601f017fffffffffffffffffffffffffffffffffffffffffffffffffffffffffffffffe01660200190565b600080600080600060a0868803121561329557600080fd5b61329e86612bb4565b94506132ac60208701612bb4565b93506040860135925060608601359150608086013567ffffffffffffffff8111156132d657600080fd5b8601601f810188136132e757600080fd5b80356132fa6132f582613237565b6131e8565b81815289602083850101111561330f57600080fd5b816020840160208301376000602083830101528093505050509295509295909350565b7f4e487b7100000000000000000000000000000000000000000000000000000000600052603260045260246000fd5b7f4e487b7100000000000000000000000000000000000000000000000000000000600052601160045260246000fd5b64ffffffffff8181168382160190808211156133ae576133ae613361565b5092915050565b600181811c908216806133c957607f821691505b602082108103613402577f4e487b7100000000000000000000000000000000000000000000000000000000600052602260045260246000fd5b50919050565b75ffffffffffffffffffffffffffffffffffffffffffff82811682821681810283169291811582850482141761344057613440613361565b50505092915050565b8181038181111561213057612130613361565b60008083357fffffffffffffffffffffffffffffffffffffffffffffffffffffffffffffffe184360301811261349157600080fd5b83018035915067ffffffffffffffff8211156134ac57600080fd5b602001915036819003821315612c5657600080fd5b601f82111561223357600081815260208120601f850160051c810160208610156134e85750805b601f850160051c820191505b81811015613507578281556001016134f4565b505050505050565b67ffffffffffffffff831115613527576135276131b9565b61353b8361353583546133b5565b836134c1565b6000601f84116001811461358d57600085156135575750838201355b7fffffffffffffffffffffffffffffffffffffffffffffffffffffffffffffffff600387901b1c1916600186901b178355613623565b6000838152602090207fffffffffffffffffffffffffffffffffffffffffffffffffffffffffffffffe0861690835b828110156135dc57868501358255602094850194600190920191016135bc565b5086821015613617577fffffffffffffffffffffffffffffffffffffffffffffffffffffffffffffffff60f88860031b161c19848701351681555b505060018560011b0183555b5050505050565b64ffffffffff8281168282160390808211156133ae576133ae613361565b60006020828403121561365a57600080fd5b815167ffffffffffffffff81111561367157600080fd5b8201601f8101841361368257600080fd5b80516136906132f582613237565b8181528560208385010111156136a557600080fd5b61067b826020830160208601612d51565b6000602082840312156136c857600080fd5b815160ff811681146121ab57600080fd5b600082516136eb818460208701612d51565b9190910192915050565b60007fffffffffffffffffffffffffffffffffffffffffffffffffffffffffffffffff820361372657613726613361565b5060010190565b60006020828403121561373f57600080fd5b81516121ab8161309956fea2646970667358221220fba59bca1ee72fb393d3966f2cebd81bf861f9586e80b442675d0725348784a864736f6c63430008140033",
  "linkReferences": {},
  "deployedLinkReferences": {}
}