{
  "_format": "hh-sol-artifact-1",
  "contractName": "MerkleDistributorV2",
  "sourceName": "contracts/MerkleDistributorV2.sol",
  "abi": [
    {
      "inputs": [
        {
          "internalType": "address",
          "name": "protocolBeneficiary_",
          "type": "address"
        },
        {
          "internalType": "uint256",
          "name": "claimFee_",
          "type": "uint256"
        }
      ],
      "stateMutability": "nonpayable",
      "type": "constructor"
    },
    {
      "inputs": [
        {
          "internalType": "address",
          "name": "target",
          "type": "address"
        }
      ],
      "name": "AddressEmptyCode",
      "type": "error"
    },
    {
      "inputs": [
        {
          "internalType": "address",
          "name": "account",
          "type": "address"
        }
      ],
      "name": "AddressInsufficientBalance",
      "type": "error"
    },
    {
      "inputs": [],
      "name": "FailedInnerCall",
      "type": "error"
    },
    {
      "inputs": [],
      "name": "MerkleDistributorV2__AlreadyClaimed",
      "type": "error"
    },
    {
      "inputs": [],
      "name": "MerkleDistributorV2__AlreadyRefunded",
      "type": "error"
    },
    {
      "inputs": [],
      "name": "MerkleDistributorV2__ClaimFeeTransactionFailed",
      "type": "error"
    },
    {
      "inputs": [],
      "name": "MerkleDistributorV2__Finished",
      "type": "error"
    },
    {
      "inputs": [],
      "name": "MerkleDistributorV2__InvalidClaimFee",
      "type": "error"
    },
    {
      "inputs": [],
      "name": "MerkleDistributorV2__InvalidPaginationParams",
      "type": "error"
    },
    {
      "inputs": [
        {
          "internalType": "string",
          "name": "param",
          "type": "string"
        }
      ],
      "name": "MerkleDistributorV2__InvalidParams",
      "type": "error"
    },
    {
      "inputs": [],
      "name": "MerkleDistributorV2__InvalidProof",
      "type": "error"
    },
    {
      "inputs": [],
      "name": "MerkleDistributorV2__NoClaimableTokensLeft",
      "type": "error"
    },
    {
      "inputs": [],
      "name": "MerkleDistributorV2__NotStarted",
      "type": "error"
    },
    {
      "inputs": [],
      "name": "MerkleDistributorV2__NothingToRefund",
      "type": "error"
    },
    {
      "inputs": [],
      "name": "MerkleDistributorV2__PermissionDenied",
      "type": "error"
    },
    {
      "inputs": [],
      "name": "MerkleDistributorV2__Refunded",
      "type": "error"
    },
    {
      "inputs": [
        {
          "internalType": "address",
          "name": "owner",
          "type": "address"
        }
      ],
      "name": "OwnableInvalidOwner",
      "type": "error"
    },
    {
      "inputs": [
        {
          "internalType": "address",
          "name": "account",
          "type": "address"
        }
      ],
      "name": "OwnableUnauthorizedAccount",
      "type": "error"
    },
    {
      "inputs": [
        {
          "internalType": "address",
          "name": "token",
          "type": "address"
        }
      ],
      "name": "SafeERC20FailedOperation",
      "type": "error"
    },
    {
      "anonymous": false,
      "inputs": [
        {
          "indexed": false,
          "internalType": "uint256",
          "name": "amount",
          "type": "uint256"
        }
      ],
      "name": "ClaimFeeUpdated",
      "type": "event"
    },
    {
      "anonymous": false,
      "inputs": [
        {
          "indexed": true,
          "internalType": "uint256",
          "name": "distributionId",
          "type": "uint256"
        },
        {
          "indexed": false,
          "internalType": "address",
          "name": "account",
          "type": "address"
        }
      ],
      "name": "Claimed",
      "type": "event"
    },
    {
      "anonymous": false,
      "inputs": [
        {
          "indexed": true,
          "internalType": "uint256",
          "name": "distributionId",
          "type": "uint256"
        },
        {
          "indexed": true,
          "internalType": "address",
          "name": "token",
          "type": "address"
        },
        {
          "indexed": false,
          "internalType": "bool",
          "name": "isERC20",
          "type": "bool"
        },
        {
          "indexed": false,
          "internalType": "uint40",
          "name": "startTime",
          "type": "uint40"
        }
      ],
      "name": "Created",
      "type": "event"
    },
    {
      "anonymous": false,
      "inputs": [
        {
          "indexed": true,
          "internalType": "address",
          "name": "previousOwner",
          "type": "address"
        },
        {
          "indexed": true,
          "internalType": "address",
          "name": "newOwner",
          "type": "address"
        }
      ],
      "name": "OwnershipTransferred",
      "type": "event"
    },
    {
      "anonymous": false,
      "inputs": [
        {
          "indexed": false,
          "internalType": "address",
          "name": "protocolBeneficiary",
          "type": "address"
        }
      ],
      "name": "ProtocolBeneficiaryUpdated",
      "type": "event"
    },
    {
      "anonymous": false,
      "inputs": [
        {
          "indexed": true,
          "internalType": "uint256",
          "name": "distributionId",
          "type": "uint256"
        },
        {
          "indexed": false,
          "internalType": "uint256",
          "name": "amount",
          "type": "uint256"
        }
      ],
      "name": "Refunded",
      "type": "event"
    },
    {
      "inputs": [
        {
          "internalType": "uint256",
          "name": "distributionId",
          "type": "uint256"
        },
        {
          "internalType": "bytes32[]",
          "name": "merkleProof",
          "type": "bytes32[]"
        }
      ],
      "name": "claim",
      "outputs": [],
      "stateMutability": "payable",
      "type": "function"
    },
    {
      "inputs": [],
      "name": "claimFee",
      "outputs": [
        {
          "internalType": "uint256",
          "name": "",
          "type": "uint256"
        }
      ],
      "stateMutability": "view",
      "type": "function"
    },
    {
      "inputs": [
        {
          "internalType": "address",
          "name": "token",
          "type": "address"
        },
        {
          "internalType": "bool",
          "name": "isERC20",
          "type": "bool"
        },
        {
          "internalType": "uint176",
          "name": "amountPerClaim",
          "type": "uint176"
        },
        {
          "internalType": "uint40",
          "name": "walletCount",
          "type": "uint40"
        },
        {
          "internalType": "uint40",
          "name": "startTime",
          "type": "uint40"
        },
        {
          "internalType": "uint40",
          "name": "endTime",
          "type": "uint40"
        },
        {
          "internalType": "bytes32",
          "name": "merkleRoot",
          "type": "bytes32"
        },
        {
          "components": [
            {
              "internalType": "string",
              "name": "title",
              "type": "string"
            },
            {
              "internalType": "string",
              "name": "ipfsCID",
              "type": "string"
            }
          ],
          "internalType": "struct MerkleDistributorV2.MetadataParams",
          "name": "metaData",
          "type": "tuple"
        }
      ],
      "name": "createDistribution",
      "outputs": [],
      "stateMutability": "nonpayable",
      "type": "function"
    },
    {
      "inputs": [
        {
          "internalType": "uint256",
          "name": "",
          "type": "uint256"
        }
      ],
      "name": "distributions",
      "outputs": [
        {
          "internalType": "address",
          "name": "token",
          "type": "address"
        },
        {
          "internalType": "bool",
          "name": "isERC20",
          "type": "bool"
        },
        {
          "internalType": "uint40",
          "name": "walletCount",
          "type": "uint40"
        },
        {
          "internalType": "uint40",
          "name": "claimedCount",
          "type": "uint40"
        },
        {
          "internalType": "uint176",
          "name": "amountPerClaim",
          "type": "uint176"
        },
        {
          "internalType": "uint40",
          "name": "startTime",
          "type": "uint40"
        },
        {
          "internalType": "uint40",
          "name": "endTime",
          "type": "uint40"
        },
        {
          "internalType": "address",
          "name": "creator",
          "type": "address"
        },
        {
          "internalType": "uint40",
          "name": "refundedAt",
          "type": "uint40"
        },
        {
          "internalType": "bytes32",
          "name": "merkleRoot",
          "type": "bytes32"
        },
        {
          "internalType": "string",
          "name": "title",
          "type": "string"
        },
        {
          "internalType": "string",
          "name": "ipfsCID",
          "type": "string"
        }
      ],
      "stateMutability": "view",
      "type": "function"
    },
    {
      "inputs": [
        {
          "internalType": "address",
          "name": "creator",
          "type": "address"
        }
      ],
      "name": "getAllDistributionIdsByCreator",
      "outputs": [
        {
          "internalType": "uint256[]",
          "name": "",
          "type": "uint256[]"
        }
      ],
      "stateMutability": "view",
      "type": "function"
    },
    {
      "inputs": [
        {
          "internalType": "address",
          "name": "token",
          "type": "address"
        }
      ],
      "name": "getAllDistributionIdsByToken",
      "outputs": [
        {
          "internalType": "uint256[]",
          "name": "",
          "type": "uint256[]"
        }
      ],
      "stateMutability": "view",
      "type": "function"
    },
    {
      "inputs": [
        {
          "internalType": "uint256",
          "name": "distributionId",
          "type": "uint256"
        }
      ],
      "name": "getAmountClaimed",
      "outputs": [
        {
          "internalType": "uint256",
          "name": "",
          "type": "uint256"
        }
      ],
      "stateMutability": "view",
      "type": "function"
    },
    {
      "inputs": [
        {
          "internalType": "uint256",
          "name": "distributionId",
          "type": "uint256"
        }
      ],
      "name": "getAmountLeft",
      "outputs": [
        {
          "internalType": "uint256",
          "name": "",
          "type": "uint256"
        }
      ],
      "stateMutability": "view",
      "type": "function"
    },
    {
      "inputs": [
        {
          "internalType": "address",
          "name": "creator",
          "type": "address"
        },
        {
          "internalType": "uint256",
          "name": "startIndex",
          "type": "uint256"
        },
        {
          "internalType": "uint256",
          "name": "limit",
          "type": "uint256"
        }
      ],
      "name": "getDistributionsByCreator",
      "outputs": [
        {
          "internalType": "uint256[]",
          "name": "ids",
          "type": "uint256[]"
        },
        {
          "components": [
            {
              "internalType": "address",
              "name": "token",
              "type": "address"
            },
            {
              "internalType": "bool",
              "name": "isERC20",
              "type": "bool"
            },
            {
              "internalType": "uint40",
              "name": "walletCount",
              "type": "uint40"
            },
            {
              "internalType": "uint40",
              "name": "claimedCount",
              "type": "uint40"
            },
            {
              "internalType": "uint176",
              "name": "amountPerClaim",
              "type": "uint176"
            },
            {
              "internalType": "uint40",
              "name": "startTime",
              "type": "uint40"
            },
            {
              "internalType": "uint40",
              "name": "endTime",
              "type": "uint40"
            },
            {
              "internalType": "address",
              "name": "creator",
              "type": "address"
            },
            {
              "internalType": "uint40",
              "name": "refundedAt",
              "type": "uint40"
            },
            {
              "internalType": "bytes32",
              "name": "merkleRoot",
              "type": "bytes32"
            },
            {
              "internalType": "string",
              "name": "title",
              "type": "string"
            },
            {
              "internalType": "string",
              "name": "ipfsCID",
              "type": "string"
            },
            {
              "internalType": "uint256",
              "name": "id",
              "type": "uint256"
            },
            {
              "internalType": "string",
              "name": "tokenSymbol",
              "type": "string"
            },
            {
              "internalType": "uint8",
              "name": "tokenDecimals",
              "type": "uint8"
            },
            {
              "internalType": "string",
              "name": "tokenURI",
              "type": "string"
            }
          ],
          "internalType": "struct MerkleDistributorV2.DistributionOutput[]",
          "name": "data",
          "type": "tuple[]"
        }
      ],
      "stateMutability": "view",
      "type": "function"
    },
    {
      "inputs": [
        {
          "internalType": "address",
          "name": "token",
          "type": "address"
        },
        {
          "internalType": "uint256",
          "name": "startIndex",
          "type": "uint256"
        },
        {
          "internalType": "uint256",
          "name": "limit",
          "type": "uint256"
        }
      ],
      "name": "getDistributionsByToken",
      "outputs": [
        {
          "internalType": "uint256[]",
          "name": "ids",
          "type": "uint256[]"
        },
        {
          "components": [
            {
              "internalType": "address",
              "name": "token",
              "type": "address"
            },
            {
              "internalType": "bool",
              "name": "isERC20",
              "type": "bool"
            },
            {
              "internalType": "uint40",
              "name": "walletCount",
              "type": "uint40"
            },
            {
              "internalType": "uint40",
              "name": "claimedCount",
              "type": "uint40"
            },
            {
              "internalType": "uint176",
              "name": "amountPerClaim",
              "type": "uint176"
            },
            {
              "internalType": "uint40",
              "name": "startTime",
              "type": "uint40"
            },
            {
              "internalType": "uint40",
              "name": "endTime",
              "type": "uint40"
            },
            {
              "internalType": "address",
              "name": "creator",
              "type": "address"
            },
            {
              "internalType": "uint40",
              "name": "refundedAt",
              "type": "uint40"
            },
            {
              "internalType": "bytes32",
              "name": "merkleRoot",
              "type": "bytes32"
            },
            {
              "internalType": "string",
              "name": "title",
              "type": "string"
            },
            {
              "internalType": "string",
              "name": "ipfsCID",
              "type": "string"
            },
            {
              "internalType": "uint256",
              "name": "id",
              "type": "uint256"
            },
            {
              "internalType": "string",
              "name": "tokenSymbol",
              "type": "string"
            },
            {
              "internalType": "uint8",
              "name": "tokenDecimals",
              "type": "uint8"
            },
            {
              "internalType": "string",
              "name": "tokenURI",
              "type": "string"
            }
          ],
          "internalType": "struct MerkleDistributorV2.DistributionOutput[]",
          "name": "data",
          "type": "tuple[]"
        }
      ],
      "stateMutability": "view",
      "type": "function"
    },
    {
      "inputs": [],
      "name": "getDistributionsCount",
      "outputs": [
        {
          "internalType": "uint256",
          "name": "",
          "type": "uint256"
        }
      ],
      "stateMutability": "view",
      "type": "function"
    },
    {
      "inputs": [
        {
          "internalType": "address",
          "name": "creator",
          "type": "address"
        }
      ],
      "name": "getDistributionsCountByCreator",
      "outputs": [
        {
          "internalType": "uint256",
          "name": "",
          "type": "uint256"
        }
      ],
      "stateMutability": "view",
      "type": "function"
    },
    {
      "inputs": [
        {
          "internalType": "address",
          "name": "token",
          "type": "address"
        }
      ],
      "name": "getDistributionsCountByToken",
      "outputs": [
        {
          "internalType": "uint256",
          "name": "",
          "type": "uint256"
        }
      ],
      "stateMutability": "view",
      "type": "function"
    },
    {
      "inputs": [
        {
          "internalType": "uint256",
          "name": "distributionId",
          "type": "uint256"
        },
        {
          "internalType": "address",
          "name": "wallet",
          "type": "address"
        }
      ],
      "name": "isClaimed",
      "outputs": [
        {
          "internalType": "bool",
          "name": "",
          "type": "bool"
        }
      ],
      "stateMutability": "view",
      "type": "function"
    },
    {
      "inputs": [
        {
          "internalType": "uint256",
          "name": "distributionId",
          "type": "uint256"
        }
      ],
      "name": "isWhitelistOnly",
      "outputs": [
        {
          "internalType": "bool",
          "name": "",
          "type": "bool"
        }
      ],
      "stateMutability": "view",
      "type": "function"
    },
    {
      "inputs": [
        {
          "internalType": "uint256",
          "name": "distributionId",
          "type": "uint256"
        },
        {
          "internalType": "address",
          "name": "wallet",
          "type": "address"
        },
        {
          "internalType": "bytes32[]",
          "name": "merkleProof",
          "type": "bytes32[]"
        }
      ],
      "name": "isWhitelisted",
      "outputs": [
        {
          "internalType": "bool",
          "name": "",
          "type": "bool"
        }
      ],
      "stateMutability": "view",
      "type": "function"
    },
    {
      "inputs": [
        {
          "internalType": "address",
          "name": "",
          "type": "address"
        },
        {
          "internalType": "address",
          "name": "",
          "type": "address"
        },
        {
          "internalType": "uint256",
          "name": "",
          "type": "uint256"
        },
        {
          "internalType": "uint256",
          "name": "",
          "type": "uint256"
        },
        {
          "internalType": "bytes",
          "name": "",
          "type": "bytes"
        }
      ],
      "name": "onERC1155Received",
      "outputs": [
        {
          "internalType": "bytes4",
          "name": "",
          "type": "bytes4"
        }
      ],
      "stateMutability": "pure",
      "type": "function"
    },
    {
      "inputs": [],
      "name": "owner",
      "outputs": [
        {
          "internalType": "address",
          "name": "",
          "type": "address"
        }
      ],
      "stateMutability": "view",
      "type": "function"
    },
    {
      "inputs": [],
      "name": "protocolBeneficiary",
      "outputs": [
        {
          "internalType": "address",
          "name": "",
          "type": "address"
        }
      ],
      "stateMutability": "view",
      "type": "function"
    },
    {
      "inputs": [
        {
          "internalType": "uint256",
          "name": "distributionId",
          "type": "uint256"
        }
      ],
      "name": "refund",
      "outputs": [],
      "stateMutability": "nonpayable",
      "type": "function"
    },
    {
      "inputs": [],
      "name": "renounceOwnership",
      "outputs": [],
      "stateMutability": "nonpayable",
      "type": "function"
    },
    {
      "inputs": [
        {
          "internalType": "address",
          "name": "newOwner",
          "type": "address"
        }
      ],
      "name": "transferOwnership",
      "outputs": [],
      "stateMutability": "nonpayable",
      "type": "function"
    },
    {
      "inputs": [
        {
          "internalType": "uint256",
          "name": "amount",
          "type": "uint256"
        }
      ],
      "name": "updateClaimFee",
      "outputs": [],
      "stateMutability": "nonpayable",
      "type": "function"
    },
    {
      "inputs": [
        {
          "internalType": "address",
          "name": "protocolBeneficiary_",
          "type": "address"
        }
      ],
      "name": "updateProtocolBeneficiary",
      "outputs": [],
      "stateMutability": "nonpayable",
      "type": "function"
    }
  ],
  "bytecode": "0x608034620000d557601f6200312038819003918201601f19168301916001600160401b03831184841017620000da578084926040948552833981010312620000d55780516001600160a01b039182821691829003620000d55760200151903315620000bc5760005460018060a01b0319903382821617600055604051943391167f8be0079c531659141344cd1fd0a4f28419497f9722a3daafe3b4186f6b6457e0600080a3600454161760045560055561302f9081620000f18239f35b604051631e4fbdf760e01b815260006004820152602490fd5b600080fd5b634e487b7160e01b600052604160045260246000fdfe608080604052600436101561001357600080fd5b600090813560e01c9081630f4a210d14611f6457508063169a502714611f185780631e42200014611e5e578063278ecde114611bdb57806327e381a914611ac95780632f52ebb71461160a57806335c32c071461156c5780634487d3df1461143f57806358c064f2146113c45780637108a61514611361578063715018a6146112c4578063723bdb68146112ac5780637a469b21146112705780638da5cb5b1461121f578063990e6005146111cd57806399d32fc414611191578063b20b840314611125578063b66dd562146110fd578063cb4570151461044c578063ce1ad9be14610396578063cf45236e14610351578063d2ef0795146102d8578063f23a6e611461020f5763f2fde38b1461012957600080fd5b3461020c5760207ffffffffffffffffffffffffffffffffffffffffffffffffffffffffffffffffc36011261020c57610160611fc4565b61016861251a565b73ffffffffffffffffffffffffffffffffffffffff8091169081156101db57600054827fffffffffffffffffffffffff0000000000000000000000000000000000000000821617600055167f8be0079c531659141344cd1fd0a4f28419497f9722a3daafe3b4186f6b6457e0600080a380f35b602483604051907f1e4fbdf70000000000000000000000000000000000000000000000000000000082526004820152fd5b80fd5b503461020c5760a07ffffffffffffffffffffffffffffffffffffffffffffffffffffffffffffffffc36011261020c57610247611fc4565b50610250611fe7565b5060843567ffffffffffffffff81116102d457366023820112156102d457806004013561027c816124e0565b6102896040519182612179565b81815236602483850101116102d057816024602094018483013701015260206040517ff23a6e61000000000000000000000000000000000000000000000000000000008152f35b8380fd5b5080fd5b503461020c5760407ffffffffffffffffffffffffffffffffffffffffffffffffffffffffffffffffc36011261020c576006610312611fe7565b73ffffffffffffffffffffffffffffffffffffffff61033260043561206f565b50911660005201602052602060ff604060002054166040519015158152f35b503461020c5760207ffffffffffffffffffffffffffffffffffffffffffffffffffffffffffffffffc36011261020c57602061038e60043561296e565b604051908152f35b503461020c576020807ffffffffffffffffffffffffffffffffffffffffffffffffffffffffffffffffc3601126102d45773ffffffffffffffffffffffffffffffffffffffff6103e4611fc4565b168252600281526040822091604051809384918482549182815201918452848420935b858282106104365750505061041e92500383612179565b61043260405192828493845283019061203b565b0390f35b8554845260019586019588955093019201610407565b503461020c576101007ffffffffffffffffffffffffffffffffffffffffffffffffffffffffffffffffc36011261020c57610485611fc4565b6024351515602435036102d457604475ffffffffffffffffffffffffffffffffffffffffffff813516813503610b7f5764ffffffffff60643516606435036110f85764ffffffffff60843516608435036110f85764ffffffffff60a4351660a435036110f85767ffffffffffffffff60e43511610b7f5760407ffffffffffffffffffffffffffffffffffffffffffffffffffffffffffffffffc60e43536030112610b7f5773ffffffffffffffffffffffffffffffffffffffff82161561109a5775ffffffffffffffffffffffffffffffffffffffffffff8135161561103c5764ffffffffff6064351615610fde574264ffffffffff60a435161115610f805764ffffffffff60a4351664ffffffffff608435161015610f22577f646563696d616c7328290000000000000000000000000000000000000000000060206040516105ce8161215d565b600a815201526105df60405161212c565b60008060405160208101907f313ce5670000000000000000000000000000000000000000000000000000000082526004815261061a8161215d565b5190855afa610627612736565b81610f16575b5015610eb8577f73796d626f6c282900000000000000000000000000000000000000000000000060206040516106628161215d565b60088152015261067360405161212c565b60008060405160208101907f95d89b41000000000000000000000000000000000000000000000000000000008252600481526106ae8161215d565b5190855afa6106bb612736565b81610eac575b5015610e4e576001549068010000000000000000821015610e215760018201806001556106ed8361206f565b50508211610df4576106fe8261206f565b5080547fffffffffffff00000000000000000000000000000000000000000000000000001673ffffffffffffffffffffffffffffffffffffffff851617602435151560a01b74ff0000000000000000000000000000000000000000161760643560a81b79ffffffffff0000000000000000000000000000000000000000001617815560843560b01b7affffffffff0000000000000000000000000000000000000000000016823575ffffffffffffffffffffffffffffffffffffffffffff161760a43560d81b7fffffffffff000000000000000000000000000000000000000000000000000000161760018201556002810180547fffffffffffffffffffffffff0000000000000000000000000000000000000000163317905560c435600382015561082f600460e435018061256b565b9067ffffffffffffffff8211610ca557819061084e60048501546120d9565b601f8111610da3575b508790601f8311600114610cdd578892610cd2575b50507fffffffffffffffffffffffffffffffffffffffffffffffffffffffffffffffff8260011b9260031b1c19161760048201555b6108b5602460e4350160e43560040161256b565b9067ffffffffffffffff8211610ca5576108d260058401546120d9565b601f8111610c60575b508690601f8311600114610b995760059291889183610b8e575b50507fffffffffffffffffffffffffffffffffffffffffffffffffffffffffffffffff8260011b9260031b1c1916179101555b8360243515610a9d575075ffffffffffffffffffffffffffffffffffffffffffff61095d64ffffffffff6064351683356125bc565b16604051917f23b872dd000000000000000000000000000000000000000000000000000000006020840152336024840152309083015260648201526064815260a081019080821067ffffffffffffffff831117610a6e576109d79160405273ffffffffffffffffffffffffffffffffffffffff841661268d565b73ffffffffffffffffffffffffffffffffffffffff821683526002602052610a028160408520612636565b3383526003602052610a178160408520612636565b7f395503978abf0bf7dd838e941dea654d5feebe88da8c0ce0a4262ed458e812ff604073ffffffffffffffffffffffffffffffffffffffff8151946024351515865264ffffffffff6084351660208701521693a380f35b7f4e487b7100000000000000000000000000000000000000000000000000000000600052604160045260246000fd5b90610ab39064ffffffffff6064351690356125bc565b73ffffffffffffffffffffffffffffffffffffffff84163b156102d4576040517ff242432a00000000000000000000000000000000000000000000000000000000815233600482015230602482015260006044820181905275ffffffffffffffffffffffffffffffffffffffffffff92909216606482015260a0608482015260a4810191909152818160c4818373ffffffffffffffffffffffffffffffffffffffff89165af18015610b8357610b6b575b50506109d7565b610b749061212c565b610b7f578238610b64565b8280fd5b6040513d84823e3d90fd5b0135905038806108f5565b6005840188526020882091885b7fffffffffffffffffffffffffffffffffffffffffffffffffffffffffffffffe085168110610c485750918391600193837fffffffffffffffffffffffffffffffffffffffffffffffffffffffffffffffe06005971610610c10575b505050811b01910155610928565b7fffffffffffffffffffffffffffffffffffffffffffffffffffffffffffffffff60f88560031b161c19910135169055388080610c02565b90926020600181928686013581550194019101610ba6565b60058401885260208820601f840160051c810160208510610c9e575b601f830160051c82018110610c925750506108db565b60008155600101610c7c565b5080610c7c565b6024877f4e487b710000000000000000000000000000000000000000000000000000000081526041600452fd5b01359050388061086c565b60048501895260208920899450915b7fffffffffffffffffffffffffffffffffffffffffffffffffffffffffffffffe084168510610d8b5760019450837fffffffffffffffffffffffffffffffffffffffffffffffffffffffffffffffe0811610610d53575b505050811b0160048201556108a1565b7fffffffffffffffffffffffffffffffffffffffffffffffffffffffffffffffff60f88560031b161c19910135169055388080610d43565b81810135835560209485019460019093019201610cec565b90915060048401885260208820601f840160051c810160208510610ded575b90849392915b601f830160051c82018110610dde575050610857565b60008155859450600101610dc8565b5080610dc2565b6024847f4e487b710000000000000000000000000000000000000000000000000000000081526011600452fd5b6024847f4e487b710000000000000000000000000000000000000000000000000000000081526041600452fd5b6064907f73796d626f6c0000000000000000000000000000000000000000000000000000604051917fbbd80c8b0000000000000000000000000000000000000000000000000000000083526020600484015260066024840152820152fd5b605f91505111386106c1565b6064907f646563696d616c73000000000000000000000000000000000000000000000000604051917fbbd80c8b0000000000000000000000000000000000000000000000000000000083526020600484015260086024840152820152fd5b601f915051113861062d565b6064907f737461727454696d650000000000000000000000000000000000000000000000604051917fbbd80c8b0000000000000000000000000000000000000000000000000000000083526020600484015260096024840152820152fd5b6064907f656e6454696d6500000000000000000000000000000000000000000000000000604051917fbbd80c8b0000000000000000000000000000000000000000000000000000000083526020600484015260076024840152820152fd5b6064907f77616c6c6574436f756e74000000000000000000000000000000000000000000604051917fbbd80c8b00000000000000000000000000000000000000000000000000000000835260206004840152600b6024840152820152fd5b6064907f616d6f756e74506572436c61696d000000000000000000000000000000000000604051917fbbd80c8b00000000000000000000000000000000000000000000000000000000835260206004840152600e6024840152820152fd5b6064907f746f6b656e000000000000000000000000000000000000000000000000000000604051917fbbd80c8b0000000000000000000000000000000000000000000000000000000083526020600484015260056024840152820152fd5b600080fd5b503461020c5761111561110f366122e5565b91612f2e565b906104326040519283928361233a565b503461020c5760207ffffffffffffffffffffffffffffffffffffffffffffffffffffffffffffffffc36011261020c577f64374f1a975abb9bc8e8857d704b9ead41989ff599d90c1e8f7d34bc2ebea92a602060043561118361251a565b80600555604051908152a180f35b503461020c57807ffffffffffffffffffffffffffffffffffffffffffffffffffffffffffffffffc36011261020c576020600554604051908152f35b503461020c57807ffffffffffffffffffffffffffffffffffffffffffffffffffffffffffffffffc36011261020c57602073ffffffffffffffffffffffffffffffffffffffff60045416604051908152f35b503461020c57807ffffffffffffffffffffffffffffffffffffffffffffffffffffffffffffffffc36011261020c5773ffffffffffffffffffffffffffffffffffffffff6020915416604051908152f35b503461020c57807ffffffffffffffffffffffffffffffffffffffffffffffffffffffffffffffffc36011261020c576020600154604051908152f35b503461020c576111156112be366122e5565b91612af6565b503461020c57807ffffffffffffffffffffffffffffffffffffffffffffffffffffffffffffffffc36011261020c576112fb61251a565b600073ffffffffffffffffffffffffffffffffffffffff81547fffffffffffffffffffffffff000000000000000000000000000000000000000081168355167f8be0079c531659141344cd1fd0a4f28419497f9722a3daafe3b4186f6b6457e08280a380f35b503461020c5760207ffffffffffffffffffffffffffffffffffffffffffffffffffffffffffffffffc36011261020c57604060209173ffffffffffffffffffffffffffffffffffffffff6113b3611fc4565b168152600283522054604051908152f35b503461020c5760207ffffffffffffffffffffffffffffffffffffffffffffffffffffffffffffffffc36011261020c57602061140160043561206f565b5061143675ffffffffffffffffffffffffffffffffffffffffffff9164ffffffffff83600183015416915460d01c16906125bc565b16604051908152f35b503461020c5760207ffffffffffffffffffffffffffffffffffffffffffffffffffffffffffffffffc36011261020c576004356001548110156102d4576114859061206f565b50805461043260018301549161155d60028501549460038101546114b760056114b0600485016121ba565b93016121ba565b9360405197889773ffffffffffffffffffffffffffffffffffffffff908184168a5260ff8460a01c16151560208b015264ffffffffff8481809660a81c1660408d015260d01c1660608b015275ffffffffffffffffffffffffffffffffffffffffffff811660808b0152838160b01c1660a08b015260d81c60c08a0152811660e089015260a01c16610100870152610120860152610180806101408701528501906122a2565b908382036101608501526122a2565b503461020c576020807ffffffffffffffffffffffffffffffffffffffffffffffffffffffffffffffffc3601126102d45773ffffffffffffffffffffffffffffffffffffffff6115ba611fc4565b168252600381526040822091604051809384918482549182815201918452848420935b858282106115f45750505061041e92500383612179565b85548452600195860195889550930192016115dd565b5060407ffffffffffffffffffffffffffffffffffffffffffffffffffffffffffffffffc36011261020c5760043560243567ffffffffffffffff8111610b7f5761165890369060040161200a565b906116628361206f565b5090600182019081549064ffffffffff9142838260b01c1611611a9f57429060d81c10611a755781600285015460a01c16611a4b576006840190336000528160205260ff60406000205416611a2157845483808260a81c169160d01c1610156119f757600385019586548015600014611992575050506005543403611968575b33600052602052604060002060017fffffffffffffffffffffffffffffffffffffffffffffffffffffffffffffff008254161790558254906001818360d01c160190811161193b579060ff7effffffffff0000000000000000000000000000000000000000000000000000889360d01b167fff0000000000ffffffffffffffffffffffffffffffffffffffffffffffffffff83161780865560a01c1660001461186357505075ffffffffffffffffffffffffffffffffffffffffffff73ffffffffffffffffffffffffffffffffffffffff6117c493541691541690339061286c565b541580611858575b6117fe575b7f6aa3eac93d079e5e100b1029be716caa33586c96aa4baac390669fb5c2a212126020604051338152a280f35b8180808073ffffffffffffffffffffffffffffffffffffffff60045416600554905af1611829612736565b506117d15760046040517f07b691a7000000000000000000000000000000000000000000000000000000008152fd5b5060055415156117cc565b75ffffffffffffffffffffffffffffffffffffffffffff91935073ffffffffffffffffffffffffffffffffffffffff1691541690803b15610b7f576040517ff242432a00000000000000000000000000000000000000000000000000000000815230600482015233602482015260006044820181905275ffffffffffffffffffffffffffffffffffffffffffff93909316606482015260a0608482015260a48101929092528290829060c490829084905af18015610b8357611927575b50506117c4565b6119309061212c565b610b7f578238611920565b6024877f4e487b710000000000000000000000000000000000000000000000000000000081526011600452fd5b60046040517f850ffac6000000000000000000000000000000000000000000000000000000008152fd5b34611968576119c46119c99360405160208101903360601b8252601481526119b98161215d565b51902093369161281e565b6128df565b6116e25760046040517f29f6b862000000000000000000000000000000000000000000000000000000008152fd5b60046040517f15b9c0b4000000000000000000000000000000000000000000000000000000008152fd5b60046040517f9813312b000000000000000000000000000000000000000000000000000000008152fd5b60046040517f7f37c388000000000000000000000000000000000000000000000000000000008152fd5b60046040517f37efb8c0000000000000000000000000000000000000000000000000000000008152fd5b60046040517f69f05f50000000000000000000000000000000000000000000000000000000008152fd5b503461020c5760207ffffffffffffffffffffffffffffffffffffffffffffffffffffffffffffffffc36011261020c5773ffffffffffffffffffffffffffffffffffffffff611b16611fc4565b611b1e61251a565b168015611b7d576020817fcf7686c0c53a1ab216c4cd81c1bc037136c791a61f30af4a78827c3915766044927fffffffffffffffffffffffff00000000000000000000000000000000000000006004541617600455604051908152a180f35b60646040517fbbd80c8b00000000000000000000000000000000000000000000000000000000815260206004820152600c60248201527f4e554c4c5f4144445245535300000000000000000000000000000000000000006044820152fd5b503461020c5760207ffffffffffffffffffffffffffffffffffffffffffffffffffffffffffffffffc36011261020c576004356002611c198261206f565b50015473ffffffffffffffffffffffffffffffffffffffff9081163303611e3457611c438261206f565b5090600282019081549264ffffffffff8460a01c16611e0a57611c658561296e565b938415611de05778ffffffffff00000000000000000000000000000000000000004260a01b167fffffffffffffff0000000000ffffffffffffffffffffffffffffffffffffffff821617845586825460ff8160a01c16600014611d065750505083602093837fb7c1f9298a18c36af08bd57eabbfbeb04695f24d0438f67614741ec15fb5c4a99694611cfc9454169154169061286c565b604051908152a280f35b84169450929150833b15610b7f5760c4908360405195869485937ff242432a00000000000000000000000000000000000000000000000000000000855230600486015216602484015281604484015287606484015260a060848401528160a48401525af18015611dd557611d9f575b5060207fb7c1f9298a18c36af08bd57eabbfbeb04695f24d0438f67614741ec15fb5c4a991611cfc565b7fb7c1f9298a18c36af08bd57eabbfbeb04695f24d0438f67614741ec15fb5c4a99193611dcd60209261212c565b939150611d75565b6040513d86823e3d90fd5b60046040517f5463471e000000000000000000000000000000000000000000000000000000008152fd5b60046040517f1b944002000000000000000000000000000000000000000000000000000000008152fd5b60046040517f53af0613000000000000000000000000000000000000000000000000000000008152fd5b503461020c5760607ffffffffffffffffffffffffffffffffffffffffffffffffffffffffffffffffc36011261020c57611e96611fe7565b906044359067ffffffffffffffff821161020c576020611f0e6119c485611ec0366004880161200a565b92906003611ecf60043561206f565b500154926040517fffffffffffffffffffffffffffffffffffffffff0000000000000000000000008882019260601b168252601481526119b98161215d565b6040519015158152f35b503461020c5760207ffffffffffffffffffffffffffffffffffffffffffffffffffffffffffffffffc36011261020c5760206003611f5760043561206f565b5001541515604051908152f35b9050346102d45760207ffffffffffffffffffffffffffffffffffffffffffffffffffffffffffffffffc3601126102d457604060209273ffffffffffffffffffffffffffffffffffffffff611fb7611fc4565b1681526003845220548152f35b6004359073ffffffffffffffffffffffffffffffffffffffff821682036110f857565b6024359073ffffffffffffffffffffffffffffffffffffffff821682036110f857565b9181601f840112156110f85782359167ffffffffffffffff83116110f8576020808501948460051b0101116110f857565b90815180825260208080930193019160005b82811061205b575050505090565b83518552938101939281019260010161204d565b6001548110156120aa576007906001600052027fb10e2d527612073b26eecdfd717e6a320cf44b4afac2b0732d9fcbe2b7fa0cf60190600090565b7f4e487b7100000000000000000000000000000000000000000000000000000000600052603260045260246000fd5b90600182811c92168015612122575b60208310146120f357565b7f4e487b7100000000000000000000000000000000000000000000000000000000600052602260045260246000fd5b91607f16916120e8565b67ffffffffffffffff8111610a6e57604052565b610200810190811067ffffffffffffffff821117610a6e57604052565b6040810190811067ffffffffffffffff821117610a6e57604052565b90601f7fffffffffffffffffffffffffffffffffffffffffffffffffffffffffffffffe0910116810190811067ffffffffffffffff821117610a6e57604052565b90604051918260008254926121ce846120d9565b90818452600194858116908160001461223d57506001146121fa575b50506121f892500383612179565b565b9093915060005260209081600020936000915b8183106122255750506121f8935082010138806121ea565b8554888401850152948501948794509183019161220d565b90506121f89550602093507fffffffffffffffffffffffffffffffffffffffffffffffffffffffffffffff0091501682840152151560051b82010138806121ea565b60005b8381106122925750506000910152565b8181015183820152602001612282565b907fffffffffffffffffffffffffffffffffffffffffffffffffffffffffffffffe0601f6020936122de8151809281875287808801910161227f565b0116010190565b7ffffffffffffffffffffffffffffffffffffffffffffffffffffffffffffffffc60609101126110f85760043573ffffffffffffffffffffffffffffffffffffffff811681036110f857906024359060443590565b61234c6040928383528383019061203b565b906020908181840391015283519182815281810182808560051b8401019601946000925b858410612381575050505050505090565b9091929394959685806124cf837fffffffffffffffffffffffffffffffffffffffffffffffffffffffffffffffe086600196030188528b5173ffffffffffffffffffffffffffffffffffffffff8082511683528482015115158584015264ffffffffff90818a840151168a850152606082818501511690850152608075ffffffffffffffffffffffffffffffffffffffffffff81850151169085015260a08281850151169085015260c08281850151169085015260e0908184015116908401526101009081830151169083015261012080820151908301526124ad61248e61247a610140808501519061020080918801528601906122a2565b6101608085015190868303908701526122a2565b61018080840151908501526101a08084015190858303908601526122a2565b916101c060ff8184015116908201526101e080920151918184039101526122a2565b990194019401929594939190612370565b67ffffffffffffffff8111610a6e57601f017fffffffffffffffffffffffffffffffffffffffffffffffffffffffffffffffe01660200190565b73ffffffffffffffffffffffffffffffffffffffff60005416330361253b57565b60246040517f118cdaa7000000000000000000000000000000000000000000000000000000008152336004820152fd5b9035907fffffffffffffffffffffffffffffffffffffffffffffffffffffffffffffffe1813603018212156110f8570180359067ffffffffffffffff82116110f8576020019181360383136110f857565b919075ffffffffffffffffffffffffffffffffffffffffffff80809416911692838202169281840414901517156125ef57565b7f4e487b7100000000000000000000000000000000000000000000000000000000600052601160045260246000fd5b80548210156120aa5760005260206000200190600090565b805468010000000000000000811015610a6e576126589160018201815561261e565b7fffffffffffffffffffffffffffffffffffffffffffffffffffffffffffffffff829392549160031b92831b921b1916179055565b73ffffffffffffffffffffffffffffffffffffffff16906126c5600080836020829551910182875af16126be612736565b9084612766565b90815191821515928361270e575b5050506126dd5750565b602490604051907f5274afe70000000000000000000000000000000000000000000000000000000082526004820152fd5b8192935090602091810103126102d457602001519081159182150361020c57503880806126d3565b3d15612761573d90612747826124e0565b916127556040519384612179565b82523d6000602084013e565b606090565b906127a5575080511561277b57805190602001fd5b60046040517f1425ea42000000000000000000000000000000000000000000000000000000008152fd5b815115806127fd575b6127b6575090565b60249073ffffffffffffffffffffffffffffffffffffffff604051917f9996b315000000000000000000000000000000000000000000000000000000008352166004820152fd5b50803b156127ae565b67ffffffffffffffff8111610a6e5760051b60200190565b929161282982612806565b916128376040519384612179565b829481845260208094019160051b81019283116110f857905b82821061285d5750505050565b81358152908301908301612850565b9173ffffffffffffffffffffffffffffffffffffffff604051927fa9059cbb000000000000000000000000000000000000000000000000000000006020850152166024830152604482015260448152608081019181831067ffffffffffffffff841117610a6e576121f89260405261268d565b90926000925b8251841015612951576128f8848461295a565b5190600082821015612942575060005260205260406000205b927fffffffffffffffffffffffffffffffffffffffffffffffffffffffffffffffff81146125ef57600101926128e5565b90604092825260205220612911565b91509291501490565b80518210156120aa5760209160051b010190565b6129779061206f565b5075ffffffffffffffffffffffffffffffffffffffffffff908160018201541690549064ffffffffff9182808260d01c169160a81c1603918083116125ef576129c19216906125bc565b1690565b906129cf82612806565b6129dc6040519182612179565b8281527fffffffffffffffffffffffffffffffffffffffffffffffffffffffffffffffe0612a0a8294612806565b0190602036910137565b60405190612a2182612140565b60606101e083600080825280602083015280604083015280848301528060808301528060a08301528060c08301528060e08301528061010083015280610120830152836101408301528361016083015280610180830152836101a08301526101c08201520152565b90612a9382612806565b612aa06040519182612179565b8281527fffffffffffffffffffffffffffffffffffffffffffffffffffffffffffffffe0612ace8294612806565b019060005b828110612adf57505050565b602090612aea612a14565b82828501015201612ad3565b92909260648311612be15773ffffffffffffffffffffffffffffffffffffffff16916000938385526003602095818752604090818120549485851015612bd257840194808611612bca575b5083850397612b58612b528a6129c5565b99612a89565b97888a845b898910612b705750505050505050505050565b600192612bb282612bac818796612ba68f8f908f908f918f928f612b999486918352522061261e565b9054911b1c92839261295a565b52612c6d565b9261295a565b52612bbd818d61295a565b50019601958a8a91612b5d565b945038612b41565b50606097508796505050505050565b60046040517fa176d4b6000000000000000000000000000000000000000000000000000000008152fd5b6020818303126110f85780519067ffffffffffffffff82116110f8570181601f820112156110f8578051612c3e816124e0565b92612c4c6040519485612179565b818452602082840101116110f857612c6a916020808501910161227f565b90565b612c75612a14565b50612c7f8161206f565b5090815473ffffffffffffffffffffffffffffffffffffffff918282169060ff8360a01c16946001810154926002820154906003830154916040978851967f95d89b410000000000000000000000000000000000000000000000000000000088526000998a89600481885afa988915612f24578b99612f08575b508051997f313ce567000000000000000000000000000000000000000000000000000000008b5260209b8c8c6004818a5afa9b8c15612efc57819c612ebf575b508d15612e48578251908d820182811067ffffffffffffffff821117612e1b57845281529b5b82519d8e97612d6d89612140565b885215159087015264ffffffffff958692838360a81c1691015260d01c1660608c015275ffffffffffffffffffffffffffffffffffffffffffff811660808c0152838160b01c1660a08c015260d81c60c08b0152811660e08a015260a01c1661010088015261012087015260048101612de5906121ba565b610140870152600501612df7906121ba565b6101608601526101808501526101a084015260ff166101c08301526101e082015290565b6024827f4e487b710000000000000000000000000000000000000000000000000000000081526041600452fd5b82517f0e89341c00000000000000000000000000000000000000000000000000000000815281600482015281816024818b5afa918215612eb4578092612e91575b50509b612d5f565b612ead92503d8091833e612ea58183612179565b810190612c0b565b3880612e89565b8451903d90823e3d90fd5b909b508c81813d8311612ef5575b612ed78183612179565b81010312612ef1575160ff81168103612ef1579a38612d39565b8b80fd5b503d612ecd565b508251903d90823e3d90fd5b612f1d9199503d808d833e612ea58183612179565b9738612cf9565b81513d8d823e3d90fd5b92909260648311612be15773ffffffffffffffffffffffffffffffffffffffff16916000938385526002602095818752604091828220549485851015612bd257840194808611612ff1575b5083850397612f8a612b528a6129c5565b97888a855b898910612fa25750505050505050505050565b600192612fd982612bac818796612ba68f8f908f918f928f938f94612fca958352522061261e565b90549060031b1c92839261295a565b52612fe4818d61295a565b50019601958a8a91612f8f565b945038612f7956fea26469706673582212209e5f4ee201ad5fcf5f7a0ec7b05ba71385836c04913a530e7bb439d31052ae7964736f6c63430008140033",
  "linkReferences": {},
  "deployedLinkReferences": {}
}