{
  "_format": "hh-sol-artifact-1",
  "contractName": "MCV2_NFTDistributor",
  "sourceName": "contracts/MCV2_NFTDistributor.sol",
  "abi": [
    {
      "inputs": [
        {
          "internalType": "address",
          "name": "bond_",
          "type": "address"
        },
        {
          "internalType": "address",
          "name": "bulkSender_",
          "type": "address"
        }
      ],
      "stateMutability": "nonpayable",
      "type": "constructor"
    },
    {
      "inputs": [
        {
          "internalType": "string",
          "name": "param",
          "type": "string"
        }
      ],
      "name": "MCV2_NFTDistributor__InvalidParams",
      "type": "error"
    },
    {
      "inputs": [],
      "name": "bond",
      "outputs": [
        {
          "internalType": "contract IMCV2_Bond",
          "name": "",
          "type": "address"
        }
      ],
      "stateMutability": "view",
      "type": "function"
    },
    {
      "inputs": [],
      "name": "bulkSender",
      "outputs": [
        {
          "internalType": "contract IBulkSender",
          "name": "",
          "type": "address"
        }
      ],
      "stateMutability": "view",
      "type": "function"
    },
    {
      "inputs": [
        {
          "components": [
            {
              "internalType": "string",
              "name": "name",
              "type": "string"
            },
            {
              "internalType": "string",
              "name": "symbol",
              "type": "string"
            },
            {
              "internalType": "string",
              "name": "uri",
              "type": "string"
            }
          ],
          "internalType": "struct IMCV2_Bond.MultiTokenParams",
          "name": "tp",
          "type": "tuple"
        },
        {
          "components": [
            {
              "internalType": "uint16",
              "name": "mintRoyalty",
              "type": "uint16"
            },
            {
              "internalType": "uint16",
              "name": "burnRoyalty",
              "type": "uint16"
            },
            {
              "internalType": "address",
              "name": "reserveToken",
              "type": "address"
            },
            {
              "internalType": "uint128",
              "name": "maxSupply",
              "type": "uint128"
            },
            {
              "internalType": "uint128[]",
              "name": "stepRanges",
              "type": "uint128[]"
            },
            {
              "internalType": "uint128[]",
              "name": "stepPrices",
              "type": "uint128[]"
            }
          ],
          "internalType": "struct IMCV2_Bond.BondParams",
          "name": "bp",
          "type": "tuple"
        },
        {
          "internalType": "address[]",
          "name": "recipients",
          "type": "address[]"
        },
        {
          "internalType": "uint256[]",
          "name": "amounts",
          "type": "uint256[]"
        }
      ],
      "name": "createAndDistribute",
      "outputs": [
        {
          "internalType": "address",
          "name": "token",
          "type": "address"
        }
      ],
      "stateMutability": "payable",
      "type": "function"
    },
    {
      "inputs": [
        {
          "internalType": "address",
          "name": "",
          "type": "address"
        },
        {
          "internalType": "address",
          "name": "",
          "type": "address"
        },
        {
          "internalType": "uint256",
          "name": "",
          "type": "uint256"
        },
        {
          "internalType": "uint256",
          "name": "",
          "type": "uint256"
        },
        {
          "internalType": "bytes",
          "name": "",
          "type": "bytes"
        }
      ],
      "name": "onERC1155Received",
      "outputs": [
        {
          "internalType": "bytes4",
          "name": "",
          "type": "bytes4"
        }
      ],
      "stateMutability": "pure",
      "type": "function"
    }
  ],
  "bytecode": "0x60c0346100bd57601f61113a38819003918201601f19168301916001600160401b038311848410176100c25780849260409485528339810103126100bd57610052602061004b836100d8565b92016100d8565b6001600160a01b039182166080521660a05260405161104d90816100ed82396080518181816101d501528181610391015281816106220152818161087101526108fc015260a051818181610406015281816106ad0152818161071b0152818161082b0152610d130152f35b600080fd5b634e487b7160e01b600052604160045260246000fd5b51906001600160a01b03821682036100bd5756fe608080604052600436101561001357600080fd5b600090813560e01c908163151c80fc14610cc9575080635515ba24146101f957806364c9ec6f1461018a5763f23a6e611461004d57600080fd5b346101875760a07ffffffffffffffffffffffffffffffffffffffffffffffffffffffffffffffffc3601126101875773ffffffffffffffffffffffffffffffffffffffff6004358181160361018257602435908116036101825760843567ffffffffffffffff80821161017e573660238301121561017e5781600401359081116101515760405161010660207fffffffffffffffffffffffffffffffffffffffffffffffffffffffffffffffe0601f8501160182610dcc565b818152366024838501011161014d57816024602094018483013701015260206040517ff23a6e61000000000000000000000000000000000000000000000000000000008152f35b8380fd5b6024837f4e487b710000000000000000000000000000000000000000000000000000000081526041600452fd5b8280fd5b600080fd5b80fd5b503461018757807ffffffffffffffffffffffffffffffffffffffffffffffffffffffffffffffffc36011261018757602060405173ffffffffffffffffffffffffffffffffffffffff7f0000000000000000000000000000000000000000000000000000000000000000168152f35b5060807ffffffffffffffffffffffffffffffffffffffffffffffffffffffffffffffffc3601126101875767ffffffffffffffff9081600435116101875760607ffffffffffffffffffffffffffffffffffffffffffffffffffffffffffffffffc600435360301126101875781602435116101875760c07ffffffffffffffffffffffffffffffffffffffffffffffffffffffffffffffffc602435360301126101875760443582811161095e576102b4903690600401610d37565b9260643590811161017e576102cd903690600401610d37565b906102e260a460243501602435600401610e0d565b15610c9c576103016fffffffffffffffffffffffffffffffff91610e61565b16610c3e5783845b60ff87168110610bf45750610328608460243501602435600401610e0d565b15610bc7576103476fffffffffffffffffffffffffffffffff91610e61565b1603610b4357604051927fdce0b4e400000000000000000000000000000000000000000000000000000000845260208460048173ffffffffffffffffffffffffffffffffffffffff7f0000000000000000000000000000000000000000000000000000000000000000165afa938415610b38578594610b00575b50604051957ffc530b7d00000000000000000000000000000000000000000000000000000000875260208760048173ffffffffffffffffffffffffffffffffffffffff7f0000000000000000000000000000000000000000000000000000000000000000165afa968715610a36578697610acc575b50861560ff8216808902899004141715610a9f5761045960ff8216880286610e7e565b3403610a4157602060405180967f85396d2b00000000000000000000000000000000000000000000000000000000825260406004830152818061060961051f6004356004016104bc6104ab8280610eba565b6060604488015260a4870191610f0a565b6105106105036104d160246004350185610eba565b7fffffffffffffffffffffffffffffffffffffffffffffffffffffffffffffffbc9491858a84030160648b0152610f0a565b9260446004350190610eba565b91868403016084870152610f0a565b7ffffffffffffffffffffffffffffffffffffffffffffffffffffffffffffffffc83820301602484015261ffff8061055b602435600401610f49565b16825261056b6024803501610f49565b168782015273ffffffffffffffffffffffffffffffffffffffff610593604460243501610d68565b1660408201526fffffffffffffffffffffffffffffffff6105b8606460243501610f58565b1660608201526105e66105d5608460243501602435600401610f75565b60c0608085015260c0840191610fc8565b906105fb60a460243501602435600401610f75565b9160a0818503910152610fc8565b039173ffffffffffffffffffffffffffffffffffffffff7f0000000000000000000000000000000000000000000000000000000000000000165af1948515610a365786956109e5575b5073ffffffffffffffffffffffffffffffffffffffff85163b156109c3576040517fa22cb46500000000000000000000000000000000000000000000000000000000815273ffffffffffffffffffffffffffffffffffffffff7f00000000000000000000000000000000000000000000000000000000000000001660048201526001602482015286816044818373ffffffffffffffffffffffffffffffffffffffff8b165af180156109da576109c7575b5073ffffffffffffffffffffffffffffffffffffffff7f0000000000000000000000000000000000000000000000000000000000000000163b156109c357604051937fd59b5d7e000000000000000000000000000000000000000000000000000000008552816064860173ffffffffffffffffffffffffffffffffffffffff8816600488015260606024880152526084850192875b83811061099057505086977ffffffffffffffffffffffffffffffffffffffffffffffffffffffffffffffffc8685999899030160448701528184527f07ffffffffffffffffffffffffffffffffffffffffffffffffffffffffffffff821161098c5760ff60208789978197829660051b80928583013701030193160273ffffffffffffffffffffffffffffffffffffffff7f0000000000000000000000000000000000000000000000000000000000000000165af180156109815761096d575b505073ffffffffffffffffffffffffffffffffffffffff7f0000000000000000000000000000000000000000000000000000000000000000163b1561095e576040517f763e7da600000000000000000000000000000000000000000000000000000000815273ffffffffffffffffffffffffffffffffffffffff8216600482015233602482015282816044818373ffffffffffffffffffffffffffffffffffffffff7f0000000000000000000000000000000000000000000000000000000000000000165af180156109625761094a575b60208273ffffffffffffffffffffffffffffffffffffffff60405191168152f35b6109548391610d89565b61095e5781610929565b5080fd5b6040513d85823e3d90fd5b61097690610d89565b61095e578138610858565b6040513d84823e3d90fd5b8680fd5b909360208060019273ffffffffffffffffffffffffffffffffffffffff6109b689610d68565b1681520195019101610798565b8580fd5b6109d390969196610d89565b9438610703565b6040513d89823e3d90fd5b9094506020813d602011610a2e575b81610a0160209383610dcc565b810103126109c3575173ffffffffffffffffffffffffffffffffffffffff811681036109c3579338610652565b3d91506109f4565b6040513d88823e3d90fd5b60646040517f39973ba400000000000000000000000000000000000000000000000000000000815260206004820152601160248201527f494e56414c49445f4645455f544f54414c0000000000000000000000000000006044820152fd5b6024867f4e487b710000000000000000000000000000000000000000000000000000000081526011600452fd5b9096506020813d602011610af8575b81610ae860209383610dcc565b810103126109c357519538610436565b3d9150610adb565b9093506020813d602011610b30575b81610b1c60209383610dcc565b81010312610b2c575192386103c1565b8480fd5b3d9150610b0f565b6040513d87823e3d90fd5b60846040517f39973ba400000000000000000000000000000000000000000000000000000000815260206004820152602b60248201527f544f54414c5f414d4f554e545f4d5553545f4d415443485f465245455f4d494e60448201527f54494e475f414d4f554e540000000000000000000000000000000000000000006064820152fd5b6024867f4e487b710000000000000000000000000000000000000000000000000000000081526032600452fd5b9083821015610bc757610c0e908260051b84013590610e7e565b907fffffffffffffffffffffffffffffffffffffffffffffffffffffffffffffffff8114610a9f57600101610309565b60646040517f39973ba400000000000000000000000000000000000000000000000000000000815260206004820152601660248201527f4d5553545f484156455f465245455f4d494e54494e47000000000000000000006044820152fd5b6024857f4e487b710000000000000000000000000000000000000000000000000000000081526032600452fd5b90503461095e57817ffffffffffffffffffffffffffffffffffffffffffffffffffffffffffffffffc36011261095e5760209073ffffffffffffffffffffffffffffffffffffffff7f0000000000000000000000000000000000000000000000000000000000000000168152f35b9181601f840112156101825782359167ffffffffffffffff8311610182576020808501948460051b01011161018257565b359073ffffffffffffffffffffffffffffffffffffffff8216820361018257565b67ffffffffffffffff8111610d9d57604052565b7f4e487b7100000000000000000000000000000000000000000000000000000000600052604160045260246000fd5b90601f7fffffffffffffffffffffffffffffffffffffffffffffffffffffffffffffffe0910116810190811067ffffffffffffffff821117610d9d57604052565b9035907fffffffffffffffffffffffffffffffffffffffffffffffffffffffffffffffe181360301821215610182570180359067ffffffffffffffff821161018257602001918160051b3603831361018257565b356fffffffffffffffffffffffffffffffff811681036101825790565b91908201809211610e8b57565b7f4e487b7100000000000000000000000000000000000000000000000000000000600052601160045260246000fd5b90357fffffffffffffffffffffffffffffffffffffffffffffffffffffffffffffffe18236030181121561018257016020813591019167ffffffffffffffff821161018257813603831361018257565b601f82602094937fffffffffffffffffffffffffffffffffffffffffffffffffffffffffffffffe0938186528686013760008582860101520116010190565b359061ffff8216820361018257565b35906fffffffffffffffffffffffffffffffff8216820361018257565b90357fffffffffffffffffffffffffffffffffffffffffffffffffffffffffffffffe18236030181121561018257016020813591019167ffffffffffffffff8211610182578160051b3603831361018257565b91908082526020809201929160005b828110610fe5575050505090565b9091929382806001926fffffffffffffffffffffffffffffffff61100889610f58565b16815201950193929101610fd756fea26469706673582212208b214aa096cecde802098c04211aefd35756416519384675ab42793cedf1ea7d64736f6c63430008140033",
  "linkReferences": {},
  "deployedLinkReferences": {}
}