{
  "_format": "hh-sol-artifact-1",
  "contractName": "MCV2_Token",
  "sourceName": "contracts/MCV2_Token.sol",
  "abi": [
    {
      "inputs": [
        {
          "internalType": "address",
          "name": "spender",
          "type": "address"
        },
        {
          "internalType": "uint256",
          "name": "allowance",
          "type": "uint256"
        },
        {
          "internalType": "uint256",
          "name": "needed",
          "type": "uint256"
        }
      ],
      "name": "ERC20InsufficientAllowance",
      "type": "error"
    },
    {
      "inputs": [
        {
          "internalType": "address",
          "name": "sender",
          "type": "address"
        },
        {
          "internalType": "uint256",
          "name": "balance",
          "type": "uint256"
        },
        {
          "internalType": "uint256",
          "name": "needed",
          "type": "uint256"
        }
      ],
      "name": "ERC20InsufficientBalance",
      "type": "error"
    },
    {
      "inputs": [
        {
          "internalType": "address",
          "name": "approver",
          "type": "address"
        }
      ],
      "name": "ERC20InvalidApprover",
      "type": "error"
    },
    {
      "inputs": [
        {
          "internalType": "address",
          "name": "receiver",
          "type": "address"
        }
      ],
      "name": "ERC20InvalidReceiver",
      "type": "error"
    },
    {
      "inputs": [
        {
          "internalType": "address",
          "name": "sender",
          "type": "address"
        }
      ],
      "name": "ERC20InvalidSender",
      "type": "error"
    },
    {
      "inputs": [
        {
          "internalType": "address",
          "name": "spender",
          "type": "address"
        }
      ],
      "name": "ERC20InvalidSpender",
      "type": "error"
    },
    {
      "inputs": [],
      "name": "MCV2_Token__AlreadyInitialized",
      "type": "error"
    },
    {
      "inputs": [],
      "name": "MCV2_Token__PermissionDenied",
      "type": "error"
    },
    {
      "anonymous": false,
      "inputs": [
        {
          "indexed": true,
          "internalType": "address",
          "name": "owner",
          "type": "address"
        },
        {
          "indexed": true,
          "internalType": "address",
          "name": "spender",
          "type": "address"
        },
        {
          "indexed": false,
          "internalType": "uint256",
          "name": "value",
          "type": "uint256"
        }
      ],
      "name": "Approval",
      "type": "event"
    },
    {
      "anonymous": false,
      "inputs": [
        {
          "indexed": true,
          "internalType": "address",
          "name": "from",
          "type": "address"
        },
        {
          "indexed": true,
          "internalType": "address",
          "name": "to",
          "type": "address"
        },
        {
          "indexed": false,
          "internalType": "uint256",
          "name": "value",
          "type": "uint256"
        }
      ],
      "name": "Transfer",
      "type": "event"
    },
    {
      "inputs": [
        {
          "internalType": "address",
          "name": "owner",
          "type": "address"
        },
        {
          "internalType": "address",
          "name": "spender",
          "type": "address"
        }
      ],
      "name": "allowance",
      "outputs": [
        {
          "internalType": "uint256",
          "name": "",
          "type": "uint256"
        }
      ],
      "stateMutability": "view",
      "type": "function"
    },
    {
      "inputs": [
        {
          "internalType": "address",
          "name": "spender",
          "type": "address"
        },
        {
          "internalType": "uint256",
          "name": "value",
          "type": "uint256"
        }
      ],
      "name": "approve",
      "outputs": [
        {
          "internalType": "bool",
          "name": "",
          "type": "bool"
        }
      ],
      "stateMutability": "nonpayable",
      "type": "function"
    },
    {
      "inputs": [
        {
          "internalType": "address",
          "name": "account",
          "type": "address"
        }
      ],
      "name": "balanceOf",
      "outputs": [
        {
          "internalType": "uint256",
          "name": "",
          "type": "uint256"
        }
      ],
      "stateMutability": "view",
      "type": "function"
    },
    {
      "inputs": [],
      "name": "bond",
      "outputs": [
        {
          "internalType": "address",
          "name": "",
          "type": "address"
        }
      ],
      "stateMutability": "view",
      "type": "function"
    },
    {
      "inputs": [
        {
          "internalType": "address",
          "name": "account",
          "type": "address"
        },
        {
          "internalType": "uint256",
          "name": "amount",
          "type": "uint256"
        }
      ],
      "name": "burnByBond",
      "outputs": [],
      "stateMutability": "nonpayable",
      "type": "function"
    },
    {
      "inputs": [],
      "name": "decimals",
      "outputs": [
        {
          "internalType": "uint8",
          "name": "",
          "type": "uint8"
        }
      ],
      "stateMutability": "view",
      "type": "function"
    },
    {
      "inputs": [
        {
          "internalType": "string",
          "name": "name_",
          "type": "string"
        },
        {
          "internalType": "string",
          "name": "symbol_",
          "type": "string"
        }
      ],
      "name": "init",
      "outputs": [],
      "stateMutability": "nonpayable",
      "type": "function"
    },
    {
      "inputs": [
        {
          "internalType": "address",
          "name": "to",
          "type": "address"
        },
        {
          "internalType": "uint256",
          "name": "amount",
          "type": "uint256"
        }
      ],
      "name": "mintByBond",
      "outputs": [],
      "stateMutability": "nonpayable",
      "type": "function"
    },
    {
      "inputs": [],
      "name": "name",
      "outputs": [
        {
          "internalType": "string",
          "name": "",
          "type": "string"
        }
      ],
      "stateMutability": "view",
      "type": "function"
    },
    {
      "inputs": [],
      "name": "symbol",
      "outputs": [
        {
          "internalType": "string",
          "name": "",
          "type": "string"
        }
      ],
      "stateMutability": "view",
      "type": "function"
    },
    {
      "inputs": [],
      "name": "totalSupply",
      "outputs": [
        {
          "internalType": "uint256",
          "name": "",
          "type": "uint256"
        }
      ],
      "stateMutability": "view",
      "type": "function"
    },
    {
      "inputs": [
        {
          "internalType": "address",
          "name": "to",
          "type": "address"
        },
        {
          "internalType": "uint256",
          "name": "value",
          "type": "uint256"
        }
      ],
      "name": "transfer",
      "outputs": [
        {
          "internalType": "bool",
          "name": "",
          "type": "bool"
        }
      ],
      "stateMutability": "nonpayable",
      "type": "function"
    },
    {
      "inputs": [
        {
          "internalType": "address",
          "name": "from",
          "type": "address"
        },
        {
          "internalType": "address",
          "name": "to",
          "type": "address"
        },
        {
          "internalType": "uint256",
          "name": "value",
          "type": "uint256"
        }
      ],
      "name": "transferFrom",
      "outputs": [
        {
          "internalType": "bool",
          "name": "",
          "type": "bool"
        }
      ],
      "stateMutability": "nonpayable",
      "type": "function"
    }
  ],
  "bytecode": "0x6080806040523461001657611213908161001c8239f35b600080fdfe608060409080825260048036101561001657600080fd5b600091823560e01c90816306fdde0314610d0e57508063095ea7b314610c0857806318160ddd14610bcb5780631b5ad8b514610a9057806323b872dd14610a35578063313ce567146109fb57806364c9ec6f146109a55780637029144c146104f757806370a082311461049657806395d89b41146102fb578063a9059cbb146102ac578063dd62ed3e146102385763f4efe8f2146100b357600080fd5b3461023457827ffffffffffffffffffffffffffffffffffffffffffffffffffffffffffffffffc360112610234576100e9610e7b565b906024359073ffffffffffffffffffffffffffffffffffffffff8060055460081c1633810361020c578361011d9186611088565b83169283156101dd5783855284602052858520549183831061017e5750508184957fddf252ad1be2c89b69c2b068fc378daa952ba7f163c4a11628f55a4df523b3ef936020938688528785520381872055816002540360025551908152a380f35b6101d9848489519485947fe450d38c000000000000000000000000000000000000000000000000000000008652850160409194939273ffffffffffffffffffffffffffffffffffffffff606083019616825260208201520152565b0390fd5b602482868851917f96c6fd1e000000000000000000000000000000000000000000000000000000008352820152fd5b8287517f89d1b55f000000000000000000000000000000000000000000000000000000008152fd5b5080fd5b82843461023457807ffffffffffffffffffffffffffffffffffffffffffffffffffffffffffffffffc3601126102345780602092610274610e7b565b61027c610ea3565b73ffffffffffffffffffffffffffffffffffffffff91821683526001865283832091168252845220549051908152f35b82843461023457807ffffffffffffffffffffffffffffffffffffffffffffffffffffffffffffffffc360112610234576020906102f46102ea610e7b565b6024359033610f47565b5160018152f35b50913461023457817ffffffffffffffffffffffffffffffffffffffffffffffffffffffffffffffffc360112610234578051908183855461033b81610ef4565b8084529060019081811690811561043257506001146103d2575b505003601f017fffffffffffffffffffffffffffffffffffffffffffffffffffffffffffffffe01682019267ffffffffffffffff8411838510176103a657508291826103a2925282610e15565b0390f35b806041867f4e487b71000000000000000000000000000000000000000000000000000000006024945252fd5b8787529092915085907f8a35acfbc15ff81a39ae7d344fd709f28e8600b4aa8c65c6b64bfe7fe36bd19b5b84831061041757509192508201602001905081601f610355565b81935090816020925483858a010152019101909185926103fd565b601f9450602092507fffffffffffffffffffffffffffffffffffffffffffffffffffffffffffffffe0959391507fffffffffffffffffffffffffffffffffffffffffffffffffffffffffffffff001682840152151560051b82010191819350610355565b8284346102345760207ffffffffffffffffffffffffffffffffffffffffffffffffffffffffffffffffc360112610234578060209273ffffffffffffffffffffffffffffffffffffffff6104e8610e7b565b16815280845220549051908152f35b508290346109a157817ffffffffffffffffffffffffffffffffffffffffffffffffffffffffffffffffc3601126109a15767ffffffffffffffff813581811161099d576105479036908401610ec6565b9190602435828111610999576105609036908601610ec6565b9260059687549060ff821661097157507fffffffffffffffffffffffffffffffffffffffffffffffffffffffffffffff0016600190811788559392919080861161094557600395806105b28854610ef4565b94601f958681116108d9575b508b90868311600114610823578c92610818575b50507fffffffffffffffffffffffffffffffffffffffffffffffffffffffffffffffff82881b92891b1c19161786555b83116107ec576106128654610ef4565b82811161078f575b50879183116001146106d05790829188936106a5575b5050807fffffffffffffffffffffffffffffffffffffffffffffffffffffffffffffffff92931b931b1c19161790555b80547fffffffffffffffffffffff0000000000000000000000000000000000000000ff163360081b74ffffffffffffffffffffffffffffffffffffffff001617905580f35b01359150807fffffffffffffffffffffffffffffffffffffffffffffffffffffffffffffffff610630565b90827fffffffffffffffffffffffffffffffffffffffffffffffffffffffffffffffe08195969416937f8a35acfbc15ff81a39ae7d344fd709f28e8600b4aa8c65c6b64bfe7fe36bd19b948a5b88828210610776575050821161073d575b5050505050811b019055610660565b7fffffffffffffffffffffffffffffffffffffffffffffffffffffffffffffffff9160f8911b161c19910135169055858080838161072e565b868601358855909601956020948501948894500161071d565b7f8a35acfbc15ff81a39ae7d344fd709f28e8600b4aa8c65c6b64bfe7fe36bd19b838086018a1c820192602087106107e3575b01891c019085905b8281106107d857505061061a565b8a81550185906107ca565b925081926107c2565b6024886041887f4e487b7100000000000000000000000000000000000000000000000000000000835252fd5b013590508b806105d2565b8c917fffffffffffffffffffffffffffffffffffffffffffffffffffffffffffffffe08a95168b84527fc2575a0e9e593c00f959f8c92f12db2869c3395a3b0502d05e2516446f71f85b935b8181106108c15750841161088b575b505050811b018655610602565b01357fffffffffffffffffffffffffffffffffffffffffffffffffffffffffffffffff838b1b60f8161c191690558b808061087e565b8284013585558b96909401936020928301920161086f565b909150888c527fc2575a0e9e593c00f959f8c92f12db2869c3395a3b0502d05e2516446f71f85b868085018d1c8201926020861061093c575b918d8b928796959401901c01915b82811061092e5750506105be565b8e81558594508a9101610920565b92508192610912565b6024896041897f4e487b7100000000000000000000000000000000000000000000000000000000835252fd5b8790517f5253b271000000000000000000000000000000000000000000000000000000008152fd5b8680fd5b8480fd5b8280fd5b82843461023457817ffffffffffffffffffffffffffffffffffffffffffffffffffffffffffffffffc3601126102345760209073ffffffffffffffffffffffffffffffffffffffff60055460081c169051908152f35b82843461023457817ffffffffffffffffffffffffffffffffffffffffffffffffffffffffffffffffc360112610234576020905160128152f35b8284346102345760607ffffffffffffffffffffffffffffffffffffffffffffffffffffffffffffffffc360112610234576020906102f4610a74610e7b565b610a7c610ea3565b60443591610a8b833383611088565b610f47565b5082346109a157807ffffffffffffffffffffffffffffffffffffffffffffffffffffffffffffffffc3601126109a157610ac8610e7b565b906024359173ffffffffffffffffffffffffffffffffffffffff908160055460081c163303610ba35716928315610b755760025490838201809211610b49575084927fddf252ad1be2c89b69c2b068fc378daa952ba7f163c4a11628f55a4df523b3ef9260209260025585855284835280852082815401905551908152a380f35b8560116024927f4e487b7100000000000000000000000000000000000000000000000000000000835252fd5b8460249251917fec442f05000000000000000000000000000000000000000000000000000000008352820152fd5b8483517f89d1b55f000000000000000000000000000000000000000000000000000000008152fd5b82843461023457817ffffffffffffffffffffffffffffffffffffffffffffffffffffffffffffffffc360112610234576020906002549051908152f35b508290346109a157817ffffffffffffffffffffffffffffffffffffffffffffffffffffffffffffffffc3601126109a157610c41610e7b565b602435903315610cdf5773ffffffffffffffffffffffffffffffffffffffff16918215610cb057508083602095338152600187528181208582528752205582519081527f8c5be1e5ebec7d5bd14f71427d1e84f3dd0314c0f7b2291e5b200ac8c7c3b925843392a35160018152f35b602490858551917f94280d62000000000000000000000000000000000000000000000000000000008352820152fd5b602483868651917fe602df05000000000000000000000000000000000000000000000000000000008352820152fd5b91939050346109a157827ffffffffffffffffffffffffffffffffffffffffffffffffffffffffffffffffc3601126109a1578183600354610d4e81610ef4565b808452906001908181169081156104325750600114610db457505003601f017fffffffffffffffffffffffffffffffffffffffffffffffffffffffffffffffe01682019267ffffffffffffffff8411838510176103a657508291826103a2925282610e15565b600387529092915085907fc2575a0e9e593c00f959f8c92f12db2869c3395a3b0502d05e2516446f71f85b5b848310610dfa57509192508201602001905081601f610355565b81935090816020925483858a01015201910190918592610de0565b60208082528251818301819052939260005b858110610e67575050507fffffffffffffffffffffffffffffffffffffffffffffffffffffffffffffffe0601f8460006040809697860101520116010190565b818101830151848201604001528201610e27565b6004359073ffffffffffffffffffffffffffffffffffffffff82168203610e9e57565b600080fd5b6024359073ffffffffffffffffffffffffffffffffffffffff82168203610e9e57565b9181601f84011215610e9e5782359167ffffffffffffffff8311610e9e5760208381860195010111610e9e57565b90600182811c92168015610f3d575b6020831014610f0e57565b7f4e487b7100000000000000000000000000000000000000000000000000000000600052602260045260246000fd5b91607f1691610f03565b9173ffffffffffffffffffffffffffffffffffffffff80841692831561105757169283156110265760009083825281602052604082205490838210610fce575091604082827fddf252ad1be2c89b69c2b068fc378daa952ba7f163c4a11628f55a4df523b3ef958760209652828652038282205586815220818154019055604051908152a3565b6040517fe450d38c00000000000000000000000000000000000000000000000000000000815273ffffffffffffffffffffffffffffffffffffffff919091166004820152602481019190915260448101839052606490fd5b60246040517fec442f0500000000000000000000000000000000000000000000000000000000815260006004820152fd5b60246040517f96c6fd1e00000000000000000000000000000000000000000000000000000000815260006004820152fd5b9173ffffffffffffffffffffffffffffffffffffffff8093169160009383855260016020526040938486209183169182875260205284862054927fffffffffffffffffffffffffffffffffffffffffffffffffffffffffffffffff84036110f3575b50505050505050565b84841061118757508015611157578115611127578552600160205283852090855260205203912055388080808080806110ea565b6024868651907f94280d620000000000000000000000000000000000000000000000000000000082526004820152fd5b6024868651907fe602df050000000000000000000000000000000000000000000000000000000082526004820152fd5b85517ffb8f41b200000000000000000000000000000000000000000000000000000000815273ffffffffffffffffffffffffffffffffffffffff9190911660048201526024810184905260448101859052606490fdfea2646970667358221220a299d5a94d67b16d981ef9fcfb2376109dec5148194723405d2ab8f334ca68df64736f6c63430008140033",
  "linkReferences": {},
  "deployedLinkReferences": {}
}