{
  "_format": "hh-sol-artifact-1",
  "contractName": "MerkleDistributor",
  "sourceName": "contracts/MerkleDistributor.sol",
  "abi": [
    {
      "inputs": [
        {
          "internalType": "address",
          "name": "target",
          "type": "address"
        }
      ],
      "name": "AddressEmptyCode",
      "type": "error"
    },
    {
      "inputs": [
        {
          "internalType": "address",
          "name": "account",
          "type": "address"
        }
      ],
      "name": "AddressInsufficientBalance",
      "type": "error"
    },
    {
      "inputs": [],
      "name": "FailedInnerCall",
      "type": "error"
    },
    {
      "inputs": [],
      "name": "MerkleDistributor__AlreadyClaimed",
      "type": "error"
    },
    {
      "inputs": [],
      "name": "MerkleDistributor__AlreadyRefunded",
      "type": "error"
    },
    {
      "inputs": [],
      "name": "MerkleDistributor__Finished",
      "type": "error"
    },
    {
      "inputs": [],
      "name": "MerkleDistributor__InvalidCaller",
      "type": "error"
    },
    {
      "inputs": [],
      "name": "MerkleDistributor__InvalidPaginationParameters",
      "type": "error"
    },
    {
      "inputs": [
        {
          "internalType": "string",
          "name": "param",
          "type": "string"
        }
      ],
      "name": "MerkleDistributor__InvalidParams",
      "type": "error"
    },
    {
      "inputs": [],
      "name": "MerkleDistributor__InvalidProof",
      "type": "error"
    },
    {
      "inputs": [],
      "name": "MerkleDistributor__NoClaimableTokensLeft",
      "type": "error"
    },
    {
      "inputs": [],
      "name": "MerkleDistributor__NotStarted",
      "type": "error"
    },
    {
      "inputs": [],
      "name": "MerkleDistributor__NothingToRefund",
      "type": "error"
    },
    {
      "inputs": [],
      "name": "MerkleDistributor__PermissionDenied",
      "type": "error"
    },
    {
      "inputs": [],
      "name": "MerkleDistributor__Refunded",
      "type": "error"
    },
    {
      "inputs": [
        {
          "internalType": "address",
          "name": "token",
          "type": "address"
        }
      ],
      "name": "SafeERC20FailedOperation",
      "type": "error"
    },
    {
      "anonymous": false,
      "inputs": [
        {
          "indexed": true,
          "internalType": "uint256",
          "name": "distributionId",
          "type": "uint256"
        },
        {
          "indexed": false,
          "internalType": "address",
          "name": "account",
          "type": "address"
        }
      ],
      "name": "Claimed",
      "type": "event"
    },
    {
      "anonymous": false,
      "inputs": [
        {
          "indexed": true,
          "internalType": "uint256",
          "name": "distributionId",
          "type": "uint256"
        },
        {
          "indexed": true,
          "internalType": "address",
          "name": "token",
          "type": "address"
        },
        {
          "indexed": false,
          "internalType": "bool",
          "name": "isERC20",
          "type": "bool"
        },
        {
          "indexed": false,
          "internalType": "uint40",
          "name": "startTime",
          "type": "uint40"
        }
      ],
      "name": "Created",
      "type": "event"
    },
    {
      "anonymous": false,
      "inputs": [
        {
          "indexed": true,
          "internalType": "uint256",
          "name": "distributionId",
          "type": "uint256"
        },
        {
          "indexed": false,
          "internalType": "uint256",
          "name": "amount",
          "type": "uint256"
        }
      ],
      "name": "Refunded",
      "type": "event"
    },
    {
      "inputs": [
        {
          "internalType": "uint256",
          "name": "distributionId",
          "type": "uint256"
        },
        {
          "internalType": "bytes32[]",
          "name": "merkleProof",
          "type": "bytes32[]"
        }
      ],
      "name": "claim",
      "outputs": [],
      "stateMutability": "nonpayable",
      "type": "function"
    },
    {
      "inputs": [
        {
          "internalType": "address",
          "name": "token",
          "type": "address"
        },
        {
          "internalType": "bool",
          "name": "isERC20",
          "type": "bool"
        },
        {
          "internalType": "uint176",
          "name": "amountPerClaim",
          "type": "uint176"
        },
        {
          "internalType": "uint40",
          "name": "walletCount",
          "type": "uint40"
        },
        {
          "internalType": "uint40",
          "name": "startTime",
          "type": "uint40"
        },
        {
          "internalType": "uint40",
          "name": "endTime",
          "type": "uint40"
        },
        {
          "internalType": "bytes32",
          "name": "merkleRoot",
          "type": "bytes32"
        },
        {
          "internalType": "string",
          "name": "title",
          "type": "string"
        },
        {
          "internalType": "string",
          "name": "ipfsCID",
          "type": "string"
        }
      ],
      "name": "createDistribution",
      "outputs": [],
      "stateMutability": "nonpayable",
      "type": "function"
    },
    {
      "inputs": [],
      "name": "distributionCount",
      "outputs": [
        {
          "internalType": "uint256",
          "name": "",
          "type": "uint256"
        }
      ],
      "stateMutability": "view",
      "type": "function"
    },
    {
      "inputs": [
        {
          "internalType": "uint256",
          "name": "",
          "type": "uint256"
        }
      ],
      "name": "distributions",
      "outputs": [
        {
          "internalType": "address",
          "name": "token",
          "type": "address"
        },
        {
          "internalType": "bool",
          "name": "isERC20",
          "type": "bool"
        },
        {
          "internalType": "uint40",
          "name": "walletCount",
          "type": "uint40"
        },
        {
          "internalType": "uint40",
          "name": "claimedCount",
          "type": "uint40"
        },
        {
          "internalType": "uint176",
          "name": "amountPerClaim",
          "type": "uint176"
        },
        {
          "internalType": "uint40",
          "name": "startTime",
          "type": "uint40"
        },
        {
          "internalType": "uint40",
          "name": "endTime",
          "type": "uint40"
        },
        {
          "internalType": "address",
          "name": "owner",
          "type": "address"
        },
        {
          "internalType": "uint40",
          "name": "refundedAt",
          "type": "uint40"
        },
        {
          "internalType": "bytes32",
          "name": "merkleRoot",
          "type": "bytes32"
        },
        {
          "internalType": "string",
          "name": "title",
          "type": "string"
        },
        {
          "internalType": "string",
          "name": "ipfsCID",
          "type": "string"
        }
      ],
      "stateMutability": "view",
      "type": "function"
    },
    {
      "inputs": [
        {
          "internalType": "uint256",
          "name": "distributionId",
          "type": "uint256"
        }
      ],
      "name": "getAmountClaimed",
      "outputs": [
        {
          "internalType": "uint256",
          "name": "",
          "type": "uint256"
        }
      ],
      "stateMutability": "view",
      "type": "function"
    },
    {
      "inputs": [
        {
          "internalType": "uint256",
          "name": "distributionId",
          "type": "uint256"
        }
      ],
      "name": "getAmountLeft",
      "outputs": [
        {
          "internalType": "uint256",
          "name": "",
          "type": "uint256"
        }
      ],
      "stateMutability": "view",
      "type": "function"
    },
    {
      "inputs": [
        {
          "internalType": "address",
          "name": "owner",
          "type": "address"
        },
        {
          "internalType": "uint256",
          "name": "start",
          "type": "uint256"
        },
        {
          "internalType": "uint256",
          "name": "stop",
          "type": "uint256"
        }
      ],
      "name": "getDistributionIdsByOwner",
      "outputs": [
        {
          "internalType": "uint256[]",
          "name": "ids",
          "type": "uint256[]"
        }
      ],
      "stateMutability": "view",
      "type": "function"
    },
    {
      "inputs": [
        {
          "internalType": "address",
          "name": "token",
          "type": "address"
        },
        {
          "internalType": "uint256",
          "name": "start",
          "type": "uint256"
        },
        {
          "internalType": "uint256",
          "name": "stop",
          "type": "uint256"
        }
      ],
      "name": "getDistributionIdsByToken",
      "outputs": [
        {
          "internalType": "uint256[]",
          "name": "ids",
          "type": "uint256[]"
        }
      ],
      "stateMutability": "view",
      "type": "function"
    },
    {
      "inputs": [
        {
          "internalType": "uint256",
          "name": "distributionId",
          "type": "uint256"
        },
        {
          "internalType": "address",
          "name": "wallet",
          "type": "address"
        }
      ],
      "name": "isClaimed",
      "outputs": [
        {
          "internalType": "bool",
          "name": "",
          "type": "bool"
        }
      ],
      "stateMutability": "view",
      "type": "function"
    },
    {
      "inputs": [
        {
          "internalType": "uint256",
          "name": "distributionId",
          "type": "uint256"
        }
      ],
      "name": "isWhitelistOnly",
      "outputs": [
        {
          "internalType": "bool",
          "name": "",
          "type": "bool"
        }
      ],
      "stateMutability": "view",
      "type": "function"
    },
    {
      "inputs": [
        {
          "internalType": "uint256",
          "name": "distributionId",
          "type": "uint256"
        },
        {
          "internalType": "address",
          "name": "wallet",
          "type": "address"
        },
        {
          "internalType": "bytes32[]",
          "name": "merkleProof",
          "type": "bytes32[]"
        }
      ],
      "name": "isWhitelisted",
      "outputs": [
        {
          "internalType": "bool",
          "name": "",
          "type": "bool"
        }
      ],
      "stateMutability": "view",
      "type": "function"
    },
    {
      "inputs": [
        {
          "internalType": "address",
          "name": "",
          "type": "address"
        },
        {
          "internalType": "address",
          "name": "",
          "type": "address"
        },
        {
          "internalType": "uint256",
          "name": "",
          "type": "uint256"
        },
        {
          "internalType": "uint256",
          "name": "",
          "type": "uint256"
        },
        {
          "internalType": "bytes",
          "name": "",
          "type": "bytes"
        }
      ],
      "name": "onERC1155Received",
      "outputs": [
        {
          "internalType": "bytes4",
          "name": "",
          "type": "bytes4"
        }
      ],
      "stateMutability": "pure",
      "type": "function"
    },
    {
      "inputs": [
        {
          "internalType": "uint256",
          "name": "distributionId",
          "type": "uint256"
        }
      ],
      "name": "refund",
      "outputs": [],
      "stateMutability": "nonpayable",
      "type": "function"
    }
  ],
  "bytecode": "0x60808060405234610016576120be908161001c8239f35b600080fdfe6080604052600436101561001257600080fd5b6000803560e01c8063169a5027146118335780631e42200014611779578063278ecde1146114f65780632f52ebb7146110b25780634487d3df14610f8657806358c064f214610f0b57806361f66c08146104ab57806367e9327e146103a25780639fa08e6f14610270578063c65c3d9514610235578063cf45236e146101f0578063d2ef0795146101775763f23a6e61146100ac57600080fd5b346101745760a07ffffffffffffffffffffffffffffffffffffffffffffffffffffffffffffffffc360112610174576100e36118a2565b506100ec61187f565b5060843567ffffffffffffffff8111610170573660238201121561017057806004013561011881611c31565b6101256040519182611a0f565b818152366024838501011161016c57816024602094018483013701015260206040517ff23a6e61000000000000000000000000000000000000000000000000000000008152f35b8380fd5b5080fd5b80fd5b50346101745760407ffffffffffffffffffffffffffffffffffffffffffffffffffffffffffffffffc3601126101745760066101b161187f565b73ffffffffffffffffffffffffffffffffffffffff6101d16004356118f6565b50911660005201602052602060ff604060002054166040519015158152f35b50346101745760207ffffffffffffffffffffffffffffffffffffffffffffffffffffffffffffffffc36011261017457602061022d600435611fe2565b604051908152f35b503461017457807ffffffffffffffffffffffffffffffffffffffffffffffffffffffffffffffffc3601126101745760209054604051908152f35b50346101745761027f36611ba1565b9291908380821080159061038e575b61036457835480911161035c575b508291815b85811061031e57506102b283612039565b93915b8581106102cf575b604051806102cb8782611bf6565b0390f35b6102d8816118f6565b505473ffffffffffffffffffffffffffffffffffffffff838116911614610302575b6001016102b5565b80610311600185019487611f9f565b528383036102fa576102bd565b610327816118f6565b505473ffffffffffffffffffffffffffffffffffffffff838116911614610351575b6001016102a1565b600190930192610349565b93503861029c565b60046040517ff6e01653000000000000000000000000000000000000000000000000000000008152fd5b5061271061039c8383611c6b565b1161028e565b5034610174576103b136611ba1565b92919083808210801590610497575b61036457835480911161048f575b508291815b85811061044e57506103e483612039565b93915b8581106103fc57604051806102cb8782611bf6565b6002610407826118f6565b50015473ffffffffffffffffffffffffffffffffffffffff838116911614610432575b6001016103e7565b80610441600185019487611f9f565b5283830361042a576102bd565b6002610459826118f6565b50015473ffffffffffffffffffffffffffffffffffffffff838116911614610484575b6001016103d3565b60019093019261047c565b9350386103ce565b506127106104a58383611c6b565b116103c0565b5034610174576101207ffffffffffffffffffffffffffffffffffffffffffffffffffffffffffffffffc360112610174576104e46118a2565b60249081351515823503610f075775ffffffffffffffffffffffffffffffffffffffffffff6044351660443503610f075764ffffffffff90816064351660643503610f0257816084351660843503610f02578160a4351660a43503610f025767ffffffffffffffff60e4351161016c576105633660e435600401611b73565b67ffffffffffffffff6101043511610efe576105853661010435600401611b73565b9173ffffffffffffffffffffffffffffffffffffffff851615610ea05775ffffffffffffffffffffffffffffffffffffffffffff6044351615610e4257856064351615610de457428660a435161115610d86578560a4351686608435161015610d2857875468010000000000000000811015610cd05760018101808a5561060b826118f6565b50508111610cfc5761061c906118f6565b5080547fffffffffffff00000000000000000000000000000000000000000000000000001673ffffffffffffffffffffffffffffffffffffffff8716178835151560a01b74ff0000000000000000000000000000000000000000161760643560a81b79ffffffffff0000000000000000000000000000000000000000001617815560843560b01b7affffffffff000000000000000000000000000000000000000000001660443575ffffffffffffffffffffffffffffffffffffffffffff161760a43560d81b7fffffffffff000000000000000000000000000000000000000000000000000000161760018201556002810180547fffffffffffffffffffffffff0000000000000000000000000000000000000000163317905560c43560038201559367ffffffffffffffff8211610cd057819061075d600487015461195d565b601f8111610c80575b508990601f8311600114610bba578a92610baf575b50507fffffffffffffffffffffffffffffffffffffffffffffffffffffffffffffffff8260011b9260031b1c19161760048401555b67ffffffffffffffff8211610b83576107cc600584015461195d565b601f8111610b3f575b508690601f8311600114610a945760059291889183610a89575b50507fffffffffffffffffffffffffffffffffffffffffffffffffffffffffffffffff8260011b9260031b1c1916179101555b8235156109a15775ffffffffffffffffffffffffffffffffffffffffffff6108508360643516604435611ca7565b16604051907f23b872dd000000000000000000000000000000000000000000000000000000006020830152338583015230604483015260648201526064815260a0810181811067ffffffffffffffff821117610973576040526108c99073ffffffffffffffffffffffffffffffffffffffff8316611cda565b8354917fffffffffffffffffffffffffffffffffffffffffffffffffffffffffffffffff83019283116109475773ffffffffffffffffffffffffffffffffffffffff7f395503978abf0bf7dd838e941dea654d5feebe88da8c0ce0a4262ed458e812ff9260409283519635151587526084351660208701521693a380f35b83857f4e487b710000000000000000000000000000000000000000000000000000000081526011600452fd5b847f4e487b710000000000000000000000000000000000000000000000000000000060005260416004526000fd5b836109b28360643516604435611ca7565b73ffffffffffffffffffffffffffffffffffffffff83163b15610170576040517ff242432a00000000000000000000000000000000000000000000000000000000815233600482015230602482015260006044820181905275ffffffffffffffffffffffffffffffffffffffffffff92909216606482015260a0608482015260a4810191909152818160c4818373ffffffffffffffffffffffffffffffffffffffff88165af18015610a7e57610a6a575b50506108c9565b610a73906119b0565b61016c578338610a63565b6040513d84823e3d90fd5b0135905038806107ef565b7fffffffffffffffffffffffffffffffffffffffffffffffffffffffffffffffe0831691600585018952602092838a20938a905b828210610b275750509160019391856005969410610aef575b505050811b01910155610822565b7fffffffffffffffffffffffffffffffffffffffffffffffffffffffffffffffff60f88560031b161c19910135169055388080610ae1565b80600185978294968801358155019601930190610ac8565b60058401885260208820601f840160051c810160208510610b7c575b601f830160051c82018110610b715750506107d5565b898155600101610b5b565b5080610b5b565b85877f4e487b710000000000000000000000000000000000000000000000000000000081526041600452fd5b01359050388061077b565b600487018b5260208b208b9450915b7fffffffffffffffffffffffffffffffffffffffffffffffffffffffffffffffe084168510610c685760019450837fffffffffffffffffffffffffffffffffffffffffffffffffffffffffffffffe0811610610c30575b505050811b0160048401556107b0565b7fffffffffffffffffffffffffffffffffffffffffffffffffffffffffffffffff60f88560031b161c19910135169055388080610c20565b81810135835560209485019460019093019201610bc9565b909150600486018a5260208a20601f840160051c810160208510610cc9575b90849392915b601f830160051c82018110610cbb575050610766565b8c8155859450600101610ca5565b5080610c9f565b87897f4e487b710000000000000000000000000000000000000000000000000000000081526041600452fd5b87897f4e487b710000000000000000000000000000000000000000000000000000000081526011600452fd5b6064876009604051917f948290d9000000000000000000000000000000000000000000000000000000008352602060048401528201527f737461727454696d6500000000000000000000000000000000000000000000006044820152fd5b6064876007604051917f948290d9000000000000000000000000000000000000000000000000000000008352602060048401528201527f656e6454696d65000000000000000000000000000000000000000000000000006044820152fd5b606487600b604051917f948290d9000000000000000000000000000000000000000000000000000000008352602060048401528201527f77616c6c6574436f756e740000000000000000000000000000000000000000006044820152fd5b606487600e604051917f948290d9000000000000000000000000000000000000000000000000000000008352602060048401528201527f616d6f756e74506572436c61696d0000000000000000000000000000000000006044820152fd5b6064876005604051917f948290d9000000000000000000000000000000000000000000000000000000008352602060048401528201527f746f6b656e0000000000000000000000000000000000000000000000000000006044820152fd5b8580fd5b600080fd5b8280fd5b50346101745760207ffffffffffffffffffffffffffffffffffffffffffffffffffffffffffffffffc360112610174576020610f486004356118f6565b50610f7d75ffffffffffffffffffffffffffffffffffffffffffff9164ffffffffff83600183015416915460d01c1690611ca7565b16604051908152f35b50346101745760207ffffffffffffffffffffffffffffffffffffffffffffffffffffffffffffffffc36011261017457600435815481101561017057610fcb906118f6565b5080546102cb6001830154916110a36002850154946003810154610ffd6005610ff660048501611a50565b9301611a50565b9360405197889773ffffffffffffffffffffffffffffffffffffffff908184168a5260ff8460a01c16151560208b015264ffffffffff8481809660a81c1660408d015260d01c1660608b015275ffffffffffffffffffffffffffffffffffffffffffff811660808b0152838160b01c1660a08b015260d81c60c08a0152811660e089015260a01c1661010087015261012086015261018080610140870152850190611b15565b90838203610160850152611b15565b50346101745760407ffffffffffffffffffffffffffffffffffffffffffffffffffffffffffffffffc3601126101745760043560243567ffffffffffffffff8111610f07576111059036906004016118c5565b61110e836118f6565b5091600183019182549164ffffffffff9242848260b01c16116114cc57429060d81c106114a25782600286015460a01c16611478576006850191336000528260205260ff6040600020541661144e57855484808260a81c169160d01c161015611424576003860154806113c45750505033320361139a575b33600052602052604060002060017fffffffffffffffffffffffffffffffffffffffffffffffffffffffffffffff008254161790558254906001818360d01c160190811161136d579060ff7effffffffff0000000000000000000000000000000000000000000000000000879360d01b167fff0000000000ffffffffffffffffffffffffffffffffffffffffffffffffffff83161780865560a01c1660001461129557505075ffffffffffffffffffffffffffffffffffffffffffff73ffffffffffffffffffffffffffffffffffffffff611268935416915416903390611eb1565b7f6aa3eac93d079e5e100b1029be716caa33586c96aa4baac390669fb5c2a212126020604051338152a280f35b75ffffffffffffffffffffffffffffffffffffffffffff91935073ffffffffffffffffffffffffffffffffffffffff1691541690803b15610f07576040517ff242432a00000000000000000000000000000000000000000000000000000000815230600482015233602482015260006044820181905275ffffffffffffffffffffffffffffffffffffffffffff93909316606482015260a0608482015260a48101929092528290829060c490829084905af18015610a7e57611359575b5050611268565b611362906119b0565b610170578138611352565b6024867f4e487b710000000000000000000000000000000000000000000000000000000081526011600452fd5b60046040517fc8d83bfc000000000000000000000000000000000000000000000000000000008152fd5b6113f16113f69360405160208101903360601b8252601481526113e6816119f3565b519020933691611e63565b611f24565b6111865760046040517f88eccfa7000000000000000000000000000000000000000000000000000000008152fd5b60046040517fb48589d6000000000000000000000000000000000000000000000000000000008152fd5b60046040517f493ab408000000000000000000000000000000000000000000000000000000008152fd5b60046040517f1b14e107000000000000000000000000000000000000000000000000000000008152fd5b60046040517fe6e67501000000000000000000000000000000000000000000000000000000008152fd5b60046040517f7b48d49e000000000000000000000000000000000000000000000000000000008152fd5b50346101745760207ffffffffffffffffffffffffffffffffffffffffffffffffffffffffffffffffc360112610174576004356002611534826118f6565b50015473ffffffffffffffffffffffffffffffffffffffff908116330361174f5761155e826118f6565b5090600282019081549264ffffffffff8460a01c166117255761158085611fe2565b9384156116fb5778ffffffffff00000000000000000000000000000000000000004260a01b167fffffffffffffff0000000000ffffffffffffffffffffffffffffffffffffffff821617845586825460ff8160a01c166000146116215750505083602093837fb7c1f9298a18c36af08bd57eabbfbeb04695f24d0438f67614741ec15fb5c4a9969461161794541691541690611eb1565b604051908152a280f35b84169450929150833b15610f075760c4908360405195869485937ff242432a00000000000000000000000000000000000000000000000000000000855230600486015216602484015281604484015287606484015260a060848401528160a48401525af180156116f0576116ba575b5060207fb7c1f9298a18c36af08bd57eabbfbeb04695f24d0438f67614741ec15fb5c4a991611617565b7fb7c1f9298a18c36af08bd57eabbfbeb04695f24d0438f67614741ec15fb5c4a991936116e86020926119b0565b939150611690565b6040513d86823e3d90fd5b60046040517ff89eb8c8000000000000000000000000000000000000000000000000000000008152fd5b60046040517ffd3179be000000000000000000000000000000000000000000000000000000008152fd5b60046040517f37e55bac000000000000000000000000000000000000000000000000000000008152fd5b50346101745760607ffffffffffffffffffffffffffffffffffffffffffffffffffffffffffffffffc360112610174576117b161187f565b906044359067ffffffffffffffff82116101745760206118296113f1856117db36600488016118c5565b929060036117ea6004356118f6565b500154926040517fffffffffffffffffffffffffffffffffffffffff0000000000000000000000008882019260601b168252601481526113e6816119f3565b6040519015158152f35b50346101745760207ffffffffffffffffffffffffffffffffffffffffffffffffffffffffffffffffc36011261017457602060036118726004356118f6565b5001541515604051908152f35b6024359073ffffffffffffffffffffffffffffffffffffffff82168203610f0257565b6004359073ffffffffffffffffffffffffffffffffffffffff82168203610f0257565b9181601f84011215610f025782359167ffffffffffffffff8311610f02576020808501948460051b010111610f0257565b90600091825481101561193057600790838052027f290decd9548b62a8d60345a988386fc84ba6bc95484008f6362f93160ef3e563019190565b6024837f4e487b710000000000000000000000000000000000000000000000000000000081526032600452fd5b90600182811c921680156119a6575b602083101461197757565b7f4e487b7100000000000000000000000000000000000000000000000000000000600052602260045260246000fd5b91607f169161196c565b67ffffffffffffffff81116119c457604052565b7f4e487b7100000000000000000000000000000000000000000000000000000000600052604160045260246000fd5b6040810190811067ffffffffffffffff8211176119c457604052565b90601f7fffffffffffffffffffffffffffffffffffffffffffffffffffffffffffffffe0910116810190811067ffffffffffffffff8211176119c457604052565b9060405191826000825492611a648461195d565b908184526001948581169081600014611ad35750600114611a90575b5050611a8e92500383611a0f565b565b9093915060005260209081600020936000915b818310611abb575050611a8e93508201013880611a80565b85548884018501529485019487945091830191611aa3565b9050611a8e9550602093507fffffffffffffffffffffffffffffffffffffffffffffffffffffffffffffff0091501682840152151560051b8201013880611a80565b919082519283825260005b848110611b5f5750507fffffffffffffffffffffffffffffffffffffffffffffffffffffffffffffffe0601f8460006020809697860101520116010190565b602081830181015184830182015201611b20565b9181601f84011215610f025782359167ffffffffffffffff8311610f025760208381860195010111610f0257565b7ffffffffffffffffffffffffffffffffffffffffffffffffffffffffffffffffc6060910112610f025760043573ffffffffffffffffffffffffffffffffffffffff81168103610f0257906024359060443590565b6020908160408183019282815285518094520193019160005b828110611c1d575050505090565b835185529381019392810192600101611c0f565b67ffffffffffffffff81116119c457601f017fffffffffffffffffffffffffffffffffffffffffffffffffffffffffffffffe01660200190565b91908203918211611c7857565b7f4e487b7100000000000000000000000000000000000000000000000000000000600052601160045260246000fd5b919075ffffffffffffffffffffffffffffffffffffffffffff8080941691169283820216928184041490151715611c7857565b73ffffffffffffffffffffffffffffffffffffffff1690611d32600080836020829551910182875af13d15611da3573d90611d1482611c31565b91611d226040519384611a0f565b82523d84602084013e5b84611dab565b908151918215159283611d7b575b505050611d4a5750565b602490604051907f5274afe70000000000000000000000000000000000000000000000000000000082526004820152fd5b8192935090602091810103126101705760200151908115918215036101745750388080611d40565b606090611d2c565b90611dea5750805115611dc057805190602001fd5b60046040517f1425ea42000000000000000000000000000000000000000000000000000000008152fd5b81511580611e42575b611dfb575090565b60249073ffffffffffffffffffffffffffffffffffffffff604051917f9996b315000000000000000000000000000000000000000000000000000000008352166004820152fd5b50803b15611df3565b67ffffffffffffffff81116119c45760051b60200190565b9291611e6e82611e4b565b91611e7c6040519384611a0f565b829481845260208094019160051b8101928311610f0257905b828210611ea25750505050565b81358152908301908301611e95565b9173ffffffffffffffffffffffffffffffffffffffff604051927fa9059cbb000000000000000000000000000000000000000000000000000000006020850152166024830152604482015260448152608081019181831067ffffffffffffffff8411176119c457611a8e92604052611cda565b90926000925b8251841015611f9657611f3d8484611f9f565b5190600082821015611f87575060005260205260406000205b927fffffffffffffffffffffffffffffffffffffffffffffffffffffffffffffffff8114611c785760010192611f2a565b90604092825260205220611f56565b91509291501490565b8051821015611fb35760209160051b010190565b7f4e487b7100000000000000000000000000000000000000000000000000000000600052603260045260246000fd5b611feb906118f6565b5075ffffffffffffffffffffffffffffffffffffffffffff908160018201541690549064ffffffffff9182808260d01c169160a81c160391808311611c7857612035921690611ca7565b1690565b9061204382611e4b565b6120506040519182611a0f565b8281527fffffffffffffffffffffffffffffffffffffffffffffffffffffffffffffffe061207e8294611e4b565b019060203691013756fea2646970667358221220d64fa15d10393163e4d8e6d073c24c881c692ae66e9871cc2057e67abec534d864736f6c63430008140033",
  "linkReferences": {},
  "deployedLinkReferences": {}
}