{
  "_format": "hh-sol-artifact-1",
  "contractName": "MCV2_MultiToken",
  "sourceName": "contracts/MCV2_MultiToken.sol",
  "abi": [
    {
      "inputs": [
        {
          "internalType": "address",
          "name": "sender",
          "type": "address"
        },
        {
          "internalType": "uint256",
          "name": "balance",
          "type": "uint256"
        },
        {
          "internalType": "uint256",
          "name": "needed",
          "type": "uint256"
        },
        {
          "internalType": "uint256",
          "name": "tokenId",
          "type": "uint256"
        }
      ],
      "name": "ERC1155InsufficientBalance",
      "type": "error"
    },
    {
      "inputs": [
        {
          "internalType": "address",
          "name": "approver",
          "type": "address"
        }
      ],
      "name": "ERC1155InvalidApprover",
      "type": "error"
    },
    {
      "inputs": [
        {
          "internalType": "uint256",
          "name": "idsLength",
          "type": "uint256"
        },
        {
          "internalType": "uint256",
          "name": "valuesLength",
          "type": "uint256"
        }
      ],
      "name": "ERC1155InvalidArrayLength",
      "type": "error"
    },
    {
      "inputs": [
        {
          "internalType": "address",
          "name": "operator",
          "type": "address"
        }
      ],
      "name": "ERC1155InvalidOperator",
      "type": "error"
    },
    {
      "inputs": [
        {
          "internalType": "address",
          "name": "receiver",
          "type": "address"
        }
      ],
      "name": "ERC1155InvalidReceiver",
      "type": "error"
    },
    {
      "inputs": [
        {
          "internalType": "address",
          "name": "sender",
          "type": "address"
        }
      ],
      "name": "ERC1155InvalidSender",
      "type": "error"
    },
    {
      "inputs": [
        {
          "internalType": "address",
          "name": "operator",
          "type": "address"
        },
        {
          "internalType": "address",
          "name": "owner",
          "type": "address"
        }
      ],
      "name": "ERC1155MissingApprovalForAll",
      "type": "error"
    },
    {
      "inputs": [],
      "name": "MCV2_MultiToken__AlreadyInitialized",
      "type": "error"
    },
    {
      "inputs": [],
      "name": "MCV2_MultiToken__BurnAmountExceedsTotalSupply",
      "type": "error"
    },
    {
      "inputs": [],
      "name": "MCV2_MultiToken__NotApproved",
      "type": "error"
    },
    {
      "inputs": [],
      "name": "MCV2_MultiToken__PermissionDenied",
      "type": "error"
    },
    {
      "anonymous": false,
      "inputs": [
        {
          "indexed": true,
          "internalType": "address",
          "name": "account",
          "type": "address"
        },
        {
          "indexed": true,
          "internalType": "address",
          "name": "operator",
          "type": "address"
        },
        {
          "indexed": false,
          "internalType": "bool",
          "name": "approved",
          "type": "bool"
        }
      ],
      "name": "ApprovalForAll",
      "type": "event"
    },
    {
      "anonymous": false,
      "inputs": [
        {
          "indexed": true,
          "internalType": "address",
          "name": "operator",
          "type": "address"
        },
        {
          "indexed": true,
          "internalType": "address",
          "name": "from",
          "type": "address"
        },
        {
          "indexed": true,
          "internalType": "address",
          "name": "to",
          "type": "address"
        },
        {
          "indexed": false,
          "internalType": "uint256[]",
          "name": "ids",
          "type": "uint256[]"
        },
        {
          "indexed": false,
          "internalType": "uint256[]",
          "name": "values",
          "type": "uint256[]"
        }
      ],
      "name": "TransferBatch",
      "type": "event"
    },
    {
      "anonymous": false,
      "inputs": [
        {
          "indexed": true,
          "internalType": "address",
          "name": "operator",
          "type": "address"
        },
        {
          "indexed": true,
          "internalType": "address",
          "name": "from",
          "type": "address"
        },
        {
          "indexed": true,
          "internalType": "address",
          "name": "to",
          "type": "address"
        },
        {
          "indexed": false,
          "internalType": "uint256",
          "name": "id",
          "type": "uint256"
        },
        {
          "indexed": false,
          "internalType": "uint256",
          "name": "value",
          "type": "uint256"
        }
      ],
      "name": "TransferSingle",
      "type": "event"
    },
    {
      "anonymous": false,
      "inputs": [
        {
          "indexed": false,
          "internalType": "string",
          "name": "value",
          "type": "string"
        },
        {
          "indexed": true,
          "internalType": "uint256",
          "name": "id",
          "type": "uint256"
        }
      ],
      "name": "URI",
      "type": "event"
    },
    {
      "inputs": [
        {
          "internalType": "address",
          "name": "account",
          "type": "address"
        },
        {
          "internalType": "uint256",
          "name": "id",
          "type": "uint256"
        }
      ],
      "name": "balanceOf",
      "outputs": [
        {
          "internalType": "uint256",
          "name": "",
          "type": "uint256"
        }
      ],
      "stateMutability": "view",
      "type": "function"
    },
    {
      "inputs": [
        {
          "internalType": "address[]",
          "name": "accounts",
          "type": "address[]"
        },
        {
          "internalType": "uint256[]",
          "name": "ids",
          "type": "uint256[]"
        }
      ],
      "name": "balanceOfBatch",
      "outputs": [
        {
          "internalType": "uint256[]",
          "name": "",
          "type": "uint256[]"
        }
      ],
      "stateMutability": "view",
      "type": "function"
    },
    {
      "inputs": [],
      "name": "bond",
      "outputs": [
        {
          "internalType": "address",
          "name": "",
          "type": "address"
        }
      ],
      "stateMutability": "view",
      "type": "function"
    },
    {
      "inputs": [
        {
          "internalType": "address",
          "name": "account",
          "type": "address"
        },
        {
          "internalType": "uint256",
          "name": "amount",
          "type": "uint256"
        }
      ],
      "name": "burnByBond",
      "outputs": [],
      "stateMutability": "nonpayable",
      "type": "function"
    },
    {
      "inputs": [],
      "name": "contractURI",
      "outputs": [
        {
          "internalType": "string",
          "name": "",
          "type": "string"
        }
      ],
      "stateMutability": "view",
      "type": "function"
    },
    {
      "inputs": [],
      "name": "decimals",
      "outputs": [
        {
          "internalType": "uint8",
          "name": "",
          "type": "uint8"
        }
      ],
      "stateMutability": "pure",
      "type": "function"
    },
    {
      "inputs": [
        {
          "internalType": "string",
          "name": "name_",
          "type": "string"
        },
        {
          "internalType": "string",
          "name": "symbol_",
          "type": "string"
        },
        {
          "internalType": "string",
          "name": "uri_",
          "type": "string"
        }
      ],
      "name": "init",
      "outputs": [],
      "stateMutability": "nonpayable",
      "type": "function"
    },
    {
      "inputs": [
        {
          "internalType": "address",
          "name": "account",
          "type": "address"
        },
        {
          "internalType": "address",
          "name": "operator",
          "type": "address"
        }
      ],
      "name": "isApprovedForAll",
      "outputs": [
        {
          "internalType": "bool",
          "name": "",
          "type": "bool"
        }
      ],
      "stateMutability": "view",
      "type": "function"
    },
    {
      "inputs": [
        {
          "internalType": "address",
          "name": "to",
          "type": "address"
        },
        {
          "internalType": "uint256",
          "name": "amount",
          "type": "uint256"
        }
      ],
      "name": "mintByBond",
      "outputs": [],
      "stateMutability": "nonpayable",
      "type": "function"
    },
    {
      "inputs": [],
      "name": "name",
      "outputs": [
        {
          "internalType": "string",
          "name": "",
          "type": "string"
        }
      ],
      "stateMutability": "view",
      "type": "function"
    },
    {
      "inputs": [
        {
          "internalType": "address",
          "name": "from",
          "type": "address"
        },
        {
          "internalType": "address",
          "name": "to",
          "type": "address"
        },
        {
          "internalType": "uint256[]",
          "name": "ids",
          "type": "uint256[]"
        },
        {
          "internalType": "uint256[]",
          "name": "values",
          "type": "uint256[]"
        },
        {
          "internalType": "bytes",
          "name": "data",
          "type": "bytes"
        }
      ],
      "name": "safeBatchTransferFrom",
      "outputs": [],
      "stateMutability": "nonpayable",
      "type": "function"
    },
    {
      "inputs": [
        {
          "internalType": "address",
          "name": "from",
          "type": "address"
        },
        {
          "internalType": "address",
          "name": "to",
          "type": "address"
        },
        {
          "internalType": "uint256",
          "name": "id",
          "type": "uint256"
        },
        {
          "internalType": "uint256",
          "name": "value",
          "type": "uint256"
        },
        {
          "internalType": "bytes",
          "name": "data",
          "type": "bytes"
        }
      ],
      "name": "safeTransferFrom",
      "outputs": [],
      "stateMutability": "nonpayable",
      "type": "function"
    },
    {
      "inputs": [
        {
          "internalType": "address",
          "name": "operator",
          "type": "address"
        },
        {
          "internalType": "bool",
          "name": "approved",
          "type": "bool"
        }
      ],
      "name": "setApprovalForAll",
      "outputs": [],
      "stateMutability": "nonpayable",
      "type": "function"
    },
    {
      "inputs": [
        {
          "internalType": "bytes4",
          "name": "interfaceId",
          "type": "bytes4"
        }
      ],
      "name": "supportsInterface",
      "outputs": [
        {
          "internalType": "bool",
          "name": "",
          "type": "bool"
        }
      ],
      "stateMutability": "view",
      "type": "function"
    },
    {
      "inputs": [],
      "name": "symbol",
      "outputs": [
        {
          "internalType": "string",
          "name": "",
          "type": "string"
        }
      ],
      "stateMutability": "view",
      "type": "function"
    },
    {
      "inputs": [],
      "name": "totalSupply",
      "outputs": [
        {
          "internalType": "uint256",
          "name": "",
          "type": "uint256"
        }
      ],
      "stateMutability": "view",
      "type": "function"
    },
    {
      "inputs": [
        {
          "internalType": "uint256",
          "name": "",
          "type": "uint256"
        }
      ],
      "name": "uri",
      "outputs": [
        {
          "internalType": "string",
          "name": "",
          "type": "string"
        }
      ],
      "stateMutability": "view",
      "type": "function"
    }
  ],
  "bytecode": "0x608080604052346100165761284b908161001c8239f35b600080fdfe6080604052600436101561001257600080fd5b60003560e01c8062fdd58e1461012657806301ffc9a71461012157806306fdde031461011c5780630e89341c1461011757806318160ddd146101125780631b5ad8b51461010d5780632eb2c2d614610108578063313ce5671461010357806341e461a0146100fe5780634e1273f4146100f957806364c9ec6f146100f457806395d89b41146100ef578063a22cb465146100ea578063e8a3d485146100e5578063e985e9c5146100e0578063f242432a146100db5763f4efe8f2146100d657600080fd5b6115d6565b611449565b6113af565b61114f565b611022565b610f5d565b610f08565b610e30565b610b39565b610ad1565b610908565b6106ea565b6106ae565b6105a9565b610488565b61023a565b610197565b6004359073ffffffffffffffffffffffffffffffffffffffff8216820361014e57565b600080fd5b6024359073ffffffffffffffffffffffffffffffffffffffff8216820361014e57565b359073ffffffffffffffffffffffffffffffffffffffff8216820361014e57565b3461014e5760407ffffffffffffffffffffffffffffffffffffffffffffffffffffffffffffffffc36011261014e5760206102076101d361012b565b6024356000526000835260406000209073ffffffffffffffffffffffffffffffffffffffff16600052602052604060002090565b54604051908152f35b7fffffffff0000000000000000000000000000000000000000000000000000000081160361014e57565b3461014e5760207ffffffffffffffffffffffffffffffffffffffffffffffffffffffffffffffffc36011261014e5760207fffffffff0000000000000000000000000000000000000000000000000000000060043561029881610210565b167fd9b67a26000000000000000000000000000000000000000000000000000000008114908115610300575b81156102d6575b506040519015158152f35b7f01ffc9a700000000000000000000000000000000000000000000000000000000915014386102cb565b7f0e89341c00000000000000000000000000000000000000000000000000000000811491506102c4565b90600182811c92168015610373575b602083101461034457565b7f4e487b7100000000000000000000000000000000000000000000000000000000600052602260045260246000fd5b91607f1691610339565b7f4e487b7100000000000000000000000000000000000000000000000000000000600052604160045260246000fd5b6020810190811067ffffffffffffffff8211176103c857604052565b61037d565b90601f7fffffffffffffffffffffffffffffffffffffffffffffffffffffffffffffffe0910116810190811067ffffffffffffffff8211176103c857604052565b60005b8381106104215750506000910152565b8181015183820152602001610411565b907fffffffffffffffffffffffffffffffffffffffffffffffffffffffffffffffe0601f60209361046d8151809281875287808801910161040e565b0116010190565b906020610485928181520190610431565b90565b3461014e576000807ffffffffffffffffffffffffffffffffffffffffffffffffffffffffffffffffc3601126105a65760405190806003546104c98161032a565b8085529160019180831690811561055e5750600114610503575b6104ff856104f3818703826103cd565b60405191829182610474565b0390f35b9250600383527fc2575a0e9e593c00f959f8c92f12db2869c3395a3b0502d05e2516446f71f85b5b8284106105465750505081016020016104f3826104ff6104e3565b8054602085870181019190915290930192810161052b565b8695506104ff969350602092506104f39491507fffffffffffffffffffffffffffffffffffffffffffffffffffffffffffffff001682840152151560051b82010192936104e3565b80fd5b3461014e576020807ffffffffffffffffffffffffffffffffffffffffffffffffffffffffffffffffc36011261014e576040516000916002546105eb8161032a565b808452906001908181169081156106705750600114610615575b6104ff846104f3818803826103cd565b600260009081529294507f405787fa12a823e0f2b7631cc41b3ba8828b3321ca811111fa75cd3aa3bb5ace5b82841061065d57505050816104ff936104f39282010193610605565b8054858501870152928501928101610641565b7fffffffffffffffffffffffffffffffffffffffffffffffffffffffffffffff0016858501525050151560051b82010191506104f3816104ff610605565b3461014e5760007ffffffffffffffffffffffffffffffffffffffffffffffffffffffffffffffffc36011261014e576020600554604051908152f35b3461014e5760407ffffffffffffffffffffffffffffffffffffffffffffffffffffffffffffffffc36011261014e5761072161012b565b6024359073ffffffffffffffffffffffffffffffffffffffff908160065460081c1633036107dc576005548381018091116107d75760055560405191610766836103ac565b600083528116156107a65761079e6107a493604051916001835260006020840152604083019160018352606084015260808301604052565b91611c54565b005b60246040517f57f447ce00000000000000000000000000000000000000000000000000000000815260006004820152fd5b61197a565b60046040517ff226f346000000000000000000000000000000000000000000000000000000008152fd5b67ffffffffffffffff81116103c85760051b60200190565b81601f8201121561014e5780359161083583610806565b9261084360405194856103cd565b808452602092838086019260051b82010192831161014e578301905b82821061086d575050505090565b8135815290830190830161085f565b67ffffffffffffffff81116103c857601f017fffffffffffffffffffffffffffffffffffffffffffffffffffffffffffffffe01660200190565b9291926108c28261087c565b916108d060405193846103cd565b82948184528183011161014e578281602093846000960137010152565b9080601f8301121561014e57816020610485933591016108b6565b3461014e5760a07ffffffffffffffffffffffffffffffffffffffffffffffffffffffffffffffffc36011261014e5761093f61012b565b610947610153565b906044359167ffffffffffffffff9081841161014e5761096c6004943690860161081e565b9060643583811161014e57610984903690870161081e565b9260843590811161014e5761099c90369087016108ed565b9373ffffffffffffffffffffffffffffffffffffffff808216903382141580610a8f575b610a3c57831615610a0b57156109da576107a49550611e11565b6024866000604051917f01a83514000000000000000000000000000000000000000000000000000000008352820152fd5b6024876000604051917f57f447ce000000000000000000000000000000000000000000000000000000008352820152fd5b604080517fe237d92200000000000000000000000000000000000000000000000000000000815233818b0190815273ffffffffffffffffffffffffffffffffffffffff8616602082015290918291010390fd5b5081600052600160205260ff610ac93360406000209073ffffffffffffffffffffffffffffffffffffffff16600052602052604060002090565b5416156109c0565b3461014e5760007ffffffffffffffffffffffffffffffffffffffffffffffffffffffffffffffffc36011261014e57602060405160008152f35b9181601f8401121561014e5782359167ffffffffffffffff831161014e576020838186019501011161014e57565b3461014e5760607ffffffffffffffffffffffffffffffffffffffffffffffffffffffffffffffffc36011261014e5767ffffffffffffffff60043581811161014e57610b89903690600401610b0b565b60249291923582811161014e57610ba4903690600401610b0b565b9160443584811161014e57610bbd903690600401610b0b565b9490956006549160ff8316610dc1577fffffffffffffffffffffffffffffffffffffffffffffffffffffffffffffff00926001938491161760065583116103c857610c1283610c0d60035461032a565b6116f0565b600090601f8411600114610cee5792610c7d9795928180610c78999794610c7197600093610cc3575b50507fffffffffffffffffffffffffffffffffffffffffffffffffffffffffffffffff91921b9260031b1c191617600355611843565b36916108b6565b61208a565b600680547fffffffffffffffffffffff0000000000000000000000000000000000000000ff163360081b74ffffffffffffffffffffffffffffffffffffffff0016179055005b013591507fffffffffffffffffffffffffffffffffffffffffffffffffffffffffffffffff38610c3b565b7fffffffffffffffffffffffffffffffffffffffffffffffffffffffffffffffe08493941691610d4060036000527fc2575a0e9e593c00f959f8c92f12db2869c3395a3b0502d05e2516446f71f85b90565b92815b818110610dab575092610c7195928592610c7d9b9996610c789b999610610d73575b505050811b01600355611843565b7fffffffffffffffffffffffffffffffffffffffffffffffffffffffffffffffff60f88560031b161c19910135169055388080610d65565b8383013585559386019360209283019201610d43565b60046040517f597a5503000000000000000000000000000000000000000000000000000000008152fd5b90815180825260208080930193019160005b828110610e0b575050505090565b835185529381019392810192600101610dfd565b906020610485928181520190610deb565b3461014e5760407ffffffffffffffffffffffffffffffffffffffffffffffffffffffffffffffffc36011261014e5760043567ffffffffffffffff80821161014e573660238301121561014e578160040135610e8b81610806565b92610e9960405194856103cd565b81845260209160248386019160051b8301019136831161014e57602401905b828210610ef1578560243586811161014e576104ff91610edf610ee592369060040161081e565b90611b73565b60405191829182610e1f565b838091610efd84610176565b815201910190610eb8565b3461014e5760007ffffffffffffffffffffffffffffffffffffffffffffffffffffffffffffffffc36011261014e57602073ffffffffffffffffffffffffffffffffffffffff60065460081c16604051908152f35b3461014e576000807ffffffffffffffffffffffffffffffffffffffffffffffffffffffffffffffffc3601126105a6576040519080600454610f9e8161032a565b8085529160019180831690811561055e5750600114610fc7576104ff856104f3818703826103cd565b9250600483527f8a35acfbc15ff81a39ae7d344fd709f28e8600b4aa8c65c6b64bfe7fe36bd19b5b82841061100a5750505081016020016104f3826104ff6104e3565b80546020858701810191909152909301928101610fef565b3461014e5760407ffffffffffffffffffffffffffffffffffffffffffffffffffffffffffffffffc36011261014e5761105961012b565b602435908115159081830361014e5773ffffffffffffffffffffffffffffffffffffffff811692831561111e576110c06110f09233600052600160205260406000209073ffffffffffffffffffffffffffffffffffffffff16600052602052604060002090565b9060ff7fffffffffffffffffffffffffffffffffffffffffffffffffffffffffffffff0083541691151516179055565b6040519081527f17307eab39ab6107e8899845ad3d59bd9653f200f220920489ca2b5937696c3160203392a3005b60246040517fced3e10000000000000000000000000000000000000000000000000000000000815260006004820152fd5b3461014e5760007ffffffffffffffffffffffffffffffffffffffffffffffffffffffffffffffffc36011261014e57600046807a184f03e93ff9f4daa797ed6e38ed64bf6a1f010000000000000000808210156113a1575b506d04ee2d6d415b85acef810000000080831015611392575b50662386f26fc1000080831015611383575b506305f5e10080831015611374575b5061271080831015611365575b506064821015611355575b600a8092101561134b575b600190816021611215828701611a7a565b95860101905b6112ea575b6040517f68747470733a2f2f6d696e742e636c75622f6d657461646174612f000000000060208201526104ff906104f3816112be611295611290611267603b85018d6119b6565b7f2f00000000000000000000000000000000000000000000000000000000000000815260010190565b6119cd565b7f2e6a736f6e000000000000000000000000000000000000000000000000000000815260050190565b037fffffffffffffffffffffffffffffffffffffffffffffffffffffffffffffffe081018352826103cd565b7fffffffffffffffffffffffffffffffffffffffffffffffffffffffffffffffff849101917f30313233343536373839616263646566000000000000000000000000000000008282061a8353049182156113465791908261121b565b611220565b9160010191611204565b91906064600291049101916111f9565b600491939204910191386111ee565b600891939204910191386111e1565b601091939204910191386111d2565b602091939204910191386111c0565b6040935081049150386111a7565b3461014e5760407ffffffffffffffffffffffffffffffffffffffffffffffffffffffffffffffffc36011261014e57602060ff61143d6113ed61012b565b73ffffffffffffffffffffffffffffffffffffffff61140a610153565b91166000526001845260406000209073ffffffffffffffffffffffffffffffffffffffff16600052602052604060002090565b54166040519015158152f35b3461014e5760a07ffffffffffffffffffffffffffffffffffffffffffffffffffffffffffffffffc36011261014e5761148061012b565b611488610153565b60843567ffffffffffffffff811161014e576114a89036906004016108ed565b9073ffffffffffffffffffffffffffffffffffffffff808416903382141580611594575b611547578216156107a65715611516576107a49261150e6064356044359160405192600184526020840152604083019160018352606084015260808301604052565b929091611e11565b60246040517f01a8351400000000000000000000000000000000000000000000000000000000815260006004820152fd5b6040517fe237d92200000000000000000000000000000000000000000000000000000000815233600482015273ffffffffffffffffffffffffffffffffffffffff86166024820152604490fd5b5081600052600160205260ff6115ce3360406000209073ffffffffffffffffffffffffffffffffffffffff16600052602052604060002090565b5416156114cc565b3461014e5760407ffffffffffffffffffffffffffffffffffffffffffffffffffffffffffffffffc36011261014e5761160d61012b565b60243573ffffffffffffffffffffffffffffffffffffffff918260065460081c16923384036107dc57600554938484116116c65761167f60ff91611685938516600052600160205260406000209073ffffffffffffffffffffffffffffffffffffffff16600052602052604060002090565b54161590565b61169c57611697826107a49403600555565b6121cd565b60046040517fe3ff2a74000000000000000000000000000000000000000000000000000000008152fd5b60046040517f96ec32b6000000000000000000000000000000000000000000000000000000008152fd5b601f81116116fc575050565b600090600382527fc2575a0e9e593c00f959f8c92f12db2869c3395a3b0502d05e2516446f71f85b906020601f850160051c83019410611757575b601f0160051c01915b82811061174c57505050565b818155600101611740565b9092508290611737565b601f811161176d575050565b600090600282527f405787fa12a823e0f2b7631cc41b3ba8828b3321ca811111fa75cd3aa3bb5ace906020601f850160051c830194106117c8575b601f0160051c01915b8281106117bd57505050565b8181556001016117b1565b90925082906117a8565b601f81116117de575050565b600090600482527f8a35acfbc15ff81a39ae7d344fd709f28e8600b4aa8c65c6b64bfe7fe36bd19b906020601f850160051c83019410611839575b601f0160051c01915b82811061182e57505050565b818155600101611822565b9092508290611819565b919067ffffffffffffffff81116103c8576118688161186360045461032a565b6117d2565b6000601f82116001146118bf578192936000926118b4575b50507fffffffffffffffffffffffffffffffffffffffffffffffffffffffffffffffff8260011b9260031b1c191617600455565b013590503880611880565b60046000527fffffffffffffffffffffffffffffffffffffffffffffffffffffffffffffffe08216937f8a35acfbc15ff81a39ae7d344fd709f28e8600b4aa8c65c6b64bfe7fe36bd19b91805b868110611962575083600195961061192a575b505050811b01600455565b7fffffffffffffffffffffffffffffffffffffffffffffffffffffffffffffffff60f88560031b161c1991013516905538808061191f565b9092602060018192868601358155019401910161190c565b7f4e487b7100000000000000000000000000000000000000000000000000000000600052601160045260246000fd5b919082018092116107d757565b906119c96020928281519485920161040e565b0190565b600454600092916119dd8261032a565b91600190818116908115611a4957506001146119f857505050565b909192935060046000527f8a35acfbc15ff81a39ae7d344fd709f28e8600b4aa8c65c6b64bfe7fe36bd19b906000915b848310611a36575050500190565b8181602092548587015201920191611a28565b7fffffffffffffffffffffffffffffffffffffffffffffffffffffffffffffff001683525050811515909102019150565b90611a848261087c565b611a9160405191826103cd565b8281527fffffffffffffffffffffffffffffffffffffffffffffffffffffffffffffffe0611abf829461087c565b0190602036910137565b611aff91600052600060205260406000209073ffffffffffffffffffffffffffffffffffffffff16600052602052604060002090565b5490565b7fffffffffffffffffffffffffffffffffffffffffffffffffffffffffffffffff81146107d75760010190565b8051821015611b445760209160051b010190565b7f4e487b7100000000000000000000000000000000000000000000000000000000600052603260045260246000fd5b91909180518351808203611c195750508051907fffffffffffffffffffffffffffffffffffffffffffffffffffffffffffffffe0611bc9611bb384610806565b93611bc160405195866103cd565b808552610806565b0190602091368385013760005b8151811015611c115780611bfc611c0c9260051b85808287010151918a01015190611ac9565b611c068287611b30565b52611b03565b611bd6565b509193505050565b6040517f5b05999100000000000000000000000000000000000000000000000000000000815260048101919091526024810191909152604490fd5b908051835190818103611c1957505060005b8151811015611d015780611caa9160051b84602080838701015192880101519173ffffffffffffffffffffffffffffffffffffffff8216611caf575b505050611b03565b611c66565b611cf791611cca611cef926000526000602052604060002090565b9073ffffffffffffffffffffffffffffffffffffffff16600052602052604060002090565b9182546119a9565b9055388481611ca2565b50805191939291600103611dbd5760208181015183820151604080519283529282015273ffffffffffffffffffffffffffffffffffffffff86169160009133917fc3d58168c5ae7397731d063d5bbf3d657854427343f4c083240f7aacaa2d0f6291a45b73ffffffffffffffffffffffffffffffffffffffff8416611d87575b50505050565b8051600103611dae5790602080611da5959301519101519133612482565b38808080611d81565b611db89333612777565b611da5565b604051600073ffffffffffffffffffffffffffffffffffffffff8616917f4a39dc06d4c0dbc64b70af90fd698a233a518aa5d07e595d983b8c0526c8f7fb339180611e09888883612065565b0390a4611d65565b949190918151845190818103611c1957505060005b8251811015611f49578060051b90602080838601015192870101518573ffffffffffffffffffffffffffffffffffffffff93848b16611e9c575b611e72948216611e7757505050611b03565b611e26565b611e9291611cca611cef926000526000602052604060002090565b9055388581611ca2565b9192939050611eb98a611cca846000526000602052604060002090565b54838110611eec5791879184611e7296959403611ee48d611cca856000526000602052604060002090565b559450611e60565b6040517f03dee4c500000000000000000000000000000000000000000000000000000000815273ffffffffffffffffffffffffffffffffffffffff8c16600482015260248101919091526044810184905260648101839052608490fd5b50949193929093600185511460001461200e5760208581015183820151604080519283529282015273ffffffffffffffffffffffffffffffffffffffff838116929086169133917fc3d58168c5ae7397731d063d5bbf3d657854427343f4c083240f7aacaa2d0f6291a45b73ffffffffffffffffffffffffffffffffffffffff8116611fd7575b5050505050565b8451600103611ffd57602080611ff39601519201519233612606565b3880808080611fd0565b612009949192336127c5565b611ff3565b60405173ffffffffffffffffffffffffffffffffffffffff90818316918516907f4a39dc06d4c0dbc64b70af90fd698a233a518aa5d07e595d983b8c0526c8f7fb33918061205d888c83612065565b0390a4611fb4565b909161207c61048593604084526040840190610deb565b916020818403910152610deb565b90815167ffffffffffffffff81116103c8576120b0816120ab60025461032a565b611761565b602080601f831160011461210957508192936000926120fe575b50507fffffffffffffffffffffffffffffffffffffffffffffffffffffffffffffffff8260011b9260031b1c191617600255565b0151905038806120ca565b907fffffffffffffffffffffffffffffffffffffffffffffffffffffffffffffffe083169461215a60026000527f405787fa12a823e0f2b7631cc41b3ba8828b3321ca811111fa75cd3aa3bb5ace90565b926000905b8782106121b557505083600195961061217e575b505050811b01600255565b01517fffffffffffffffffffffffffffffffffffffffffffffffffffffffffffffffff60f88460031b161c19169055388080612173565b8060018596829496860151815501950193019061215f565b73ffffffffffffffffffffffffffffffffffffffff81169182156115165761221590604051916001835260006020840152604083019160018352606084015260808301604052565b919060409460008651612227816103ac565b52815184519081810361238157505060005b82518110156122fa578060051b6020808286010151918701015161226b86611cca846000526000602052604060002090565b5481811061229e5786611cca6122999594936122939303936000526000602052604060002090565b55611b03565b612239565b89517f03dee4c500000000000000000000000000000000000000000000000000000000815273ffffffffffffffffffffffffffffffffffffffff8816600482015260248101919091526044810182905260648101839052608490fd5b5094906000949392506001815114851461234f5760209081015192810151915192835282015233907fc3d58168c5ae7397731d063d5bbf3d657854427343f4c083240f7aacaa2d0f629080604081015b0390a4565b905133927f4a39dc06d4c0dbc64b70af90fd698a233a518aa5d07e595d983b8c0526c8f7fb92829161234a9183612065565b87517f5b05999100000000000000000000000000000000000000000000000000000000815260048101919091526024810191909152604490fd5b9081602091031261014e575161048581610210565b909260a09273ffffffffffffffffffffffffffffffffffffffff610485969516835260006020840152604083015260608201528160808201520190610431565b919261048595949160a09473ffffffffffffffffffffffffffffffffffffffff8092168552166020840152604083015260608201528160808201520190610431565b3d1561247d573d906124638261087c565b9161247160405193846103cd565b82523d6000602084013e565b606090565b9293919093843b612494575050505050565b6020916124d060405194859384937ff23a6e610000000000000000000000000000000000000000000000000000000098898652600486016123d0565b0381600073ffffffffffffffffffffffffffffffffffffffff88165af1600091816125d6575b5061255b5782612504612452565b8051919082612554576040517f57f447ce00000000000000000000000000000000000000000000000000000000815273ffffffffffffffffffffffffffffffffffffffff83166004820152602490fd5b9050602001fd5b7fffffffff00000000000000000000000000000000000000000000000000000000160361258d57503880808080611fd0565b6040517f57f447ce00000000000000000000000000000000000000000000000000000000815273ffffffffffffffffffffffffffffffffffffffff919091166004820152602490fd5b6125f891925060203d81116125ff575b6125f081836103cd565b8101906123bb565b90386124f6565b503d6125e6565b939290949194853b61261b575b505050505050565b61265760209360405195869485947ff23a6e6100000000000000000000000000000000000000000000000000000000998a875260048701612410565b0381600073ffffffffffffffffffffffffffffffffffffffff88165af1600091816126be575b5061268b5782612504612452565b7fffffffff00000000000000000000000000000000000000000000000000000000160361258d5750388080808080612613565b6126d791925060203d81116125ff576125f081836103cd565b903861267d565b9261271b610485959373ffffffffffffffffffffffffffffffffffffffff612729941686526000602087015260a0604087015260a0860190610deb565b908482036060860152610deb565b916080818403910152610431565b9390610485959361271b916127299473ffffffffffffffffffffffffffffffffffffffff809216885216602087015260a0604087015260a0860190610deb565b9293919093843b612789575050505050565b6020916124d060405194859384937fbc197c810000000000000000000000000000000000000000000000000000000098898652600486016126de565b939290949194853b6127d957505050505050565b61265760209360405195869485947fbc197c8100000000000000000000000000000000000000000000000000000000998a87526004870161273756fea26469706673582212208f0b7c308f17a97dc823d8f4abbb1360239ebc9c21841a6954eac257a6d1e1bc64736f6c63430008140033",
  "linkReferences": {},
  "deployedLinkReferences": {}
}