{
  "_format": "hh-sol-artifact-1",
  "contractName": "MultiTokenReceiver",
  "sourceName": "contracts/MultiTokenReceiver.sol",
  "abi": [
    {
      "inputs": [
        {
          "internalType": "address",
          "name": "",
          "type": "address"
        },
        {
          "internalType": "address",
          "name": "",
          "type": "address"
        }
      ],
      "name": "balances",
      "outputs": [
        {
          "internalType": "uint256",
          "name": "",
          "type": "uint256"
        }
      ],
      "stateMutability": "view",
      "type": "function"
    },
    {
      "inputs": [
        {
          "internalType": "address",
          "name": "tokenAddress",
          "type": "address"
        },
        {
          "internalType": "uint256",
          "name": "amount",
          "type": "uint256"
        }
      ],
      "name": "deposit",
      "outputs": [],
      "stateMutability": "nonpayable",
      "type": "function"
    },
    {
      "inputs": [
        {
          "internalType": "address",
          "name": "tokenAddress",
          "type": "address"
        }
      ],
      "name": "getAllUsersWithTokenBalance",
      "outputs": [
        {
          "internalType": "address[]",
          "name": "",
          "type": "address[]"
        },
        {
          "internalType": "uint256[]",
          "name": "",
          "type": "uint256[]"
        }
      ],
      "stateMutability": "view",
      "type": "function"
    },
    {
      "inputs": [
        {
          "internalType": "address",
          "name": "user",
          "type": "address"
        },
        {
          "internalType": "address",
          "name": "tokenAddress",
          "type": "address"
        }
      ],
      "name": "getBalance",
      "outputs": [
        {
          "internalType": "uint256",
          "name": "",
          "type": "uint256"
        }
      ],
      "stateMutability": "view",
      "type": "function"
    }
  ],
  "bytecode": "0x608060405234801561001057600080fd5b50610efb806100206000396000f3fe608060405234801561001057600080fd5b506004361061004c5760003560e01c806347e7ef2414610051578063b901ea391461006d578063c23f001f1461009e578063d4fac45d146100ce575b600080fd5b61006b60048036038101906100669190610933565b6100fe565b005b61008760048036038101906100829190610973565b6103fe565b604051610095929190610b1c565b60405180910390f35b6100b860048036038101906100b39190610b53565b6107ef565b6040516100c59190610ba2565b60405180910390f35b6100e860048036038101906100e39190610b53565b610814565b6040516100f59190610ba2565b60405180910390f35b6000829050818173ffffffffffffffffffffffffffffffffffffffff1663dd62ed3e33306040518363ffffffff1660e01b815260040161013f929190610bcc565b602060405180830381865afa15801561015c573d6000803e3d6000fd5b505050506040513d601f19601f820116820180604052508101906101809190610c0a565b10156101c1576040517f08c379a00000000000000000000000000000000000000000000000000000000081526004016101b890610c94565b60405180910390fd5b8073ffffffffffffffffffffffffffffffffffffffff166323b872dd3330856040518463ffffffff1660e01b81526004016101fe93929190610cb4565b6020604051808303816000875af115801561021d573d6000803e3d6000fd5b505050506040513d601f19601f820116820180604052508101906102419190610d23565b610280576040517f08c379a000000000000000000000000000000000000000000000000000000000815260040161027790610d9c565b60405180910390fd5b60008060003373ffffffffffffffffffffffffffffffffffffffff1673ffffffffffffffffffffffffffffffffffffffff16815260200190815260200160002060008573ffffffffffffffffffffffffffffffffffffffff1673ffffffffffffffffffffffffffffffffffffffff1681526020019081526020016000205403610367576001339080600181540180825580915050600190039060005260206000200160009091909190916101000a81548173ffffffffffffffffffffffffffffffffffffffff021916908373ffffffffffffffffffffffffffffffffffffffff1602179055505b816000803373ffffffffffffffffffffffffffffffffffffffff1673ffffffffffffffffffffffffffffffffffffffff16815260200190815260200160002060008573ffffffffffffffffffffffffffffffffffffffff1673ffffffffffffffffffffffffffffffffffffffff16815260200190815260200160002060008282546103f29190610deb565b92505081905550505050565b6060806000805b6001805490508110156104f05760008060006001848154811061042b5761042a610e1f565b5b9060005260206000200160009054906101000a900473ffffffffffffffffffffffffffffffffffffffff1673ffffffffffffffffffffffffffffffffffffffff1673ffffffffffffffffffffffffffffffffffffffff16815260200190815260200160002060008773ffffffffffffffffffffffffffffffffffffffff1673ffffffffffffffffffffffffffffffffffffffff1681526020019081526020016000205411156104e35781806104df90610e4e565b9250505b8080600101915050610405565b5060008167ffffffffffffffff81111561050d5761050c610e96565b5b60405190808252806020026020018201604052801561053b5781602001602082028036833780820191505090505b50905060008267ffffffffffffffff81111561055a57610559610e96565b5b6040519080825280602002602001820160405280156105885781602001602082028036833780820191505090505b5090506000805b6001805490508110156107df576000806000600184815481106105b5576105b4610e1f565b5b9060005260206000200160009054906101000a900473ffffffffffffffffffffffffffffffffffffffff1673ffffffffffffffffffffffffffffffffffffffff1673ffffffffffffffffffffffffffffffffffffffff16815260200190815260200160002060008a73ffffffffffffffffffffffffffffffffffffffff1673ffffffffffffffffffffffffffffffffffffffff1681526020019081526020016000205411156107d2576001818154811061067257610671610e1f565b5b9060005260206000200160009054906101000a900473ffffffffffffffffffffffffffffffffffffffff168483815181106106b0576106af610e1f565b5b602002602001019073ffffffffffffffffffffffffffffffffffffffff16908173ffffffffffffffffffffffffffffffffffffffff16815250506000806001838154811061070157610700610e1f565b5b9060005260206000200160009054906101000a900473ffffffffffffffffffffffffffffffffffffffff1673ffffffffffffffffffffffffffffffffffffffff1673ffffffffffffffffffffffffffffffffffffffff16815260200190815260200160002060008973ffffffffffffffffffffffffffffffffffffffff1673ffffffffffffffffffffffffffffffffffffffff168152602001908152602001600020548383815181106107b7576107b6610e1f565b5b60200260200101818152505081806107ce90610e4e565b9250505b808060010191505061058f565b5082829550955050505050915091565b6000602052816000526040600020602052806000526040600020600091509150505481565b60008060008473ffffffffffffffffffffffffffffffffffffffff1673ffffffffffffffffffffffffffffffffffffffff16815260200190815260200160002060008373ffffffffffffffffffffffffffffffffffffffff1673ffffffffffffffffffffffffffffffffffffffff16815260200190815260200160002054905092915050565b600080fd5b600073ffffffffffffffffffffffffffffffffffffffff82169050919050565b60006108ca8261089f565b9050919050565b6108da816108bf565b81146108e557600080fd5b50565b6000813590506108f7816108d1565b92915050565b6000819050919050565b610910816108fd565b811461091b57600080fd5b50565b60008135905061092d81610907565b92915050565b6000806040838503121561094a5761094961089a565b5b6000610958858286016108e8565b92505060206109698582860161091e565b9150509250929050565b6000602082840312156109895761098861089a565b5b6000610997848285016108e8565b91505092915050565b600081519050919050565b600082825260208201905092915050565b6000819050602082019050919050565b6109d5816108bf565b82525050565b60006109e783836109cc565b60208301905092915050565b6000602082019050919050565b6000610a0b826109a0565b610a1581856109ab565b9350610a20836109bc565b8060005b83811015610a51578151610a3888826109db565b9750610a43836109f3565b925050600181019050610a24565b5085935050505092915050565b600081519050919050565b600082825260208201905092915050565b6000819050602082019050919050565b610a93816108fd565b82525050565b6000610aa58383610a8a565b60208301905092915050565b6000602082019050919050565b6000610ac982610a5e565b610ad38185610a69565b9350610ade83610a7a565b8060005b83811015610b0f578151610af68882610a99565b9750610b0183610ab1565b925050600181019050610ae2565b5085935050505092915050565b60006040820190508181036000830152610b368185610a00565b90508181036020830152610b4a8184610abe565b90509392505050565b60008060408385031215610b6a57610b6961089a565b5b6000610b78858286016108e8565b9250506020610b89858286016108e8565b9150509250929050565b610b9c816108fd565b82525050565b6000602082019050610bb76000830184610b93565b92915050565b610bc6816108bf565b82525050565b6000604082019050610be16000830185610bbd565b610bee6020830184610bbd565b9392505050565b600081519050610c0481610907565b92915050565b600060208284031215610c2057610c1f61089a565b5b6000610c2e84828501610bf5565b91505092915050565b600082825260208201905092915050565b7f496e73756666696369656e7420616c6c6f77616e63652e000000000000000000600082015250565b6000610c7e601783610c37565b9150610c8982610c48565b602082019050919050565b60006020820190508181036000830152610cad81610c71565b9050919050565b6000606082019050610cc96000830186610bbd565b610cd66020830185610bbd565b610ce36040830184610b93565b949350505050565b60008115159050919050565b610d0081610ceb565b8114610d0b57600080fd5b50565b600081519050610d1d81610cf7565b92915050565b600060208284031215610d3957610d3861089a565b5b6000610d4784828501610d0e565b91505092915050565b7f5472616e73666572206661696c65642e00000000000000000000000000000000600082015250565b6000610d86601083610c37565b9150610d9182610d50565b602082019050919050565b60006020820190508181036000830152610db581610d79565b9050919050565b7f4e487b7100000000000000000000000000000000000000000000000000000000600052601160045260246000fd5b6000610df6826108fd565b9150610e01836108fd565b9250828201905080821115610e1957610e18610dbc565b5b92915050565b7f4e487b7100000000000000000000000000000000000000000000000000000000600052603260045260246000fd5b6000610e59826108fd565b91507fffffffffffffffffffffffffffffffffffffffffffffffffffffffffffffffff8203610e8b57610e8a610dbc565b5b600182019050919050565b7f4e487b7100000000000000000000000000000000000000000000000000000000600052604160045260246000fdfea2646970667358221220031e6bef07c4a68b786003918917375b779ec306b35735b962465ab033f7947564736f6c63430008180033",
  "linkReferences": {},
  "deployedLinkReferences": {}
}