{
  "_format": "hh-sol-artifact-1",
  "contractName": "MCV2_ZapV1",
  "sourceName": "contracts/MCV2_ZapV1.sol",
  "abi": [
    {
      "inputs": [
        {
          "internalType": "address",
          "name": "bondAddress",
          "type": "address"
        },
        {
          "internalType": "address",
          "name": "wethAddress",
          "type": "address"
        }
      ],
      "stateMutability": "nonpayable",
      "type": "constructor"
    },
    {
      "inputs": [
        {
          "internalType": "address",
          "name": "target",
          "type": "address"
        }
      ],
      "name": "AddressEmptyCode",
      "type": "error"
    },
    {
      "inputs": [
        {
          "internalType": "address",
          "name": "account",
          "type": "address"
        }
      ],
      "name": "AddressInsufficientBalance",
      "type": "error"
    },
    {
      "inputs": [],
      "name": "FailedInnerCall",
      "type": "error"
    },
    {
      "inputs": [],
      "name": "MCV2_ZapV1__EthTransferFailed",
      "type": "error"
    },
    {
      "inputs": [],
      "name": "MCV2_ZapV1__FailedToApprove",
      "type": "error"
    },
    {
      "inputs": [],
      "name": "MCV2_ZapV1__InvalidReceiver",
      "type": "error"
    },
    {
      "inputs": [],
      "name": "MCV2_ZapV1__NoETHToRescue",
      "type": "error"
    },
    {
      "inputs": [],
      "name": "MCV2_ZapV1__ReserveIsNotWETH",
      "type": "error"
    },
    {
      "inputs": [],
      "name": "MCV2_ZapV1__SlippageLimitExceeded",
      "type": "error"
    },
    {
      "inputs": [
        {
          "internalType": "address",
          "name": "owner",
          "type": "address"
        }
      ],
      "name": "OwnableInvalidOwner",
      "type": "error"
    },
    {
      "inputs": [
        {
          "internalType": "address",
          "name": "account",
          "type": "address"
        }
      ],
      "name": "OwnableUnauthorizedAccount",
      "type": "error"
    },
    {
      "inputs": [
        {
          "internalType": "address",
          "name": "token",
          "type": "address"
        }
      ],
      "name": "SafeERC20FailedOperation",
      "type": "error"
    },
    {
      "anonymous": false,
      "inputs": [
        {
          "indexed": true,
          "internalType": "address",
          "name": "previousOwner",
          "type": "address"
        },
        {
          "indexed": true,
          "internalType": "address",
          "name": "newOwner",
          "type": "address"
        }
      ],
      "name": "OwnershipTransferred",
      "type": "event"
    },
    {
      "anonymous": false,
      "inputs": [
        {
          "indexed": false,
          "internalType": "address",
          "name": "receiver",
          "type": "address"
        },
        {
          "indexed": false,
          "internalType": "uint256",
          "name": "amount",
          "type": "uint256"
        }
      ],
      "name": "RescuedETH",
      "type": "event"
    },
    {
      "inputs": [],
      "name": "BOND",
      "outputs": [
        {
          "internalType": "contract MCV2_Bond",
          "name": "",
          "type": "address"
        }
      ],
      "stateMutability": "view",
      "type": "function"
    },
    {
      "inputs": [],
      "name": "WETH",
      "outputs": [
        {
          "internalType": "contract IWETH",
          "name": "",
          "type": "address"
        }
      ],
      "stateMutability": "view",
      "type": "function"
    },
    {
      "inputs": [
        {
          "internalType": "address",
          "name": "token",
          "type": "address"
        },
        {
          "internalType": "uint256",
          "name": "tokensToBurn",
          "type": "uint256"
        },
        {
          "internalType": "uint256",
          "name": "minRefund",
          "type": "uint256"
        },
        {
          "internalType": "address",
          "name": "receiver",
          "type": "address"
        }
      ],
      "name": "burnToEth",
      "outputs": [],
      "stateMutability": "nonpayable",
      "type": "function"
    },
    {
      "inputs": [
        {
          "internalType": "address",
          "name": "token",
          "type": "address"
        },
        {
          "internalType": "uint256",
          "name": "tokensToMint",
          "type": "uint256"
        },
        {
          "internalType": "address",
          "name": "receiver",
          "type": "address"
        }
      ],
      "name": "mintWithEth",
      "outputs": [],
      "stateMutability": "payable",
      "type": "function"
    },
    {
      "inputs": [
        {
          "internalType": "address",
          "name": "",
          "type": "address"
        },
        {
          "internalType": "address",
          "name": "",
          "type": "address"
        },
        {
          "internalType": "uint256",
          "name": "",
          "type": "uint256"
        },
        {
          "internalType": "uint256",
          "name": "",
          "type": "uint256"
        },
        {
          "internalType": "bytes",
          "name": "",
          "type": "bytes"
        }
      ],
      "name": "onERC1155Received",
      "outputs": [
        {
          "internalType": "bytes4",
          "name": "",
          "type": "bytes4"
        }
      ],
      "stateMutability": "pure",
      "type": "function"
    },
    {
      "inputs": [],
      "name": "owner",
      "outputs": [
        {
          "internalType": "address",
          "name": "",
          "type": "address"
        }
      ],
      "stateMutability": "view",
      "type": "function"
    },
    {
      "inputs": [],
      "name": "renounceOwnership",
      "outputs": [],
      "stateMutability": "nonpayable",
      "type": "function"
    },
    {
      "inputs": [
        {
          "internalType": "address",
          "name": "receiver",
          "type": "address"
        }
      ],
      "name": "rescueETH",
      "outputs": [],
      "stateMutability": "nonpayable",
      "type": "function"
    },
    {
      "inputs": [
        {
          "internalType": "address",
          "name": "newOwner",
          "type": "address"
        }
      ],
      "name": "transferOwnership",
      "outputs": [],
      "stateMutability": "nonpayable",
      "type": "function"
    },
    {
      "stateMutability": "payable",
      "type": "receive"
    }
  ],
  "bytecode": "0x60c060409080825234620001a8578181620015ee8038038091620000248285620001ad565b833981010312620001a8576200004860206200004083620001e7565b9201620001e7565b903315620001905760008054336001600160a01b03198216811783558551949293602093869360449385938893926001600160a01b039283929183167f8be0079c531659141344cd1fd0a4f28419497f9722a3daafe3b4186f6b6457e08780a316918260805216908160a05263095ea7b360e01b8452600484015260001960248401525af19182156200018457819262000138575b5050156200012857516113f19081620001fd823960805181818161030401528181610ab701528181610c330152611254015260a0518181816102cc01528181610b260152610c030152f35b51637b47a88d60e11b8152600490fd5b9091506020813d82116200017b575b816200015660209383620001ad565b810103126200017757519081151582036200017457503880620000dd565b80fd5b5080fd5b3d915062000147565b508251903d90823e3d90fd5b8251631e4fbdf760e01b815260006004820152602490fd5b600080fd5b601f909101601f19168101906001600160401b03821190821017620001d157604052565b634e487b7160e01b600052604160045260246000fd5b51906001600160a01b0382168203620001a85756fe60406080815260049081361015610020575b5050361561001e57600080fd5b005b600091823560e01c806304824e7014610f20578063715018a614610e845780638274903914610b9b5780638da5cb5b14610b4a578063ad5c464814610adb578063c1c1d21814610a6c578063d288f1441461025a578063f23a6e61146101785763f2fde38b146100905750610011565b346101745760207ffffffffffffffffffffffffffffffffffffffffffffffffffffffffffffffffc360112610174576100c761105e565b906100d061113f565b73ffffffffffffffffffffffffffffffffffffffff809216928315610145575050600054827fffffffffffffffffffffffff0000000000000000000000000000000000000000821617600055167f8be0079c531659141344cd1fd0a4f28419497f9722a3daafe3b4186f6b6457e0600080a380f35b908460249251917f1e4fbdf7000000000000000000000000000000000000000000000000000000008352820152fd5b8280fd5b5091346102575760a07ffffffffffffffffffffffffffffffffffffffffffffffffffffffffffffffffc360112610257576101b161105e565b5060243573ffffffffffffffffffffffffffffffffffffffff811603610252576084359267ffffffffffffffff841161024e573660238501121561024e578301356101fb81611105565b93610208845195866110c4565b8185523660248383010111610174579060209481602487940184830137010152517ff23a6e61000000000000000000000000000000000000000000000000000000008152f35b5080fd5b600080fd5b80fd5b5082903461024e5760807ffffffffffffffffffffffffffffffffffffffffffffffffffffffffffffffffc36011261024e5761029461105e565b73ffffffffffffffffffffffffffffffffffffffff93906064358581169160249081358484036102525788946102c983611206565b867f0000000000000000000000000000000000000000000000000000000000000000169687911603610a445715610a1c5790610380939291897f0000000000000000000000000000000000000000000000000000000000000000169987828c858c84519a8b94859384937fc9cb204b00000000000000000000000000000000000000000000000000000000855284016020909392919373ffffffffffffffffffffffffffffffffffffffff60408201951681520152565b03915afa958615610a12578a966109e2575b5060443586106109ba578216918751927f313ce56700000000000000000000000000000000000000000000000000000000845260209384818c81855afa908115610758578c91610982575b5060ff166012036107d6578851848101907f23b872dd00000000000000000000000000000000000000000000000000000000825233878201523060448201528460648201526064815260a0810181811067ffffffffffffffff8211176107a9578b525161045b918d91829182865af16104546111a6565b908361131b565b805190858215159283610790575b5050506107625788517fdd62ed3e00000000000000000000000000000000000000000000000000000000815230818c0190815273ffffffffffffffffffffffffffffffffffffffff8e1660208201528590829081906040010381855afa908115610758579084918d91610727575b5010610654575b50858a9b8a938c86945b8c517f5a4d531100000000000000000000000000000000000000000000000000000000815273ffffffffffffffffffffffffffffffffffffffff909116968101968752602087019290925260408601939093523060608601529384928391829060800103925af1801561064a5761061b575b505082610565578680f35b833b1561061757869384918651809981937f2e1a7d4d000000000000000000000000000000000000000000000000000000008352878b8401525af195861561060d57839495966105f5575b50829182915af16105bf6111a6565b50156105cf578080808086958680f35b517f78e3d265000000000000000000000000000000000000000000000000000000008152fd5b61060190939193611081565b610174578291876105b0565b84513d85823e3d90fd5b8680fd5b90809298503d8311610643575b61063281836110c4565b81010312610252578695888061055a565b503d610628565b87513d8b823e3d90fd5b838c60448c8e8d5195869485937f095ea7b30000000000000000000000000000000000000000000000000000000085528401527fffffffffffffffffffffffffffffffffffffffffffffffffffffffffffffffff8b8401525af190811561071d578b916106f0575b50156106c8578b6104de565b8888517ff68f511a000000000000000000000000000000000000000000000000000000008152fd5b6107109150843d8611610716575b61070881836110c4565b810190611303565b8c6106bc565b503d6106fe565b89513d8d823e3d90fd5b809250868092503d8311610751575b61074081836110c4565b81010312610252578390518e6104d7565b503d610736565b8a513d8e823e3d90fd5b8985918a51917f5274afe7000000000000000000000000000000000000000000000000000000008352820152fd5b6107a09350820181019101611303565b158d8581610469565b8760418e7f4e487b7100000000000000000000000000000000000000000000000000000000600052526000fd5b90818b9c93923b156109435789517ff242432a000000000000000000000000000000000000000000000000000000008152338c82015230878201528c604482015283606482015260a060848201528c60a48201528c8160c48183865af1801561096457908d9161096e575b505089517fe985e9c500000000000000000000000000000000000000000000000000000000815230818d0190815273ffffffffffffffffffffffffffffffffffffffff861660208201528690829081906040010381855afa9081156109645789938d96938f92938997948491610947575b50156108bf575b506104e8565b9396509350509250803b15610943578b8460448d838e5195869485937fa22cb46500000000000000000000000000000000000000000000000000000000855284015260018c8401525af1801561075857928c89938d96938896156108b95791939650935061092e919450611081565b61093f57899284928c8993386108b9565b8a80fd5b8b80fd5b61095e9150883d8a116107165761070881836110c4565b386108b2565b8b513d8f823e3d90fd5b61097790611081565b610943578b8e610841565b90508481813d83116109b3575b61099981836110c4565b81010312610943575160ff811681036109435760ff6103dd565b503d61098f565b8888517fedba1a8a000000000000000000000000000000000000000000000000000000008152fd5b610a03919650883d8a11610a0b575b6109fb81836110c4565b810190611190565b50948b610392565b503d6109f1565b88513d8c823e3d90fd5b8686517f90e8af8c000000000000000000000000000000000000000000000000000000008152fd5b8787517ff563c86d000000000000000000000000000000000000000000000000000000008152fd5b50503461024e57817ffffffffffffffffffffffffffffffffffffffffffffffffffffffffffffffffc36011261024e576020905173ffffffffffffffffffffffffffffffffffffffff7f0000000000000000000000000000000000000000000000000000000000000000168152f35b50503461024e57817ffffffffffffffffffffffffffffffffffffffffffffffffffffffffffffffffc36011261024e576020905173ffffffffffffffffffffffffffffffffffffffff7f0000000000000000000000000000000000000000000000000000000000000000168152f35b50503461024e57817ffffffffffffffffffffffffffffffffffffffffffffffffffffffffffffffffc36011261024e5773ffffffffffffffffffffffffffffffffffffffff60209254169051908152f35b509060607ffffffffffffffffffffffffffffffffffffffffffffffffffffffffffffffffc36011261017457610bcf61105e565b60243560443573ffffffffffffffffffffffffffffffffffffffff92838216808303610e80578490610c0083611206565b827f0000000000000000000000000000000000000000000000000000000000000000169687911603610a445715610a1c577f000000000000000000000000000000000000000000000000000000000000000016918551947f76a9864b000000000000000000000000000000000000000000000000000000008652868680610cad88878d84016020909392919373ffffffffffffffffffffffffffffffffffffffff60408201951681520152565b0381875afa95861561064a578996610e60575b50348611610e385788813b15610257578691898951809481937fd0e30db00000000000000000000000000000000000000000000000000000000083525af1801561064a57610e16575b5085517ff74bfe8e00000000000000000000000000000000000000000000000000000000815273ffffffffffffffffffffffffffffffffffffffff92831681890190815260208181019690965260408101879052929091166060830152929183918290899082906080015b03925af18015610e0c57610de1575b5080340390348211610db5579084913403610d9c575080f35b81808092335af1610dab6111a6565b50156105cf578280f35b6024856011867f4e487b7100000000000000000000000000000000000000000000000000000000835252fd5b602090813d8111610e05575b610df781836110c4565b810103126102525738610d83565b503d610ded565b83513d87823e3d90fd5b916020939188610d749a610e2b899896611081565b9a50509193509193610d09565b8787517fedba1a8a000000000000000000000000000000000000000000000000000000008152fd5b610e78919650873d8911610a0b576109fb81836110c4565b509438610cc0565b8780fd5b833461025757807ffffffffffffffffffffffffffffffffffffffffffffffffffffffffffffffffc36011261025757610ebb61113f565b8073ffffffffffffffffffffffffffffffffffffffff81547fffffffffffffffffffffffff000000000000000000000000000000000000000081168355167f8be0079c531659141344cd1fd0a4f28419497f9722a3daafe3b4186f6b6457e08280a380f35b5082903461024e5760207ffffffffffffffffffffffffffffffffffffffffffffffffffffffffffffffffc36011261024e57610f5a61105e565b610f6261113f565b73ffffffffffffffffffffffffffffffffffffffff811615611036574791821561100f578380808086865af1610f966111a6565b5015610fe85750925173ffffffffffffffffffffffffffffffffffffffff90931683526020830152907f63b8c8e180bc85c19daef23e2bb787fb49672d3a9ecde24409c18ccb1accb5d190604090a180f35b84517f78e3d265000000000000000000000000000000000000000000000000000000008152fd5b84517f0e287722000000000000000000000000000000000000000000000000000000008152fd5b5082517f90e8af8c000000000000000000000000000000000000000000000000000000008152fd5b6004359073ffffffffffffffffffffffffffffffffffffffff8216820361025257565b67ffffffffffffffff811161109557604052565b7f4e487b7100000000000000000000000000000000000000000000000000000000600052604160045260246000fd5b90601f7fffffffffffffffffffffffffffffffffffffffffffffffffffffffffffffffe0910116810190811067ffffffffffffffff82111761109557604052565b67ffffffffffffffff811161109557601f017fffffffffffffffffffffffffffffffffffffffffffffffffffffffffffffffe01660200190565b73ffffffffffffffffffffffffffffffffffffffff60005416330361116057565b60246040517f118cdaa7000000000000000000000000000000000000000000000000000000008152336004820152fd5b9190826040910312610252576020825192015190565b3d156111d1573d906111b782611105565b916111c560405193846110c4565b82523d6000602084013e565b606090565b519073ffffffffffffffffffffffffffffffffffffffff8216820361025257565b519061ffff8216820361025257565b60c0602491604051928380927fd9fe0eae00000000000000000000000000000000000000000000000000000000825273ffffffffffffffffffffffffffffffffffffffff80911660048301527f0000000000000000000000000000000000000000000000000000000000000000165afa9081156112f757600091611288575090565b9060c0823d82116112ef575b816112a160c093836110c4565b81010312610257576112b2826111d6565b506112bf602083016111f7565b506112cc604083016111f7565b50606082015164ffffffffff811603610257575060806112ec91016111d6565b90565b3d9150611294565b6040513d6000823e3d90fd5b90816020910312610252575180151581036102525790565b9061135a575080511561133057805190602001fd5b60046040517f1425ea42000000000000000000000000000000000000000000000000000000008152fd5b815115806113b2575b61136b575090565b60249073ffffffffffffffffffffffffffffffffffffffff604051917f9996b315000000000000000000000000000000000000000000000000000000008352166004820152fd5b50803b1561136356fea2646970667358221220c624ae0b08b31e3837cb2e55558601eadc82a48fbb0ddb4ffc45bbeb6ad6156264736f6c63430008140033",
  "linkReferences": {},
  "deployedLinkReferences": {}
}