{
  "_format": "hh-sol-artifact-1",
  "contractName": "Exchange",
  "sourceName": "contracts/Exchange.sol",
  "abi": [
    {
      "inputs": [
        {
          "internalType": "address",
          "name": "_dragonswapRouter",
          "type": "address"
        },
        {
          "internalType": "address",
          "name": "_dragonswapFactory",
          "type": "address"
        }
      ],
      "stateMutability": "nonpayable",
      "type": "constructor"
    },
    {
      "inputs": [
        {
          "internalType": "address",
          "name": "token",
          "type": "address"
        }
      ],
      "name": "buyTokens",
      "outputs": [],
      "stateMutability": "payable",
      "type": "function"
    },
    {
      "inputs": [],
      "name": "dragonswapFactory",
      "outputs": [
        {
          "internalType": "address",
          "name": "",
          "type": "address"
        }
      ],
      "stateMutability": "view",
      "type": "function"
    },
    {
      "inputs": [],
      "name": "dragonswapRouter",
      "outputs": [
        {
          "internalType": "contract IDragonswapRouter",
          "name": "",
          "type": "address"
        }
      ],
      "stateMutability": "view",
      "type": "function"
    },
    {
      "inputs": [
        {
          "internalType": "address",
          "name": "token",
          "type": "address"
        },
        {
          "internalType": "uint256",
          "name": "tokenAmount",
          "type": "uint256"
        }
      ],
      "name": "sellTokens",
      "outputs": [],
      "stateMutability": "nonpayable",
      "type": "function"
    },
    {
      "inputs": [],
      "name": "wsei",
      "outputs": [
        {
          "internalType": "address",
          "name": "",
          "type": "address"
        }
      ],
      "stateMutability": "view",
      "type": "function"
    }
  ],
  "bytecode": "0x608080604052346100fe57604081610a24803803809161001f8285610103565b8339810103126100fe5761003e60206100378361013c565b920161013c565b600080546001600160a01b03199081166001600160a01b039485169081178355600180548316948616949094179093556040516309bf4f4160e31b8152909392602090829060049082905afa9182156100f25780926100b3575b5050169060025416176002556040516108d390816101518239f35b9091506020823d82116100ea575b816100ce60209383610103565b810103126100e757506100e09061013c565b3880610098565b80fd5b3d91506100c1565b604051903d90823e3d90fd5b600080fd5b601f909101601f19168101906001600160401b0382119082101761012657604052565b634e487b7160e01b600052604160045260246000fd5b51906001600160a01b03821682036100fe5756fe608060408181526004918236101561001657600080fd5b600092833560e01c918263c464fe651461037a57508163c895471614610327578163ec8ac4d81461010157508063f30952dd146100b15763f9d0fe421461005c57600080fd5b346100ad57817ffffffffffffffffffffffffffffffffffffffffffffffffffffffffffffffffc3601126100ad5760209073ffffffffffffffffffffffffffffffffffffffff600254169051908152f35b5080fd5b50346100ad57817ffffffffffffffffffffffffffffffffffffffffffffffffffffffffffffffffc3601126100ad5773ffffffffffffffffffffffffffffffffffffffff60209254169051908152f35b8383602090817ffffffffffffffffffffffffffffffffffffffffffffffffffffffffffffffffc360112610323576101376106fb565b34156102c75781519061014982610766565b6002825282368584013773ffffffffffffffffffffffffffffffffffffffff808654169484517f4dfa7a0800000000000000000000000000000000000000000000000000000000815281818a818a5afa9182156102bd578892610290575b5050816101b3856107ef565b911690526101c08361082b565b911690526103844201928342116102645790818596923b1561026057858093610223968651978895869485947f97faeef300000000000000000000000000000000000000000000000000000000865285015260806024850152608484019061083b565b903360448401526064830152039134905af190811561025757506102445750f35b61024d90610723565b6102545780f35b80fd5b513d84823e3d90fd5b8580fd5b6024856011887f4e487b7100000000000000000000000000000000000000000000000000000000835252fd5b6102af9250803d106102b6575b6102a78183610782565b8101906107c3565b88806101a7565b503d61029d565b86513d8a823e3d90fd5b606485848451917f08c379a0000000000000000000000000000000000000000000000000000000008352820152601660248201527f53656e642053454920746f2062757920746f6b656e73000000000000000000006044820152fd5b8280fd5b5050346100ad57817ffffffffffffffffffffffffffffffffffffffffffffffffffffffffffffffffc3601126100ad5760209073ffffffffffffffffffffffffffffffffffffffff600154169051908152f35b8385913461032357817ffffffffffffffffffffffffffffffffffffffffffffffffffffffffffffffffc360112610323576103b36106fb565b602491823590811561067b57509084929173ffffffffffffffffffffffffffffffffffffffff8092168551907f23b872dd000000000000000000000000000000000000000000000000000000008252338983015280858301528260448301528160648160209889945af19081156105f957879161065e575b501561060357818654168551907f095ea7b300000000000000000000000000000000000000000000000000000000825288820152818482015284816044818a305af180156105f9576105cc575b5084519361048585610766565b6002855285368287013730610499866107ef565b52828754169286517f4dfa7a0800000000000000000000000000000000000000000000000000000000815282818b81885afa9283156105c25789936105a3575b50506104e48661082b565b91169052610384420193844211610578578697833b15610574578795610548879389519a8b98899788967fd8c3348e00000000000000000000000000000000000000000000000000000000885287015285015260a0604485015260a484019061083b565b90336064840152608483015203925af19081156102575750610568575080f35b61057190610723565b80f35b8780fd5b838760118a7f4e487b7100000000000000000000000000000000000000000000000000000000835252fd5b6105ba929350803d106102b6576102a78183610782565b9089806104d9565b88513d8b823e3d90fd5b6105eb90853d87116105f2575b6105e38183610782565b810190610885565b5087610478565b503d6105d9565b86513d89823e3d90fd5b606487600f85878951937f08c379a00000000000000000000000000000000000000000000000000000000085528401528201527f5472616e73666572206661696c656400000000000000000000000000000000006044820152fd5b6106759150853d87116105f2576105e38183610782565b8861042b565b8060238560208a7f08c379a000000000000000000000000000000000000000000000000000000000608496528401528201527f5370656369667920616e20616d6f756e74206f6620746f6b656e7320746f207360448201527f656c6c00000000000000000000000000000000000000000000000000000000006064820152fd5b6004359073ffffffffffffffffffffffffffffffffffffffff8216820361071e57565b600080fd5b67ffffffffffffffff811161073757604052565b7f4e487b7100000000000000000000000000000000000000000000000000000000600052604160045260246000fd5b6060810190811067ffffffffffffffff82111761073757604052565b90601f7fffffffffffffffffffffffffffffffffffffffffffffffffffffffffffffffe0910116810190811067ffffffffffffffff82111761073757604052565b9081602091031261071e575173ffffffffffffffffffffffffffffffffffffffff8116810361071e5790565b8051156107fc5760200190565b7f4e487b7100000000000000000000000000000000000000000000000000000000600052603260045260246000fd5b8051600110156107fc5760400190565b90815180825260208080930193019160005b82811061085b575050505090565b835173ffffffffffffffffffffffffffffffffffffffff168552938101939281019260010161084d565b9081602091031261071e5751801515810361071e579056fea2646970667358221220ee8deecd6e4bf94183734555cd9b33da6b1bd7478f4017fb5838df7df9de5b1864736f6c63430008140033",
  "linkReferences": {},
  "deployedLinkReferences": {}
}