{
  "_format": "hh-sol-artifact-1",
  "contractName": "MCV1_Wrapper",
  "sourceName": "contracts/MCV1_Wrapper.sol",
  "abi": [
    {
      "inputs": [],
      "name": "MCV1_Wrapper__InvalidPaginationParameters",
      "type": "error"
    },
    {
      "inputs": [],
      "name": "MCV1_Wrapper__TokenNotFound",
      "type": "error"
    },
    {
      "inputs": [],
      "name": "BOND",
      "outputs": [
        {
          "internalType": "contract IMintClubBond",
          "name": "",
          "type": "address"
        }
      ],
      "stateMutability": "view",
      "type": "function"
    },
    {
      "inputs": [
        {
          "internalType": "address",
          "name": "token",
          "type": "address"
        }
      ],
      "name": "getDetail",
      "outputs": [
        {
          "components": [
            {
              "internalType": "uint16",
              "name": "buyRoyalty",
              "type": "uint16"
            },
            {
              "internalType": "uint16",
              "name": "sellRoyalty",
              "type": "uint16"
            },
            {
              "components": [
                {
                  "internalType": "address",
                  "name": "token",
                  "type": "address"
                },
                {
                  "internalType": "string",
                  "name": "symbol",
                  "type": "string"
                },
                {
                  "internalType": "string",
                  "name": "name",
                  "type": "string"
                },
                {
                  "internalType": "uint256",
                  "name": "currentSupply",
                  "type": "uint256"
                },
                {
                  "internalType": "uint256",
                  "name": "maxSupply",
                  "type": "uint256"
                },
                {
                  "internalType": "uint256",
                  "name": "priceForNextMint",
                  "type": "uint256"
                },
                {
                  "internalType": "uint256",
                  "name": "reserveBalance",
                  "type": "uint256"
                }
              ],
              "internalType": "struct MCV1_Wrapper.BondInfo",
              "name": "info",
              "type": "tuple"
            }
          ],
          "internalType": "struct MCV1_Wrapper.BondDetail",
          "name": "detail",
          "type": "tuple"
        }
      ],
      "stateMutability": "view",
      "type": "function"
    },
    {
      "inputs": [
        {
          "internalType": "uint256",
          "name": "start",
          "type": "uint256"
        },
        {
          "internalType": "uint256",
          "name": "stop",
          "type": "uint256"
        }
      ],
      "name": "getList",
      "outputs": [
        {
          "components": [
            {
              "internalType": "address",
              "name": "token",
              "type": "address"
            },
            {
              "internalType": "string",
              "name": "symbol",
              "type": "string"
            },
            {
              "internalType": "string",
              "name": "name",
              "type": "string"
            },
            {
              "internalType": "uint256",
              "name": "currentSupply",
              "type": "uint256"
            },
            {
              "internalType": "uint256",
              "name": "maxSupply",
              "type": "uint256"
            },
            {
              "internalType": "uint256",
              "name": "priceForNextMint",
              "type": "uint256"
            },
            {
              "internalType": "uint256",
              "name": "reserveBalance",
              "type": "uint256"
            }
          ],
          "internalType": "struct MCV1_Wrapper.BondInfo[]",
          "name": "info",
          "type": "tuple[]"
        }
      ],
      "stateMutability": "view",
      "type": "function"
    },
    {
      "inputs": [
        {
          "internalType": "address",
          "name": "token",
          "type": "address"
        },
        {
          "internalType": "uint256",
          "name": "tokensToBurn",
          "type": "uint256"
        }
      ],
      "name": "getRefundForTokens",
      "outputs": [
        {
          "internalType": "uint256",
          "name": "refundAmount",
          "type": "uint256"
        },
        {
          "internalType": "uint256",
          "name": "royalty",
          "type": "uint256"
        }
      ],
      "stateMutability": "view",
      "type": "function"
    },
    {
      "inputs": [
        {
          "internalType": "address",
          "name": "token",
          "type": "address"
        },
        {
          "internalType": "uint256",
          "name": "tokensToMint",
          "type": "uint256"
        }
      ],
      "name": "getReserveForToken",
      "outputs": [
        {
          "internalType": "uint256",
          "name": "reserveAmount",
          "type": "uint256"
        },
        {
          "internalType": "uint256",
          "name": "royalty",
          "type": "uint256"
        }
      ],
      "stateMutability": "view",
      "type": "function"
    },
    {
      "inputs": [],
      "name": "tokenCount",
      "outputs": [
        {
          "internalType": "uint256",
          "name": "",
          "type": "uint256"
        }
      ],
      "stateMutability": "view",
      "type": "function"
    },
    {
      "inputs": [
        {
          "internalType": "uint256",
          "name": "index",
          "type": "uint256"
        }
      ],
      "name": "tokens",
      "outputs": [
        {
          "internalType": "address",
          "name": "",
          "type": "address"
        }
      ],
      "stateMutability": "view",
      "type": "function"
    }
  ],
  "bytecode": "0x6080806040523461001657611075908161001c8239f35b600080fdfe608060409080825260048036101561001657600080fd5b600091823560e01c9081634f64b2be146108da5750806376a9864b146106a35780639f181b5e146105d5578063a746ee2e1461051f578063a9816b081461026d578063c1c1d218146102205763c9cb204b1461007157600080fd5b3461021c57827ffffffffffffffffffffffffffffffffffffffffffffffffffffffffffffffffc36011261021c576100a76109b6565b9073ffffffffffffffffffffffffffffffffffffffff8451927f9cc7becf000000000000000000000000000000000000000000000000000000008452168082840152602091738bbac0c7583cc146244a18863e708bffbbf19975938381602481885afa9081156102125786916101e1575b50156101ba579060448692835195869384927f37430a5100000000000000000000000000000000000000000000000000000000845283015260243560248301525afa9182156101b057838093610175575b50508351928352820152f35b91925092508383813d83116101a9575b61018f8183610b1e565b810103126101a65750808251920151903880610169565b80fd5b503d610185565b84513d85823e3d90fd5b85517f91410588000000000000000000000000000000000000000000000000000000008152fd5b90508381813d831161020b575b6101f88183610b1e565b81010312610207575138610118565b8580fd5b503d6101ee565b87513d88823e3d90fd5b5080fd5b82843461021c57817ffffffffffffffffffffffffffffffffffffffffffffffffffffffffffffffffc36011261021c5760209051738bbac0c7583cc146244a18863e708bffbbf199758152f35b503461021c57827ffffffffffffffffffffffffffffffffffffffffffffffffffffffffffffffffc36011261021c576024918235823581811080159061050b575b6104e35785517f9f181b5e000000000000000000000000000000000000000000000000000000008152602095738bbac0c7583cc146244a18863e708bffbbf199759187818881865afa9081156104d95786916104ac575b508085116104a4575b50828403957fffffffffffffffffffffffffffffffffffffffffffffffffffffffffffffffe061035561034089610c8f565b9861034d8c519a8b610b1e565b808a52610c8f565b0188875b82811061048e5750505085935b8581106103ea5750505050505083519280840190808552835180925280868601968360051b870101940192955b8287106103a05785850386f35b9091929382806103da837fffffffffffffffffffffffffffffffffffffffffffffffffffffffffffffffc08a600196030186528851610a44565b9601920196019592919092610393565b89517f4f64b2be000000000000000000000000000000000000000000000000000000008152818382015289818581885afa9081156104845761043a60019392610450928b91610457575b50610dad565b9683810197610449828d610ce0565b528a610ce0565b5001610366565b61047791508d803d1061047d575b61046f8183610b1e565b810190610c63565b38610434565b503d610465565b8b513d8a823e3d90fd5b610496610ca7565b82828c010152018990610359565b93503861030e565b90508781813d83116104d2575b6104c38183610b1e565b81010312610207575138610305565b503d6104b9565b89513d88823e3d90fd5b8386517f0fcce4fd000000000000000000000000000000000000000000000000000000008152fd5b506103e86105198284610c56565b116102ae565b5050346101a65760207ffffffffffffffffffffffffffffffffffffffffffffffffffffffffffffffffc3601126101a6576105829061055c6109b6565b9083519061056982610ab7565b80825260208201528361057a610ca7565b910152610dad565b906105d181519261059284610ab7565b601e845260208401926082845280850191825280519485946020865261ffff809251166020870152511690840152516060808401526080830190610a44565b0390f35b50823461068d57827ffffffffffffffffffffffffffffffffffffffffffffffffffffffffffffffffc36011261068d576020815180937f9f181b5e00000000000000000000000000000000000000000000000000000000825281738bbac0c7583cc146244a18863e708bffbbf199755afa91821561069957839261065e575b6020838351908152f35b9091506020813d8211610691575b8161067960209383610b1e565b8101031261068d5760209250519083610654565b8280fd5b3d915061066c565b81513d85823e3d90fd5b503461021c57827ffffffffffffffffffffffffffffffffffffffffffffffffffffffffffffffffc36011261021c576106da6109b6565b9073ffffffffffffffffffffffffffffffffffffffff8451927f9cc7becf0000000000000000000000000000000000000000000000000000000084521680828401526020928381602481738bbac0c7583cc146244a18863e708bffbbf199755afa9081156108d057859161089f575b5015610877578282918651928380927f18160ddd0000000000000000000000000000000000000000000000000000000082525afa90811561086d57849161083c575b50602435810180821161081057671bc16d674ec80000916107b76107b16107bd93610b5f565b91610b5f565b90610c56565b04926003840291848304600314851517156107e45750506103e89084519384520490820152f35b9060116024927f4e487b7100000000000000000000000000000000000000000000000000000000835252fd5b6024856011857f4e487b7100000000000000000000000000000000000000000000000000000000835252fd5b90508281813d8311610866575b6108538183610b1e565b8101031261086257513861078b565b8380fd5b503d610849565b85513d86823e3d90fd5b5083517f91410588000000000000000000000000000000000000000000000000000000008152fd5b90508381813d83116108c9575b6108b68183610b1e565b810103126108c5575138610749565b8480fd5b503d6108ac565b86513d87823e3d90fd5b91849150346108625760207ffffffffffffffffffffffffffffffffffffffffffffffffffffffffffffffffc360112610862577f4f64b2be000000000000000000000000000000000000000000000000000000008352803590830152602082602481738bbac0c7583cc146244a18863e708bffbbf199755afa9182156106995760209392610981575b5073ffffffffffffffffffffffffffffffffffffffff905191168152f35b73ffffffffffffffffffffffffffffffffffffffff9192506109af90843d811161047d5761046f8183610b1e565b9190610963565b6004359073ffffffffffffffffffffffffffffffffffffffff821682036109d957565b600080fd5b60005b8381106109f15750506000910152565b81810151838201526020016109e1565b907fffffffffffffffffffffffffffffffffffffffffffffffffffffffffffffffe0601f602093610a3d815180928187528780880191016109de565b0116010190565b9073ffffffffffffffffffffffffffffffffffffffff825116815260c080610a90610a7e602086015160e0602087015260e0860190610a01565b60408601518582036040870152610a01565b93606081015160608501526080810151608085015260a081015160a0850152015191015290565b6060810190811067ffffffffffffffff821117610ad357604052565b7f4e487b7100000000000000000000000000000000000000000000000000000000600052604160045260246000fd5b60e0810190811067ffffffffffffffff821117610ad357604052565b90601f7fffffffffffffffffffffffffffffffffffffffffffffffffffffffffffffffe0910116810190811067ffffffffffffffff821117610ad357604052565b8015610c50578080600114610c4957600214610c43576001908161013382101682600b83101617610c3b57906002815b808211610bf4575050817fffffffffffffffffffffffffffffffffffffffffffffffffffffffffffffffff048111610bc5570290565b7f4e487b7100000000000000000000000000000000000000000000000000000000600052601160045260246000fd5b9092807fffffffffffffffffffffffffffffffffffffffffffffffffffffffffffffffff048111610bc557818416610c32575b800292811c90610b8f565b80920291610c27565b600291500a90565b50600490565b5050600190565b50600090565b91908203918211610bc557565b908160209103126109d9575173ffffffffffffffffffffffffffffffffffffffff811681036109d95790565b67ffffffffffffffff8111610ad35760051b60200190565b60405190610cb482610b02565b600060c08382815260606020820152606060408201528260608201528260808201528260a08201520152565b8051821015610cf45760209160051b010190565b7f4e487b7100000000000000000000000000000000000000000000000000000000600052603260045260246000fd5b6020818303126109d957805167ffffffffffffffff918282116109d957019082601f830112156109d9578151908111610ad35760405192610d8c60207fffffffffffffffffffffffffffffffffffffffffffffffffffffffffffffffe0601f8501160185610b1e565b818452602082840101116109d957610daa91602080850191016109de565b90565b73ffffffffffffffffffffffffffffffffffffffff90610dcb610ca7565b50169060409182517f18160ddd0000000000000000000000000000000000000000000000000000000081526020938482600481865afa918215610fea57600092611010575b508051907f95d89b41000000000000000000000000000000000000000000000000000000008252600082600481875afa918215610fea57600092610ff5575b508051907f06fdde03000000000000000000000000000000000000000000000000000000008252600082600481885afa918215610fea57600092610fc7575b508051927f9cc7becf000000000000000000000000000000000000000000000000000000008452856004850152738bbac0c7583cc146244a18863e708bffbbf199759780856024818c5afa948515610f8b57600095610f96575b508060249798998451988980927fdc8de3790000000000000000000000000000000000000000000000000000000082528c60048301525afa968715610f8b57600097610f5c575b50825197610f3c89610b02565b8852870152850152816060850152608084015260a083015260c082015290565b90968782813d8311610f84575b610f738183610b1e565b810103126101a65750519538610f2f565b503d610f69565b83513d6000823e3d90fd5b9894818a813d8311610fc0575b610fad8183610b1e565b810103126101a657509751939780610ee8565b503d610fa3565b610fe391923d8091833e610fdb8183610b1e565b810190610d23565b9038610e8e565b50513d6000823e3d90fd5b61100991923d8091833e610fdb8183610b1e565b9038610e4f565b90918582813d8311611038575b6110278183610b1e565b810103126101a65750519038610e10565b503d61101d56fea26469706673582212207898c5dce2c43ee01d0bc177c4773cee464caadf43c40063e6fdd1d0d130168c64736f6c63430008140033",
  "linkReferences": {},
  "deployedLinkReferences": {}
}