{
  "_format": "hh-sol-artifact-1",
  "contractName": "Locker",
  "sourceName": "contracts/Locker.sol",
  "abi": [
    {
      "inputs": [
        {
          "internalType": "address",
          "name": "target",
          "type": "address"
        }
      ],
      "name": "AddressEmptyCode",
      "type": "error"
    },
    {
      "inputs": [
        {
          "internalType": "address",
          "name": "account",
          "type": "address"
        }
      ],
      "name": "AddressInsufficientBalance",
      "type": "error"
    },
    {
      "inputs": [],
      "name": "FailedInnerCall",
      "type": "error"
    },
    {
      "inputs": [],
      "name": "LockUp__AlreadyClaimed",
      "type": "error"
    },
    {
      "inputs": [],
      "name": "LockUp__InvalidPaginationParameters",
      "type": "error"
    },
    {
      "inputs": [
        {
          "internalType": "string",
          "name": "param",
          "type": "string"
        }
      ],
      "name": "LockUp__InvalidParams",
      "type": "error"
    },
    {
      "inputs": [],
      "name": "LockUp__NotYetUnlocked",
      "type": "error"
    },
    {
      "inputs": [],
      "name": "LockUp__PermissionDenied",
      "type": "error"
    },
    {
      "inputs": [
        {
          "internalType": "address",
          "name": "token",
          "type": "address"
        }
      ],
      "name": "SafeERC20FailedOperation",
      "type": "error"
    },
    {
      "anonymous": false,
      "inputs": [
        {
          "indexed": true,
          "internalType": "uint256",
          "name": "lockUpId",
          "type": "uint256"
        },
        {
          "indexed": true,
          "internalType": "address",
          "name": "token",
          "type": "address"
        },
        {
          "indexed": false,
          "internalType": "bool",
          "name": "isERC20",
          "type": "bool"
        },
        {
          "indexed": true,
          "internalType": "address",
          "name": "receiver",
          "type": "address"
        },
        {
          "indexed": false,
          "internalType": "uint256",
          "name": "amount",
          "type": "uint256"
        },
        {
          "indexed": false,
          "internalType": "uint40",
          "name": "unlockTime",
          "type": "uint40"
        }
      ],
      "name": "LockedUp",
      "type": "event"
    },
    {
      "anonymous": false,
      "inputs": [
        {
          "indexed": true,
          "internalType": "uint256",
          "name": "lockUpId",
          "type": "uint256"
        },
        {
          "indexed": true,
          "internalType": "address",
          "name": "token",
          "type": "address"
        },
        {
          "indexed": false,
          "internalType": "bool",
          "name": "isERC20",
          "type": "bool"
        },
        {
          "indexed": true,
          "internalType": "address",
          "name": "receiver",
          "type": "address"
        },
        {
          "indexed": false,
          "internalType": "uint256",
          "name": "amount",
          "type": "uint256"
        }
      ],
      "name": "Unlocked",
      "type": "event"
    },
    {
      "inputs": [
        {
          "internalType": "address",
          "name": "token",
          "type": "address"
        },
        {
          "internalType": "bool",
          "name": "isERC20",
          "type": "bool"
        },
        {
          "internalType": "uint256",
          "name": "amount",
          "type": "uint256"
        },
        {
          "internalType": "uint40",
          "name": "unlockTime",
          "type": "uint40"
        },
        {
          "internalType": "address",
          "name": "receiver",
          "type": "address"
        },
        {
          "internalType": "string",
          "name": "title",
          "type": "string"
        }
      ],
      "name": "createLockUp",
      "outputs": [],
      "stateMutability": "nonpayable",
      "type": "function"
    },
    {
      "inputs": [
        {
          "internalType": "address",
          "name": "receiver",
          "type": "address"
        },
        {
          "internalType": "uint256",
          "name": "start",
          "type": "uint256"
        },
        {
          "internalType": "uint256",
          "name": "stop",
          "type": "uint256"
        }
      ],
      "name": "getLockUpIdsByReceiver",
      "outputs": [
        {
          "internalType": "uint256[]",
          "name": "ids",
          "type": "uint256[]"
        }
      ],
      "stateMutability": "view",
      "type": "function"
    },
    {
      "inputs": [
        {
          "internalType": "address",
          "name": "token",
          "type": "address"
        },
        {
          "internalType": "uint256",
          "name": "start",
          "type": "uint256"
        },
        {
          "internalType": "uint256",
          "name": "stop",
          "type": "uint256"
        }
      ],
      "name": "getLockUpIdsByToken",
      "outputs": [
        {
          "internalType": "uint256[]",
          "name": "ids",
          "type": "uint256[]"
        }
      ],
      "stateMutability": "view",
      "type": "function"
    },
    {
      "inputs": [],
      "name": "lockUpCount",
      "outputs": [
        {
          "internalType": "uint256",
          "name": "",
          "type": "uint256"
        }
      ],
      "stateMutability": "view",
      "type": "function"
    },
    {
      "inputs": [
        {
          "internalType": "uint256",
          "name": "",
          "type": "uint256"
        }
      ],
      "name": "lockUps",
      "outputs": [
        {
          "internalType": "address",
          "name": "token",
          "type": "address"
        },
        {
          "internalType": "bool",
          "name": "isERC20",
          "type": "bool"
        },
        {
          "internalType": "uint40",
          "name": "unlockTime",
          "type": "uint40"
        },
        {
          "internalType": "bool",
          "name": "unlocked",
          "type": "bool"
        },
        {
          "internalType": "uint256",
          "name": "amount",
          "type": "uint256"
        },
        {
          "internalType": "address",
          "name": "receiver",
          "type": "address"
        },
        {
          "internalType": "string",
          "name": "title",
          "type": "string"
        }
      ],
      "stateMutability": "view",
      "type": "function"
    },
    {
      "inputs": [
        {
          "internalType": "address",
          "name": "",
          "type": "address"
        },
        {
          "internalType": "address",
          "name": "",
          "type": "address"
        },
        {
          "internalType": "uint256",
          "name": "",
          "type": "uint256"
        },
        {
          "internalType": "uint256",
          "name": "",
          "type": "uint256"
        },
        {
          "internalType": "bytes",
          "name": "",
          "type": "bytes"
        }
      ],
      "name": "onERC1155Received",
      "outputs": [
        {
          "internalType": "bytes4",
          "name": "",
          "type": "bytes4"
        }
      ],
      "stateMutability": "pure",
      "type": "function"
    },
    {
      "inputs": [
        {
          "internalType": "uint256",
          "name": "lockUpId",
          "type": "uint256"
        }
      ],
      "name": "unlock",
      "outputs": [],
      "stateMutability": "nonpayable",
      "type": "function"
    }
  ],
  "bytecode": "0x60808060405234610016576113d5908161001c8239f35b600080fdfe6080604052600436101561001257600080fd5b6000803560e01c8063036feee814610e4457806312fcdb5214610c645780631a8cef3e146105b95780631ef24a951461057e5780636198e33914610282578063d840d8a8146101505763f23a6e611461006a57600080fd5b3461014d5760a07ffffffffffffffffffffffffffffffffffffffffffffffffffffffffffffffffc36011261014d576100a1610f4d565b5060243573ffffffffffffffffffffffffffffffffffffffff8116036101485760843567ffffffffffffffff811161014457366023820112156101445780600401356100ec8161110e565b6100f960405191826110cd565b818152366024838501011161014057816024602094018483013701015260206040517ff23a6e61000000000000000000000000000000000000000000000000000000008152f35b8380fd5b5080fd5b600080fd5b80fd5b503461014d5761015f36610f70565b9291908380821080159061026e575b61024457835480911161023c575b508291815b8581106101fe57506101928361130d565b93915b8581106101af575b604051806101ab8782610fc5565b0390f35b6101b881611000565b505473ffffffffffffffffffffffffffffffffffffffff8381169116146101e2575b600101610195565b806101f160018501948761135c565b528383036101da5761019d565b61020781611000565b505473ffffffffffffffffffffffffffffffffffffffff838116911614610231575b600101610181565b600190930192610229565b93503861017c565b60046040517f4bdc5d14000000000000000000000000000000000000000000000000000000008152fd5b5061271061027c8383611148565b1161016e565b503461014d5760207ffffffffffffffffffffffffffffffffffffffffffffffffffffffffffffffffc36011261014d5760043560026102c082611000565b50015473ffffffffffffffffffffffffffffffffffffffff9081163303610554576102ea82611000565b5091825460ff8160d01c1661052a574264ffffffffff8260a81c161161050057828160ff7a0100000000000000000000000000000000000000000000000000007fffffffffff00ffffffffffffffffffffffffffffffffffffffffffffffffffff8995161780885560a01c1660001461044657509050835416826002850154166001850154604051917fa9059cbb0000000000000000000000000000000000000000000000000000000060208401526024830152604482015260448152608081019181831067ffffffffffffffff841117610417576103cb92604052611184565b7f5a26b333488226707354f0b3ade5e1d4bfccb7c73adbe0b993b1f5839ede7e4d60408454936001816002880154169601549482519560ff8260a01c161515875260208701521693a480f35b7f4e487b7100000000000000000000000000000000000000000000000000000000600052604160045260246000fd5b16836002860154166001860154823b15610140576040517ff242432a00000000000000000000000000000000000000000000000000000000815230600482015273ffffffffffffffffffffffffffffffffffffffff929092166024830152600060448301819052606483019190915260a0608483015260a4820152908290829060c490829084905af180156104f5576104e1575b50506103cb565b6104ea906110b9565b6101405783386104da565b6040513d84823e3d90fd5b60046040517faa648344000000000000000000000000000000000000000000000000000000008152fd5b60046040517f7f6c4667000000000000000000000000000000000000000000000000000000008152fd5b60046040517fcbd5b322000000000000000000000000000000000000000000000000000000008152fd5b503461014d57807ffffffffffffffffffffffffffffffffffffffffffffffffffffffffffffffffc36011261014d5760209054604051908152f35b503461014d5760c07ffffffffffffffffffffffffffffffffffffffffffffffffffffffffffffffffc36011261014d576105f1610f4d565b6024351515602435036101445764ffffffffff60643516606435036101445760843573ffffffffffffffffffffffffffffffffffffffff80821682036101405767ffffffffffffffff60a435116101405736602360a4350112156101405767ffffffffffffffff60a43560040135116101405736602460a4356004013560a4350101116101405780831615610c065760443515610ba8574264ffffffffff606435161115610b4a5780821615610aec57835468010000000000000000811015610abf57600181018086556106c482611000565b505081116108de576106d590611000565b5080547fffffffffffff00000000000000000000000000000000000000000000000000001684831617602435151560a01b74ff0000000000000000000000000000000000000000161760643560a81b79ffffffffff0000000000000000000000000000000000000000001617815560443560018201556002810180547fffffffffffffffffffffffff000000000000000000000000000000000000000016848416179055600381015461078790611066565b601f8111610a74575b5084601f60a43560040135116001146109ac57600390869060a4356004013561099c575b5060a4356004013560011b907fffffffffffffffffffffffffffffffffffffffffffffffffffffffffffffffff60a43560040135841b1c1916179101555b6024351561090b576040517f23b872dd00000000000000000000000000000000000000000000000000000000602082015233602482015230604482015260443560648201526064815260a081019080821067ffffffffffffffff8311176104175761086291604052828516611184565b8354907fffffffffffffffffffffffffffffffffffffffffffffffffffffffffffffffff82019182116108de576060817fcdff04b70b8b30e7d2243ff87e502ec2218b580b9a2329b9ee17af80e2dde9c4926040519560243515158752604435602088015264ffffffffff60643516604088015216951693a480f35b6024857f4e487b710000000000000000000000000000000000000000000000000000000081526011600452fd5b8083163b15610140576040517ff242432a0000000000000000000000000000000000000000000000000000000081523360048201523060248201526000604480830182905235606483015260a0608483015260a4820152848160c481838887165af180156109915761097e575b50610862565b61098a909491946110b9565b9238610978565b6040513d87823e3d90fd5b6024915060a435010135386107b4565b7fffffffffffffffffffffffffffffffffffffffffffffffffffffffffffffffe060a4356004013516906003830187526020918288209288905b828210610a5757505060a4356004013511610a14575b50506003600160a43560040135811b019101556107f2565b60247fffffffffffffffffffffffffffffffffffffffffffffffffffffffffffffffff60f860a4356004013560031b161c199160a43501013516905538806109fc565b8060018596602483959760a43501013581550195019301906109e6565b600382018652602080872090600460a4350135601f810160051c83019111610ab8575b601f830160051c82018110610aad575050610790565b878155600101610a97565b5080610a97565b6024857f4e487b710000000000000000000000000000000000000000000000000000000081526041600452fd5b60646040517f249ef75500000000000000000000000000000000000000000000000000000000815260206004820152600860248201527f72656365697665720000000000000000000000000000000000000000000000006044820152fd5b60646040517f249ef75500000000000000000000000000000000000000000000000000000000815260206004820152600a60248201527f756e6c6f636b54696d65000000000000000000000000000000000000000000006044820152fd5b60646040517f249ef75500000000000000000000000000000000000000000000000000000000815260206004820152600660248201527f616d6f756e7400000000000000000000000000000000000000000000000000006044820152fd5b60646040517f249ef75500000000000000000000000000000000000000000000000000000000815260206004820152600560248201527f746f6b656e0000000000000000000000000000000000000000000000000000006044820152fd5b503461014d57602090817ffffffffffffffffffffffffffffffffffffffffffffffffffffffffffffffffc36011261014d57600435815481101561014457610cab90611000565b508054926001918281015473ffffffffffffffffffffffffffffffffffffffff9560038760028501541693016040519586918891815491610ceb83611066565b92838652898382169182600014610e00575050600114610dc3575b50505095610d1b9195949392989603856110cd565b60ff60405197889681168752818160a01c1615158588015264ffffffffff8160a81c16604088015260d01c1615156060860152608085015260a084015260e060c08401528151918260e0850152845b838110610dab57505050601f7fffffffffffffffffffffffffffffffffffffffffffffffffffffffffffffffe0916101009485828601015201168101030190f35b81810183015187820161010001528694508201610d6a565b8a52878a208893508a9291905b828410610de85750505082010181610d1b60ff610d06565b8054848c018601528a95508994909301928101610dd0565b7fffffffffffffffffffffffffffffffffffffffffffffffffffffffffffffff00168782015293151560051b86019093019350849250610d1b915060ff9050610d06565b503461014d57610e5336610f70565b92919083808210801590610f39575b610244578354809111610f31575b508291815b858110610ef05750610e868361130d565b93915b858110610e9e57604051806101ab8782610fc5565b6002610ea982611000565b50015473ffffffffffffffffffffffffffffffffffffffff838116911614610ed4575b600101610e89565b80610ee360018501948761135c565b52838303610ecc5761019d565b6002610efb82611000565b50015473ffffffffffffffffffffffffffffffffffffffff838116911614610f26575b600101610e75565b600190930192610f1e565b935038610e70565b50612710610f478383611148565b11610e62565b6004359073ffffffffffffffffffffffffffffffffffffffff8216820361014857565b7ffffffffffffffffffffffffffffffffffffffffffffffffffffffffffffffffc60609101126101485760043573ffffffffffffffffffffffffffffffffffffffff8116810361014857906024359060443590565b6020908160408183019282815285518094520193019160005b828110610fec575050505090565b835185529381019392810192600101610fde565b9060009182548110156110395782805260021b7f290decd9548b62a8d60345a988386fc84ba6bc95484008f6362f93160ef3e563019190565b6024837f4e487b710000000000000000000000000000000000000000000000000000000081526032600452fd5b90600182811c921680156110af575b602083101461108057565b7f4e487b7100000000000000000000000000000000000000000000000000000000600052602260045260246000fd5b91607f1691611075565b67ffffffffffffffff811161041757604052565b90601f7fffffffffffffffffffffffffffffffffffffffffffffffffffffffffffffffe0910116810190811067ffffffffffffffff82111761041757604052565b67ffffffffffffffff811161041757601f017fffffffffffffffffffffffffffffffffffffffffffffffffffffffffffffffe01660200190565b9190820391821161115557565b7f4e487b7100000000000000000000000000000000000000000000000000000000600052601160045260246000fd5b73ffffffffffffffffffffffffffffffffffffffff16906111dc600080836020829551910182875af13d1561124d573d906111be8261110e565b916111cc60405193846110cd565b82523d84602084013e5b84611255565b908151918215159283611225575b5050506111f45750565b602490604051907f5274afe70000000000000000000000000000000000000000000000000000000082526004820152fd5b81929350906020918101031261014457602001519081159182150361014d57503880806111ea565b6060906111d6565b90611294575080511561126a57805190602001fd5b60046040517f1425ea42000000000000000000000000000000000000000000000000000000008152fd5b815115806112ec575b6112a5575090565b60249073ffffffffffffffffffffffffffffffffffffffff604051917f9996b315000000000000000000000000000000000000000000000000000000008352166004820152fd5b50803b1561129d565b67ffffffffffffffff81116104175760051b60200190565b90611317826112f5565b61132460405191826110cd565b8281527fffffffffffffffffffffffffffffffffffffffffffffffffffffffffffffffe061135282946112f5565b0190602036910137565b80518210156113705760209160051b010190565b7f4e487b7100000000000000000000000000000000000000000000000000000000600052603260045260246000fdfea2646970667358221220baff608ad2d7485132bda17c3b0e7edf0658b14a79b85ec5d63eeeb2b8dcb1cc64736f6c63430008140033",
  "linkReferences": {},
  "deployedLinkReferences": {}
}