{
  "_format": "hh-sol-artifact-1",
  "contractName": "MCV2_BlastBond",
  "sourceName": "contracts/MCV2_BlastBond.sol",
  "abi": [
    {
      "inputs": [
        {
          "internalType": "address",
          "name": "tokenImplementation",
          "type": "address"
        },
        {
          "internalType": "address",
          "name": "multiTokenImplementation",
          "type": "address"
        },
        {
          "internalType": "address",
          "name": "protocolBeneficiary_",
          "type": "address"
        },
        {
          "internalType": "uint256",
          "name": "maxSteps",
          "type": "uint256"
        },
        {
          "internalType": "address",
          "name": "_dragonswapRouter",
          "type": "address"
        },
        {
          "internalType": "address",
          "name": "_dragonswapFactory",
          "type": "address"
        }
      ],
      "stateMutability": "nonpayable",
      "type": "constructor"
    },
    {
      "inputs": [
        {
          "internalType": "address",
          "name": "target",
          "type": "address"
        }
      ],
      "name": "AddressEmptyCode",
      "type": "error"
    },
    {
      "inputs": [
        {
          "internalType": "address",
          "name": "account",
          "type": "address"
        }
      ],
      "name": "AddressInsufficientBalance",
      "type": "error"
    },
    {
      "inputs": [],
      "name": "ERC1167FailedCreateClone",
      "type": "error"
    },
    {
      "inputs": [],
      "name": "FailedInnerCall",
      "type": "error"
    },
    {
      "inputs": [],
      "name": "MCV2_BOND__InvalidPaginationParameters",
      "type": "error"
    },
    {
      "inputs": [],
      "name": "MCV2_Bond__CreationFeeTransactionFailed",
      "type": "error"
    },
    {
      "inputs": [],
      "name": "MCV2_Bond__ExceedMaxSupply",
      "type": "error"
    },
    {
      "inputs": [],
      "name": "MCV2_Bond__ExceedTotalSupply",
      "type": "error"
    },
    {
      "inputs": [
        {
          "internalType": "string",
          "name": "reason",
          "type": "string"
        }
      ],
      "name": "MCV2_Bond__InvalidConstructorParams",
      "type": "error"
    },
    {
      "inputs": [],
      "name": "MCV2_Bond__InvalidCreationFee",
      "type": "error"
    },
    {
      "inputs": [],
      "name": "MCV2_Bond__InvalidCreatorAddress",
      "type": "error"
    },
    {
      "inputs": [],
      "name": "MCV2_Bond__InvalidCurrentSupply",
      "type": "error"
    },
    {
      "inputs": [],
      "name": "MCV2_Bond__InvalidReceiver",
      "type": "error"
    },
    {
      "inputs": [
        {
          "internalType": "string",
          "name": "reason",
          "type": "string"
        }
      ],
      "name": "MCV2_Bond__InvalidReserveToken",
      "type": "error"
    },
    {
      "inputs": [
        {
          "internalType": "string",
          "name": "reason",
          "type": "string"
        }
      ],
      "name": "MCV2_Bond__InvalidStepParams",
      "type": "error"
    },
    {
      "inputs": [],
      "name": "MCV2_Bond__InvalidTokenAmount",
      "type": "error"
    },
    {
      "inputs": [
        {
          "internalType": "string",
          "name": "reason",
          "type": "string"
        }
      ],
      "name": "MCV2_Bond__InvalidTokenCreationParams",
      "type": "error"
    },
    {
      "inputs": [],
      "name": "MCV2_Bond__PermissionDenied",
      "type": "error"
    },
    {
      "inputs": [],
      "name": "MCV2_Bond__SlippageLimitExceeded",
      "type": "error"
    },
    {
      "inputs": [],
      "name": "MCV2_Bond__TokenNotFound",
      "type": "error"
    },
    {
      "inputs": [],
      "name": "MCV2_Bond__TokenSymbolAlreadyExists",
      "type": "error"
    },
    {
      "inputs": [],
      "name": "MCV2_Royalty__InvalidParams",
      "type": "error"
    },
    {
      "inputs": [],
      "name": "MCV2_Royalty__NothingToClaim",
      "type": "error"
    },
    {
      "inputs": [
        {
          "internalType": "address",
          "name": "owner",
          "type": "address"
        }
      ],
      "name": "OwnableInvalidOwner",
      "type": "error"
    },
    {
      "inputs": [
        {
          "internalType": "address",
          "name": "account",
          "type": "address"
        }
      ],
      "name": "OwnableUnauthorizedAccount",
      "type": "error"
    },
    {
      "inputs": [
        {
          "internalType": "uint8",
          "name": "bits",
          "type": "uint8"
        },
        {
          "internalType": "uint256",
          "name": "value",
          "type": "uint256"
        }
      ],
      "name": "SafeCastOverflowedUintDowncast",
      "type": "error"
    },
    {
      "inputs": [
        {
          "internalType": "address",
          "name": "token",
          "type": "address"
        }
      ],
      "name": "SafeERC20FailedOperation",
      "type": "error"
    },
    {
      "anonymous": false,
      "inputs": [
        {
          "indexed": true,
          "internalType": "address",
          "name": "token",
          "type": "address"
        },
        {
          "indexed": true,
          "internalType": "address",
          "name": "creator",
          "type": "address"
        }
      ],
      "name": "BondCreatorUpdated",
      "type": "event"
    },
    {
      "anonymous": false,
      "inputs": [
        {
          "indexed": true,
          "internalType": "address",
          "name": "token",
          "type": "address"
        },
        {
          "indexed": true,
          "internalType": "address",
          "name": "user",
          "type": "address"
        },
        {
          "indexed": false,
          "internalType": "address",
          "name": "receiver",
          "type": "address"
        },
        {
          "indexed": false,
          "internalType": "uint256",
          "name": "amountBurned",
          "type": "uint256"
        },
        {
          "indexed": true,
          "internalType": "address",
          "name": "reserveToken",
          "type": "address"
        },
        {
          "indexed": false,
          "internalType": "uint256",
          "name": "refundAmount",
          "type": "uint256"
        }
      ],
      "name": "Burn",
      "type": "event"
    },
    {
      "anonymous": false,
      "inputs": [
        {
          "indexed": false,
          "internalType": "uint256",
          "name": "amount",
          "type": "uint256"
        }
      ],
      "name": "CreationFeeUpdated",
      "type": "event"
    },
    {
      "anonymous": false,
      "inputs": [
        {
          "indexed": true,
          "internalType": "address",
          "name": "token",
          "type": "address"
        },
        {
          "indexed": true,
          "internalType": "address",
          "name": "user",
          "type": "address"
        },
        {
          "indexed": false,
          "internalType": "address",
          "name": "receiver",
          "type": "address"
        },
        {
          "indexed": false,
          "internalType": "uint256",
          "name": "amountMinted",
          "type": "uint256"
        },
        {
          "indexed": true,
          "internalType": "address",
          "name": "reserveToken",
          "type": "address"
        },
        {
          "indexed": false,
          "internalType": "uint256",
          "name": "reserveAmount",
          "type": "uint256"
        }
      ],
      "name": "Mint",
      "type": "event"
    },
    {
      "anonymous": false,
      "inputs": [
        {
          "indexed": true,
          "internalType": "address",
          "name": "token",
          "type": "address"
        },
        {
          "indexed": false,
          "internalType": "string",
          "name": "name",
          "type": "string"
        },
        {
          "indexed": false,
          "internalType": "string",
          "name": "symbol",
          "type": "string"
        },
        {
          "indexed": false,
          "internalType": "string",
          "name": "uri",
          "type": "string"
        },
        {
          "indexed": true,
          "internalType": "address",
          "name": "reserveToken",
          "type": "address"
        }
      ],
      "name": "MultiTokenCreated",
      "type": "event"
    },
    {
      "anonymous": false,
      "inputs": [
        {
          "indexed": true,
          "internalType": "address",
          "name": "previousOwner",
          "type": "address"
        },
        {
          "indexed": true,
          "internalType": "address",
          "name": "newOwner",
          "type": "address"
        }
      ],
      "name": "OwnershipTransferred",
      "type": "event"
    },
    {
      "anonymous": false,
      "inputs": [
        {
          "indexed": false,
          "internalType": "address",
          "name": "protocolBeneficiary",
          "type": "address"
        }
      ],
      "name": "ProtocolBeneficiaryUpdated",
      "type": "event"
    },
    {
      "anonymous": false,
      "inputs": [
        {
          "indexed": true,
          "internalType": "address",
          "name": "user",
          "type": "address"
        },
        {
          "indexed": false,
          "internalType": "address",
          "name": "reserveToken",
          "type": "address"
        },
        {
          "indexed": false,
          "internalType": "uint256",
          "name": "amount",
          "type": "uint256"
        }
      ],
      "name": "RoyaltyClaimed",
      "type": "event"
    },
    {
      "anonymous": false,
      "inputs": [
        {
          "indexed": false,
          "internalType": "uint256",
          "name": "ratio",
          "type": "uint256"
        }
      ],
      "name": "RoyaltyRangeUpdated",
      "type": "event"
    },
    {
      "anonymous": false,
      "inputs": [
        {
          "indexed": true,
          "internalType": "address",
          "name": "token",
          "type": "address"
        },
        {
          "indexed": false,
          "internalType": "string",
          "name": "name",
          "type": "string"
        },
        {
          "indexed": false,
          "internalType": "string",
          "name": "symbol",
          "type": "string"
        },
        {
          "indexed": true,
          "internalType": "address",
          "name": "reserveToken",
          "type": "address"
        }
      ],
      "name": "TokenCreated",
      "type": "event"
    },
    {
      "stateMutability": "payable",
      "type": "fallback"
    },
    {
      "inputs": [],
      "name": "BLAST",
      "outputs": [
        {
          "internalType": "contract IBlast",
          "name": "",
          "type": "address"
        }
      ],
      "stateMutability": "view",
      "type": "function"
    },
    {
      "inputs": [],
      "name": "BURN_ADDRESS",
      "outputs": [
        {
          "internalType": "address",
          "name": "",
          "type": "address"
        }
      ],
      "stateMutability": "view",
      "type": "function"
    },
    {
      "inputs": [],
      "name": "USDB",
      "outputs": [
        {
          "internalType": "contract IERC20Rebasing",
          "name": "",
          "type": "address"
        }
      ],
      "stateMutability": "view",
      "type": "function"
    },
    {
      "inputs": [],
      "name": "WETH",
      "outputs": [
        {
          "internalType": "contract IERC20Rebasing",
          "name": "",
          "type": "address"
        }
      ],
      "stateMutability": "view",
      "type": "function"
    },
    {
      "inputs": [
        {
          "internalType": "address",
          "name": "token",
          "type": "address"
        },
        {
          "internalType": "uint256",
          "name": "tokensToBurn",
          "type": "uint256"
        },
        {
          "internalType": "uint256",
          "name": "minRefund",
          "type": "uint256"
        },
        {
          "internalType": "address",
          "name": "receiver",
          "type": "address"
        }
      ],
      "name": "burn",
      "outputs": [
        {
          "internalType": "uint256",
          "name": "",
          "type": "uint256"
        }
      ],
      "stateMutability": "nonpayable",
      "type": "function"
    },
    {
      "inputs": [
        {
          "internalType": "address",
          "name": "reserveToken",
          "type": "address"
        }
      ],
      "name": "burnRoyalties",
      "outputs": [],
      "stateMutability": "nonpayable",
      "type": "function"
    },
    {
      "inputs": [
        {
          "internalType": "address",
          "name": "recipient",
          "type": "address"
        }
      ],
      "name": "claimGas",
      "outputs": [
        {
          "internalType": "uint256",
          "name": "",
          "type": "uint256"
        }
      ],
      "stateMutability": "nonpayable",
      "type": "function"
    },
    {
      "inputs": [
        {
          "internalType": "address",
          "name": "reserveToken",
          "type": "address"
        }
      ],
      "name": "claimRoyalties",
      "outputs": [],
      "stateMutability": "nonpayable",
      "type": "function"
    },
    {
      "inputs": [
        {
          "internalType": "address",
          "name": "tokenAddress",
          "type": "address"
        },
        {
          "internalType": "address",
          "name": "recipient",
          "type": "address"
        }
      ],
      "name": "claimYield",
      "outputs": [
        {
          "internalType": "uint256",
          "name": "claimAmount",
          "type": "uint256"
        }
      ],
      "stateMutability": "nonpayable",
      "type": "function"
    },
    {
      "inputs": [
        {
          "components": [
            {
              "internalType": "string",
              "name": "name",
              "type": "string"
            },
            {
              "internalType": "string",
              "name": "symbol",
              "type": "string"
            },
            {
              "internalType": "string",
              "name": "uri",
              "type": "string"
            }
          ],
          "internalType": "struct MCV2_Bond.MultiTokenParams",
          "name": "tp",
          "type": "tuple"
        },
        {
          "components": [
            {
              "internalType": "uint16",
              "name": "mintRoyalty",
              "type": "uint16"
            },
            {
              "internalType": "uint16",
              "name": "burnRoyalty",
              "type": "uint16"
            },
            {
              "internalType": "address",
              "name": "reserveToken",
              "type": "address"
            },
            {
              "internalType": "uint128",
              "name": "maxSupply",
              "type": "uint128"
            },
            {
              "internalType": "uint128[]",
              "name": "stepRanges",
              "type": "uint128[]"
            },
            {
              "internalType": "uint128[]",
              "name": "stepPrices",
              "type": "uint128[]"
            }
          ],
          "internalType": "struct MCV2_Bond.BondParams",
          "name": "bp",
          "type": "tuple"
        }
      ],
      "name": "createMultiToken",
      "outputs": [
        {
          "internalType": "address",
          "name": "",
          "type": "address"
        }
      ],
      "stateMutability": "payable",
      "type": "function"
    },
    {
      "inputs": [
        {
          "components": [
            {
              "internalType": "string",
              "name": "name",
              "type": "string"
            },
            {
              "internalType": "string",
              "name": "symbol",
              "type": "string"
            }
          ],
          "internalType": "struct MCV2_Bond.TokenParams",
          "name": "tp",
          "type": "tuple"
        },
        {
          "components": [
            {
              "internalType": "uint16",
              "name": "mintRoyalty",
              "type": "uint16"
            },
            {
              "internalType": "uint16",
              "name": "burnRoyalty",
              "type": "uint16"
            },
            {
              "internalType": "address",
              "name": "reserveToken",
              "type": "address"
            },
            {
              "internalType": "uint128",
              "name": "maxSupply",
              "type": "uint128"
            },
            {
              "internalType": "uint128[]",
              "name": "stepRanges",
              "type": "uint128[]"
            },
            {
              "internalType": "uint128[]",
              "name": "stepPrices",
              "type": "uint128[]"
            }
          ],
          "internalType": "struct MCV2_Bond.BondParams",
          "name": "bp",
          "type": "tuple"
        }
      ],
      "name": "createToken",
      "outputs": [
        {
          "internalType": "address",
          "name": "",
          "type": "address"
        }
      ],
      "stateMutability": "payable",
      "type": "function"
    },
    {
      "inputs": [],
      "name": "creationFee",
      "outputs": [
        {
          "internalType": "uint256",
          "name": "",
          "type": "uint256"
        }
      ],
      "stateMutability": "view",
      "type": "function"
    },
    {
      "inputs": [],
      "name": "dragonswapFactory",
      "outputs": [
        {
          "internalType": "address",
          "name": "",
          "type": "address"
        }
      ],
      "stateMutability": "view",
      "type": "function"
    },
    {
      "inputs": [],
      "name": "dragonswapRouter",
      "outputs": [
        {
          "internalType": "contract IDragonswapRouter",
          "name": "",
          "type": "address"
        }
      ],
      "stateMutability": "view",
      "type": "function"
    },
    {
      "inputs": [
        {
          "internalType": "address",
          "name": "token",
          "type": "address"
        }
      ],
      "name": "exists",
      "outputs": [
        {
          "internalType": "bool",
          "name": "",
          "type": "bool"
        }
      ],
      "stateMutability": "view",
      "type": "function"
    },
    {
      "inputs": [],
      "name": "getClaimableGas",
      "outputs": [
        {
          "internalType": "uint256",
          "name": "",
          "type": "uint256"
        }
      ],
      "stateMutability": "view",
      "type": "function"
    },
    {
      "inputs": [
        {
          "internalType": "address",
          "name": "tokenAddress",
          "type": "address"
        }
      ],
      "name": "getClaimableYield",
      "outputs": [
        {
          "internalType": "uint256",
          "name": "",
          "type": "uint256"
        }
      ],
      "stateMutability": "view",
      "type": "function"
    },
    {
      "inputs": [
        {
          "internalType": "address",
          "name": "token",
          "type": "address"
        }
      ],
      "name": "getDetail",
      "outputs": [
        {
          "components": [
            {
              "internalType": "uint16",
              "name": "mintRoyalty",
              "type": "uint16"
            },
            {
              "internalType": "uint16",
              "name": "burnRoyalty",
              "type": "uint16"
            },
            {
              "components": [
                {
                  "internalType": "address",
                  "name": "creator",
                  "type": "address"
                },
                {
                  "internalType": "address",
                  "name": "token",
                  "type": "address"
                },
                {
                  "internalType": "uint8",
                  "name": "decimals",
                  "type": "uint8"
                },
                {
                  "internalType": "string",
                  "name": "symbol",
                  "type": "string"
                },
                {
                  "internalType": "string",
                  "name": "name",
                  "type": "string"
                },
                {
                  "internalType": "uint40",
                  "name": "createdAt",
                  "type": "uint40"
                },
                {
                  "internalType": "uint128",
                  "name": "currentSupply",
                  "type": "uint128"
                },
                {
                  "internalType": "uint128",
                  "name": "maxSupply",
                  "type": "uint128"
                },
                {
                  "internalType": "uint128",
                  "name": "priceForNextMint",
                  "type": "uint128"
                },
                {
                  "internalType": "address",
                  "name": "reserveToken",
                  "type": "address"
                },
                {
                  "internalType": "uint8",
                  "name": "reserveDecimals",
                  "type": "uint8"
                },
                {
                  "internalType": "string",
                  "name": "reserveSymbol",
                  "type": "string"
                },
                {
                  "internalType": "string",
                  "name": "reserveName",
                  "type": "string"
                },
                {
                  "internalType": "uint256",
                  "name": "reserveBalance",
                  "type": "uint256"
                }
              ],
              "internalType": "struct MCV2_Bond.BondInfo",
              "name": "info",
              "type": "tuple"
            },
            {
              "components": [
                {
                  "internalType": "uint128",
                  "name": "rangeTo",
                  "type": "uint128"
                },
                {
                  "internalType": "uint128",
                  "name": "price",
                  "type": "uint128"
                }
              ],
              "internalType": "struct MCV2_Bond.BondStep[]",
              "name": "steps",
              "type": "tuple[]"
            }
          ],
          "internalType": "struct MCV2_Bond.BondDetail",
          "name": "detail",
          "type": "tuple"
        }
      ],
      "stateMutability": "view",
      "type": "function"
    },
    {
      "inputs": [
        {
          "internalType": "uint256",
          "name": "start",
          "type": "uint256"
        },
        {
          "internalType": "uint256",
          "name": "stop",
          "type": "uint256"
        }
      ],
      "name": "getList",
      "outputs": [
        {
          "components": [
            {
              "internalType": "address",
              "name": "creator",
              "type": "address"
            },
            {
              "internalType": "address",
              "name": "token",
              "type": "address"
            },
            {
              "internalType": "uint8",
              "name": "decimals",
              "type": "uint8"
            },
            {
              "internalType": "string",
              "name": "symbol",
              "type": "string"
            },
            {
              "internalType": "string",
              "name": "name",
              "type": "string"
            },
            {
              "internalType": "uint40",
              "name": "createdAt",
              "type": "uint40"
            },
            {
              "internalType": "uint128",
              "name": "currentSupply",
              "type": "uint128"
            },
            {
              "internalType": "uint128",
              "name": "maxSupply",
              "type": "uint128"
            },
            {
              "internalType": "uint128",
              "name": "priceForNextMint",
              "type": "uint128"
            },
            {
              "internalType": "address",
              "name": "reserveToken",
              "type": "address"
            },
            {
              "internalType": "uint8",
              "name": "reserveDecimals",
              "type": "uint8"
            },
            {
              "internalType": "string",
              "name": "reserveSymbol",
              "type": "string"
            },
            {
              "internalType": "string",
              "name": "reserveName",
              "type": "string"
            },
            {
              "internalType": "uint256",
              "name": "reserveBalance",
              "type": "uint256"
            }
          ],
          "internalType": "struct MCV2_Bond.BondInfo[]",
          "name": "info",
          "type": "tuple[]"
        }
      ],
      "stateMutability": "view",
      "type": "function"
    },
    {
      "inputs": [
        {
          "internalType": "address",
          "name": "token",
          "type": "address"
        },
        {
          "internalType": "uint256",
          "name": "tokensToBurn",
          "type": "uint256"
        }
      ],
      "name": "getRefundForTokens",
      "outputs": [
        {
          "internalType": "uint256",
          "name": "refundAmount",
          "type": "uint256"
        },
        {
          "internalType": "uint256",
          "name": "royalty",
          "type": "uint256"
        }
      ],
      "stateMutability": "view",
      "type": "function"
    },
    {
      "inputs": [
        {
          "internalType": "address",
          "name": "token",
          "type": "address"
        },
        {
          "internalType": "uint256",
          "name": "tokensToMint",
          "type": "uint256"
        }
      ],
      "name": "getReserveForToken",
      "outputs": [
        {
          "internalType": "uint256",
          "name": "reserveAmount",
          "type": "uint256"
        },
        {
          "internalType": "uint256",
          "name": "royalty",
          "type": "uint256"
        }
      ],
      "stateMutability": "view",
      "type": "function"
    },
    {
      "inputs": [
        {
          "internalType": "address",
          "name": "wallet",
          "type": "address"
        },
        {
          "internalType": "address",
          "name": "reserveToken",
          "type": "address"
        }
      ],
      "name": "getRoyaltyInfo",
      "outputs": [
        {
          "internalType": "uint256",
          "name": "",
          "type": "uint256"
        },
        {
          "internalType": "uint256",
          "name": "",
          "type": "uint256"
        }
      ],
      "stateMutability": "view",
      "type": "function"
    },
    {
      "inputs": [
        {
          "internalType": "address",
          "name": "token",
          "type": "address"
        }
      ],
      "name": "getSteps",
      "outputs": [
        {
          "components": [
            {
              "internalType": "uint128",
              "name": "rangeTo",
              "type": "uint128"
            },
            {
              "internalType": "uint128",
              "name": "price",
              "type": "uint128"
            }
          ],
          "internalType": "struct MCV2_Bond.BondStep[]",
          "name": "",
          "type": "tuple[]"
        }
      ],
      "stateMutability": "view",
      "type": "function"
    },
    {
      "inputs": [
        {
          "internalType": "address",
          "name": "creator",
          "type": "address"
        },
        {
          "internalType": "uint256",
          "name": "start",
          "type": "uint256"
        },
        {
          "internalType": "uint256",
          "name": "stop",
          "type": "uint256"
        }
      ],
      "name": "getTokensByCreator",
      "outputs": [
        {
          "internalType": "address[]",
          "name": "addresses",
          "type": "address[]"
        }
      ],
      "stateMutability": "view",
      "type": "function"
    },
    {
      "inputs": [
        {
          "internalType": "address",
          "name": "reserveToken",
          "type": "address"
        },
        {
          "internalType": "uint256",
          "name": "start",
          "type": "uint256"
        },
        {
          "internalType": "uint256",
          "name": "stop",
          "type": "uint256"
        }
      ],
      "name": "getTokensByReserveToken",
      "outputs": [
        {
          "internalType": "address[]",
          "name": "addresses",
          "type": "address[]"
        }
      ],
      "stateMutability": "view",
      "type": "function"
    },
    {
      "inputs": [],
      "name": "maxRoyaltyRange",
      "outputs": [
        {
          "internalType": "uint256",
          "name": "",
          "type": "uint256"
        }
      ],
      "stateMutability": "view",
      "type": "function"
    },
    {
      "inputs": [
        {
          "internalType": "address",
          "name": "token",
          "type": "address"
        }
      ],
      "name": "maxSupply",
      "outputs": [
        {
          "internalType": "uint128",
          "name": "",
          "type": "uint128"
        }
      ],
      "stateMutability": "view",
      "type": "function"
    },
    {
      "inputs": [
        {
          "internalType": "address",
          "name": "token",
          "type": "address"
        },
        {
          "internalType": "uint256",
          "name": "tokensToMint",
          "type": "uint256"
        },
        {
          "internalType": "uint256",
          "name": "maxReserveAmount",
          "type": "uint256"
        },
        {
          "internalType": "address",
          "name": "receiver",
          "type": "address"
        }
      ],
      "name": "mint",
      "outputs": [
        {
          "internalType": "uint256",
          "name": "",
          "type": "uint256"
        }
      ],
      "stateMutability": "payable",
      "type": "function"
    },
    {
      "inputs": [],
      "name": "owner",
      "outputs": [
        {
          "internalType": "address",
          "name": "",
          "type": "address"
        }
      ],
      "stateMutability": "view",
      "type": "function"
    },
    {
      "inputs": [
        {
          "internalType": "address",
          "name": "token",
          "type": "address"
        }
      ],
      "name": "priceForNextMint",
      "outputs": [
        {
          "internalType": "uint128",
          "name": "",
          "type": "uint128"
        }
      ],
      "stateMutability": "view",
      "type": "function"
    },
    {
      "inputs": [],
      "name": "protocolBeneficiary",
      "outputs": [
        {
          "internalType": "address",
          "name": "",
          "type": "address"
        }
      ],
      "stateMutability": "view",
      "type": "function"
    },
    {
      "inputs": [],
      "name": "renounceOwnership",
      "outputs": [],
      "stateMutability": "nonpayable",
      "type": "function"
    },
    {
      "inputs": [
        {
          "internalType": "address",
          "name": "",
          "type": "address"
        }
      ],
      "name": "tokenBond",
      "outputs": [
        {
          "internalType": "address",
          "name": "creator",
          "type": "address"
        },
        {
          "internalType": "uint16",
          "name": "mintRoyalty",
          "type": "uint16"
        },
        {
          "internalType": "uint16",
          "name": "burnRoyalty",
          "type": "uint16"
        },
        {
          "internalType": "uint40",
          "name": "createdAt",
          "type": "uint40"
        },
        {
          "internalType": "address",
          "name": "reserveToken",
          "type": "address"
        },
        {
          "internalType": "uint256",
          "name": "reserveBalance",
          "type": "uint256"
        }
      ],
      "stateMutability": "view",
      "type": "function"
    },
    {
      "inputs": [],
      "name": "tokenCount",
      "outputs": [
        {
          "internalType": "uint256",
          "name": "",
          "type": "uint256"
        }
      ],
      "stateMutability": "view",
      "type": "function"
    },
    {
      "inputs": [
        {
          "internalType": "uint256",
          "name": "",
          "type": "uint256"
        }
      ],
      "name": "tokens",
      "outputs": [
        {
          "internalType": "address",
          "name": "",
          "type": "address"
        }
      ],
      "stateMutability": "view",
      "type": "function"
    },
    {
      "inputs": [
        {
          "internalType": "address",
          "name": "newOwner",
          "type": "address"
        }
      ],
      "name": "transferOwnership",
      "outputs": [],
      "stateMutability": "nonpayable",
      "type": "function"
    },
    {
      "inputs": [
        {
          "internalType": "address",
          "name": "token",
          "type": "address"
        },
        {
          "internalType": "address",
          "name": "creator",
          "type": "address"
        }
      ],
      "name": "updateBondCreator",
      "outputs": [],
      "stateMutability": "nonpayable",
      "type": "function"
    },
    {
      "inputs": [
        {
          "internalType": "uint256",
          "name": "amount",
          "type": "uint256"
        }
      ],
      "name": "updateCreationFee",
      "outputs": [],
      "stateMutability": "nonpayable",
      "type": "function"
    },
    {
      "inputs": [
        {
          "internalType": "uint256",
          "name": "ratio",
          "type": "uint256"
        }
      ],
      "name": "updateMaxRoyaltyRange",
      "outputs": [],
      "stateMutability": "nonpayable",
      "type": "function"
    },
    {
      "inputs": [
        {
          "internalType": "address",
          "name": "protocolBeneficiary_",
          "type": "address"
        }
      ],
      "name": "updateProtocolBeneficiary",
      "outputs": [],
      "stateMutability": "nonpayable",
      "type": "function"
    },
    {
      "inputs": [
        {
          "internalType": "address",
          "name": "",
          "type": "address"
        },
        {
          "internalType": "address",
          "name": "",
          "type": "address"
        }
      ],
      "name": "userTokenRoyaltyBalance",
      "outputs": [
        {
          "internalType": "uint256",
          "name": "",
          "type": "uint256"
        }
      ],
      "stateMutability": "view",
      "type": "function"
    },
    {
      "inputs": [
        {
          "internalType": "address",
          "name": "",
          "type": "address"
        },
        {
          "internalType": "address",
          "name": "",
          "type": "address"
        }
      ],
      "name": "userTokenRoyaltyClaimed",
      "outputs": [
        {
          "internalType": "uint256",
          "name": "",
          "type": "uint256"
        }
      ],
      "stateMutability": "view",
      "type": "function"
    },
    {
      "inputs": [],
      "name": "version",
      "outputs": [
        {
          "internalType": "string",
          "name": "",
          "type": "string"
        }
      ],
      "stateMutability": "pure",
      "type": "function"
    },
    {
      "inputs": [],
      "name": "wsei",
      "outputs": [
        {
          "internalType": "address",
          "name": "",
          "type": "address"
        }
      ],
      "stateMutability": "view",
      "type": "function"
    },
    {
      "stateMutability": "payable",
      "type": "receive"
    }
  ],
  "bytecode": "0x60e060409080825234620004665760c0816200602f80380380916200002582856200046b565b83398101031262000466576200003b81620004a5565b906020906200004c828201620004a5565b62000059858301620004a5565b936060830151926200007c60a06200007460808401620004a5565b9201620004a5565b9533156200044e5760008054336001600160a01b0319808316821784558b51939a90956001600160a01b039591949093909286929183167f8be0079c531659141344cd1fd0a4f28419497f9722a3daafe3b4186f6b6457e08e80a36113886003551690818660015416176001556730927f74c9de0000600255848716156200040b575083871615620003c6571562000381578615620003515760049183808a93169182876008541617600855168560095416176009558a51928380926309bf4f4160e31b82525afa9081156200034757889162000306575b501690600a541617600a5560a05260c0526080528251631a33757d60e01b90818152600260048201528281602481877343000000000000000000000000000000000000035af18015620002fc57908391620002c9575b50508351908152600260048201528181602481867343000000000000000000000000000000000000045af18015620002bf576200028d575b5050734300000000000000000000000000000000000002803b1562000289578180916004855180958193634e606c4760e01b83525af180156200027d576200024f575b8251615b749081620004bb8239608051816144f6015260a05181613565015260c051816123bc0152f35b6001600160401b0382116200026957508152388062000225565b634e487b7160e01b81526041600452602490fd5b508251903d90823e3d90fd5b5080fd5b813d8311620002b7575b620002a381836200046b565b81010312620002b4573880620001e2565b80fd5b503d62000297565b84513d85823e3d90fd5b813d8311620002f4575b620002df81836200046b565b81010312620002f0578138620001aa565b8280fd5b503d620002d3565b85513d86823e3d90fd5b90508681813d83116200033f575b6200032081836200046b565b810103126200033b576200033490620004a5565b3862000154565b8780fd5b503d62000314565b89513d8a823e3d90fd5b895163643b81d760e01b81526004810189905260086024820152676d6178537465707360c01b6044820152606490fd5b895163643b81d760e01b815260048101899052601360248201527f70726f746f636f6c42656e6566696369617279000000000000000000000000006044820152606490fd5b8a5163643b81d760e01b8152600481018a9052601860248201527f6d756c7469546f6b656e496d706c656d656e746174696f6e00000000000000006044820152606490fd5b63643b81d760e01b8152600481018a9052601360248201527f746f6b656e496d706c656d656e746174696f6e000000000000000000000000006044820152606490fd5b8751631e4fbdf760e01b815260006004820152602490fd5b600080fd5b601f909101601f19168101906001600160401b038211908210176200048f57604052565b634e487b7160e01b600052604160045260246000fd5b51906001600160a01b0382168203620004665756fe60806040526004361015610018575b361561001657005b005b6000803560e01c806307e32946146138c457806327e381a91461382e57806330be6955146134d057806331a0edec146134a15780634f64b2be1461345157806350801fb1146133f457806354fd4d50146133965780635a4d531114612d755780636fa2379514612d27578063715018a614612ca85780637348ed2f14612c26578063763e7da614612b6b57806376a9864b1461289357806377e456cb14612875578063840d885d1461285157806385396d2b146123095780638da5cb5b146122d65780638db2a3d31461223157806397d7577614612202578063990e6005146121ce578063995e5f92146121715780639c65003d146121145780639cc7becf146120d65780639f181b5e146120b8578063a53da0a014611f5b578063a746ee2e14611def578063a9816b0814611c5e578063ac4e967514611be2578063ad5c464814611bb3578063b633fcba14611b07578063c162c9161461198b578063c895471614611957578063c9cb204b146115ac578063cfc55622146113de578063d9fe0eae14611355578063dce0b4e414611337578063ec797fc214611281578063f2fde38b146111bb578063f30952dd14611187578063f6a3d24e1461112f578063f74bfe8e146103cd578063f9d0fe4214610399578063fb8c13c8146102275763fccc281314610208575061000e565b34610224578060031936011261022457602060405161dead8152f35b80fd5b50346102245761023636613a57565b929083808210801590610385575b61035b57600754809111610353575b5081815b8581106103005750610268836159c6565b9381925b868110610286575b604051806102828882613a8e565b0390f35b61028f81613adf565b73ffffffffffffffffffffffffffffffffffffffff809254600392831b1c168552600660205281604086205416828516146102cf575b505060010161026c565b6102d883613adf565b9054911b1c166102ec600186019588615074565b528484146102fb5738806102c5565b610274565b61030981613adf565b9073ffffffffffffffffffffffffffffffffffffffff918291549060031b1c16835260066020528060408420541690861614610348575b600101610257565b600190930192610340565b935038610253565b60046040517f891724d6000000000000000000000000000000000000000000000000000000008152fd5b506127106103938383614130565b11610244565b5034610224578060031936011261022457602073ffffffffffffffffffffffffffffffffffffffff600a5416604051908152f35b506103d736613bc3565b9073ffffffffffffffffffffffffffffffffffffffff8216156111055773ffffffffffffffffffffffffffffffffffffffff84168552600660205273ffffffffffffffffffffffffffffffffffffffff600160408720015416156110db578215610ff45773ffffffffffffffffffffffffffffffffffffffff84168552600660205260408520926104e460036040519561047087613df4565b64ffffffffff815473ffffffffffffffffffffffffffffffffffffffff8116895261ffff8160a01c1660208a015261ffff8160b01c1660408a015260c01c16606088015273ffffffffffffffffffffffffffffffffffffffff6001820154166080880152600281015460a088015201614fe9565b948560c0860152604051947f18160ddd00000000000000000000000000000000000000000000000000000000865260208660048173ffffffffffffffffffffffffffffffffffffffff86165afa9586156110d057889661109c575b50859061054c8488615067565b6fffffffffffffffffffffffffffffffff61056685615356565b1610611072576040517f313ce56700000000000000000000000000000000000000000000000000000000815260208160048173ffffffffffffffffffffffffffffffffffffffff88165afa8015611067576105cc918b91611038575b509795929761484f565b9084926105da8b978661517f565b965b8a51881015611028576105ef888c615074565b519061060e8b6fffffffffffffffffffffffffffffffff845116614130565b9081928783106000146106895782156106795761066b9261065f61067195936106598a6106546fffffffffffffffffffffffffffffffff6020610665980151168661488d565b6150c1565b90615067565b9d615067565b96614130565b97614860565b9693986105dc565b509a959890506106719150614860565b610654949d5061065996959e999c506106c1989b9a506020919793506fffffffffffffffffffffffffffffffff92500151169061488d565b95815b871590811561101e575b50610ff4576127106106eb61ffff60206106f3940151168961488d565b048097615067565b948511610fca57843410610f6c5773ffffffffffffffffffffffffffffffffffffffff83168152600660205261077b60408220966107318188614130565b61074060028a01918254615067565b905573ffffffffffffffffffffffffffffffffffffffff88541673ffffffffffffffffffffffffffffffffffffffff60018a01541690615a15565b6040517f18160ddd00000000000000000000000000000000000000000000000000000000815260208160048173ffffffffffffffffffffffffffffffffffffffff88165afa8015610d4f5785908390610f31575b6107d99250615067565b6b0295be96e64066972000000080821015610ed35773ffffffffffffffffffffffffffffffffffffffff85163b15610ecf576040517f1b5ad8b500000000000000000000000000000000000000000000000000000000815273ffffffffffffffffffffffffffffffffffffffff85166004820152602481018790528381806044810103818373ffffffffffffffffffffffffffffffffffffffff8b165af18015610e6b57908491610ebb575b5050811461092a575b50507f02ed9b10d8b33a6a9fda664247bfd8f6248f74cff85cc84e56b7530c2fce560a8473ffffffffffffffffffffffffffffffffffffffff60016020980154169461091f60405192839273ffffffffffffffffffffffffffffffffffffffff339816968460409194939273ffffffffffffffffffffffffffffffffffffffff606083019616825260208201520152565b0390a4604051908152f35b73ffffffffffffffffffffffffffffffffffffffff6009541673ffffffffffffffffffffffffffffffffffffffff600854166040517f4dfa7a08000000000000000000000000000000000000000000000000000000008152602081600481855afa908115610e93576109f8916020918791610e9e575b506040517fe6a4390500000000000000000000000000000000000000000000000000000000815273ffffffffffffffffffffffffffffffffffffffff808b166004830152909116602482015291829081906044820190565b0381865afa908115610e935791610a3273ffffffffffffffffffffffffffffffffffffffff6020936004958991610e76575b501615614f92565b604051928380927f4dfa7a080000000000000000000000000000000000000000000000000000000082525afa908115610e6b578492602092610ad0928591610e4e575b506040517fc9c6539600000000000000000000000000000000000000000000000000000000815273ffffffffffffffffffffffffffffffffffffffff808b166004830152909116602482015293849283919082906044820190565b03925af1908115610db6579073ffffffffffffffffffffffffffffffffffffffff918491610e1f575b501615610dc1576008546040517f095ea7b300000000000000000000000000000000000000000000000000000000815273ffffffffffffffffffffffffffffffffffffffff909116600482015260248101829052602081806044810103818673ffffffffffffffffffffffffffffffffffffffff8a165af18015610db657610d87575b50610bba73ffffffffffffffffffffffffffffffffffffffff60085416916fffffffffffffffffffffffffffffffff610bb487615356565b16614130565b73ffffffffffffffffffffffffffffffffffffffff83541690610384420192834211610d5a5760609291690291ad5259e8bf10000060c49260405196879586947f0c7177af00000000000000000000000000000000000000000000000000000000865273ffffffffffffffffffffffffffffffffffffffff8d1660048701526024860152896044860152896064860152608485015260a48401525af18015610d4f57610d24575b5080600e73ffffffffffffffffffffffffffffffffffffffff600154166822a3e80a6ed29c0000604051917f3633392065746865722073656e7400000000000000000000000000000000000083525af1610cb961408c565b5015610cc657388061088e565b60646040517f08c379a000000000000000000000000000000000000000000000000000000000815260206004820152600f60248201527f5472616e73666572206661696c656400000000000000000000000000000000006044820152fd5b606090813d8111610d48575b610d3a8183613e65565b810103126102245738610c61565b503d610d30565b6040513d84823e3d90fd5b6024857f4e487b710000000000000000000000000000000000000000000000000000000081526011600452fd5b610da89060203d602011610daf575b610da08183613e65565b810190615244565b5038610b7c565b503d610d96565b6040513d85823e3d90fd5b60646040517f08c379a000000000000000000000000000000000000000000000000000000000815260206004820152600f60248201527f416c7265616479206372656174656400000000000000000000000000000000006044820152fd5b610e41915060203d602011610e47575b610e398183613e65565b810190615218565b38610af9565b503d610e2f565b610e659150843d8611610e4757610e398183613e65565b38610a75565b6040513d86823e3d90fd5b610e8d9150853d8711610e4757610e398183613e65565b38610a2a565b6040513d87823e3d90fd5b610eb59150823d8411610e4757610e398183613e65565b386109a0565b610ec490613db1565b610ecf578238610885565b8280fd5b60646040517f08c379a000000000000000000000000000000000000000000000000000000000815260206004820152600d60248201527f6578636565646564203830304d000000000000000000000000000000000000006044820152fd5b50506020813d602011610f64575b81610f4c60209383613e65565b81010312610f5f57846107d991516107cf565b600080fd5b3d9150610f3f565b60646040517f08c379a000000000000000000000000000000000000000000000000000000000815260206004820152601060248201527f496e636f727265637420457468657220000000000000000000000000000000006044820152fd5b60046040517f07728bb0000000000000000000000000000000000000000000000000000000008152fd5b60046040517fc01ae105000000000000000000000000000000000000000000000000000000008152fd5b90501515386106ce565b9a959850985092959450506106c4565b61105a915060203d602011611060575b6110528183613e65565b810190614836565b386105c2565b503d611048565b6040513d8c823e3d90fd5b60046040517f6b5b0f7c000000000000000000000000000000000000000000000000000000008152fd5b9095506020813d6020116110c8575b816110b860209383613e65565b81010312610f5f5751943861053f565b3d91506110ab565b6040513d8a823e3d90fd5b60046040517f2d350e9f000000000000000000000000000000000000000000000000000000008152fd5b60046040517fd9b08f76000000000000000000000000000000000000000000000000000000008152fd5b503461022457602060031936011261022457602061117d61114e613a11565b73ffffffffffffffffffffffffffffffffffffffff809116600052600660205260016040600020015416151590565b6040519015158152f35b5034610224578060031936011261022457602073ffffffffffffffffffffffffffffffffffffffff60085416604051908152f35b5034610224576020600319360112610224576111d5613a11565b6111dd613d60565b73ffffffffffffffffffffffffffffffffffffffff80911690811561125057600054827fffffffffffffffffffffffff0000000000000000000000000000000000000000821617600055167f8be0079c531659141344cd1fd0a4f28419497f9722a3daafe3b4186f6b6457e0600080a380f35b602483604051907f1e4fbdf70000000000000000000000000000000000000000000000000000000082526004820152fd5b503461022457602090816003193601126102245760248273ffffffffffffffffffffffffffffffffffffffff6112b5613a11565b16604051928380927fe12f3a610000000000000000000000000000000000000000000000000000000082523060048301525afa91821561132b57916112fe575b50604051908152f35b90508181813d8311611324575b6113158183613e65565b81010312610f5f5751386112f5565b503d61130b565b604051903d90823e3d90fd5b50346102245780600319360112610224576020600254604051908152f35b50346102245760206003193601126102245760c090604073ffffffffffffffffffffffffffffffffffffffff918261138b613a11565b16815260066020522080549064ffffffffff60028460018401541692015492604051948116855261ffff808260a01c1660208701528160b01c166040860152851c166060840152608083015260a0820152f35b5034610224576020806003193601126115a8576113f9613a11565b9061dead91828452600482526040842073ffffffffffffffffffffffffffffffffffffffff82169081600052835260406000205492831561157e578486526004815260408620826000528152856040600020558486526005815260408620826000528152604060002061146d858254615067565b90556114cc8680604051848101907fa9059cbb000000000000000000000000000000000000000000000000000000008252896024820152886044820152604481526114b781613e10565b519082875af16114c561408c565b9084615a9e565b8051918215159283611565575b50505061153457506040805173ffffffffffffffffffffffffffffffffffffffff909216825260208201929092527fd1b893da855ca6a7c9cfbaff142da78c734a39d4811ad711fe7acfd6e5e433a491819081015b0390a280f35b602490604051907f5274afe70000000000000000000000000000000000000000000000000000000082526004820152fd5b6115759350820181019101615244565b153880806114d9565b60046040517fbfa4e446000000000000000000000000000000000000000000000000000000008152fd5b5080fd5b5034610224576040600319360112610224576115c6613a11565b60249182359073ffffffffffffffffffffffffffffffffffffffff93848416908183526020946006865286600160408620015416156110db578415610ff457838360c094889652600686526040822061167460036040519261162784613df4565b8c81549d8e16855264ffffffffff61ffff9e8f9c8d8260a01c1690880152604087019c8160b01c168d528b1c1660608601526001820154166080850152600281015460a085015201614fe9565b9586910152604051947f18160ddd0000000000000000000000000000000000000000000000000000000086528886600481855afa958615610db6578396611928575b5085918689116118fe5789600491604051928380927f313ce5670000000000000000000000000000000000000000000000000000000082525afa908115610e6b57906117099185916118e1575b5061484f565b611716849997889661517f565b945b61174e57505050505050610ff45761271061173b6040956117439351168461488d565b048092614130565b918351928352820152f35b959795841592831561185857818b848884808f5b101561182957508d9b6106596117b6956117a38f956117ae976117996117a8976fffffffffffffffffffffffffffffffff93615074565b510151168661488d565b615088565b9c614130565b988992614130565b9380156117c4575b50611718565b90509490919293946117fd577fffffffffffffffffffffffffffffffffffffffffffffffffffffffffffffffff019392919086386117be565b85857f4e487b710000000000000000000000000000000000000000000000000000000081526011600452fd5b9b6106596117b6956117a38f956117ae976117996117a8976fffffffffffffffffffffffffffffffff93615074565b7fffffffffffffffffffffffffffffffffffffffffffffffffffffffffffffffff86018681116118b5578b84888d6118ae6fffffffffffffffffffffffffffffffff6118a5899786615074565b51511687614130565b8091611762565b87867f4e487b710000000000000000000000000000000000000000000000000000000081526011600452fd5b6118f891508b3d8d11611060576110528183613e65565b38611703565b60046040517f4fffb8fa000000000000000000000000000000000000000000000000000000008152fd5b9095508881813d8311611950575b6119408183613e65565b81010312610f5f575194386116b6565b503d611936565b5034610224578060031936011261022457602073ffffffffffffffffffffffffffffffffffffffff60095416604051908152f35b5034610224576020806003193601126115a8576119a6613a11565b9033835260048152604083209073ffffffffffffffffffffffffffffffffffffffff83169182600052815260406000205491821561157e5733855260048252604085208160005282528460406000205533855260058252604085209060005281526040600020611a17838254615067565b90558380600f6040517f526f79616c747920436c61696d65640000000000000000000000000000000000815285335af1611a4f61408c565b5015611aa957506040805173ffffffffffffffffffffffffffffffffffffffff9093168352602083019190915233917fd1b893da855ca6a7c9cfbaff142da78c734a39d4811ad711fe7acfd6e5e433a4918190810161152e565b606490604051907f08c379a00000000000000000000000000000000000000000000000000000000082526004820152601460248201527f526f79616c747920436c61696d206661696c65640000000000000000000000006044820152fd5b5034610224576020908160031936011261022457611b8482611b27613a11565b611b2f613d60565b6040517f954fa5ee00000000000000000000000000000000000000000000000000000000815230600482015273ffffffffffffffffffffffffffffffffffffffff909116602482015291829081906044820190565b0381857343000000000000000000000000000000000000025af191821561132b57916112fe5750604051908152f35b503461022457806003193601126102245760206040517343000000000000000000000000000000000000048152f35b503461022457604060031936011261022457604090611bff613a11565b9082611c09613a34565b9173ffffffffffffffffffffffffffffffffffffffff80941693848252600460205282822093169283600052602052816000205493815260056020522090600052602052816000205482519182526020820152f35b503461022457604060031936011261022457600435602435808210801590611ddb575b61035b57600754808211611dd3575b50818103917fffffffffffffffffffffffffffffffffffffffffffffffffffffffffffffffe0611cd8611cc285614fd1565b94611cd06040519687613e65565b808652614fd1565b01845b818110611dbc57505083905b828110611d6b57505060408051602080825284518183018190529194600583901b86018401945081019285015b828710611d215785850386f35b909192938280611d5b837fffffffffffffffffffffffffffffffffffffffffffffffffffffffffffffffc08a600196030186528851613c5e565b9601920196019592919092611d14565b80611db5611d9f73ffffffffffffffffffffffffffffffffffffffff611d92600195613adf565b90549060031b1c16615494565b9383810194611dae8289615074565b5286615074565b5001611ce7565b602090611dc76153ca565b82828801015201611cdb565b905038611c90565b506103e8611de98383614130565b11611c81565b5034610224576020806003193601126115a857611e0a613a11565b90604051611e1781613e10565b8381528382820152611e276153ca565b60408201526060016060905273ffffffffffffffffffffffffffffffffffffffff928383168152600682526040902060405190611e6382613df4565b80549385851683528383019561ffff809781948293838a60a01c1683526040880199848160b01c168b5260c01c64ffffffffff1660608901526001820154166080880152600281015460a0880152600301611ebd90614fe9565b9560c001958652511695511690611ed390615494565b92519360405195611ee387613e10565b865280860191825260408601938452606086019485526040519687968288525116908601525116604084015251606083016080905260a08301611f2591613c5e565b9051908281037fffffffffffffffffffffffffffffffffffffffffffffffffffffffffffffffe001608084015261028291613c09565b503461022457604060031936011261022457611f75613a11565b9073ffffffffffffffffffffffffffffffffffffffff611f93613a34565b92611f9c613d60565b1690604051907fe12f3a610000000000000000000000000000000000000000000000000000000082523060048301526020938483602481875afa928315610d4f579085918394612085575b506040517faad3ec9600000000000000000000000000000000000000000000000000000000815273ffffffffffffffffffffffffffffffffffffffff90911660048201526024810184905292938390818481604481015b03925af190811561132b575090839161205c575b5050604051908152f35b813d831161207e575b61206f8183613e65565b81010312610f5f578138612052565b503d612065565b8281939295503d83116120b1575b61209d8183613e65565b81010312610f5f575191849061203e611fe7565b503d612093565b50346102245780600319360112610224576020600754604051908152f35b50346102245760206003193601126102245760206120fa6120f5613a11565b615356565b6fffffffffffffffffffffffffffffffff60405191168152f35b50346102245760406003193601126102245761212e613a11565b6040612138613a34565b9273ffffffffffffffffffffffffffffffffffffffff809316815260046020522091166000526020526020604060002054604051908152f35b5034610224576020600319360112610224576121ba600360406102829373ffffffffffffffffffffffffffffffffffffffff6121ab613a11565b16815260066020522001614fe9565b604051918291602083526020830190613c09565b5034610224578060031936011261022457602073ffffffffffffffffffffffffffffffffffffffff60015416604051908152f35b503461022457806003193601126102245760206040517343000000000000000000000000000000000000028152f35b5034610224578060031936011261022457604051907fec3278e80000000000000000000000000000000000000000000000000000000082523060048301526020826024817343000000000000000000000000000000000000025afa90811561132b57906122a4575b602090604051908152f35b506020813d82116122ce575b816122bd60209383613e65565b81010312610f5f5760209051612299565b3d91506122b0565b503461022457806003193601126102245773ffffffffffffffffffffffffffffffffffffffff6020915416604051908152f35b506003196040813601126115a8576004359067ffffffffffffffff80831161284d57606082843603011261284d5760243511610ecf5760c090602435360301126115a8576002543403612823576123636004820180613ea6565b9050156127bd5761237a6024820182600401613ea6565b90501561275a576123916044820182600401613ea6565b9050156126fc576123a660243560040161416c565b6123e06123b96024830183600401613ea6565b907f0000000000000000000000000000000000000000000000000000000000000000614de2565b90826123ef6004830180613ea6565b6123ff6024850185600401613ea6565b9190926124126044870187600401613ea6565b73ffffffffffffffffffffffffffffffffffffffff89959295163b156126f857869461246c9260405197889687967f41e461a000000000000000000000000000000000000000000000000000000000885260048801614f58565b03818373ffffffffffffffffffffffffffffffffffffffff89165af18015610d4f576126e4575b5050612504906124a283613f60565b6124b1602435600401846148a0565b7f42d30c09380d6b8dbb77d95cae534a5c8fbf778789d87f58030bd742804370716124df6004830180613ea6565b61254e6124f460248694960184600401613ea6565b9690936044810190600401613ea6565b9073ffffffffffffffffffffffffffffffffffffffff612528604460243501613fb0565b169760405195869573ffffffffffffffffffffffffffffffffffffffff8c169987614f58565b0390a361256560a460243501602435600401613fd1565b156126b7576125846fffffffffffffffffffffffffffffffff91614035565b16156125ee575b600254602092816125b7575b505073ffffffffffffffffffffffffffffffffffffffff60405191168152f35b8080806125e79473ffffffffffffffffffffffffffffffffffffffff600154165af16125e161408c565b506140bc565b3880612597565b612602608460243501602435600401613fd1565b156126b75761261090614035565b8273ffffffffffffffffffffffffffffffffffffffff83163b15610224576040517f1b5ad8b50000000000000000000000000000000000000000000000000000000081523360048201526fffffffffffffffffffffffffffffffff929092166024830152816044818373ffffffffffffffffffffffffffffffffffffffff87165af18015610db6576126a3575b5061258b565b6126ad8391613db1565b6115a8573861269d565b6024837f4e487b710000000000000000000000000000000000000000000000000000000081526032600452fd5b6126ed90613db1565b610ecf578238612493565b8680fd5b60646040517f49d3358800000000000000000000000000000000000000000000000000000000815260206004820152600360248201527f75726900000000000000000000000000000000000000000000000000000000006044820152fd5b6040517f49d3358800000000000000000000000000000000000000000000000000000000815260206004820152600660248201527f73796d626f6c00000000000000000000000000000000000000000000000000006044820152606490fd5b0390fd5b6040517f49d33588000000000000000000000000000000000000000000000000000000008152806127b96004820160609060208152600460208201527f6e616d650000000000000000000000000000000000000000000000000000000060408201520190565b60046040517f3403ce37000000000000000000000000000000000000000000000000000000008152fd5b8380fd5b50346102245760206003193601126102245760206120fa612870613a11565b61525c565b50346102245780600319360112610224576020600354604051908152f35b5034610224576040600319360112610224576128ad613a11565b6024359073ffffffffffffffffffffffffffffffffffffffff80821680855260209360068552600190838260408920015416156110db578015610ff45782875260068652604087209660c060405161290481613df4565b61295560038b549b898d1684528b84019964ffffffffff61ffff9e8f8d818360a01c1690528160b01c166040880152871c16606086015288820154166080850152600281015460a085015201614fe9565b9182910152604051947f18160ddd0000000000000000000000000000000000000000000000000000000086528886600481845afa958615610db6578396612b3c575b5085916129a48588615067565b916fffffffffffffffffffffffffffffffff92836129c18c615356565b1610611072578a600491604051928380927f313ce5670000000000000000000000000000000000000000000000000000000082525afa908115610e9357612a2691612a1d918791612b1f575b509088979598969493929161484f565b9498849b61517f565b955b612a6a575b505050505050508215908115612a60575b50610ff457612710612a586040956117439351168461488d565b048092615067565b9050151538612a3e565b9091939598819793959751881015612b1657612a868883615074565b51908b612a968c86855116614130565b9286841015612ae8578315612ad9578361065f61066b946106598c6106548b612acd9a98612ac7980151168661488d565b95614130565b94929593919084612a28565b5050999397612acd9150614860565b919850915061065996959a50612b099850610654949392500151169061488d565b9138808080808080612a2d565b98839750612a2d565b612b3691508d803d10611060576110528183613e65565b38612a0d565b9095508881813d8311612b64575b612b548183613e65565b81010312610f5f57519438612997565b503d612b4a565b503461022457604060031936011261022457612b85613a11565b612b8d613a34565b73ffffffffffffffffffffffffffffffffffffffff809216908184526006602052612bca8360408620921693841590811591612c19575b50614f92565b827fffffffffffffffffffffffff00000000000000000000000000000000000000008254161790557f9dcef3aa57f22970dfc6ff519e5421e041cc4153300a7dabe19bffe85e2556888380a380f35b9050825416331438612bc4565b503461022457602060031936011261022457600435612c43613d60565b6127108111612c7e576020817f21085b3501e0e4fa8e0c825e7ed36b44420471b9f3c5aef447cebe50b2db133d92600355604051908152a180f35b60046040517f5059b85f000000000000000000000000000000000000000000000000000000008152fd5b5034610224578060031936011261022457612cc1613d60565b600073ffffffffffffffffffffffffffffffffffffffff81547fffffffffffffffffffffffff000000000000000000000000000000000000000081168355167f8be0079c531659141344cd1fd0a4f28419497f9722a3daafe3b4186f6b6457e08280a380f35b5034610224576020600319360112610224577f88a973fd5506071e0cf878b30898776c47d5250a7ee1e6ee0b36df3b03c7c16a6020600435612d67613d60565b80600255604051908152a180f35b503461022457612d8436613bc3565b73ffffffffffffffffffffffffffffffffffffffff8194929416156111055773ffffffffffffffffffffffffffffffffffffffff82168552600660205273ffffffffffffffffffffffffffffffffffffffff600160408720015416156110db578215610ff45773ffffffffffffffffffffffffffffffffffffffff8216855260066020526040852094612e93600360405197612e1f89613df4565b64ffffffffff815473ffffffffffffffffffffffffffffffffffffffff81168b5261ffff8160a01c1660208c015261ffff8160b01c1660408c015260c01c1660608a015273ffffffffffffffffffffffffffffffffffffffff60018201541660808a0152600281015460a08a015201614fe9565b958660c08201526040517f18160ddd00000000000000000000000000000000000000000000000000000000815260208160048173ffffffffffffffffffffffffffffffffffffffff89165afa908115610db6578391613364575b50808187116118fe576040517f313ce56700000000000000000000000000000000000000000000000000000000815260208160048173ffffffffffffffffffffffffffffffffffffffff8b165afa908115610e9357612f68939291612f5c918791613345575b5092919261484f565b859a899485938a61517f565b925b6131d35750505050610ff457612710612f8e61ffff6040612f96940151168961488d565b048097614130565b948510610fca5773ffffffffffffffffffffffffffffffffffffffff831680825260066020526040822096903b156115a8576040517ff4efe8f20000000000000000000000000000000000000000000000000000000081523360048201526024810186905282816044818373ffffffffffffffffffffffffffffffffffffffff8a165af18015610db6579083916131bf575b5050806130386130849288615067565b61304760028a01918254614130565b9055600173ffffffffffffffffffffffffffffffffffffffff89541698019773ffffffffffffffffffffffffffffffffffffffff89541690615a15565b8060136040517f726566756e64416d6f756e74206164646564200000000000000000000000000081528773ffffffffffffffffffffffffffffffffffffffff86165af16130cf61408c565b5015613161577f80a56de61873550ae491e454783a8dfc9d08a6f8bdace0887eabd4315c4b9da88473ffffffffffffffffffffffffffffffffffffffff60209754169461091f60405192839273ffffffffffffffffffffffffffffffffffffffff339816968460409194939273ffffffffffffffffffffffffffffffffffffffff606083019616825260208201520152565b60646040517f08c379a000000000000000000000000000000000000000000000000000000000815260206004820152601960248201527f526566756e6420746f207265636965766572206661696c6564000000000000006044820152fd5b6131c890613db1565b6115a8578138613028565b909192939a83838d898884156000146132aa5794610659612ac7946117a36fffffffffffffffffffffffffffffffff602061179999976132279761322d9c905b50808210156132a05750998a985b8d615074565b9e614130565b90848461323e575b93929193612f6a565b509091928015613273577fffffffffffffffffffffffffffffffffffffffffffffffffffffffffffffffff0192919084613235565b6024877f4e487b710000000000000000000000000000000000000000000000000000000081526011600452fd5b9050998a98613221565b505050507fffffffffffffffffffffffffffffffffffffffffffffffffffffffffffffffff81011161327357611799612ac7856132278f94610659886117a36fffffffffffffffffffffffffffffffff8f61322d9a8f9161333f6020938f61333687917fffffffffffffffffffffffffffffffffffffffffffffffffffffffffffffffff8f0190615074565b51511690614130565b90613213565b61335e915060203d602011611060576110528183613e65565b38612f53565b90506020813d60201161338e575b8161337f60209383613e65565b81010312610f5f575138612eed565b3d9150613372565b50346102245780600319360112610224576102826040516133b681613e2c565b600781527f302e312e313230000000000000000000000000000000000000000000000000006020820152604051918291602083526020830190613b80565b50346102245760406003193601126102245761340e613a11565b6040613418613a34565b9273ffffffffffffffffffffffffffffffffffffffff809316815260056020522091166000526020526020604060002054604051908152f35b5034610224576020600319360112610224576004359060075482101561022457602073ffffffffffffffffffffffffffffffffffffffff61349184613adf565b9190546040519260031b1c168152f35b503461022457806003193601126102245760206040517343000000000000000000000000000000000000038152f35b506003196040813601126115a85760043567ffffffffffffffff9182821161284d578160040191604082823603011261382a5760243593841161382a5760c08460040192853603011261382a576002543403612823576135308380613ea6565b9050156127bd57602401926135458484613ea6565b90501561275a576135558261416c565b6135896135628585613ea6565b907f0000000000000000000000000000000000000000000000000000000000000000614de2565b9373ffffffffffffffffffffffffffffffffffffffff9384861695876135af8380613ea6565b6135bc8686949394613ea6565b8b9491943b1561284d576135fe9060405195869485947f7029144c00000000000000000000000000000000000000000000000000000000865260048601613f36565b0381838c5af1801561381f576137dc575b5061367d92879261364a87846136457f6596c1670eb3390048d23721809c3da5d3f531375ac0e2cab0f77a808ed6433196613f60565b6148a0565b61365f6136578280613ea6565b939092613ea6565b8961366f60448a99949901613fb0565b169660405194859485613f36565b0390a361368d60a4820183613fd1565b156137af576136ac6fffffffffffffffffffffffffffffffff91614035565b16156136eb575b505060209260025491826136cd575b505050604051908152f35b81806136e3948193600154165af16125e161408c565b3880806136c2565b9060846136f9920190613fd1565b156137825761370790614035565b83833b15610224576040517f1b5ad8b50000000000000000000000000000000000000000000000000000000081523360048201526fffffffffffffffffffffffffffffffff9290921660248301528160448183875af18015610e6b5761376e575b806136b3565b6137788491613db1565b610ecf5738613768565b6024847f4e487b710000000000000000000000000000000000000000000000000000000081526032600452fd5b6024867f4e487b710000000000000000000000000000000000000000000000000000000081526032600452fd5b92879261364a877f6596c1670eb3390048d23721809c3da5d3f531375ac0e2cab0f77a808ed64331949b61381261367d98613db1565b9b9450505092509261360f565b6040513d8b823e3d90fd5b8480fd5b50346102245760206003193601126102245773ffffffffffffffffffffffffffffffffffffffff61385d613a11565b613865613d60565b168015612c7e576020817fcf7686c0c53a1ab216c4cd81c1bc037136c791a61f30af4a78827c3915766044927fffffffffffffffffffffffff00000000000000000000000000000000000000006001541617600155604051908152a180f35b5034610224576138d336613a57565b9290838082108015906139fd575b61035b576007548091116139f5575b5081815b85811061399c5750613905836159c6565b9381925b86811061391e57604051806102828882613a8e565b61392781613adf565b9073ffffffffffffffffffffffffffffffffffffffff809154600393841b1c16855260066020526001918183604088200154168286161461396e575b505050600101613909565b9061398c9161397c85613adf565b9054911b1c169186019588615074565b528484146102fb57388080613963565b6139a581613adf565b9073ffffffffffffffffffffffffffffffffffffffff918291549060031b1c1683526006602052600190808260408620015416908716146139ea575b506001016138f4565b9093019260016139e1565b9350386138f0565b50612710613a0b8383614130565b116138e1565b6004359073ffffffffffffffffffffffffffffffffffffffff82168203610f5f57565b6024359073ffffffffffffffffffffffffffffffffffffffff82168203610f5f57565b6003196060910112610f5f5760043573ffffffffffffffffffffffffffffffffffffffff81168103610f5f57906024359060443590565b6020908160408183019282815285518094520193019160005b828110613ab5575050505090565b835173ffffffffffffffffffffffffffffffffffffffff1685529381019392810192600101613aa7565b600754811015613b165760076000527fa66cc928b5edb82af9bd49922954155ab7b0942694bea4ce44661d9a8736c6880190600090565b7f4e487b7100000000000000000000000000000000000000000000000000000000600052603260045260246000fd5b8054821015613b165760005260206000200190600090565b60005b838110613b705750506000910152565b8181015183820152602001613b60565b907fffffffffffffffffffffffffffffffffffffffffffffffffffffffffffffffe0601f602093613bbc81518092818752878088019101613b5d565b0116010190565b6003196080910112610f5f5773ffffffffffffffffffffffffffffffffffffffff906004358281168103610f5f579160243591604435916064359081168103610f5f5790565b90815180825260208080930193019160005b828110613c29575050505090565b835180516fffffffffffffffffffffffffffffffff908116875290830151168583015260409094019392810192600101613c1b565b90613d52613d3e73ffffffffffffffffffffffffffffffffffffffff80855116845280602086015116602085015260ff6040860151166040850152613cc7613cb560608701516101c0806060890152870190613b80565b60808701518682036080880152613b80565b9064ffffffffff60a08701511660a08601526fffffffffffffffffffffffffffffffff8060c08801511660c08701528060e08801511660e0870152610100908188015116908601526101209081870151169085015261014060ff818701511690850152610160808601519085830390860152613b80565b610180808501519084830390850152613b80565b916101a08091015191015290565b73ffffffffffffffffffffffffffffffffffffffff600054163303613d8157565b60246040517f118cdaa7000000000000000000000000000000000000000000000000000000008152336004820152fd5b67ffffffffffffffff8111613dc557604052565b7f4e487b7100000000000000000000000000000000000000000000000000000000600052604160045260246000fd5b60e0810190811067ffffffffffffffff821117613dc557604052565b6080810190811067ffffffffffffffff821117613dc557604052565b6040810190811067ffffffffffffffff821117613dc557604052565b6101c0810190811067ffffffffffffffff821117613dc557604052565b90601f7fffffffffffffffffffffffffffffffffffffffffffffffffffffffffffffffe0910116810190811067ffffffffffffffff821117613dc557604052565b9035907fffffffffffffffffffffffffffffffffffffffffffffffffffffffffffffffe181360301821215610f5f570180359067ffffffffffffffff8211610f5f57602001918136038313610f5f57565b601f82602094937fffffffffffffffffffffffffffffffffffffffffffffffffffffffffffffffe0938186528686013760008582860101520116010190565b9290613f4f90613f5d9593604086526040860191613ef7565b926020818503910152613ef7565b90565b60075468010000000000000000811015613dc557806001613f849201600755613adf565b819291549060031b9173ffffffffffffffffffffffffffffffffffffffff809116831b921b1916179055565b3573ffffffffffffffffffffffffffffffffffffffff81168103610f5f5790565b9035907fffffffffffffffffffffffffffffffffffffffffffffffffffffffffffffffe181360301821215610f5f570180359067ffffffffffffffff8211610f5f57602001918160051b36038313610f5f57565b9190811015613b165760051b0190565b356fffffffffffffffffffffffffffffffff81168103610f5f5790565b67ffffffffffffffff8111613dc557601f017fffffffffffffffffffffffffffffffffffffffffffffffffffffffffffffffe01660200190565b3d156140b7573d9061409d82614052565b916140ab6040519384613e65565b82523d6000602084013e565b606090565b156140c357565b60646040517f08c379a000000000000000000000000000000000000000000000000000000000815260206004820152601c60248201527f4372656174696f6e4665655472616e73616374696f6e4661696c6564000000006044820152fd5b3561ffff81168103610f5f5790565b9190820391821161413d57565b7f4e487b7100000000000000000000000000000000000000000000000000000000600052601160045260246000fd5b61417581614121565b6003548061ffff8093161161476757602091614192838501614121565b16116147095760406141a5818401613fb0565b9273ffffffffffffffffffffffffffffffffffffffff8416156146ac577f646563696d616c732829000000000000000000000000000000000000000000008383516141ef81613e2c565b600a815201526141ff8251613db1565b8151936000808587017f313ce56700000000000000000000000000000000000000000000000000000000815260049788815261423a81613e2c565b5190845afa61424761408c565b816146a0575b501561464357614290835161426181613e2c565b600681527f6e616d652829000000000000000000000000000000000000000000000000000086820152826147c5565b156145dd5782516142d2916142a482613e2c565b600882527f73796d626f6c2829000000000000000000000000000000000000000000000000868301526147c5565b156145775760608101906fffffffffffffffffffffffffffffffff90816142f884614035565b161561451b576080810161430c8183613fd1565b90501580156144e7575b61448b576143248183613fd1565b905061433360a0840184613fd1565b9190500361442f576143506143488284613fd1565b929093613fd1565b7fffffffffffffffffffffffffffffffffffffffffffffffffffffffffffffffff810193915083116144015761438e84936143999361439393614025565b614035565b93614035565b169116036143a657505050565b6064935051917f1afd40d6000000000000000000000000000000000000000000000000000000008352820152601360248201527f4d41585f535550504c595f4d49534d41544348000000000000000000000000006044820152fd5b6011887f4e487b71000000000000000000000000000000000000000000000000000000006000525260246000fd5b606487878751917f1afd40d6000000000000000000000000000000000000000000000000000000008352820152601860248201527f535445505f4c454e4754485f444f5f4e4f545f4d4154434800000000000000006044820152fd5b606487878751917f1afd40d6000000000000000000000000000000000000000000000000000000008352820152601360248201527f494e56414c49445f535445505f4c454e475448000000000000000000000000006044820152fd5b506144f28183613fd1565b90507f000000000000000000000000000000000000000000000000000000000000000010614316565b606486868651917f49d33588000000000000000000000000000000000000000000000000000000008352820152600960248201527f6d6178537570706c7900000000000000000000000000000000000000000000006044820152fd5b6127b98483519182917f59f58224000000000000000000000000000000000000000000000000000000008352820160609060208152600660208201527f73796d626f6c000000000000000000000000000000000000000000000000000060408201520190565b6127b98584519182917f59f58224000000000000000000000000000000000000000000000000000000008352820160609060208152600460208201527f6e616d650000000000000000000000000000000000000000000000000000000060408201520190565b50506064935051917f59f58224000000000000000000000000000000000000000000000000000000008352820152600860248201527f646563696d616c730000000000000000000000000000000000000000000000006044820152fd5b601f915051113861424d565b6064838351907f49d335880000000000000000000000000000000000000000000000000000000082526004820152600c60248201527f72657365727665546f6b656e00000000000000000000000000000000000000006044820152fd5b606490604051907f49d335880000000000000000000000000000000000000000000000000000000082526004820152600b60248201527f6275726e526f79616c74790000000000000000000000000000000000000000006044820152fd5b60646040517f49d3358800000000000000000000000000000000000000000000000000000000815260206004820152600b60248201527f6d696e74526f79616c74790000000000000000000000000000000000000000006044820152fd5b6000919082916148017fffffffff0000000000000000000000000000000000000000000000000000000060405192602081519101201691613db1565b604051602081019182526004815261481881613e2c565b51915afa61482461408c565b8161482d575090565b605f9150511190565b90816020910312610f5f575160ff81168103610f5f5790565b60ff16604d811161413d57600a0a90565b7fffffffffffffffffffffffffffffffffffffffffffffffffffffffffffffffff811461413d5760010190565b8181029291811591840414171561413d57565b73ffffffffffffffffffffffffffffffffffffffff80911690600091808352602092839260068452604095868320938454906148db83614121565b77ffff000000000000000000000000000000000000000000006148ff898601614121565b60b01b1660a09375ffff00000000000000000000000000000000000000007cffffffffff0000000000000000000000000000000000000000000000004260c01b1693861b16907fffffff00000000000000000000000000000000000000000000000000000000007fffffff000000000000000000ffffffffffffffffffffffffffffffffffffffff3316911617171717865561499c898401613fb0565b60019485880191167fffffffffffffffffffffffff00000000000000000000000000000000000000008254161790558851978880927f313ce56700000000000000000000000000000000000000000000000000000000825260049a8b915afa908115614dd85790614a1d918691614dbb575b5090849694919997989961484f565b936003869101915b614a36575b50505050505050505050565b608080850190614a468287613fd1565b9050831015614db457614a598287613fd1565b9290614a7b61438e866fffffffffffffffffffffffffffffffff968794614025565b169286880181614a9861438e88614a92858e613fd1565b90614025565b169285614afc575060648f8f8f51917f1afd40d6000000000000000000000000000000000000000000000000000000008352820152601360248201527f535445505f43414e4e4f545f42455f5a45524f000000000000000000000000006044820152fd5b9c9e9d9c83151580614da2575b614d455786614bef575b50508d5193614b2185613e2c565b84528b8401918252855468010000000000000000811015614bc257808c614b4b9201885587613b45565b949094614b965751915190921b7fffffffffffffffffffffffffffffffff00000000000000000000000000000000169116179055869190614b8b90614860565b909199979899614a25565b5060248a808f7f4e487b7100000000000000000000000000000000000000000000000000000000825252fd5b5060248a60418f7f4e487b7100000000000000000000000000000000000000000000000000000000835252fd5b614bf9908a613fd1565b7fffffffffffffffffffffffffffffffffffffffffffffffffffffffffffffffff88019291888411614d175761438e848693614c3493614025565b16861115614cba5761438e8392614a92614c4e938d613fd1565b16821115614c5d573880614b13565b5060648c8c8f51917f1afd40d6000000000000000000000000000000000000000000000000000000008352820152601060248201527f44454352454153494e475f5052494345000000000000000000000000000000006044820152fd5b8f8f8f60649251917f1afd40d6000000000000000000000000000000000000000000000000000000008352820152601060248201527f44454352454153494e475f52414e4745000000000000000000000000000000006044820152fd5b508f8d60116024927f4e487b7100000000000000000000000000000000000000000000000000000000835252fd5b8f8f8f60649251917f1afd40d6000000000000000000000000000000000000000000000000000000008352820152601c60248201527f535445505f52414e475f4f525f50524943455f544f4f5f534d414c4c000000006044820152fd5b508a614dae858861488d565b10614b09565b5050614a2a565b614dd29150883d8a11611060576110528183613e65565b38614a0e565b89513d87823e3d90fd5b91614e13603460405183819460208301963060601b8852848401378101600083820152036014810184520182613e65565b51902090614e9d605560436040513060388201526f5af43d82803e903d91602b57fd5bf3ff6024820152846014820152733d602d80600a3d3981f3363d3d373d3d3d363d7381528560588201526037600c8201206078820152012073ffffffffffffffffffffffffffffffffffffffff809116600052600660205260016040600020015416151590565b614f2e5780763d602d80600a3d3981f3363d3d373d3d3d363d7300000062ffffff6e5af43d82803e903d91602b57fd5bf39360881c161760005260781b17602052603760096000f573ffffffffffffffffffffffffffffffffffffffff811615614f045790565b60046040517fc2f868f4000000000000000000000000000000000000000000000000000000008152fd5b60046040517f358b6638000000000000000000000000000000000000000000000000000000008152fd5b94929093614f76613f5d9795614f8494606089526060890191613ef7565b918683036020880152613ef7565b926040818503910152613ef7565b15614f9957565b60446040517f08c379a00000000000000000000000000000000000000000000000000000000081526020600482015260006024820152fd5b67ffffffffffffffff8111613dc55760051b60200190565b908154614ff581614fd1565b9260409361500585519182613e65565b828152809460208092019260005281600020906000935b85851061502b57505050505050565b6001848192845161503b81613e2c565b86546fffffffffffffffffffffffffffffffff8116825260801c8382015281520193019401939161501c565b9190820180921161413d57565b8051821015613b165760209160051b010190565b8115615092570490565b7f4e487b7100000000000000000000000000000000000000000000000000000000600052601260045260246000fd5b90801561517657600091806150d857505050600090565b7fffffffffffffffffffffffffffffffffffffffffffffffffffffffffffffffff8101908111615149579061510c91615088565b906001820180921161511c575090565b807f4e487b7100000000000000000000000000000000000000000000000000000000602492526011600452fd5b6024837f4e487b710000000000000000000000000000000000000000000000000000000081526011600452fd5b613f5d91615088565b73ffffffffffffffffffffffffffffffffffffffff1660005260066020526040600020906003600092018054925b8381106151de5760046040517fd1ce01ea000000000000000000000000000000000000000000000000000000008152fd5b6fffffffffffffffffffffffffffffffff6151f98284613b45565b5054168311156152115761520c90614860565b6151ad565b9250505090565b90816020910312610f5f575173ffffffffffffffffffffffffffffffffffffffff81168103610f5f5790565b90816020910312610f5f57518015158103610f5f5790565b6040517f18160ddd00000000000000000000000000000000000000000000000000000000815273ffffffffffffffffffffffffffffffffffffffff821691602082600481865afa91821561534a57600092615315575b506152fb92916152e591816fffffffffffffffffffffffffffffffff6152d783615356565b168110615303575b5061517f565b9060005260066020526003604060002001613b45565b505460801c90565b61530e919250614860565b90386152df565b90916020823d8211615342575b8161532f60209383613e65565b81010312610224575051906152e56152b2565b3d9150615322565b6040513d6000823e3d90fd5b73ffffffffffffffffffffffffffffffffffffffff16600052600660205260036040600020018054907fffffffffffffffffffffffffffffffffffffffffffffffffffffffffffffffff820191821161413d576fffffffffffffffffffffffffffffffff916153c491613b45565b50541690565b604051906153d782613e48565b816101a0600091828152826020820152826040820152606080820152606060808201528260a08201528260c08201528260e0820152826101008201528261012082015282610140820152606061016082015260606101808201520152565b602081830312610f5f5780519067ffffffffffffffff8211610f5f570181601f82011215610f5f57805161546881614052565b926154766040519485613e65565b81845260208284010111610f5f57613f5d9160208085019101613b5d565b61549c6153ca565b5073ffffffffffffffffffffffffffffffffffffffff8116600052600660205260406000206155456003604051926154d384613df4565b64ffffffffff815473ffffffffffffffffffffffffffffffffffffffff8116865261ffff808260a01c1660208801528160b01c16604087015260c01c16606085015273ffffffffffffffffffffffffffffffffffffffff6001820154166080850152600281015460a085015201614fe9565b60c082015273ffffffffffffffffffffffffffffffffffffffff6080820151169073ffffffffffffffffffffffffffffffffffffffff81511691604051917f313ce56700000000000000000000000000000000000000000000000000000000835260208360048173ffffffffffffffffffffffffffffffffffffffff89165afa92831561534a576000936159a5575b506040517f95d89b4100000000000000000000000000000000000000000000000000000000815260008160048173ffffffffffffffffffffffffffffffffffffffff8a165afa90811561534a5760009161598a575b506040517f06fdde0300000000000000000000000000000000000000000000000000000000815260008160048173ffffffffffffffffffffffffffffffffffffffff8b165afa90811561534a5760009161596f575b5064ffffffffff6060840151166040517f18160ddd00000000000000000000000000000000000000000000000000000000815260208160048173ffffffffffffffffffffffffffffffffffffffff8d165afa90811561534a5760009161593d575b506fffffffffffffffffffffffffffffffff81116159055761570089615356565b9161570a8a61525c565b9373ffffffffffffffffffffffffffffffffffffffff60808801511695604051997f313ce567000000000000000000000000000000000000000000000000000000008b5260208b6004818d5afa98891561534a5760049b60009a6158e4575b5060008b6040519d8e80927f95d89b410000000000000000000000000000000000000000000000000000000082525afa9a8b1561534a5760049c60009c6158c5575b506000906040519d8e80927f06fdde030000000000000000000000000000000000000000000000000000000082525afa9b8c1561534a5760009c61589d575b5060a001519b6040519d8e916157ff83613e48565b825273ffffffffffffffffffffffffffffffffffffffff16906020015260ff1660408d015260608c015260808b015260a08a01526fffffffffffffffffffffffffffffffff1660c08901526fffffffffffffffffffffffffffffffff1660e08801526fffffffffffffffffffffffffffffffff1661010087015261012086015260ff166101408501526101608401526101808301526101a082015290565b60a0919c506158be903d806000833e6158b68183613e65565b810190615435565b9b906157ea565b6000919c506158dd903d8084833e6158b68183613e65565b9b906157ab565b6158fe919a5060203d602011611060576110528183613e65565b9838615769565b604490604051907f6dfcc650000000000000000000000000000000000000000000000000000000008252608060048301526024820152fd5b90506020813d602011615967575b8161595860209383613e65565b81010312610f5f5751386156df565b3d915061594b565b61598491503d806000833e6158b68183613e65565b3861567e565b61599f91503d806000833e6158b68183613e65565b38615629565b6159bf91935060203d602011611060576110528183613e65565b91386155d4565b906159d082614fd1565b6159dd6040519182613e65565b8281527fffffffffffffffffffffffffffffffffffffffffffffffffffffffffffffffe0615a0b8294614fd1565b0190602036910137565b6107d09081840291848304148415171561413d57615a9a92615a3e612710604094048096614130565b73ffffffffffffffffffffffffffffffffffffffff9081600094168452600460205281858520931692838552602052615a7b858520918254615067565b9055600154168252600460205282822090825260205220918254615067565b9055565b90615add5750805115615ab357805190602001fd5b60046040517f1425ea42000000000000000000000000000000000000000000000000000000008152fd5b81511580615b35575b615aee575090565b60249073ffffffffffffffffffffffffffffffffffffffff604051917f9996b315000000000000000000000000000000000000000000000000000000008352166004820152fd5b50803b15615ae656fea2646970667358221220a92b5553dd5996e624335521e3d52d7b818ee0867bc0edb8522fff0ece16a4ae64736f6c63430008140033",
  "linkReferences": {},
  "deployedLinkReferences": {}
}