{
  "_format": "hh-sol-artifact-1",
  "contractName": "MCV2_BlastBond",
  "sourceName": "contracts/MCV2_BlastBond.sol",
  "abi": [
    {
      "inputs": [
        {
          "internalType": "address",
          "name": "tokenImplementation",
          "type": "address"
        },
        {
          "internalType": "address",
          "name": "multiTokenImplementation",
          "type": "address"
        },
        {
          "internalType": "address",
          "name": "protocolBeneficiary_",
          "type": "address"
        },
        {
          "internalType": "uint256",
          "name": "creationFee_",
          "type": "uint256"
        },
        {
          "internalType": "uint256",
          "name": "maxSteps",
          "type": "uint256"
        }
      ],
      "stateMutability": "nonpayable",
      "type": "constructor"
    },
    {
      "inputs": [
        {
          "internalType": "address",
          "name": "target",
          "type": "address"
        }
      ],
      "name": "AddressEmptyCode",
      "type": "error"
    },
    {
      "inputs": [
        {
          "internalType": "address",
          "name": "account",
          "type": "address"
        }
      ],
      "name": "AddressInsufficientBalance",
      "type": "error"
    },
    {
      "inputs": [],
      "name": "ERC1167FailedCreateClone",
      "type": "error"
    },
    {
      "inputs": [],
      "name": "FailedInnerCall",
      "type": "error"
    },
    {
      "inputs": [],
      "name": "MCV2_BOND__InvalidPaginationParameters",
      "type": "error"
    },
    {
      "inputs": [],
      "name": "MCV2_Bond__CreationFeeTransactionFailed",
      "type": "error"
    },
    {
      "inputs": [],
      "name": "MCV2_Bond__ExceedMaxSupply",
      "type": "error"
    },
    {
      "inputs": [],
      "name": "MCV2_Bond__ExceedTotalSupply",
      "type": "error"
    },
    {
      "inputs": [
        {
          "internalType": "string",
          "name": "reason",
          "type": "string"
        }
      ],
      "name": "MCV2_Bond__InvalidConstructorParams",
      "type": "error"
    },
    {
      "inputs": [],
      "name": "MCV2_Bond__InvalidCreationFee",
      "type": "error"
    },
    {
      "inputs": [],
      "name": "MCV2_Bond__InvalidCreatorAddress",
      "type": "error"
    },
    {
      "inputs": [],
      "name": "MCV2_Bond__InvalidCurrentSupply",
      "type": "error"
    },
    {
      "inputs": [],
      "name": "MCV2_Bond__InvalidReceiver",
      "type": "error"
    },
    {
      "inputs": [
        {
          "internalType": "string",
          "name": "reason",
          "type": "string"
        }
      ],
      "name": "MCV2_Bond__InvalidReserveToken",
      "type": "error"
    },
    {
      "inputs": [
        {
          "internalType": "string",
          "name": "reason",
          "type": "string"
        }
      ],
      "name": "MCV2_Bond__InvalidStepParams",
      "type": "error"
    },
    {
      "inputs": [],
      "name": "MCV2_Bond__InvalidTokenAmount",
      "type": "error"
    },
    {
      "inputs": [
        {
          "internalType": "string",
          "name": "reason",
          "type": "string"
        }
      ],
      "name": "MCV2_Bond__InvalidTokenCreationParams",
      "type": "error"
    },
    {
      "inputs": [],
      "name": "MCV2_Bond__PermissionDenied",
      "type": "error"
    },
    {
      "inputs": [],
      "name": "MCV2_Bond__SlippageLimitExceeded",
      "type": "error"
    },
    {
      "inputs": [],
      "name": "MCV2_Bond__TokenNotFound",
      "type": "error"
    },
    {
      "inputs": [],
      "name": "MCV2_Bond__TokenSymbolAlreadyExists",
      "type": "error"
    },
    {
      "inputs": [],
      "name": "MCV2_Royalty__InvalidParams",
      "type": "error"
    },
    {
      "inputs": [],
      "name": "MCV2_Royalty__NothingToClaim",
      "type": "error"
    },
    {
      "inputs": [
        {
          "internalType": "address",
          "name": "owner",
          "type": "address"
        }
      ],
      "name": "OwnableInvalidOwner",
      "type": "error"
    },
    {
      "inputs": [
        {
          "internalType": "address",
          "name": "account",
          "type": "address"
        }
      ],
      "name": "OwnableUnauthorizedAccount",
      "type": "error"
    },
    {
      "inputs": [
        {
          "internalType": "uint8",
          "name": "bits",
          "type": "uint8"
        },
        {
          "internalType": "uint256",
          "name": "value",
          "type": "uint256"
        }
      ],
      "name": "SafeCastOverflowedUintDowncast",
      "type": "error"
    },
    {
      "inputs": [
        {
          "internalType": "address",
          "name": "token",
          "type": "address"
        }
      ],
      "name": "SafeERC20FailedOperation",
      "type": "error"
    },
    {
      "anonymous": false,
      "inputs": [
        {
          "indexed": true,
          "internalType": "address",
          "name": "token",
          "type": "address"
        },
        {
          "indexed": true,
          "internalType": "address",
          "name": "creator",
          "type": "address"
        }
      ],
      "name": "BondCreatorUpdated",
      "type": "event"
    },
    {
      "anonymous": false,
      "inputs": [
        {
          "indexed": true,
          "internalType": "address",
          "name": "token",
          "type": "address"
        },
        {
          "indexed": true,
          "internalType": "address",
          "name": "user",
          "type": "address"
        },
        {
          "indexed": false,
          "internalType": "address",
          "name": "receiver",
          "type": "address"
        },
        {
          "indexed": false,
          "internalType": "uint256",
          "name": "amountBurned",
          "type": "uint256"
        },
        {
          "indexed": true,
          "internalType": "address",
          "name": "reserveToken",
          "type": "address"
        },
        {
          "indexed": false,
          "internalType": "uint256",
          "name": "refundAmount",
          "type": "uint256"
        }
      ],
      "name": "Burn",
      "type": "event"
    },
    {
      "anonymous": false,
      "inputs": [
        {
          "indexed": false,
          "internalType": "uint256",
          "name": "amount",
          "type": "uint256"
        }
      ],
      "name": "CreationFeeUpdated",
      "type": "event"
    },
    {
      "anonymous": false,
      "inputs": [
        {
          "indexed": true,
          "internalType": "address",
          "name": "token",
          "type": "address"
        },
        {
          "indexed": true,
          "internalType": "address",
          "name": "user",
          "type": "address"
        },
        {
          "indexed": false,
          "internalType": "address",
          "name": "receiver",
          "type": "address"
        },
        {
          "indexed": false,
          "internalType": "uint256",
          "name": "amountMinted",
          "type": "uint256"
        },
        {
          "indexed": true,
          "internalType": "address",
          "name": "reserveToken",
          "type": "address"
        },
        {
          "indexed": false,
          "internalType": "uint256",
          "name": "reserveAmount",
          "type": "uint256"
        }
      ],
      "name": "Mint",
      "type": "event"
    },
    {
      "anonymous": false,
      "inputs": [
        {
          "indexed": true,
          "internalType": "address",
          "name": "token",
          "type": "address"
        },
        {
          "indexed": false,
          "internalType": "string",
          "name": "name",
          "type": "string"
        },
        {
          "indexed": false,
          "internalType": "string",
          "name": "symbol",
          "type": "string"
        },
        {
          "indexed": false,
          "internalType": "string",
          "name": "uri",
          "type": "string"
        },
        {
          "indexed": true,
          "internalType": "address",
          "name": "reserveToken",
          "type": "address"
        }
      ],
      "name": "MultiTokenCreated",
      "type": "event"
    },
    {
      "anonymous": false,
      "inputs": [
        {
          "indexed": true,
          "internalType": "address",
          "name": "previousOwner",
          "type": "address"
        },
        {
          "indexed": true,
          "internalType": "address",
          "name": "newOwner",
          "type": "address"
        }
      ],
      "name": "OwnershipTransferred",
      "type": "event"
    },
    {
      "anonymous": false,
      "inputs": [
        {
          "indexed": false,
          "internalType": "address",
          "name": "protocolBeneficiary",
          "type": "address"
        }
      ],
      "name": "ProtocolBeneficiaryUpdated",
      "type": "event"
    },
    {
      "anonymous": false,
      "inputs": [
        {
          "indexed": true,
          "internalType": "address",
          "name": "user",
          "type": "address"
        },
        {
          "indexed": false,
          "internalType": "address",
          "name": "reserveToken",
          "type": "address"
        },
        {
          "indexed": false,
          "internalType": "uint256",
          "name": "amount",
          "type": "uint256"
        }
      ],
      "name": "RoyaltyClaimed",
      "type": "event"
    },
    {
      "anonymous": false,
      "inputs": [
        {
          "indexed": false,
          "internalType": "uint256",
          "name": "ratio",
          "type": "uint256"
        }
      ],
      "name": "RoyaltyRangeUpdated",
      "type": "event"
    },
    {
      "anonymous": false,
      "inputs": [
        {
          "indexed": true,
          "internalType": "address",
          "name": "token",
          "type": "address"
        },
        {
          "indexed": false,
          "internalType": "string",
          "name": "name",
          "type": "string"
        },
        {
          "indexed": false,
          "internalType": "string",
          "name": "symbol",
          "type": "string"
        },
        {
          "indexed": true,
          "internalType": "address",
          "name": "reserveToken",
          "type": "address"
        }
      ],
      "name": "TokenCreated",
      "type": "event"
    },
    {
      "inputs": [],
      "name": "BLAST",
      "outputs": [
        {
          "internalType": "contract IBlast",
          "name": "",
          "type": "address"
        }
      ],
      "stateMutability": "view",
      "type": "function"
    },
    {
      "inputs": [],
      "name": "BURN_ADDRESS",
      "outputs": [
        {
          "internalType": "address",
          "name": "",
          "type": "address"
        }
      ],
      "stateMutability": "view",
      "type": "function"
    },
    {
      "inputs": [],
      "name": "USDB",
      "outputs": [
        {
          "internalType": "contract IERC20Rebasing",
          "name": "",
          "type": "address"
        }
      ],
      "stateMutability": "view",
      "type": "function"
    },
    {
      "inputs": [],
      "name": "WETH",
      "outputs": [
        {
          "internalType": "contract IERC20Rebasing",
          "name": "",
          "type": "address"
        }
      ],
      "stateMutability": "view",
      "type": "function"
    },
    {
      "inputs": [
        {
          "internalType": "address",
          "name": "token",
          "type": "address"
        },
        {
          "internalType": "uint256",
          "name": "tokensToBurn",
          "type": "uint256"
        },
        {
          "internalType": "uint256",
          "name": "minRefund",
          "type": "uint256"
        },
        {
          "internalType": "address",
          "name": "receiver",
          "type": "address"
        }
      ],
      "name": "burn",
      "outputs": [
        {
          "internalType": "uint256",
          "name": "",
          "type": "uint256"
        }
      ],
      "stateMutability": "nonpayable",
      "type": "function"
    },
    {
      "inputs": [
        {
          "internalType": "address",
          "name": "reserveToken",
          "type": "address"
        }
      ],
      "name": "burnRoyalties",
      "outputs": [],
      "stateMutability": "nonpayable",
      "type": "function"
    },
    {
      "inputs": [
        {
          "internalType": "address",
          "name": "recipient",
          "type": "address"
        }
      ],
      "name": "claimGas",
      "outputs": [
        {
          "internalType": "uint256",
          "name": "",
          "type": "uint256"
        }
      ],
      "stateMutability": "nonpayable",
      "type": "function"
    },
    {
      "inputs": [
        {
          "internalType": "address",
          "name": "reserveToken",
          "type": "address"
        }
      ],
      "name": "claimRoyalties",
      "outputs": [],
      "stateMutability": "nonpayable",
      "type": "function"
    },
    {
      "inputs": [
        {
          "internalType": "address",
          "name": "tokenAddress",
          "type": "address"
        },
        {
          "internalType": "address",
          "name": "recipient",
          "type": "address"
        }
      ],
      "name": "claimYield",
      "outputs": [
        {
          "internalType": "uint256",
          "name": "claimAmount",
          "type": "uint256"
        }
      ],
      "stateMutability": "nonpayable",
      "type": "function"
    },
    {
      "inputs": [
        {
          "components": [
            {
              "internalType": "string",
              "name": "name",
              "type": "string"
            },
            {
              "internalType": "string",
              "name": "symbol",
              "type": "string"
            },
            {
              "internalType": "string",
              "name": "uri",
              "type": "string"
            }
          ],
          "internalType": "struct MCV2_Bond.MultiTokenParams",
          "name": "tp",
          "type": "tuple"
        },
        {
          "components": [
            {
              "internalType": "uint16",
              "name": "mintRoyalty",
              "type": "uint16"
            },
            {
              "internalType": "uint16",
              "name": "burnRoyalty",
              "type": "uint16"
            },
            {
              "internalType": "address",
              "name": "reserveToken",
              "type": "address"
            },
            {
              "internalType": "uint128",
              "name": "maxSupply",
              "type": "uint128"
            },
            {
              "internalType": "uint128[]",
              "name": "stepRanges",
              "type": "uint128[]"
            },
            {
              "internalType": "uint128[]",
              "name": "stepPrices",
              "type": "uint128[]"
            }
          ],
          "internalType": "struct MCV2_Bond.BondParams",
          "name": "bp",
          "type": "tuple"
        }
      ],
      "name": "createMultiToken",
      "outputs": [
        {
          "internalType": "address",
          "name": "",
          "type": "address"
        }
      ],
      "stateMutability": "payable",
      "type": "function"
    },
    {
      "inputs": [
        {
          "components": [
            {
              "internalType": "string",
              "name": "name",
              "type": "string"
            },
            {
              "internalType": "string",
              "name": "symbol",
              "type": "string"
            }
          ],
          "internalType": "struct MCV2_Bond.TokenParams",
          "name": "tp",
          "type": "tuple"
        },
        {
          "components": [
            {
              "internalType": "uint16",
              "name": "mintRoyalty",
              "type": "uint16"
            },
            {
              "internalType": "uint16",
              "name": "burnRoyalty",
              "type": "uint16"
            },
            {
              "internalType": "address",
              "name": "reserveToken",
              "type": "address"
            },
            {
              "internalType": "uint128",
              "name": "maxSupply",
              "type": "uint128"
            },
            {
              "internalType": "uint128[]",
              "name": "stepRanges",
              "type": "uint128[]"
            },
            {
              "internalType": "uint128[]",
              "name": "stepPrices",
              "type": "uint128[]"
            }
          ],
          "internalType": "struct MCV2_Bond.BondParams",
          "name": "bp",
          "type": "tuple"
        }
      ],
      "name": "createToken",
      "outputs": [
        {
          "internalType": "address",
          "name": "",
          "type": "address"
        }
      ],
      "stateMutability": "payable",
      "type": "function"
    },
    {
      "inputs": [],
      "name": "creationFee",
      "outputs": [
        {
          "internalType": "uint256",
          "name": "",
          "type": "uint256"
        }
      ],
      "stateMutability": "view",
      "type": "function"
    },
    {
      "inputs": [
        {
          "internalType": "address",
          "name": "token",
          "type": "address"
        }
      ],
      "name": "exists",
      "outputs": [
        {
          "internalType": "bool",
          "name": "",
          "type": "bool"
        }
      ],
      "stateMutability": "view",
      "type": "function"
    },
    {
      "inputs": [],
      "name": "getClaimableGas",
      "outputs": [
        {
          "internalType": "uint256",
          "name": "",
          "type": "uint256"
        }
      ],
      "stateMutability": "view",
      "type": "function"
    },
    {
      "inputs": [
        {
          "internalType": "address",
          "name": "tokenAddress",
          "type": "address"
        }
      ],
      "name": "getClaimableYield",
      "outputs": [
        {
          "internalType": "uint256",
          "name": "",
          "type": "uint256"
        }
      ],
      "stateMutability": "view",
      "type": "function"
    },
    {
      "inputs": [
        {
          "internalType": "address",
          "name": "token",
          "type": "address"
        }
      ],
      "name": "getDetail",
      "outputs": [
        {
          "components": [
            {
              "internalType": "uint16",
              "name": "mintRoyalty",
              "type": "uint16"
            },
            {
              "internalType": "uint16",
              "name": "burnRoyalty",
              "type": "uint16"
            },
            {
              "components": [
                {
                  "internalType": "address",
                  "name": "creator",
                  "type": "address"
                },
                {
                  "internalType": "address",
                  "name": "token",
                  "type": "address"
                },
                {
                  "internalType": "uint8",
                  "name": "decimals",
                  "type": "uint8"
                },
                {
                  "internalType": "string",
                  "name": "symbol",
                  "type": "string"
                },
                {
                  "internalType": "string",
                  "name": "name",
                  "type": "string"
                },
                {
                  "internalType": "uint40",
                  "name": "createdAt",
                  "type": "uint40"
                },
                {
                  "internalType": "uint128",
                  "name": "currentSupply",
                  "type": "uint128"
                },
                {
                  "internalType": "uint128",
                  "name": "maxSupply",
                  "type": "uint128"
                },
                {
                  "internalType": "uint128",
                  "name": "priceForNextMint",
                  "type": "uint128"
                },
                {
                  "internalType": "address",
                  "name": "reserveToken",
                  "type": "address"
                },
                {
                  "internalType": "uint8",
                  "name": "reserveDecimals",
                  "type": "uint8"
                },
                {
                  "internalType": "string",
                  "name": "reserveSymbol",
                  "type": "string"
                },
                {
                  "internalType": "string",
                  "name": "reserveName",
                  "type": "string"
                },
                {
                  "internalType": "uint256",
                  "name": "reserveBalance",
                  "type": "uint256"
                }
              ],
              "internalType": "struct MCV2_Bond.BondInfo",
              "name": "info",
              "type": "tuple"
            },
            {
              "components": [
                {
                  "internalType": "uint128",
                  "name": "rangeTo",
                  "type": "uint128"
                },
                {
                  "internalType": "uint128",
                  "name": "price",
                  "type": "uint128"
                }
              ],
              "internalType": "struct MCV2_Bond.BondStep[]",
              "name": "steps",
              "type": "tuple[]"
            }
          ],
          "internalType": "struct MCV2_Bond.BondDetail",
          "name": "detail",
          "type": "tuple"
        }
      ],
      "stateMutability": "view",
      "type": "function"
    },
    {
      "inputs": [
        {
          "internalType": "uint256",
          "name": "start",
          "type": "uint256"
        },
        {
          "internalType": "uint256",
          "name": "stop",
          "type": "uint256"
        }
      ],
      "name": "getList",
      "outputs": [
        {
          "components": [
            {
              "internalType": "address",
              "name": "creator",
              "type": "address"
            },
            {
              "internalType": "address",
              "name": "token",
              "type": "address"
            },
            {
              "internalType": "uint8",
              "name": "decimals",
              "type": "uint8"
            },
            {
              "internalType": "string",
              "name": "symbol",
              "type": "string"
            },
            {
              "internalType": "string",
              "name": "name",
              "type": "string"
            },
            {
              "internalType": "uint40",
              "name": "createdAt",
              "type": "uint40"
            },
            {
              "internalType": "uint128",
              "name": "currentSupply",
              "type": "uint128"
            },
            {
              "internalType": "uint128",
              "name": "maxSupply",
              "type": "uint128"
            },
            {
              "internalType": "uint128",
              "name": "priceForNextMint",
              "type": "uint128"
            },
            {
              "internalType": "address",
              "name": "reserveToken",
              "type": "address"
            },
            {
              "internalType": "uint8",
              "name": "reserveDecimals",
              "type": "uint8"
            },
            {
              "internalType": "string",
              "name": "reserveSymbol",
              "type": "string"
            },
            {
              "internalType": "string",
              "name": "reserveName",
              "type": "string"
            },
            {
              "internalType": "uint256",
              "name": "reserveBalance",
              "type": "uint256"
            }
          ],
          "internalType": "struct MCV2_Bond.BondInfo[]",
          "name": "info",
          "type": "tuple[]"
        }
      ],
      "stateMutability": "view",
      "type": "function"
    },
    {
      "inputs": [
        {
          "internalType": "address",
          "name": "token",
          "type": "address"
        },
        {
          "internalType": "uint256",
          "name": "tokensToBurn",
          "type": "uint256"
        }
      ],
      "name": "getRefundForTokens",
      "outputs": [
        {
          "internalType": "uint256",
          "name": "refundAmount",
          "type": "uint256"
        },
        {
          "internalType": "uint256",
          "name": "royalty",
          "type": "uint256"
        }
      ],
      "stateMutability": "view",
      "type": "function"
    },
    {
      "inputs": [
        {
          "internalType": "address",
          "name": "token",
          "type": "address"
        },
        {
          "internalType": "uint256",
          "name": "tokensToMint",
          "type": "uint256"
        }
      ],
      "name": "getReserveForToken",
      "outputs": [
        {
          "internalType": "uint256",
          "name": "reserveAmount",
          "type": "uint256"
        },
        {
          "internalType": "uint256",
          "name": "royalty",
          "type": "uint256"
        }
      ],
      "stateMutability": "view",
      "type": "function"
    },
    {
      "inputs": [
        {
          "internalType": "address",
          "name": "wallet",
          "type": "address"
        },
        {
          "internalType": "address",
          "name": "reserveToken",
          "type": "address"
        }
      ],
      "name": "getRoyaltyInfo",
      "outputs": [
        {
          "internalType": "uint256",
          "name": "",
          "type": "uint256"
        },
        {
          "internalType": "uint256",
          "name": "",
          "type": "uint256"
        }
      ],
      "stateMutability": "view",
      "type": "function"
    },
    {
      "inputs": [
        {
          "internalType": "address",
          "name": "token",
          "type": "address"
        }
      ],
      "name": "getSteps",
      "outputs": [
        {
          "components": [
            {
              "internalType": "uint128",
              "name": "rangeTo",
              "type": "uint128"
            },
            {
              "internalType": "uint128",
              "name": "price",
              "type": "uint128"
            }
          ],
          "internalType": "struct MCV2_Bond.BondStep[]",
          "name": "",
          "type": "tuple[]"
        }
      ],
      "stateMutability": "view",
      "type": "function"
    },
    {
      "inputs": [
        {
          "internalType": "address",
          "name": "creator",
          "type": "address"
        },
        {
          "internalType": "uint256",
          "name": "start",
          "type": "uint256"
        },
        {
          "internalType": "uint256",
          "name": "stop",
          "type": "uint256"
        }
      ],
      "name": "getTokensByCreator",
      "outputs": [
        {
          "internalType": "address[]",
          "name": "addresses",
          "type": "address[]"
        }
      ],
      "stateMutability": "view",
      "type": "function"
    },
    {
      "inputs": [
        {
          "internalType": "address",
          "name": "reserveToken",
          "type": "address"
        },
        {
          "internalType": "uint256",
          "name": "start",
          "type": "uint256"
        },
        {
          "internalType": "uint256",
          "name": "stop",
          "type": "uint256"
        }
      ],
      "name": "getTokensByReserveToken",
      "outputs": [
        {
          "internalType": "address[]",
          "name": "addresses",
          "type": "address[]"
        }
      ],
      "stateMutability": "view",
      "type": "function"
    },
    {
      "inputs": [],
      "name": "maxRoyaltyRange",
      "outputs": [
        {
          "internalType": "uint256",
          "name": "",
          "type": "uint256"
        }
      ],
      "stateMutability": "view",
      "type": "function"
    },
    {
      "inputs": [
        {
          "internalType": "address",
          "name": "token",
          "type": "address"
        }
      ],
      "name": "maxSupply",
      "outputs": [
        {
          "internalType": "uint128",
          "name": "",
          "type": "uint128"
        }
      ],
      "stateMutability": "view",
      "type": "function"
    },
    {
      "inputs": [
        {
          "internalType": "address",
          "name": "token",
          "type": "address"
        },
        {
          "internalType": "uint256",
          "name": "tokensToMint",
          "type": "uint256"
        },
        {
          "internalType": "uint256",
          "name": "maxReserveAmount",
          "type": "uint256"
        },
        {
          "internalType": "address",
          "name": "receiver",
          "type": "address"
        }
      ],
      "name": "mint",
      "outputs": [
        {
          "internalType": "uint256",
          "name": "",
          "type": "uint256"
        }
      ],
      "stateMutability": "nonpayable",
      "type": "function"
    },
    {
      "inputs": [],
      "name": "owner",
      "outputs": [
        {
          "internalType": "address",
          "name": "",
          "type": "address"
        }
      ],
      "stateMutability": "view",
      "type": "function"
    },
    {
      "inputs": [
        {
          "internalType": "address",
          "name": "token",
          "type": "address"
        }
      ],
      "name": "priceForNextMint",
      "outputs": [
        {
          "internalType": "uint128",
          "name": "",
          "type": "uint128"
        }
      ],
      "stateMutability": "view",
      "type": "function"
    },
    {
      "inputs": [],
      "name": "protocolBeneficiary",
      "outputs": [
        {
          "internalType": "address",
          "name": "",
          "type": "address"
        }
      ],
      "stateMutability": "view",
      "type": "function"
    },
    {
      "inputs": [],
      "name": "renounceOwnership",
      "outputs": [],
      "stateMutability": "nonpayable",
      "type": "function"
    },
    {
      "inputs": [
        {
          "internalType": "address",
          "name": "",
          "type": "address"
        }
      ],
      "name": "tokenBond",
      "outputs": [
        {
          "internalType": "address",
          "name": "creator",
          "type": "address"
        },
        {
          "internalType": "uint16",
          "name": "mintRoyalty",
          "type": "uint16"
        },
        {
          "internalType": "uint16",
          "name": "burnRoyalty",
          "type": "uint16"
        },
        {
          "internalType": "uint40",
          "name": "createdAt",
          "type": "uint40"
        },
        {
          "internalType": "address",
          "name": "reserveToken",
          "type": "address"
        },
        {
          "internalType": "uint256",
          "name": "reserveBalance",
          "type": "uint256"
        }
      ],
      "stateMutability": "view",
      "type": "function"
    },
    {
      "inputs": [],
      "name": "tokenCount",
      "outputs": [
        {
          "internalType": "uint256",
          "name": "",
          "type": "uint256"
        }
      ],
      "stateMutability": "view",
      "type": "function"
    },
    {
      "inputs": [
        {
          "internalType": "uint256",
          "name": "",
          "type": "uint256"
        }
      ],
      "name": "tokens",
      "outputs": [
        {
          "internalType": "address",
          "name": "",
          "type": "address"
        }
      ],
      "stateMutability": "view",
      "type": "function"
    },
    {
      "inputs": [
        {
          "internalType": "address",
          "name": "newOwner",
          "type": "address"
        }
      ],
      "name": "transferOwnership",
      "outputs": [],
      "stateMutability": "nonpayable",
      "type": "function"
    },
    {
      "inputs": [
        {
          "internalType": "address",
          "name": "token",
          "type": "address"
        },
        {
          "internalType": "address",
          "name": "creator",
          "type": "address"
        }
      ],
      "name": "updateBondCreator",
      "outputs": [],
      "stateMutability": "nonpayable",
      "type": "function"
    },
    {
      "inputs": [
        {
          "internalType": "uint256",
          "name": "amount",
          "type": "uint256"
        }
      ],
      "name": "updateCreationFee",
      "outputs": [],
      "stateMutability": "nonpayable",
      "type": "function"
    },
    {
      "inputs": [
        {
          "internalType": "uint256",
          "name": "ratio",
          "type": "uint256"
        }
      ],
      "name": "updateMaxRoyaltyRange",
      "outputs": [],
      "stateMutability": "nonpayable",
      "type": "function"
    },
    {
      "inputs": [
        {
          "internalType": "address",
          "name": "protocolBeneficiary_",
          "type": "address"
        }
      ],
      "name": "updateProtocolBeneficiary",
      "outputs": [],
      "stateMutability": "nonpayable",
      "type": "function"
    },
    {
      "inputs": [
        {
          "internalType": "address",
          "name": "",
          "type": "address"
        },
        {
          "internalType": "address",
          "name": "",
          "type": "address"
        }
      ],
      "name": "userTokenRoyaltyBalance",
      "outputs": [
        {
          "internalType": "uint256",
          "name": "",
          "type": "uint256"
        }
      ],
      "stateMutability": "view",
      "type": "function"
    },
    {
      "inputs": [
        {
          "internalType": "address",
          "name": "",
          "type": "address"
        },
        {
          "internalType": "address",
          "name": "",
          "type": "address"
        }
      ],
      "name": "userTokenRoyaltyClaimed",
      "outputs": [
        {
          "internalType": "uint256",
          "name": "",
          "type": "uint256"
        }
      ],
      "stateMutability": "view",
      "type": "function"
    },
    {
      "inputs": [],
      "name": "version",
      "outputs": [
        {
          "internalType": "string",
          "name": "",
          "type": "string"
        }
      ],
      "stateMutability": "pure",
      "type": "function"
    }
  ],
  "bytecode": "0x60e06040526113886003553480156200001757600080fd5b5060405162005f0738038062005f078339810160408190526200003a91620003d4565b848484848482823380806200006a57604051631e4fbdf760e01b8152600060048201526024015b60405180910390fd5b620000758162000367565b5050600180546001600160a01b0319166001600160a01b039384161790556002558516620000e75760405163643b81d760e01b815260206004820152601360248201527f746f6b656e496d706c656d656e746174696f6e00000000000000000000000000604482015260640162000061565b6001600160a01b038416620001405760405163643b81d760e01b815260206004820152601860248201527f6d756c7469546f6b656e496d706c656d656e746174696f6e0000000000000000604482015260640162000061565b6001600160a01b038316620001995760405163643b81d760e01b815260206004820152601360248201527f70726f746f636f6c42656e656669636961727900000000000000000000000000604482015260640162000061565b80600003620001d75760405163643b81d760e01b81526020600482015260086024820152676d6178537465707360c01b604482015260640162000061565b6001600160a01b0394851660a0529290931660c0525060805250604051631a33757d60e01b815273430000000000000000000000000000000000000390631a33757d906200022b9060029060040162000431565b6020604051808303816000875af11580156200024b573d6000803e3d6000fd5b505050506040513d601f19601f820116820180604052508101906200027191906200045a565b50604051631a33757d60e01b815273430000000000000000000000000000000000000490631a33757d90620002ac9060029060040162000431565b6020604051808303816000875af1158015620002cc573d6000803e3d6000fd5b505050506040513d601f19601f82011682018060405250810190620002f291906200045a565b507343000000000000000000000000000000000000026001600160a01b0316634e606c476040518163ffffffff1660e01b8152600401600060405180830381600087803b1580156200034357600080fd5b505af115801562000358573d6000803e3d6000fd5b50505050505050505062000474565b600080546001600160a01b038381166001600160a01b0319831681178455604051919092169283917f8be0079c531659141344cd1fd0a4f28419497f9722a3daafe3b4186f6b6457e09190a35050565b80516001600160a01b0381168114620003cf57600080fd5b919050565b600080600080600060a08688031215620003ed57600080fd5b620003f886620003b7565b94506200040860208701620003b7565b93506200041860408701620003b7565b6060870151608090970151959894975095949392505050565b60208101600383106200045457634e487b7160e01b600052602160045260246000fd5b91905290565b6000602082840312156200046d57600080fd5b5051919050565b60805160a05160c051615a63620004a46000396000611b6d01526000610d4f015260006136df0152615a636000f3fe6080604052600436106102c65760003560e01c8063995e5f9211610179578063c162c916116100d6578063ec797fc21161008a578063f74bfe8e11610064578063f74bfe8e1461099b578063fb8c13c8146109bb578063fccc2813146109db57600080fd5b8063ec797fc214610900578063f2fde38b14610920578063f6a3d24e1461094057600080fd5b8063cfc55622116100bb578063cfc55622146107ba578063d9fe0eae146107da578063dce0b4e4146108ea57600080fd5b8063c162c9161461077a578063c9cb204b1461079a57600080fd5b8063a746ee2e1161012d578063ac4e967511610112578063ac4e967514610712578063ad5c464814610732578063b633fcba1461075a57600080fd5b8063a746ee2e146106b8578063a9816b08146106e557600080fd5b80639cc7becf1161015e5780639cc7becf146106635780639f181b5e14610683578063a53da0a01461069857600080fd5b8063995e5f92146105fe5780639c65003d1461062b57600080fd5b80637348ed2f1161022757806385396d2b116101db5780638db2a3d3116101c05780638db2a3d31461059457806397d75776146105a9578063990e6005146105d157600080fd5b806385396d2b146105565780638da5cb5b1461056957600080fd5b806376a9864b1161020c57806376a9864b146104ca57806377e456cb146104ff578063840d885d1461051557600080fd5b80637348ed2f1461048a578063763e7da6146104aa57600080fd5b806350801fb11161027e5780635a4d5311116102635780635a4d5311146104355780636fa2379514610455578063715018a61461047557600080fd5b806350801fb1146103a357806354fd4d50146103e957600080fd5b806330be6955116102af57806330be69551461032357806331a0edec1461035b5780634f64b2be1461038357600080fd5b806307e32946146102cb57806327e381a914610301575b600080fd5b3480156102d757600080fd5b506102eb6102e6366004614e6e565b6109f1565b6040516102f89190614ea1565b60405180910390f35b34801561030d57600080fd5b5061032161031c366004614efb565b610c2a565b005b610336610331366004614f2e565b610cf9565b60405173ffffffffffffffffffffffffffffffffffffffff90911681526020016102f8565b34801561036757600080fd5b5061033673430000000000000000000000000000000000000381565b34801561038f57600080fd5b5061033661039e366004614f9a565b6110df565b3480156103af57600080fd5b506103db6103be366004614fb3565b600560209081526000928352604080842090915290825290205481565b6040519081526020016102f8565b3480156103f557600080fd5b50604080518082018252600781527f302e312e31323000000000000000000000000000000000000000000000000000602082015290516102f89190615054565b34801561044157600080fd5b506103db610450366004615067565b611116565b34801561046157600080fd5b50610321610470366004614f9a565b611335565b34801561048157600080fd5b50610321611372565b34801561049657600080fd5b506103216104a5366004614f9a565b611386565b3480156104b657600080fd5b506103216104c5366004614fb3565b6113ff565b3480156104d657600080fd5b506104ea6104e53660046150ad565b611522565b604080519283526020830191909152016102f8565b34801561050b57600080fd5b506103db60035481565b34801561052157600080fd5b50610535610530366004614efb565b6119f1565b6040516fffffffffffffffffffffffffffffffff90911681526020016102f8565b6103366105643660046150d7565b611b17565b34801561057557600080fd5b5060005473ffffffffffffffffffffffffffffffffffffffff16610336565b3480156105a057600080fd5b506103db611d2c565b3480156105b557600080fd5b5061033673430000000000000000000000000000000000000281565b3480156105dd57600080fd5b506001546103369073ffffffffffffffffffffffffffffffffffffffff1681565b34801561060a57600080fd5b5061061e610619366004614efb565b611dc0565b6040516102f89190615172565b34801561063757600080fd5b506103db610646366004614fb3565b600460209081526000928352604080842090915290825290205481565b34801561066f57600080fd5b5061053561067e366004614efb565b611e72565b34801561068f57600080fd5b506007546103db565b3480156106a457600080fd5b506103db6106b3366004614fb3565b611edc565b3480156106c457600080fd5b506106d86106d3366004614efb565b61201b565b6040516102f8919061530e565b3480156106f157600080fd5b5061070561070036600461538a565b61223e565b6040516102f891906153ac565b34801561071e57600080fd5b506104ea61072d366004614fb3565b6123f7565b34801561073e57600080fd5b5061033673430000000000000000000000000000000000000481565b34801561076657600080fd5b506103db610775366004614efb565b61244a565b34801561078657600080fd5b50610321610795366004614efb565b612506565b3480156107a657600080fd5b506104ea6107b53660046150ad565b61264b565b3480156107c657600080fd5b506103216107d5366004614efb565b612ad3565b3480156107e657600080fd5b506108926107f5366004614efb565b60066020526000908152604090208054600182015460029092015473ffffffffffffffffffffffffffffffffffffffff8083169374010000000000000000000000000000000000000000840461ffff90811694760100000000000000000000000000000000000000000000810490911693780100000000000000000000000000000000000000000000000090910464ffffffffff16929091169086565b6040805173ffffffffffffffffffffffffffffffffffffffff978816815261ffff9687166020820152949095169484019490945264ffffffffff919091166060830152909216608083015260a082015260c0016102f8565b3480156108f657600080fd5b506103db60025481565b34801561090c57600080fd5b506103db61091b366004614efb565b612c52565b34801561092c57600080fd5b5061032161093b366004614efb565b612cbf565b34801561094c57600080fd5b5061098b61095b366004614efb565b73ffffffffffffffffffffffffffffffffffffffff90811660009081526006602052604090206001015416151590565b60405190151581526020016102f8565b3480156109a757600080fd5b506103db6109b6366004615067565b612d28565b3480156109c757600080fd5b506102eb6109d6366004614e6e565b612f4f565b3480156109e757600080fd5b5061033661dead81565b60608183101580610a0c5750612710610a0a848461545b565b115b15610a43576040517f891724d600000000000000000000000000000000000000000000000000000000815260040160405180910390fd5b60075480831115610a52578092505b6000845b84811015610adb578673ffffffffffffffffffffffffffffffffffffffff166006600060078481548110610a8c57610a8c61546e565b600091825260208083209091015473ffffffffffffffffffffffffffffffffffffffff90811684529083019390935260409091019020600101541603610ad3578160010191505b600101610a56565b508067ffffffffffffffff811115610af557610af561549d565b604051908082528060200260200182016040528015610b1e578160200160208202803683370190505b5092506000855b85811015610c1f578773ffffffffffffffffffffffffffffffffffffffff166006600060078481548110610b5b57610b5b61546e565b600091825260208083209091015473ffffffffffffffffffffffffffffffffffffffff90811684529083019390935260409091019020600101541603610c175760078181548110610bae57610bae61546e565b6000918252602090912001548551600184019373ffffffffffffffffffffffffffffffffffffffff9092169187918110610bea57610bea61546e565b73ffffffffffffffffffffffffffffffffffffffff90921660209283029190910190910152818314610c1f575b600101610b25565b505050509392505050565b610c32613177565b73ffffffffffffffffffffffffffffffffffffffff8116610c7f576040517f5059b85f00000000000000000000000000000000000000000000000000000000815260040160405180910390fd5b600180547fffffffffffffffffffffffff00000000000000000000000000000000000000001673ffffffffffffffffffffffffffffffffffffffff83169081179091556040519081527fcf7686c0c53a1ab216c4cd81c1bc037136c791a61f30af4a78827c3915766044906020015b60405180910390a150565b60006002543414610d36576040517f3403ce3700000000000000000000000000000000000000000000000000000000815260040160405180910390fd5b610d3f836131ca565b610d48826132b9565b6000610d807f0000000000000000000000000000000000000000000000000000000000000000610d7b60208701876154cc565b6138e5565b90508073ffffffffffffffffffffffffffffffffffffffff8116637029144c610da987806154cc565b610db660208a018a6154cc565b6040518563ffffffff1660e01b8152600401610dd5949392919061557a565b600060405180830381600087803b158015610def57600080fd5b505af1158015610e03573d6000803e3d6000fd5b5050600780546001810182556000919091527fa66cc928b5edb82af9bd49922954155ab7b0942694bea4ce44661d9a8736c6880180547fffffffffffffffffffffffff00000000000000000000000000000000000000001673ffffffffffffffffffffffffffffffffffffffff861617905550610e829050828561399c565b610e926060850160408601614efb565b73ffffffffffffffffffffffffffffffffffffffff9081169083167f6596c1670eb3390048d23721809c3da5d3f531375ac0e2cab0f77a808ed64331610ed888806154cc565b610ee560208b018b6154cc565b604051610ef5949392919061557a565b60405180910390a3610f0a60a08501856155ac565b6000818110610f1b57610f1b61546e565b9050602002016020810190610f309190615614565b6fffffffffffffffffffffffffffffffff1660000361102f5773ffffffffffffffffffffffffffffffffffffffff8116631b5ad8b533610f7360808801886155ac565b6000818110610f8457610f8461546e565b9050602002016020810190610f999190615614565b6040517fffffffff0000000000000000000000000000000000000000000000000000000060e085901b16815273ffffffffffffffffffffffffffffffffffffffff90921660048301526fffffffffffffffffffffffffffffffff166024820152604401600060405180830381600087803b15801561101657600080fd5b505af115801561102a573d6000803e3d6000fd5b505050505b600254156110d55760015460025460405160009273ffffffffffffffffffffffffffffffffffffffff1691908381818185875af1925050503d8060008114611093576040519150601f19603f3d011682016040523d82523d6000602084013e611098565b606091505b50509050806110d3576040517f0d4d59b300000000000000000000000000000000000000000000000000000000815260040160405180910390fd5b505b5090505b92915050565b600781815481106110ef57600080fd5b60009182526020909120015473ffffffffffffffffffffffffffffffffffffffff16905081565b600073ffffffffffffffffffffffffffffffffffffffff8216611165576040517fd9b08f7600000000000000000000000000000000000000000000000000000000815260040160405180910390fd5b600080611172878761264b565b91509150848210156111b0576040517f07728bb000000000000000000000000000000000000000000000000000000000815260040160405180910390fd5b73ffffffffffffffffffffffffffffffffffffffff871660008181526006602052604080822081517ff4efe8f20000000000000000000000000000000000000000000000000000000081523360048201819052602482018c905292519194929363f4efe8f29260448084019382900301818387803b15801561123157600080fd5b505af1158015611245573d6000803e3d6000fd5b5050505082846112559190615646565b826002016000828254611268919061545b565b9091555050815460018301546112989173ffffffffffffffffffffffffffffffffffffffff908116911685613f2b565b600182015473ffffffffffffffffffffffffffffffffffffffff166112be818887613fed565b60018301546040805173ffffffffffffffffffffffffffffffffffffffff8a81168252602082018d905291810188905291811691848216918d16907f80a56de61873550ae491e454783a8dfc9d08a6f8bdace0887eabd4315c4b9da8906060015b60405180910390a4509298975050505050505050565b61133d613177565b60028190556040518181527f88a973fd5506071e0cf878b30898776c47d5250a7ee1e6ee0b36df3b03c7c16a90602001610cee565b61137a613177565b6113846000614073565b565b61138e613177565b6127108111156113ca576040517f5059b85f00000000000000000000000000000000000000000000000000000000815260040160405180910390fd5b60038190556040518181527f21085b3501e0e4fa8e0c825e7ed36b44420471b9f3c5aef447cebe50b2db133d90602001610cee565b73ffffffffffffffffffffffffffffffffffffffff828116600090815260066020526040902080549091163314611462576040517f36a0203800000000000000000000000000000000000000000000000000000000815260040160405180910390fd5b73ffffffffffffffffffffffffffffffffffffffff82166114af576040517f67f61c8200000000000000000000000000000000000000000000000000000000815260040160405180910390fd5b80547fffffffffffffffffffffffff00000000000000000000000000000000000000001673ffffffffffffffffffffffffffffffffffffffff8381169182178355604051908516907f9dcef3aa57f22970dfc6ff519e5421e041cc4153300a7dabe19bffe85e25568890600090a3505050565b73ffffffffffffffffffffffffffffffffffffffff80831660009081526006602052604081206001015490918291859116611589576040517f2d350e9f00000000000000000000000000000000000000000000000000000000815260040160405180910390fd5b836000036115c3576040517fc01ae10500000000000000000000000000000000000000000000000000000000815260040160405180910390fd5b73ffffffffffffffffffffffffffffffffffffffff8086166000908152600660209081526040808320815160e0810183528154808716825261ffff7401000000000000000000000000000000000000000082048116838701527601000000000000000000000000000000000000000000008204168285015264ffffffffff780100000000000000000000000000000000000000000000000090910416606082015260018201549095166080860152600281015460a0860152600381018054835181860281018601909452808452949594919360c08601939290879084015b8282101561170057600084815260209081902060408051808201909152908401546fffffffffffffffffffffffffffffffff808216835270010000000000000000000000000000000090910416818301528252600190920191016116a1565b5050505081525050905060008160c001519050600087905060008173ffffffffffffffffffffffffffffffffffffffff166318160ddd6040518163ffffffff1660e01b8152600401602060405180830381865afa158015611765573d6000803e3d6000fd5b505050506040513d601f19601f820116820180604052508101906117899190615659565b905060006117978983615646565b90506117a28a611e72565b6fffffffffffffffffffffffffffffffff168111156117ed576040517f6b5b0f7c00000000000000000000000000000000000000000000000000000000815260040160405180910390fd5b60008373ffffffffffffffffffffffffffffffffffffffff1663313ce5676040518163ffffffff1660e01b8152600401602060405180830381865afa15801561183a573d6000803e3d6000fd5b505050506040513d601f19601f8201168201806040525081019061185e9190615672565b61186990600a6157b5565b9050896000808061187a8f886140e8565b90505b885181101561197f57600089828151811061189a5761189a61546e565b602002602001015190508781600001516fffffffffffffffffffffffffffffffff166118c6919061545b565b92508483101561193257826000036118de575061196f565b61190981602001516fffffffffffffffffffffffffffffffff168461190391906157c4565b876141a0565b6119139085615646565b935061191f8389615646565b975061192b838661545b565b945061196d565b61195781602001516fffffffffffffffffffffffffffffffff168661190391906157c4565b6119619085615646565b9350600094505061197f565b505b611978816157db565b905061187d565b5081158061198d5750600083115b156119c4576040517fc01ae10500000000000000000000000000000000000000000000000000000000815260040160405180910390fd5b6119d2828a602001516141f0565b9a506119de8b83615646565b9b50505050505050505050509250929050565b6000808273ffffffffffffffffffffffffffffffffffffffff166318160ddd6040518163ffffffff1660e01b8152600401602060405180830381865afa158015611a3f573d6000803e3d6000fd5b505050506040513d601f19601f82011682018060405250810190611a639190615659565b9050611a6e83611e72565b6fffffffffffffffffffffffffffffffff16811015611a9357611a90816157db565b90505b6000611a9f84836140e8565b73ffffffffffffffffffffffffffffffffffffffff8516600090815260066020526040902060030180549192509082908110611add57611add61546e565b60009182526020909120015470010000000000000000000000000000000090046fffffffffffffffffffffffffffffffff16949350505050565b60006002543414611b54576040517f3403ce3700000000000000000000000000000000000000000000000000000000815260040160405180910390fd5b611b5d8361420d565b611b66826132b9565b6000611b997f0000000000000000000000000000000000000000000000000000000000000000610d7b60208701876154cc565b90508073ffffffffffffffffffffffffffffffffffffffff81166341e461a0611bc287806154cc565b611bcf60208a018a6154cc565b611bdc60408c018c6154cc565b6040518763ffffffff1660e01b8152600401611bfd96959493929190615813565b600060405180830381600087803b158015611c1757600080fd5b505af1158015611c2b573d6000803e3d6000fd5b5050600780546001810182556000919091527fa66cc928b5edb82af9bd49922954155ab7b0942694bea4ce44661d9a8736c6880180547fffffffffffffffffffffffff00000000000000000000000000000000000000001673ffffffffffffffffffffffffffffffffffffffff861617905550611caa9050828561399c565b611cba6060850160408601614efb565b73ffffffffffffffffffffffffffffffffffffffff9081169083167f42d30c09380d6b8dbb77d95cae534a5c8fbf778789d87f58030bd74280437071611d0088806154cc565b611d0d60208b018b6154cc565b611d1a60408d018d6154cc565b604051610ef596959493929190615813565b6040517fec3278e80000000000000000000000000000000000000000000000000000000081523060048201526000907343000000000000000000000000000000000000029063ec3278e890602401602060405180830381865afa158015611d97573d6000803e3d6000fd5b505050506040513d601f19601f82011682018060405250810190611dbb9190615659565b905090565b73ffffffffffffffffffffffffffffffffffffffff81166000908152600660209081526040808320600301805482518185028101850190935280835260609492939192909184015b82821015611e6757600084815260209081902060408051808201909152908401546fffffffffffffffffffffffffffffffff80821683527001000000000000000000000000000000009091041681830152825260019092019101611e08565b505050509050919050565b73ffffffffffffffffffffffffffffffffffffffff811660009081526006602052604081206003018054611ea89060019061545b565b81548110611eb857611eb861546e565b6000918252602090912001546fffffffffffffffffffffffffffffffff1692915050565b6000611ee6613177565b6040517fe12f3a61000000000000000000000000000000000000000000000000000000008152306004820152839073ffffffffffffffffffffffffffffffffffffffff82169063e12f3a6190602401602060405180830381865afa158015611f52573d6000803e3d6000fd5b505050506040513d601f19601f82011682018060405250810190611f769190615659565b6040517faad3ec9600000000000000000000000000000000000000000000000000000000815273ffffffffffffffffffffffffffffffffffffffff8581166004830152602482018390529193509082169063aad3ec96906044016020604051808303816000875af1158015611fef573d6000803e3d6000fd5b505050506040513d601f19601f820116820180604052508101906120139190615659565b505092915050565b6120b260408051608080820183526000808352602080840182905284516101c081018652828152908101829052808501829052606080820181905292810183905260a0810182905260c0810182905260e0810182905261010081018290526101208101829052610140810182905261016081018390526101808101929092526101a082015290918201908152602001606081525090565b73ffffffffffffffffffffffffffffffffffffffff8083166000908152600660209081526040808320815160e0810183528154808716825261ffff7401000000000000000000000000000000000000000082048116838701527601000000000000000000000000000000000000000000008204168285015264ffffffffff780100000000000000000000000000000000000000000000000090910416606082015260018201549095166080860152600281015460a0860152600381018054835181860281018601909452808452949594919360c08601939290879084015b828210156121ef57600084815260209081902060408051808201909152908401546fffffffffffffffffffffffffffffffff80821683527001000000000000000000000000000000009091041681830152825260019092019101612190565b505050508152505090506040518060800160405280826020015161ffff168152602001826040015161ffff16815260200161222985614374565b81526020018260c00151815250915050919050565b6060818310158061225957506103e8612257848461545b565b115b15612290576040517f891724d600000000000000000000000000000000000000000000000000000000815260040160405180910390fd5b6007548083111561229f578092505b8383038067ffffffffffffffff8111156122bb576122bb61549d565b60405190808252806020026020018201604052801561237757816020015b604080516101c0810182526000808252602080830182905292820181905260608083018190526080830181905260a0830182905260c0830182905260e0830182905261010083018290526101208301829052610140830182905261016083018190526101808301526101a082015282527fffffffffffffffffffffffffffffffffffffffffffffffffffffffffffffffff9092019101816122d95790505b5092506000855b858110156123ed576123c36007828154811061239c5761239c61546e565b60009182526020909120015473ffffffffffffffffffffffffffffffffffffffff16614374565b85516001840193879181106123da576123da61546e565b602090810291909101015260010161237e565b5050505092915050565b73ffffffffffffffffffffffffffffffffffffffff8083166000818152600460209081526040808320948616808452948252808320549383526005825280832094835293905291909120545b9250929050565b6000612454613177565b6040517f954fa5ee00000000000000000000000000000000000000000000000000000000815230600482015273ffffffffffffffffffffffffffffffffffffffff831660248201527343000000000000000000000000000000000000029063954fa5ee906044016020604051808303816000875af11580156124da573d6000803e3d6000fd5b505050506040513d601f19601f820116820180604052508101906124fe9190615659565b90505b919050565b33600081815260046020908152604080832073ffffffffffffffffffffffffffffffffffffffff8616845290915281205490819003612571576040517fbfa4e44600000000000000000000000000000000000000000000000000000000815260040160405180910390fd5b73ffffffffffffffffffffffffffffffffffffffff80831660008181526004602090815260408083209488168084529482528083208390559282526005815282822093825292909252812080548392906125cc908490615646565b909155506125f3905073ffffffffffffffffffffffffffffffffffffffff84168383613fed565b6040805173ffffffffffffffffffffffffffffffffffffffff8581168252602082018490528416917fd1b893da855ca6a7c9cfbaff142da78c734a39d4811ad711fe7acfd6e5e433a4910160405180910390a2505050565b73ffffffffffffffffffffffffffffffffffffffff808316600090815260066020526040812060010154909182918591166126b2576040517f2d350e9f00000000000000000000000000000000000000000000000000000000815260040160405180910390fd5b836000036126ec576040517fc01ae10500000000000000000000000000000000000000000000000000000000815260040160405180910390fd5b73ffffffffffffffffffffffffffffffffffffffff8086166000908152600660209081526040808320815160e0810183528154808716825261ffff7401000000000000000000000000000000000000000082048116838701527601000000000000000000000000000000000000000000008204168285015264ffffffffff780100000000000000000000000000000000000000000000000090910416606082015260018201549095166080860152600281015460a0860152600381018054835181860281018601909452808452949594919360c08601939290879084015b8282101561282957600084815260209081902060408051808201909152908401546fffffffffffffffffffffffffffffffff808216835270010000000000000000000000000000000090910416818301528252600190920191016127ca565b5050505081525050905060008160c001519050600087905060008173ffffffffffffffffffffffffffffffffffffffff166318160ddd6040518163ffffffff1660e01b8152600401602060405180830381865afa15801561288e573d6000803e3d6000fd5b505050506040513d601f19601f820116820180604052508101906128b29190615659565b9050808811156128ee576040517f4fffb8fa00000000000000000000000000000000000000000000000000000000815260040160405180910390fd5b60008273ffffffffffffffffffffffffffffffffffffffff1663313ce5676040518163ffffffff1660e01b8152600401602060405180830381865afa15801561293b573d6000803e3d6000fd5b505050506040513d601f19601f8201168201806040525081019061295f9190615672565b61296a90600a6157b5565b90506000898161297a8d866140e8565b90505b8115612a6f57600081156129d5578761299760018461545b565b815181106129a7576129a761546e565b6020026020010151600001516fffffffffffffffffffffffffffffffff16866129d0919061545b565b6129d7565b855b905060008184106129e857816129ea565b835b9050858984815181106129ff576129ff61546e565b6020026020010151602001516fffffffffffffffffffffffffffffffff1682612a2891906157c4565b612a32919061585c565b612a3c9086615646565b9450612a48818561545b565b9350612a54818861545b565b96508215612a6857612a6583615897565b92505b505061297d565b8115612aa7576040517fc01ae10500000000000000000000000000000000000000000000000000000000815260040160405180910390fd5b612ab58389604001516141f0565b9950612ac18a8461545b565b9a505050505050505050509250929050565b73ffffffffffffffffffffffffffffffffffffffff811660009081527f42c63635470f1fb1d6d4b6441c413cb435b1ebb6fedd1896dd5e25d1399147dd602052604081205490819003612b52576040517fbfa4e44600000000000000000000000000000000000000000000000000000000815260040160405180910390fd5b73ffffffffffffffffffffffffffffffffffffffff821660009081527f42c63635470f1fb1d6d4b6441c413cb435b1ebb6fedd1896dd5e25d1399147dd602090815260408083208390557f7d509c07f0d4edcc2dd1b53aae68677132eb562dcba78e36381b63ccaf66e6ba90915281208054839290612bd2908490615646565b90915550612bfb905073ffffffffffffffffffffffffffffffffffffffff831661dead83613fed565b6040805173ffffffffffffffffffffffffffffffffffffffff841681526020810183905261dead917fd1b893da855ca6a7c9cfbaff142da78c734a39d4811ad711fe7acfd6e5e433a4910160405180910390a25050565b6040517fe12f3a6100000000000000000000000000000000000000000000000000000000815230600482015260009073ffffffffffffffffffffffffffffffffffffffff83169063e12f3a6190602401602060405180830381865afa1580156124da573d6000803e3d6000fd5b612cc7613177565b73ffffffffffffffffffffffffffffffffffffffff8116612d1c576040517f1e4fbdf7000000000000000000000000000000000000000000000000000000008152600060048201526024015b60405180910390fd5b612d2581614073565b50565b600073ffffffffffffffffffffffffffffffffffffffff8216612d77576040517fd9b08f7600000000000000000000000000000000000000000000000000000000815260040160405180910390fd5b600080612d848787611522565b9150915084821115612dc2576040517f07728bb000000000000000000000000000000000000000000000000000000000815260040160405180910390fd5b73ffffffffffffffffffffffffffffffffffffffff878116600090815260066020526040902060018101549091339116612dfc848661545b565b836002016000828254612e0f9190615646565b909155505082546001840154612e3f9173ffffffffffffffffffffffffffffffffffffffff908116911686613f2b565b6040517f1b5ad8b500000000000000000000000000000000000000000000000000000000815273ffffffffffffffffffffffffffffffffffffffff8881166004830152602482018b90528b1690631b5ad8b590604401600060405180830381600087803b158015612eaf57600080fd5b505af1158015612ec3573d6000803e3d6000fd5b50612eea9250505073ffffffffffffffffffffffffffffffffffffffff82168330886149d5565b60018301546040805173ffffffffffffffffffffffffffffffffffffffff8a81168252602082018d905291810188905291811691848216918d16907f02ed9b10d8b33a6a9fda664247bfd8f6248f74cff85cc84e56b7530c2fce560a9060600161131f565b60608183101580612f6a5750612710612f68848461545b565b115b15612fa1576040517f891724d600000000000000000000000000000000000000000000000000000000815260040160405180910390fd5b60075480831115612fb0578092505b6000845b84811015613036578673ffffffffffffffffffffffffffffffffffffffff166006600060078481548110612fea57612fea61546e565b600091825260208083209091015473ffffffffffffffffffffffffffffffffffffffff9081168452908301939093526040909101902054160361302e578160010191505b600101612fb4565b508067ffffffffffffffff8111156130505761305061549d565b604051908082528060200260200182016040528015613079578160200160208202803683370190505b5092506000855b85811015610c1f578773ffffffffffffffffffffffffffffffffffffffff1660066000600784815481106130b6576130b661546e565b600091825260208083209091015473ffffffffffffffffffffffffffffffffffffffff9081168452908301939093526040909101902054160361316f57600781815481106131065761310661546e565b6000918252602090912001548551600184019373ffffffffffffffffffffffffffffffffffffffff90921691879181106131425761314261546e565b73ffffffffffffffffffffffffffffffffffffffff90921660209283029190910190910152818314610c1f575b600101613080565b60005473ffffffffffffffffffffffffffffffffffffffff163314611384576040517f118cdaa7000000000000000000000000000000000000000000000000000000008152336004820152602401612d13565b6131d481806154cc565b9050600003613241576040517f49d33588000000000000000000000000000000000000000000000000000000008152600401612d139060208082526004908201527f6e616d6500000000000000000000000000000000000000000000000000000000604082015260600190565b61324e60208201826154cc565b9050600003612d25576040517f49d3358800000000000000000000000000000000000000000000000000000000815260206004820152600660248201527f73796d626f6c00000000000000000000000000000000000000000000000000006044820152606401612d13565b6003546132c960208301836158cc565b61ffff161115613335576040517f49d3358800000000000000000000000000000000000000000000000000000000815260206004820152600b60248201527f6d696e74526f79616c74790000000000000000000000000000000000000000006044820152606401612d13565b60035461334860408301602084016158cc565b61ffff1611156133b4576040517f49d3358800000000000000000000000000000000000000000000000000000000815260206004820152600b60248201527f6275726e526f79616c74790000000000000000000000000000000000000000006044820152606401612d13565b60006133c66060830160408401614efb565b905073ffffffffffffffffffffffffffffffffffffffff8116613445576040517f49d3358800000000000000000000000000000000000000000000000000000000815260206004820152600c60248201527f72657365727665546f6b656e00000000000000000000000000000000000000006044820152606401612d13565b613486816040518060400160405280600a81526020017f646563696d616c73282900000000000000000000000000000000000000000000815250601f614a21565b6134ec576040517f59f5822400000000000000000000000000000000000000000000000000000000815260206004820152600860248201527f646563696d616c730000000000000000000000000000000000000000000000006044820152606401612d13565b61352d816040518060400160405280600681526020017f6e616d6528290000000000000000000000000000000000000000000000000000815250605f614a21565b613595576040517f59f58224000000000000000000000000000000000000000000000000000000008152600401612d139060208082526004908201527f6e616d6500000000000000000000000000000000000000000000000000000000604082015260600190565b6135d6816040518060400160405280600881526020017f73796d626f6c2829000000000000000000000000000000000000000000000000815250605f614a21565b61363c576040517f59f5822400000000000000000000000000000000000000000000000000000000815260206004820152600660248201527f73796d626f6c00000000000000000000000000000000000000000000000000006044820152606401612d13565b61364c6080830160608401615614565b6fffffffffffffffffffffffffffffffff166000036136c7576040517f49d3358800000000000000000000000000000000000000000000000000000000815260206004820152600960248201527f6d6178537570706c7900000000000000000000000000000000000000000000006044820152606401612d13565b6136d460808301836155ac565b1590508061370f57507f000000000000000000000000000000000000000000000000000000000000000061370b60808401846155ac565b9050115b15613776576040517f1afd40d600000000000000000000000000000000000000000000000000000000815260206004820152601360248201527f494e56414c49445f535445505f4c454e475448000000000000000000000000006044820152606401612d13565b61378360a08301836155ac565b905061379260808401846155ac565b9050146137fb576040517f1afd40d600000000000000000000000000000000000000000000000000000000815260206004820152601860248201527f535445505f4c454e4754485f444f5f4e4f545f4d4154434800000000000000006044820152606401612d13565b61380b6080830160608401615614565b6fffffffffffffffffffffffffffffffff1661382a60808401846155ac565b600161383960808701876155ac565b61384492915061545b565b8181106138535761385361546e565b90506020020160208101906138689190615614565b6fffffffffffffffffffffffffffffffff16146138e1576040517f1afd40d600000000000000000000000000000000000000000000000000000000815260206004820152601360248201527f4d41585f535550504c595f4d49534d41544348000000000000000000000000006044820152606401612d13565b5050565b6000803084846040516020016138fd939291906158f0565b60405160208183030381529060405280519060200120905060006139218683614b1a565b73ffffffffffffffffffffffffffffffffffffffff8082166000908152600660205260409020600101549192501615613986576040517f358b663800000000000000000000000000000000000000000000000000000000815260040160405180910390fd5b6139908683614b7a565b925050505b9392505050565b73ffffffffffffffffffffffffffffffffffffffff8216600090815260066020908152604090912080547fffffffffffffffffffffffff00000000000000000000000000000000000000001633178155906139f9908301836158cc565b815461ffff9190911674010000000000000000000000000000000000000000027fffffffffffffffffffff0000ffffffffffffffffffffffffffffffffffffffff909116178155613a5060408301602084016158cc565b81547fffffff00000000000000ffffffffffffffffffffffffffffffffffffffffffff1676010000000000000000000000000000000000000000000061ffff92909216919091027fffffff0000000000ffffffffffffffffffffffffffffffffffffffffffffffff161778010000000000000000000000000000000000000000000000004264ffffffffff1602178155613af06060830160408401614efb565b8160010160006101000a81548173ffffffffffffffffffffffffffffffffffffffff021916908373ffffffffffffffffffffffffffffffffffffffff16021790555060008373ffffffffffffffffffffffffffffffffffffffff1663313ce5676040518163ffffffff1660e01b8152600401602060405180830381865afa158015613b7f573d6000803e3d6000fd5b505050506040513d601f19601f82011682018060405250810190613ba39190615672565b613bae90600a6157b5565b905060005b613bc060808501856155ac565b9050811015613f24576000613bd860808601866155ac565b83818110613be857613be861546e565b9050602002016020810190613bfd9190615614565b6fffffffffffffffffffffffffffffffff1690506000613c2060a08701876155ac565b84818110613c3057613c3061546e565b9050602002016020810190613c459190615614565b6fffffffffffffffffffffffffffffffff16905081600003613cc3576040517f1afd40d600000000000000000000000000000000000000000000000000000000815260206004820152601360248201527f535445505f43414e4e4f545f42455f5a45524f000000000000000000000000006044820152606401612d13565b600081118015613cdb575083613cd982846157c4565b105b15613d42576040517f1afd40d600000000000000000000000000000000000000000000000000000000815260206004820152601c60248201527f535445505f52414e475f4f525f50524943455f544f4f5f534d414c4c000000006044820152606401612d13565b8215613eb457613d5560808701876155ac565b613d6060018661545b565b818110613d6f57613d6f61546e565b9050602002016020810190613d849190615614565b6fffffffffffffffffffffffffffffffff168211613dfe576040517f1afd40d600000000000000000000000000000000000000000000000000000000815260206004820152601060248201527f44454352454153494e475f52414e4745000000000000000000000000000000006044820152606401612d13565b613e0b60a08701876155ac565b613e1660018661545b565b818110613e2557613e2561546e565b9050602002016020810190613e3a9190615614565b6fffffffffffffffffffffffffffffffff168111613eb4576040517f1afd40d600000000000000000000000000000000000000000000000000000000815260206004820152601060248201527f44454352454153494e475f5052494345000000000000000000000000000000006044820152606401612d13565b604080518082019091526fffffffffffffffffffffffffffffffff928316815290821660208083019182526003870180546001810182556000918252919020925191518416700100000000000000000000000000000000029190931617910155613f1d816157db565b9050613bb3565b5050505050565b6000612710613f3c6107d0846157c4565b613f46919061585c565b9050613f52818361545b565b73ffffffffffffffffffffffffffffffffffffffff808616600090815260046020908152604080832093881683529290529081208054909190613f96908490615646565b909155505060015473ffffffffffffffffffffffffffffffffffffffff908116600090815260046020908152604080832093871683529290529081208054839290613fe2908490615646565b909155505050505050565b60405173ffffffffffffffffffffffffffffffffffffffff83811660248301526044820183905261406e91859182169063a9059cbb906064015b604051602081830303815290604052915060e01b6020820180517bffffffffffffffffffffffffffffffffffffffffffffffffffffffff8381831617835250505050614c0e565b505050565b6000805473ffffffffffffffffffffffffffffffffffffffff8381167fffffffffffffffffffffffff0000000000000000000000000000000000000000831681178455604051919092169283917f8be0079c531659141344cd1fd0a4f28419497f9722a3daafe3b4186f6b6457e09190a35050565b73ffffffffffffffffffffffffffffffffffffffff82166000908152600660205260408120815b600382015481101561416d578160030181815481106141305761413061546e565b6000918252602090912001546fffffffffffffffffffffffffffffffff16841161415d5791506110d99050565b614166816157db565b905061410f565b506040517fd1ce01ea00000000000000000000000000000000000000000000000000000000815260040160405180910390fd5b6000816000036141bb576141b4828461585c565b90506110d9565b82156141e757816141cd60018561545b565b6141d7919061585c565b6141e2906001615646565b613995565b60009392505050565b600061271061420361ffff8416856157c4565b613995919061585c565b61421781806154cc565b9050600003614284576040517f49d33588000000000000000000000000000000000000000000000000000000008152600401612d139060208082526004908201527f6e616d6500000000000000000000000000000000000000000000000000000000604082015260600190565b61429160208201826154cc565b90506000036142fc576040517f49d3358800000000000000000000000000000000000000000000000000000000815260206004820152600660248201527f73796d626f6c00000000000000000000000000000000000000000000000000006044820152606401612d13565b61430960408201826154cc565b9050600003612d25576040517f49d3358800000000000000000000000000000000000000000000000000000000815260206004820152600360248201527f75726900000000000000000000000000000000000000000000000000000000006044820152606401612d13565b604080516101c08101825260008082526020820181905291810182905260608082018190526080820181905260a0820183905260c0820183905260e0820183905261010082018390526101208201839052610140820183905261016082018190526101808201526101a081019190915273ffffffffffffffffffffffffffffffffffffffff8083166000908152600660209081526040808320815160e0810183528154808716825261ffff7401000000000000000000000000000000000000000082048116838701527601000000000000000000000000000000000000000000008204168285015264ffffffffff780100000000000000000000000000000000000000000000000090910416606082015260018201549095166080860152600281015460a0860152600381018054835181860281018601909452808452889694929360c086019390929190879084015b8282101561452357600084815260209081902060408051808201909152908401546fffffffffffffffffffffffffffffffff808216835270010000000000000000000000000000000090910416818301528252600190920191016144c4565b50505050815250509050600081608001519050604051806101c00160405280836000015173ffffffffffffffffffffffffffffffffffffffff1681526020018673ffffffffffffffffffffffffffffffffffffffff1681526020018473ffffffffffffffffffffffffffffffffffffffff1663313ce5676040518163ffffffff1660e01b8152600401602060405180830381865afa1580156145c9573d6000803e3d6000fd5b505050506040513d601f19601f820116820180604052508101906145ed9190615672565b60ff1681526020018473ffffffffffffffffffffffffffffffffffffffff166395d89b416040518163ffffffff1660e01b8152600401600060405180830381865afa158015614640573d6000803e3d6000fd5b505050506040513d6000823e601f3d9081017fffffffffffffffffffffffffffffffffffffffffffffffffffffffffffffffe0168201604052614686919081019061592f565b81526020018473ffffffffffffffffffffffffffffffffffffffff166306fdde036040518163ffffffff1660e01b8152600401600060405180830381865afa1580156146d6573d6000803e3d6000fd5b505050506040513d6000823e601f3d9081017fffffffffffffffffffffffffffffffffffffffffffffffffffffffffffffffe016820160405261471c919081019061592f565b8152602001836060015164ffffffffff1681526020016147a98573ffffffffffffffffffffffffffffffffffffffff166318160ddd6040518163ffffffff1660e01b8152600401602060405180830381865afa158015614780573d6000803e3d6000fd5b505050506040513d601f19601f820116820180604052508101906147a49190615659565b614ca4565b6fffffffffffffffffffffffffffffffff1681526020016147c987611e72565b6fffffffffffffffffffffffffffffffff1681526020016147e9876119f1565b6fffffffffffffffffffffffffffffffff168152602001836080015173ffffffffffffffffffffffffffffffffffffffff1681526020018273ffffffffffffffffffffffffffffffffffffffff1663313ce5676040518163ffffffff1660e01b8152600401602060405180830381865afa15801561486b573d6000803e3d6000fd5b505050506040513d601f19601f8201168201806040525081019061488f9190615672565b60ff1681526020018273ffffffffffffffffffffffffffffffffffffffff166395d89b416040518163ffffffff1660e01b8152600401600060405180830381865afa1580156148e2573d6000803e3d6000fd5b505050506040513d6000823e601f3d9081017fffffffffffffffffffffffffffffffffffffffffffffffffffffffffffffffe0168201604052614928919081019061592f565b81526020018273ffffffffffffffffffffffffffffffffffffffff166306fdde036040518163ffffffff1660e01b8152600401600060405180830381865afa158015614978573d6000803e3d6000fd5b505050506040513d6000823e601f3d9081017fffffffffffffffffffffffffffffffffffffffffffffffffffffffffffffffe01682016040526149be919081019061592f565b81526020018360a001518152509350505050919050565b60405173ffffffffffffffffffffffffffffffffffffffff8481166024830152838116604483015260648201839052614a1b9186918216906323b872dd90608401614027565b50505050565b604080516004815260248101918290526000918291829173ffffffffffffffffffffffffffffffffffffffff88169190614a5c9088906159ef565b60408051918290039091206020830180517bffffffffffffffffffffffffffffffffffffffffffffffffffffffff167fffffffff0000000000000000000000000000000000000000000000000000000090921691909117905251614ac091906159ef565b600060405180830381855afa9150503d8060008114614afb576040519150601f19603f3d011682016040523d82523d6000602084013e614b00565b606091505b509150915081801561399057505192909211949350505050565b6040513060388201526f5af43d82803e903d91602b57fd5bf3ff602482015260148101839052733d602d80600a3d3981f3363d3d373d3d3d363d738152605881018290526037600c82012060788201526055604390910120600090613995565b6000763d602d80600a3d3981f3363d3d373d3d3d363d730000008360601b60e81c176000526e5af43d82803e903d91602b57fd5bf38360781b1760205281603760096000f5905073ffffffffffffffffffffffffffffffffffffffff81166110d9576040517fc2f868f400000000000000000000000000000000000000000000000000000000815260040160405180910390fd5b6000614c3073ffffffffffffffffffffffffffffffffffffffff841683614cfe565b90508051600014158015614c55575080806020019051810190614c539190615a0b565b155b1561406e576040517f5274afe700000000000000000000000000000000000000000000000000000000815273ffffffffffffffffffffffffffffffffffffffff84166004820152602401612d13565b60006fffffffffffffffffffffffffffffffff821115614cfa576040517f6dfcc6500000000000000000000000000000000000000000000000000000000081526080600482015260248101839052604401612d13565b5090565b606061399583836000846000808573ffffffffffffffffffffffffffffffffffffffff168486604051614d3191906159ef565b60006040518083038185875af1925050503d8060008114614d6e576040519150601f19603f3d011682016040523d82523d6000602084013e614d73565b606091505b5091509150613990868383606082614d8e576141e282614e08565b8151158015614db2575073ffffffffffffffffffffffffffffffffffffffff84163b155b15614e01576040517f9996b31500000000000000000000000000000000000000000000000000000000815273ffffffffffffffffffffffffffffffffffffffff85166004820152602401612d13565b5080613995565b805115614e185780518082602001fd5b6040517f1425ea4200000000000000000000000000000000000000000000000000000000815260040160405180910390fd5b803573ffffffffffffffffffffffffffffffffffffffff8116811461250157600080fd5b600080600060608486031215614e8357600080fd5b614e8c84614e4a565b95602085013595506040909401359392505050565b6020808252825182820181905260009190848201906040850190845b81811015614eef57835173ffffffffffffffffffffffffffffffffffffffff1683529284019291840191600101614ebd565b50909695505050505050565b600060208284031215614f0d57600080fd5b61399582614e4a565b600060c08284031215614f2857600080fd5b50919050565b60008060408385031215614f4157600080fd5b823567ffffffffffffffff80821115614f5957600080fd5b9084019060408287031215614f6d57600080fd5b90925060208401359080821115614f8357600080fd5b50614f9085828601614f16565b9150509250929050565b600060208284031215614fac57600080fd5b5035919050565b60008060408385031215614fc657600080fd5b614fcf83614e4a565b9150614fdd60208401614e4a565b90509250929050565b60005b83811015615001578181015183820152602001614fe9565b50506000910152565b60008151808452615022816020860160208601614fe6565b601f017fffffffffffffffffffffffffffffffffffffffffffffffffffffffffffffffe0169290920160200192915050565b602081526000613995602083018461500a565b6000806000806080858703121561507d57600080fd5b61508685614e4a565b935060208501359250604085013591506150a260608601614e4a565b905092959194509250565b600080604083850312156150c057600080fd5b6150c983614e4a565b946020939093013593505050565b600080604083850312156150ea57600080fd5b823567ffffffffffffffff8082111561510257600080fd5b9084019060608287031215614f6d57600080fd5b600081518084526020808501945080840160005b8381101561516757815180516fffffffffffffffffffffffffffffffff90811689529084015116838801526040909601959082019060010161512a565b509495945050505050565b6020815260006139956020830184615116565b805173ffffffffffffffffffffffffffffffffffffffff16825260006101c060208301516151cb602086018273ffffffffffffffffffffffffffffffffffffffff169052565b5060408301516151e0604086018260ff169052565b5060608301518160608601526151f88286018261500a565b91505060808301518482036080860152615212828261500a565b91505060a083015161522d60a086018264ffffffffff169052565b5060c083015161525160c08601826fffffffffffffffffffffffffffffffff169052565b5060e083015161527560e08601826fffffffffffffffffffffffffffffffff169052565b50610100838101516fffffffffffffffffffffffffffffffff16908501526101208084015173ffffffffffffffffffffffffffffffffffffffff16908501526101408084015160ff169085015261016080840151858303828701526152da838261500a565b9250505061018080840151858303828701526152f6838261500a565b6101a095860151969095019590955250919392505050565b60208152600061ffff8084511660208401528060208501511660408401525060408301516080606084015261534660a0840182615185565b905060608401517fffffffffffffffffffffffffffffffffffffffffffffffffffffffffffffffe08483030160808501526153818282615116565b95945050505050565b6000806040838503121561539d57600080fd5b50508035926020909101359150565b6000602080830181845280855180835260408601915060408160051b870101925083870160005b8281101561541f577fffffffffffffffffffffffffffffffffffffffffffffffffffffffffffffffc088860301845261540d858351615185565b945092850192908501906001016153d3565b5092979650505050505050565b7f4e487b7100000000000000000000000000000000000000000000000000000000600052601160045260246000fd5b818103818111156110d9576110d961542c565b7f4e487b7100000000000000000000000000000000000000000000000000000000600052603260045260246000fd5b7f4e487b7100000000000000000000000000000000000000000000000000000000600052604160045260246000fd5b60008083357fffffffffffffffffffffffffffffffffffffffffffffffffffffffffffffffe184360301811261550157600080fd5b83018035915067ffffffffffffffff82111561551c57600080fd5b60200191503681900382131561244357600080fd5b8183528181602085013750600060208284010152600060207fffffffffffffffffffffffffffffffffffffffffffffffffffffffffffffffe0601f840116840101905092915050565b60408152600061558e604083018688615531565b82810360208401526155a1818587615531565b979650505050505050565b60008083357fffffffffffffffffffffffffffffffffffffffffffffffffffffffffffffffe18436030181126155e157600080fd5b83018035915067ffffffffffffffff8211156155fc57600080fd5b6020019150600581901b360382131561244357600080fd5b60006020828403121561562657600080fd5b81356fffffffffffffffffffffffffffffffff8116811461399557600080fd5b808201808211156110d9576110d961542c565b60006020828403121561566b57600080fd5b5051919050565b60006020828403121561568457600080fd5b815160ff8116811461399557600080fd5b600181815b808511156156ee57817fffffffffffffffffffffffffffffffffffffffffffffffffffffffffffffffff048211156156d4576156d461542c565b808516156156e157918102915b93841c939080029061569a565b509250929050565b600082615705575060016110d9565b81615712575060006110d9565b816001811461572857600281146157325761574e565b60019150506110d9565b60ff8411156157435761574361542c565b50506001821b6110d9565b5060208310610133831016604e8410600b8410161715615771575081810a6110d9565b61577b8383615695565b807fffffffffffffffffffffffffffffffffffffffffffffffffffffffffffffffff048211156157ad576157ad61542c565b029392505050565b600061399560ff8416836156f6565b80820281158282048414176110d9576110d961542c565b60007fffffffffffffffffffffffffffffffffffffffffffffffffffffffffffffffff820361580c5761580c61542c565b5060010190565b60608152600061582760608301888a615531565b828103602084015261583a818789615531565b9050828103604084015261584f818587615531565b9998505050505050505050565b600082615892577f4e487b7100000000000000000000000000000000000000000000000000000000600052601260045260246000fd5b500490565b6000816158a6576158a661542c565b507fffffffffffffffffffffffffffffffffffffffffffffffffffffffffffffffff0190565b6000602082840312156158de57600080fd5b813561ffff8116811461399557600080fd5b7fffffffffffffffffffffffffffffffffffffffff0000000000000000000000008460601b168152818360148301376000910160140190815292915050565b60006020828403121561594157600080fd5b815167ffffffffffffffff8082111561595957600080fd5b818401915084601f83011261596d57600080fd5b81518181111561597f5761597f61549d565b604051601f82017fffffffffffffffffffffffffffffffffffffffffffffffffffffffffffffffe0908116603f011681019083821181831017156159c5576159c561549d565b816040528281528760208487010111156159de57600080fd5b6155a1836020830160208801614fe6565b60008251615a01818460208701614fe6565b9190910192915050565b600060208284031215615a1d57600080fd5b8151801515811461399557600080fdfea26469706673582212209c2978aa2ac07c8601bd241307e6cf3654c911cecfd8423ca10f32e2026f76ec64736f6c63430008140033",
  "linkReferences": {},
  "deployedLinkReferences": {}
}